:040000005DEF00F0C0
:0C000800FACFBCF0FBCFBDF060EF0AF0B7
:10001800D8CF1EF0E8CF1FF0E0CF20F0FACF21F0C4
:10002800FBCF22F0E9CF23F0EACF24F0E1CF25F08F
:10003800E2CF26F0D9CF27F0DACF28F0F3CF29F096
:10004800F4CF2AF0F6CF2BF0F7CF2CF0F8CF2DF025
:10005800F5CF2EF09EA003D09E90E6EC0DF09EAA60
:1000680003D09E9A43EC09F09EB89E982EC0F5FFE7
:100078002DC0F8FF2CC0F7FF2BC0F6FF2AC0F4FFF5
:1000880029C0F3FF28C0DAFF27C0D9FF26C0E2FF46
:1000980025C0E1FF24C0EAFF23C0E9FF22C0FBFF1F
:1000A80021C0FAFF20C0E0FF1FC0E8FF1EC0D8FF34
:1000B80010005CEF0DF00001B16F000E00010001AF
:1000C800BB6F0001B1510001B16F000E00010001CA
:1000D800B66F0001B1510001B16F000E00010001BF
:1000E800BA6F0001B1510001B16F000E00010001AB
:1000F800B96F0001B1510001B16F000E000100019C
:10010800B76F0001B151C6AC29D0C69C000120EEE2
:100118000CF00001CA51D9260001CB51DA22050E94
:10012800DF6E0001B16F010E00010001B76F000121
:10013800B151000120EE0EF00001CA51D92600018C
:10014800CB51DA22DF2A000120EE0DF00001CA515E
:10015800D9260001CB51DA22040EDF6EC7A00AD0DF
:10016800C9CFB8F00001B16F010E00010001BB6FEB
:100178000001B15100010001B767CED1B7D1C7A6C0
:10018800CBD100010001BB5188EC08F0000120EE42
:100198000CF00001CA51D9260001CB51DA22080E11
:1001A800DF62BAD10001B16F000E00010001BB6F20
:1001B8000001B1510001B16F010E00010001B96FDA
:1001C80087D1C7A830D0000120EE0BF00001CA513A
:1001D800D9260001CB51DA22DF2A00010001BB51E8
:1001E800D8B479D1C7BA09D00001B16F010E0001A6
:1001F8000001BA6F0001B1516ED1000120EE0EF07E
:100208000001CA51D9260001CB51DA22DF2A0001A8
:1002180020EE0DF00001CA51D9260001CB51DA2297
:10022800060EDF6E58D100010001BB51D8B474D15D
:10023800000120EE0BF00001CA51D9260001CB5174
:10024800DA22DF2AC7BA19D0C7B40BD0000120EED2
:100258000CF00001CA51D9260001CB51DA22070E51
:1002680076D0000120EE0CF00001CA51D926000119
:10027800CB51DA22080EDF6E1DD1000120EE0EF000
:100288000001CA51D9260001CB51DA22DF2A000128
:1002980020EE0CF00001CA51D9260001CB51DA2218
:1002A800050EDF6E000120EE0DF00001CA51D926BF
:1002B8000001CB51DA22060E4AD0000120EE1AF0D6
:1002C8000001CA51D9260001CB51DA22DF500001C2
:1002D800B16F000120EE19F00001CA51D9260001C2
:1002E800CB51DA22DF500001B15DD8B0F4D0000163
:1002F80020EE1AF00001CA51D9260001CB51DA22AA
:10030800DF500001B16F0001B151010D0F0EF3264E
:10031800000EF422F35000010001CA25D96EF450F2
:1003280000010001CB21DA6EDF50C96E000120EE1A
:100338001AF00001CA51D9260001CB51DA22DF2A6E
:100348000001B16F010E00010001B66FC1D0DF6E70
:10035800E3D0C7A862D0000120EE0BF00001CA511B
:10036800D9260001CB51DA22DF2A00010001BB5156
:10037800D8B44AD0C7AA27D0000120EE0AF000015D
:10038800CA51D9260001CB51DA22DF500001B16FE2
:100398000001B151010DF35000010001CA25D96EC9
:1003A800F45000010001CB21DA6E0001B8C0DFFF74
:1003B800000120EE0AF00001CA51D9260001CB51F4
:1003C800DA22DF2A21D0000120EE0EF00001CA5106
:1003D800D9260001CB51DA22DF2A000120EE0DF0E8
:1003E8000001CA51D9260001CB51DA22060EDF6E70
:1003F800000120EE0CF00001CA51D9260001CB51B2
:10040800DA22050EDF6E67D00001B16F010E000120
:100418000001BA6F0001B1515ED000010001BB516B
:10042800D8B47AD0000120EE0BF00001CA51D926C9
:100438000001CB51DA22DF2AC7AA27D0000120EE1B
:100448000AF00001CA51D9260001CB51DA22DF5047
:100458000001B16F0001B151010DF350000100011D
:10046800CA25D96EF45000010001CB21DA6E0001D3
:10047800B8C0DFFF000120EE0AF00001CA51D926FA
:100488000001CB51DA22DF2A47D0C7A4B6D6000133
:1004980020EE0CF00001CA51D9260001CB51DA2216
:1004A800080EDF6E0001B16F010E00010001BA6F86
:1004B8000001B1510001B16F010E00010001B96FD7
:1004C8000001B1510001B16F000E00010001BB6FC6
:1004D8000001B15121D0000120EE0CF00001CA51F9
:1004E800D9260001CB51DA22050E31D7000120EEC2
:1004F8000CF00001CA51D9260001CB51DA22DF5095
:10050800050AD8B43CD6030AD8B45BD6010AD8B4D5
:1005180020D70F0AD8B4D1D600010001BB6705D097
:1005280000010001B651D8B402D0C6A8C68800019F
:1005380020EE0AF00001CA51D9260001CB51DA2277
:10054800080EDF6424D000010001BA6720D0000142
:1005580020EE0CF00001CA51D9260001CB51DA2255
:10056800050EDF6E000120EE0EF00001CA51D926FB
:100578000001CB51DA22DF2A000120EE0DF0000144
:10058800CA51D9260001CB51DA22070EDF6E0001CD
:100598000001BA51D8B448D0000120EE0BF0000198
:1005A800CA51D9260001CB51DA22000110EE0AF017
:1005B8000001CA51E1260001CB51E222E7500001B7
:1005C800B16F0001B151010DF35000010001CA25BE
:1005D800E16EF45000010001CB21E26EDFCFE7FFAE
:1005E8000001B16F280E00010001AD6F0001B1518B
:1005F80000010001CBC0AFF000010001CAC0AEF09D
:10060800000120EE0AF00001CA51D9260001CB51A1
:10061800DA22DF500001B26F0001B229B0EC0DF010
:10062800000120EE0AF04BD0000120EE0EF0000190
:10063800CA51D9260001CB51DA22DF50D8B447D0AD
:10064800000120EE0EF00001CA51D9260001CB515D
:10065800DA22DF5000010001B36F000120EE0DF037
:100668000001CA51D9260001CB51DA22DF5000011E
:100678000001B46F000120EE0BF00001CA51D92629
:100688000001CB51DA22DF5000010001B56F0001F3
:10069800B16F290E00010001AD6F0001B1510001D9
:1006A800000E00010001AF6F0001B30E0001000150
:1006B800AE6F030EB0EC0DF0000120EE0EF000015D
:1006C800CA51D9260001CB51DA22000EDF6E000193
:1006D8000001B951D8B412000001B16F2A0E00010F
:1006E8000001AD6F0001B15100010001CBC0AFF0B6
:1006F80000010001CAC0AEF0000EB0EC0DF0000120
:10070800B16F000E00010001B96F0001B151120074
:10071800E00ED36E9B8C0201020E01010101A36F52
:100728000201140E01010101A26F3AEC0EF0020160
:10073800020E01010101A36F02011B0E010101015B
:10074800A26F8EEC0BF00201020E01010101A36FF2
:100758000201120E01010101A26F7FEC0EF01EECE6
:100768000BF0000E936E000E8A6E960EFEEC0DF0E6
:100778000101CB6F000E01010101A26F0101CB51F4
:100788009B0E1CEC0DF09F909F9A9F869E0E13EC7B
:100798000EF09D860101CB6F7C0E020102010F6FE6
:1007A8000101CB510101CB6F4D0E020102010E6F09
:1007B8000101CB51020101010EC2A2F101010101A7
:1007C800A36B020102010F51A1EC0AF0B5EC0EF087
:1007D800D6EC09F00201020E01010101BB6F020112
:1007E800190E01010101BA6F0201020E0101010196
:1007F800BD6F0201000E01010101BC6F0A0EDAECA7
:100808000CF0020102011A6F020102011ABF8DD019
:100818007DD00201020E01010101A36F02010B0E3E
:1008280001010101A26F0201010119C2A4F1010134
:100838000101A56B020102011A5101010101A66F14
:100848000101A76B0101A6BFA7070201020E010162
:100858000101A96F0201000E01010101A86F76ECE8
:100868000EF063D000C20DF260D00101CB6F020E12
:10087800020102011A6F0101CB510101CB6F550E24
:1008880002010201006F0101CB510101CB6FAA0ED9
:1008980002010201016F0CD00101CB6F010E0201B0
:1008A80002011A6F0101CB510101CB6F3A0E0ED034
:1008B8000101CB511BD00101CB6F010E02010201D6
:1008C8001A6F0101CB510101CB6FA30E0201020186
:1008D800006FEED7020102010D51A80AD8B4DCD787
:1008E800010AD8B4E8D7030AD8B4BFD70201020E68
:1008F80001010101A36F0201000E01010101A26FB4
:10090800020102011A51FDEC06F00FD002010201AA
:1009180019510A0AD8B47DD7220AD8B4A3D7010A34
:10092800D8B4A0D7030AD8B4D5D70201020E010162
:100938000101BB6F0201190E01010101BA6F020129
:10094800020E01010101BD6F0201000E010101014A
:10095800BC6F0A0EB9EC0CF0020102011A6F020119
:1009680002011ABF35D775D00201020E010101013B
:10097800BD6F0201120E01010101BC6F02010101EC
:1009880019C2BEF101010101BF6B020102011A5136
:1009980001010101C06F0101C16B0101C0BFC107A5
:1009A8000201020E01010101C36F0201000E0101E3
:1009B8000101C26F73EC06F00BD70201020E0101B0
:1009C8000101A46F0201100E01010101A36F0201D0
:1009D800010119C2A5F101010101A66B0201020181
:1009E8001A5101010101A76F0101A86B0101A7BFFD
:1009F800A8070201010100C2A9F101010101AA6BC6
:100A0800C3EC0BF0E5D60201020E01010101A46F4F
:100A18000201100E01010101A36F0201010119C2B7
:100A2800A5F101010101A66B020102011A510101A0
:100A38000101A76F0101A86B0101A7BFA807020167
:100A4800010100C2A9F101010101AA6BC3EC0BF07D
:100A5800BFD60201020119510B0AD8B485D7150A6D
:100A6800D8B4ABD7010AD8B4A8D73F0AD8B4CBD7E3
:100A7800AFD6010120EE35F00101AC51D9260101B4
:100A8800AD51DA22DF5001010101B56F0101010109
:100A9800B5510D0DF35001010101AC250101010112
:100AA800B86FF45001010101AD210101B96F010EC8
:100AB800B8C1D9FFB9C1DAFFDF6274D0010120EEF5
:100AC80001F00101B851D9260101B951DA22DF50EC
:100AD80001010101AE5DD8B002D0FD0E1200010186
:100AE80020EE01F00101B851D9260101B951DA22ED
:100AF800DF500101B36F0101B35101010101B66F6C
:100B08000101B76B01010101B2C1A3F101010101AA
:100B1800B1C1A2F1030E01010101B8250101B36FB2
:100B2800000E01010101B9210101B46FB3C1A4F1A3
:100B3800B4C1A5F1B6C1A6F1B7C1A7F1F3EC0BF0AA
:100B4800010120EE35F00101AC51D9260101AD516A
:100B5800DA22010110EE35F00101AC51E126010164
:100B6800AD51E222E7500101B36F0101B329030B34
:100B7800DF6E010120EE02F00101B851D926010112
:100B8800B951DA22AFC1E1FFB0C1E2FFDFCFE7FF21
:100B9800B8C1D9FFB9C1DAFF000EDF6E010101014A
:100BA800B6511200FC0E1200000120EE35F00001D3
:100BB800A151D9260001A251DA22DF50000100011B
:100BC800AA6F00010001AA510D0DF35000010001A8
:100BD800A12500010001AD6FF45000010001A22120
:100BE8000001AE6F010EADC0D9FFAEC0DAFFDF6203
:100BF80074D0000120EE01F00001AD51D9260001AA
:100C0800AE51DA22DF5000010001A35DD8B002D056
:100C1800FD0E1200000120EE01F00001AD51D926B1
:100C28000001AE51DA22DF500001A86F0001A8517F
:100C380000010001AB6F0001AC6B00010001A7C00F
:100C480098F000010001A6C097F0030E0001000112
:100C5800AD250001A86F000E00010001AE210001C2
:100C6800A96FA8C099F0A9C09AF0ABC09BF0ACC01E
:100C78009CF022EC0CF0000120EE35F00001A151AF
:100C8800D9260001A251DA22000110EE35F0000148
:100C9800A151E1260001A251E222E7500001A86F0C
:100CA8000001A829030BDF6E000120EE02F000010D
:100CB800AD51D9260001AE51DA22A4C0E1FFA5C08A
:100CC800E2FFDFCFE7FFADC0D9FFAEC0DAFF000E0D
:100CD800DF6E00010001AB511200FC0E1200CCC007
:100CE800C9F1CDC0CAF1000E01010101C86F000EA3
:100CF8000101C76FBCC1D9FFBDC1DAFFDE2A000EF2
:100D0800DD22BCC1D9FFBDC1DAFF0101DECFA2F1EE
:100D18000101DDCFA3F1000E01010101A56F060E4F
:100D28000101A46F91EC09F001010101A251050A2A
:100D38000101A311D8A412006DEC0EF0010101010C
:100D4800A2B106D0000E01010101C86F000E05D046
:100D5800000E01010101C86F010E0101C76F1DD00E
:100D68000101C46F000E01010101C96F0101C451E5
:100D78000101C46F000E0BD00101C46FC80E010140
:100D88000101C96F0101C4510101C46F480E01017D
:100D98000101CA6F0101C45113D00101C7C1C4F1D7
:100DA8000101C8C1C5F10101C551000AD8A408D084
:100DB8000101C451000AD8B4D3D7010AD8B4DCD78A
:100DC8000101C46F1F0E01010101B86F0101C45177
:100DD8000101010E01010101BA6F0101C90E0101F2
:100DE8000101B96F020E7AEC0DF001010101C66F25
:100DF8001200E8CFA6F1000120EE19F00001CA5157
:100E0800D9260001CB51DA22000EDF6E42D0000154
:100E180020EE19F00001CA51D9260001CB51DA227F
:100E2800DF500101A46F0101A451010DF35001012C
:100E38000101A225D96EF45001010101A321DA6E46
:100E4800000110EE19F00001CA51E1260001CB5152
:100E5800E222E7500101A56F0101A551010D0F0E16
:100E6800F326000EF422F35000010001CA25E16EBA
:100E7800F45000010001CB21E26EDFCFE7FF000153
:100E880020EE19F00001CA51D9260001CB51DA220F
:100E9800DF2A000120EE19F00001CA51D92600010D
:100EA800CB51DA22DF500101A46F01010101A651E3
:100EB8000101A45DD8A0ABD7000120EE19F0000114
:100EC800CA51D9260001CB51DA220101A6C1DFFFA0
:100ED800000120EE1AF00001CA51D9260001CB51B9
:100EE800DA22010EDF6E000120EE0FF00001CA5178
:100EF800D9260001CB51DA22DF50C96EC68812000C
:100F080001010101AEC1B3F101010101B46B01019D
:100F180020EE34F00101AC51D9260101AD51DA229D
:100F2800DF5001010101B56F01010101B5510D0D3E
:100F3800F35001010101AC2501010101B66FF45024
:100F480001010101AD210101B76FB6C1D9FFB7C1D8
:100F5800DAFFDF50D8B402D0FF0E1200010120EEF4
:100F680001F00101B651D9260101B751DA22010178
:100F7800AEC1DFFF010120EE02F00101B651D92612
:100F88000101B751DA220101AFC1DFFF030E0101F0
:100F98000101B62501010101A26F000E0101010145
:100FA800B7210101A36F01010101B1C1A5F101013F
:100FB8000101B0C1A4F1B3C1A6F1B4C1A7F1F3EC2A
:100FC8000BF0010120EE34F00101AC51D9260101EA
:100FD800AD51DA22010110EE34F00101AC51E126E5
:100FE8000101AD51E222E7500101B26F0101B229BE
:100FF800030BDF6EB6C1D9FFB7C1DAFF010EDF6E92
:10100800010E120000010001A3C0A8F000010001B8
:10101800A96B000120EE34F00001A151D92600018E
:10102800A251DA22DF5000010001AA6F000100017D
:10103800AA510D0DF35000010001A1250001000186
:10104800AB6FF45000010001A2210001AC6FABC0EE
:10105800D9FFACC0DAFFDF50D8B402D0FF0E1200BF
:10106800000120EE01F00001AB51D9260001AC517E
:10107800DA220001A3C0DFFF000120EE02F0000128
:10108800AB51D9260001AC51DA220001A4C0DFFF20
:10109800030E00010001AB2500010001976F000E4F
:1010A80000010001AC210001986F00010001A6C0F9
:1010B8009AF000010001A5C099F0A8C09BF0A9C052
:1010C8009CF022EC0CF0000120EE34F00001A1515C
:1010D800D9260001A251DA22000110EE34F00001F5
:1010E800A151E1260001A251E222E7500001A76FB9
:1010F8000001A729030BDF6EABC0D9FFACC0DAFF34
:10110800010EDF6E010E1200E8CF97F0000120EE0D
:101118000BF00001CA51D9260001CB51DA22010E89
:10112800DF6E000120EE0AF00001CA51D926000145
:10113800CB51DA22000EDF6E000100019751D8B4BE
:101148003DD0C7AA21D0000120EE0CF00001CA5101
:10115800D9260001CB51DA22050EDF6E000120EE00
:101168000EF00001CA51D9260001CB51DA22DF2A3C
:10117800000120EE0DF00001CA51D9260001CB5123
:10118800DA22050EDF6E1200C7A40CD0000120EE93
:101198000CF00001CA51D9260001CB51DA22080E01
:1011A800DF6E1200000120EE0CF00001CA51D926B2
:1011B8000001CB51DA22070EDF6E1200000120EE8B
:1011C8000CF00001CA51D9260001CB51DA22060ED3
:1011D800DF6E12000DC012F0136A20EE34F00B50CF
:1011E800D9260C50DA22DF50146E14500D0DF3502E
:1011F8000B24156EF4500C20166E15C0D9FF16C0BE
:10120800DAFFDF50D8B402D0FF0E120020EE01F052
:101218001550D9261650DA220DC0DFFF20EE02F055
:101228001550D9261650DA220EC0DFFF030E1524FA
:10123800016E000E1620026E10C004F00FC003F0FD
:1012480012C005F013C006F03CEC0DF020EE34F0AF
:101258000B50D9260C50DA2210EE34F00B50E12650
:101268000C50E222E750116E1128030BDF6E15C0F7
:10127800D9FF16C0DAFF010EDF6E010E12009EAA1A
:101288003CD020EE04F02F50D9263050DA22DF501F
:101298001B6E1B50010DF3502F24D96EF4503020D3
:1012A800DA6E49EC0EF0DF6E20EE04F02F50D926EE
:1012B8003050DA22DF2A20EE04F02F50D9263050A1
:1012C800DA22040EDF6219D01B6E200E176E1B5037
:1012D80030C019F02FC018F020EE04F02F50D92696
:1012E8003050DA22DF5027EC0EF020EE04F02F50B9
:1012F800D9263050DA22000EDF6E31A61200AC98E3
:10130800AC881B6E1E0E176E1B50000E196E000E59
:10131800186E000E27EC0EF0120001010101A55114
:10132800A411D8B43AD00101A66F010E0101010140
:10133800A76F0101A65109D0010101010101D8904F
:10134800A437A53701010101A72B01010101A5AFB0
:10135800F3D701010101A45101010101A25D0101BD
:101368000101A55101010101A359D8A00CD0010127
:101378000101A45101010101A25F01010101A5516F
:1013880001010101A35B010101010101D890A5330D
:10139800A43301010101A72FDCD7A2C1A2F1A3C187
:1013A800A3F1120097EC0CF001010101A751010112
:1013B800A611D8B412000101A86F010E00010001A6
:1013C800606F0101A8510101010E01010101A36F24
:1013D80001016C0E01010101A26F95EC0DF00009ED
:1013E800D8B409D00101A86F000E00010001606F98
:1013F8000101A85112000001000E01010101A36FB3
:101408000001610E01010101A26F95EC0DF00009C8
:10141800D8B409D00101A86F000E00010001606F67
:101428000101A85112000A0E58EC0EF0CCD7000E9C
:1014380000010001986F000E0001976FA3EC0EF0F9
:101448000001000E00010001B06F0001B70E00019D
:101458000001AF6F0001000E00010001B26F000132
:10146800B90E00010001B16F020EFBEC0CF0000197
:101478000001B56F0001B66B0001B5BFB6070001EA
:101488000001B551020AB611D8A412000001B46FC8
:101498000A0E00010001AD6F0001B4510001000EF9
:1014A80000010001AF6F0001B90E00010001AE6F2D
:1014B800020EB0EC0DF01200E9CFBEF0EACFBFF09B
:1014C800E1CFC0F0E2CFC1F0D9CFC2F0DACFC3F09C
:1014D800F3CFC4F0F4CFC5F0F6CFC6F0F7CFC7F01E
:1014E800F8CFC8F0F5CFC9F09EA603D09E965FEC62
:1014F80000F0F2A403D0F2941BEC0AF057EC0BF0C6
:10150800C9C0F5FFC8C0F8FFC7C0F7FFC6C0F6FFDF
:10151800C5C0F4FFC4C0F3FFC3C0DAFFC2C0D9FF1F
:10152800C1C0E2FFC0C0E1FFBFC0EAFFBEC0E9FF23
:10153800BDC0FBFFBCC0FAFF1100E8CFA7F1000E49
:10154800AD6E000EAC6E01010101A7B1AD880101BD
:101558000101A7A302D0AD8CAC8C01010101A7B594
:10156800AD8E01010101A7A702D0AC8801D0AC8AD9
:1015780001010101A7B9AD8401010101A7BBAC8636
:1015880001010101A7AD02D09D8A01D09D9A0101F8
:101598000101A7AF02D09D8801D09D98A2C1B0FFDC
:1015A8000101A3C1A4F1A4C1A5F10101A66B010128
:1015B800A5517F6EAD8AAC8E1200010120EE34F089
:1015C8000101A251D9260101A351DA22000EDF6ED2
:1015D800010120EE35F00101A251D9260101A351E4
:1015E800DA22000EDF6E0101A46F000E0101010175
:1015F800A56F0101A451030E01010101A56501D0E8
:10160800120001010101A5510D0DF3500101010165
:10161800A225D96EF45001010101A321DA6E000E52
:10162800DF6E01010101A52B030E01010101A56572
:10163800E8D712000101A66F000E00010001606FDB
:101648000101A6510001000E01010101A36F000173
:10165800610E01010101A26FE1EC0AF00101010E26
:1016680001010101A36F01016C0E01010101A26FCB
:10167800E1EC0AF00101010E01010101A36F010172
:10168800360E01010101A26FE1EC0AF00101010E21
:1016980001010101A36F0101000E01010101A26F07
:1016A800E1EC0AF0120000010001606701D01200AD
:1016B80074EC0CF0000100019A5100019911D8A4B2
:1016C8001200ACEC0EF000010001985100019711D6
:1016D800D8B412000101010E00010001986F010148
:1016E8006C0E00010001976FCBEC0DF00009D8A437
:1016F80012000001000E00010001986F0001610E48
:1017080000010001976FCBEC0DF00009D8B4B9ECDB
:101718000EF0120001010001A3C1CBF0010100018C
:10172800A2C1CAF0000120EE0AF00001CA51D92670
:101738000001CB51DA22000EDF6E000120EE0BF023
:101748000001CA51D9260001CB51DA22000EDF6E02
:10175800000120EE0CF00001CA51D9260001CB513E
:10176800DA22050EDF6E000120EE0EF00001CA51EC
:10177800D9260001CB51DA22000EDF6E12000101DA
:101788000101A5511E0AA611D8B4120001010101D8
:10179800A5511F0AA611D8A40AD0ADA2FED7A9C187
:1017A800D9FFAAC1DAFFDF5063EC0EF01200010185
:1017B8000101A551200AA611D8A4120001010101B6
:1017C800A75101010101A925D96E01010101A85103
:1017D80001010101AA21DA6E000EDF6E120001017B
:1017E8000101A5C1ABF101010101A4C1AAF10101E7
:1017F8000101A3C1A9F101010101A2C1A8F112D0FF
:10180800AAC1D9FFABC1DAFFA8C1E1FFA9C1E2FFB4
:10181800DFCFE7FF01010101AA4BAB2B0101010159
:10182800A84BA92B01010101A607D8A0A707010110
:10183800A629D8B4A729D8B41200E2D7000100011C
:101848009AC0A0F00001000199C09FF000010001BA
:1018580098C09EF00001000197C09DF012D09FC073
:10186800D9FFA0C0DAFF9DC0E1FF9EC0E2FFDFCF35
:10187800E7FF000100019F4BA02B000100019D4BD9
:101888009E2B000100019B07D8A09C0700019B2903
:10189800D8B49C29D8B41200E2D7F2AC08D0000E14
:1018A80001010101A56F000E0101A46F120088EC6F
:1018B8000EF001010101A3510101A211D8B408D011
:1018C800000E01010101A56F000E0101A46F1200B5
:1018D800000E01010101A56F010E0101A46F1200A4
:1018E800F2AC08D0000E000100019A6F000E000152
:1018F800996F1200ACEC0EF0000100019851000144
:101908009711D8B408D0000E000100019A6F000E9C
:101918000001996F1200000E000100019A6F010E7C
:101928000001996F120051EC0CF001010101A55161
:101938000101A411D8A411D088EC0EF00101010115
:10194800A3510101A211D8A408D0000E0101010180
:10195800A76F010E0101A66F1200000E010101011F
:10196800A76F000E0101A66F1200E8CFBEF10001BB
:10197800000E01010101AD6F0001610E01010101BD
:10198800AC6FBEC1AEF101010101BBC1B0F10101F3
:101998000101BAC1AFF101010101BDC1B2F10101FB
:1019A8000101BCC1B1F13DEC05F01200E8CFBEF178
:1019B8000101010E01010101AD6F01016C0E010170
:1019C8000101AC6FBEC1AEF101010101BBC1B0F1B3
:1019D80001010101BAC1AFF101010101BDC1B2F1BB
:1019E80001010101BCC1B1F13DEC05F01200E8CFE5
:1019F800B3F00101010E00010001A26F0101000E08
:101A080000010001A16FB3C0A3F000010001B0C044
:101A1800A5F000010001AFC0A4F000010001B2C0B0
:101A2800A7F000010001B1C0A6F0D8EC05F0120043
:101A3800E8CFA4F101010101A251F30B9A6EA4C1F0
:101A4800A3F17F0E0101A3170101D890A335CD6E34
:101A5800000ECF6E000ECE6E9E9001010101A4AF64
:101A680002D09D8001D09D909ABE9A86CD801200AA
:101A780004C00AF003C009F002C008F001C007F072
:101A88000ED009C0D9FF0AC0DAFF07C0E1FF08C0BD
:101A9800E2FFDFCFE7FF094A0A2A074A082A0506B4
:101AA800D8A006060528D8B40628D8B41200E9D765
:101AB80001EE00F0A20EEE6AE806FDE100EE60F02D
:101AC800370EEE6AE806FDE1316A780EF66E1D0EF5
:101AD800F76E000EF86E0900F5CFCCF00900F5CFCF
:101AE800CDF0000EF86E00018CEF03F0E8CFBBF1EB
:101AF8000001000E01010101AD6F0001610E01013D
:101B08000101AC6FBBC1AEF1B8C1AFF10101010178
:101B1800BAC1B1F101010101B9C1B0F184EC07F01A
:101B28001200010120EE35F00101A251D926010170
:101B3800A351DA22DF500101A46F0101A4510D0D58
:101B4800F35001010101A225D96EF45001010101F0
:101B5800A321DA6EDF501200E8CFB0F00101010EC8
:101B680000010001A26F01016C0E00010001A16FCC
:101B7800B0C0A3F0ADC0A4F000010001AFC0A6F052
:101B880000010001AEC0A5F006EC08F0120000014B
:101B980020EE35F000019751D92600019851DA223C
:101BA800DF500001996F000199510D0DF3500001AC
:101BB80000019725D96EF450000100019821DA6ED2
:101BC800DF50120091EC0EF001C01CF002C01DF0B5
:101BD8001B6E0B0E176E1B50000E196E000E186E42
:101BE800000E27EC0EF0000E026E000E016E9AEC4D
:101BF8000EF01200E8CFA2F101010101A2517F0B02
:101C0800D56E000ED76E000ED66EF294010101015A
:101C1800A2AF02D0F28A01D0F29AD58E1200E8CF94
:101C2800A2F19388938AA2C1C8FF000EC76E000E66
:101C3800C66E000EC56E0E0EC612C78E8188818ACA
:101C4800C580C68A1200E8CF1AF00001000E0C6E9B
:101C58000001610E0B6E1AC00DF017C00EF019C00E
:101C680010F018C00FF0EEEC08F012000101A3C14B
:101C780030F00101A2C12FF020EE04F02F50D92638
:101C88003050DA22000EDF6E1200F20E3116ACACC4
:101C980003D03190ACB03180ACB43184ACB2318671
:101CA800AFCF01F001501200E8CFA2F1FA0E00F018
:101CB800E82EFDD701010101A22FF8D71200E8CFC5
:101CC800A2F1ADAC03D0AD9031B2AD80A2C1AEFFF0
:101CD8001200CECFA4F1CFCFA5F1A4C1A2F1A5C126
:101CE800A3F1120001010101A9C1ABF10101010138
:101CF800A8C1AAF11200A2C1D9FFA3C1DAFF000E40
:101D0800DE6E000EDD6E1200000EF2AE010E010155
:101D18000101A26F0101A36B1200CECF03F0CFCF58
:101D280004F003C001F004C002F0120001C003F087
:101D380002C004F004C0CFFF03C0CEFF120097C05A
:101D480099F098C09AF09AC0D7FF99C0D6FF1200B0
:101D5800000EF2AE010E00010001976F0001986BB2
:101D68001200D08EF28EF28C1200D38E0300120075
:021D7800C84859
:08FFF8008AF795FFF2F9FFF111
:00000001FF
