:0400000060EF00F0BD
:0C000800FACFBCF0FBCFBDF03CEF0BF0DA
:10001800D8CF24F0E8CF25F0E0CF26F0FACF27F0AC
:10002800FBCF28F0E9CF29F0EACF2AF0E1CF2BF077
:10003800E2CF2CF0D9CF2DF0DACF2EF0F3CF2FF07E
:10004800F4CF30F0F6CF31F0F7CF32F0F8CF33F00D
:10005800F5CF34F09EA003D09E90FDEC0EF09EAA42
:1000680003D09E9A1FEC0AF09EB89DA802D0FDEC22
:100078000CF034C0F5FF33C0F8FF32C0F7FF31C0D1
:10008800F6FF30C0F4FF2FC0F3FF2EC0DAFF2DC0FB
:10009800D9FF2CC0E2FF2BC0E1FF2AC0EAFF29C02C
:1000A800E9FF28C0FBFF27C0FAFF26C0E0FF25C0F4
:1000B800E8FF24C0D8FF100065EF0FF00001B16F12
:1000C800000E00010001BB6F0001B1510001B16FCA
:1000D800000E00010001B66F0001B1510001B16FBF
:1000E800000E00010001BA6F0001B1510001B16FAB
:1000F800000E00010001B96F0001B1510001B16F9C
:10010800000E00010001B76F0001B151C6AC29D043
:10011800C69C000120EE0CF00001CB51D92600014D
:10012800CC51DA22050EDF6E0001B16F010E00011D
:100138000001B76F0001B151000120EE0EF000017F
:10014800CB51D9260001CC51DA22DF2A000120EE5A
:100158000DF00001CB51D9260001CC51DA22040E52
:10016800DF6EC7A00AD0C9CFB8F00001B16F010E89
:1001780000010001BB6F0001B15100010001B76728
:10018800CED1B7D1C7A6CBD100010001BB5164ECD9
:1001980009F0000120EE0CF00001CB51D926000136
:1001A800CC51DA22080EDF62BAD10001B16F000E1D
:1001B80000010001BB6F0001B1510001B16F010ED8
:1001C80000010001B96F87D1C7A830D0000120EE27
:1001D8000BF00001CB51D9260001CC51DA22DF2ADD
:1001E80000010001BB51D8B479D1C7BA09D00001C8
:1001F800B16F010E00010001BA6F0001B1516ED15B
:10020800000120EE0EF00001CB51D9260001CC519F
:10021800DA22DF2A000120EE0DF00001CB51D926A9
:100228000001CC51DA22060EDF6E58D10001000120
:10023800BB51D8B474D1000120EE0BF00001CB51B2
:10024800D9260001CC51DA22DF2AC7BA19D0C7B49F
:100258000BD0000120EE0CF00001CB51D926000193
:10026800CC51DA22070E76D0000120EE0CF0000106
:10027800CB51D9260001CC51DA22080EDF6E1DD1F0
:10028800000120EE0EF00001CB51D9260001CC511F
:10029800DA22DF2A000120EE0CF00001CB51D9262A
:1002A8000001CC51DA22050EDF6E000120EE0DF0C0
:1002B8000001CB51D9260001CC51DA22060E4AD0D2
:1002C800000120EE1AF00001CB51D9260001CC51D3
:1002D800DA22DF500001B16F000120EE19F00001B1
:1002E800CB51D9260001CC51DA22DF500001B15D93
:1002F800D8B0F4D0000120EE1AF00001CB51D92675
:100308000001CC51DA22DF500001B16F0001B15178
:10031800010D0F0EF326000EF422F3500001000128
:10032800CB25D96EF45000010001CC21DA6EDF50E4
:10033800C96E000120EE1AF00001CB51D926000148
:10034800CC51DA22DF2A0001B16F010E0001000151
:10035800B66FC1D0DF6EE3D0C7A862D0000120EE2F
:100368000BF00001CB51D9260001CC51DA22DF2A4B
:1003780000010001BB51D8B44AD0C7AA27D0000158
:1003880020EE0AF00001CB51D9260001CC51DA2227
:10039800DF500001B16F0001B151010DF3500001B0
:1003A8000001CB25D96EF45000010001CC21DA6E92
:1003B8000001B8C0DFFF000120EE0AF00001CB51B8
:1003C800D9260001CC51DA22DF2A21D0000120EE03
:1003D8000EF00001CB51D9260001CC51DA22DF2AD8
:1003E800000120EE0DF00001CB51D9260001CC51BF
:1003F800DA22060EDF6E000120EE0CF00001CB5170
:10040800D9260001CC51DA22050EDF6E67D0000133
:10041800B16F010E00010001BA6F0001B1515ED049
:1004280000010001BB51D8B47AD0000120EE0BF0D6
:100438000001CB51D9260001CC51DA22DF2AC7AA04
:1004480027D0000120EE0AF00001CB51D926000187
:10045800CC51DA22DF500001B16F0001B151010D1A
:10046800F35000010001CB25D96EF45000010001C2
:10047800CC21DA6E0001B8C0DFFF000120EE0AF0DF
:100488000001CB51D9260001CC51DA22DF2A47D00E
:10049800C7A4B6D6000120EE0CF00001CB51D92636
:1004A8000001CC51DA22080EDF6E0001B16F010E97
:1004B80000010001BA6F0001B1510001B16F010ED6
:1004C80000010001B96F0001B1510001B16F000EC8
:1004D80000010001BB6F0001B15121D0000120EEE5
:1004E8000CF00001CB51D9260001CC51DA22050EBF
:1004F80031D7000120EE0CF00001CB51D9260001C4
:10050800CC51DA22DF50050AD8B43CD6030AD8B455
:100518005BD6010AD8B420D70F0AD8B4D1D60001C7
:100528000001BB6705D000010001B651D8B402D064
:10053800C6A8C688000120EE0AF00001CB51D926D2
:100548000001CC51DA22080EDF6424D0000100013A
:10055800BA6720D0000120EE0CF00001CB51D9265B
:100568000001CC51DA22050EDF6E000120EE0EF0FC
:100578000001CB51D9260001CC51DA22DF2A000133
:1005880020EE0DF00001CB51D9260001CC51DA2222
:10059800070EDF6E00010001BA51D8B448D000013F
:1005A80020EE0BF00001CB51D9260001CC51DA2204
:1005B800000110EE0AF00001CB51E1260001CC51F8
:1005C800E222E7500001B16F0001B151010DF35073
:1005D80000010001CB25E16EF45000010001CC219F
:1005E800E26EDFCFE7FF0001B16F280E00010001C6
:1005F800AD6F0001B15100010001CCC0AFF00001A6
:100608000001CBC0AEF0000120EE0AF00001CB5192
:10061800D9260001CC51DA22DF500001B26F000167
:10062800B229C7EC0EF0000120EE0AF04BD0000111
:1006380020EE0EF00001CB51D9260001CC51DA2270
:10064800DF50D8B447D0000120EE0EF00001CB51A6
:10065800D9260001CC51DA22DF5000010001B36F26
:10066800000120EE0DF00001CB51D9260001CC513C
:10067800DA22DF5000010001B46F000120EE0BF018
:100688000001CB51D9260001CC51DA22DF500001FC
:100698000001B56F0001B16F290E00010001AD6FB7
:1006A8000001B1510001000E00010001AF6F00010F
:1006B800B30E00010001AE6F030EC7EC0EF000018F
:1006C80020EE0EF00001CB51D9260001CC51DA22E0
:1006D800000EDF6E00010001B951D8B4120000010C
:1006E800B16F2A0E00010001AD6F0001B151000188
:1006F8000001CCC0AFF000010001CBC0AEF0000E8D
:10070800C7EC0EF00001B16F000E00010001B96FD7
:100718000001B1511200E00ED36E9B8C0201020E53
:1007280001010101A36F02011A0E01010101A26F6B
:1007380077EC0FF00201020E01010101A36F020123
:100748002D0E01010101A26F6AEC0CF00201020EEC
:1007580001010101A36F02011F0E01010101A26F36
:1007680057EC0EF00201020E01010101A36F020114
:10077800100E01010101A26FE6EC0FF0FAEC0BF08C
:10078800000E936E000E8A6E960E15EC0FF00101A6
:10079800CE6F000E00010001CA6F0101CE519B0E01
:1007A80017EC0EF00101CE6FEC0E020102010F6F83
:1007B8000101CE510101CE6F4D0E020102010E6FF3
:1007C8000101CE51020101010EC2A2F10101010194
:1007D800A36B020102010F517DEC0BF09F909F9AD1
:1007E8009F989F869E0E2AEC0FF09D86DFEC0FF0F7
:1007F800B2EC0AF00201020E01010101BB6F020115
:100808002B0E01010101BA6F0201020E0101010163
:10081800BD6F0201000E01010101BC6F0A0ED5EC8B
:100828000DF0020102012C6F020102012CBF8DD0D4
:100838007DD00201020E01010101A36F02010B0E1E
:1008480001010101A26F020101012BC2A4F1010102
:100858000101A56B020102012C5101010101A66FE2
:100868000101A76B0101A6BFA7070201020E010142
:100878000101A96F0201000E01010101A86FA9EC95
:100888000FF063D000C20DF260D00101CE6F020EEE
:10089800020102012C6F0101CE510101CE6F550EEC
:1008A80002010201006F0101CE510101CE6FAA0EB3
:1008B80002010201016F0CD00101CE6F010E02018D
:1008C80002012C6F0101CE510101CE6F3A0E0ED0FC
:1008D8000101CE511BD00101CE6F010E02010201B0
:1008E8002C6F0101CE510101CE6FA30E020102014E
:1008F800006FEED7020102010D51A80AD8B4DCD767
:10090800010AD8B4E8D7030AD8B4BFD70201020E47
:1009180001010101A36F0201000E01010101A26F93
:10092800020102012C51FBEC06F00FD0020102017A
:100938002B510A0AD8B47DD7220AD8B4A3D7010A02
:10094800D8B4A0D7030AD8B4D5D70201020E010142
:100958000101BB6F02012B0E01010101BA6F0201F7
:10096800020E01010101BD6F0201000E010101012A
:10097800BC6F0A0EB4EC0DF0020102012C6F0201EB
:1009880002012CBF35D752D00201020E010101012C
:10099800C16F02011F0E01010101C06F02010101B7
:1009A8002BC2C2F101010101C36B020102012C51EA
:1009B80001010101C46F0101C56B0101C4BFC50775
:1009C8000201020E01010101C76F0201000E0101BF
:1009D8000101C66F2AEC05F00BD70201020E0101D6
:1009E8000101BC6F0201100E01010101BB6F020180
:1009F80001012BC2BDF101010101BE6B020102011F
:100A08002C5101010101BF6F0101C06B0101BFBF82
:100A1800C0070201020E01010101C26F0201000EAE
:100A280001010101C16F86EC08F0E2D60201020162
:100A38002B510B0AD8B4A8D7150AD8B4CED7010AB7
:100A4800D8B4CBD73F0AD8B4C8D7D2D6000E010144
:100A58000101CD6F000E0101CC6FC0C1D9FFC1C12A
:100A6800DAFFDE2A000EDD22C0C1D9FFC1C1DAFFDC
:100A78000101DECFA2F10101DDCFA3F1000E0101DA
:100A88000101A56F060E0101A46F6DEC0AF00101CA
:100A98000101A251050A0101A311D8A41200A0EC7A
:100AA8000FF001010101A2B106D0000E0101010100
:100AB800CD6F000E05D0000E01010101CD6F010EB2
:100AC8000101CC6F2DD0010120EE02F00101C051CF
:100AD800D9260101C151DA22000EDF6E010120EE94
:100AE80003F00101C051D9260101C151DA22000EDB
:100AF80015D0010120EE02F00101C051D9260101F3
:100B0800C151DA22C80EDF6E010120EE03F00101A7
:100B1800C051D9260101C151DA224B0EDF6E13D024
:100B28000101CCC1C8F10101CDC1C9F10101C9510F
:100B3800000AD8A408D00101C851000AD8B4C3D704
:100B4800010AD8B4D6D70101C86F020E010101010C
:100B5800CA6F0101C851020E01010101C02501013E
:100B68000101BB6F000E01010101C1210101BC6F30
:100B780001010101CA5170EC0DF001010101CB6FB7
:100B88001200010120EE35F00101AC51D926010116
:100B9800AD51DA22DF5001010101B56F01010101F8
:100BA800B5510D0DF35001010101AC250101010101
:100BB800B86FF45001010101AD210101B96F010EB7
:100BC800B8C1D9FFB9C1DAFFDF6274D0010120EEE4
:100BD80001F00101B851D9260101B951DA22DF50DB
:100BE80001010101AE5DD8B002D0FD0E1200010175
:100BF80020EE01F00101B851D9260101B951DA22DC
:100C0800DF500101B36F0101B35101010101B66F5A
:100C18000101B76B01010101B2C1A3F10101010199
:100C2800B1C1A2F1030E01010101B8250101B36FA1
:100C3800000E01010101B9210101B46FB3C1A4F192
:100C4800B4C1A5F1B6C1A6F1B7C1A7F19FEC0CF0EC
:100C5800010120EE35F00101AC51D9260101AD5159
:100C6800DA22010110EE35F00101AC51E126010153
:100C7800AD51E222E7500101B36F0101B329030B23
:100C8800DF6E010120EE02F00101B851D926010101
:100C9800B951DA22AFC1E1FFB0C1E2FFDFCFE7FF10
:100CA800B8C1D9FFB9C1DAFF000EDF6E0101010139
:100CB800B6511200FC0E1200000120EE35F00001C2
:100CC800A151D9260001A251DA22DF50000100010A
:100CD800AA6F00010001AA510D0DF3500001000197
:100CE800A12500010001AD6FF45000010001A2210F
:100CF8000001AE6F010EADC0D9FFAEC0DAFFDF62F2
:100D080074D0000120EE01F00001AD51D926000198
:100D1800AE51DA22DF5000010001A35DD8B002D045
:100D2800FD0E1200000120EE01F00001AD51D926A0
:100D38000001AE51DA22DF500001A86F0001A8516E
:100D480000010001AB6F0001AC6B00010001A7C0FE
:100D580098F000010001A6C097F0030E0001000101
:100D6800AD250001A86F000E00010001AE210001B1
:100D7800A96FA8C099F0A9C09AF0ABC09BF0ACC00D
:100D88009CF0CEEC0CF0000120EE35F00001A151F2
:100D9800D9260001A251DA22000110EE35F0000137
:100DA800A151E1260001A251E222E7500001A86FFB
:100DB8000001A829030BDF6E000120EE02F00001FC
:100DC800AD51D9260001AE51DA22A4C0E1FFA5C079
:100DD800E2FFDFCFE7FFADC0D9FFAEC0DAFF000EFC
:100DE800DF6E00010001AB511200FC0E1200E8CFCB
:100DF800CAF0000120EE19F00001CB51D9260001FC
:100E0800CC51DA22000EDF6E42D0000120EE19F03C
:100E18000001CB51D9260001CC51DA22DF50010163
:100E2800A46F0101A451010DF35001010101A22594
:100E3800D96EF45001010101A321DA6E000110EE10
:100E480019F00001CB51E1260001CC51E222E75014
:100E58000101A56F0101A551010D0F0EF326000E2A
:100E6800F422F35000010001CB25E16EF45000019B
:100E78000001CC21E26EDFCFE7FF000120EE19F080
:100E88000001CB51D9260001CC51DA22DF2A00011A
:100E980020EE19F00001CB51D9260001CC51DA22FD
:100EA800DF500101A46F00010001CA510101A45DD6
:100EB800D8A0ABD7000120EE19F00001CB51D926FC
:100EC8000001CC51DA220001CAC0DFFF000120EE88
:100ED8001AF00001CB51D9260001CC51DA22010EBB
:100EE800DF6E000120EE0FF00001CB51D926000182
:100EF800CC51DA22DF50C96EC68812000101010107
:100F0800AEC1B2F101010101B36B010120EE34F071
:100F18000101AC51D9260101AD51DA22DF5001019E
:100F28000101B46F01010101B4510D0DF35001012C
:100F38000101AC2501010101B56FF4500101010166
:100F4800AD210101B66FB5C1D9FFB6C1DAFFDF50D7
:100F5800D8B402D0FF0E1200010120EE01F0010109
:100F6800B551D9260101B651DA220101AEC1DFFF20
:100F7800010120EE02F00101B551D9260101B65157
:100F8800DA220101AFC1DFFF030E01010101B5251E
:100F980001010101A26F000E01010101B621010149
:100FA800A36F01010101B1C1A5F101010101B0C1A6
:100FB800A4F1B2C1A6F1B3C1A7F19FEC0CF00101F5
:100FC80020EE34F00101AC51D9260101AD51DA22ED
:100FD800010110EE34F00101AC51E1260101AD51DF
:100FE800E222E7500001CA6F0001CA29030BDF6E35
:100FF800B5C1D9FFB6C1DAFF010EDF6E010E1200CE
:1010080000010001A3C0A8F000010001A96B0001C4
:1010180020EE34F00001A151D9260001A251DA22B4
:10102800DF5000010001AA6F00010001AA510D0D57
:10103800F35000010001A12500010001AB6FF4503D
:1010480000010001A2210001AC6FABC0D9FFACC008
:10105800DAFFDF50D8B402D0FF0E1200000120EEF4
:1010680001F00001AB51D9260001AC51DA22000190
:10107800A3C0DFFF000120EE02F00001AB51D9262A
:101088000001AC51DA220001A4C0DFFF030E000109
:101098000001AB2500010001976F000E000100015F
:1010A800AC210001986F00010001A6C09AF0000170
:1010B8000001A5C099F0A8C09BF0A9C09CF0CEEC97
:1010C8000CF0000120EE34F00001A151D9260001F6
:1010D800A251DA22000110EE34F00001A151E126FC
:1010E8000001A251E222E7500001A76F0001A729E1
:1010F800030BDF6EABC0D9FFACC0DAFF010EDF6EA9
:10110800010E120001010101BD511E0ABE11D8B421
:10111800120001010101BD511F0ABE11D8A44FD010
:10112800000E01010101C56F000E0101C46F000E20
:1011380001010101C56F000E0101C46F0101010128
:10114800C551800A800F0A0ED8B4C45DD8B023D028
:1011580001010101C45101010101C125D96E01013B
:101168000101C55101010101C221DA6E010101012C
:10117800C45101010101BB25E16E01010101C55105
:1011880001010101BC21E26EDFCFE7FF010101018E
:10119800C44BC52BD3D7BDC1B7F101010101BCC1F7
:1011A800B9F101010101BBC1B8F101010101BF5150
:1011B80076EC0EF001010101C36F9D881200010158
:1011C8000101BD51200ABE11D8A41200010101017C
:1011D800BF5101010101C125D96E01010101C051B1
:1011E80001010101C221DA6E000EDF6E120020EE4D
:1011F80035F00B50D9260C50DA22DF50146E1450FB
:101208000D0DF3500B24176EF4500C20186E010EC0
:1012180017C0D9FF18C0DAFFDF6250D020EE01F006
:101228001750D9261850DA22DF500D5CD8B002D0FA
:10123800FD0E120020EE01F01750D9261850DA22C0
:10124800DF50126E1250156E166A11C002F010C0EF
:1012580001F0030E1724126E000E1820136E12C030
:1012680003F013C004F015C005F016C006F037EC03
:101278000EF020EE35F00B50D9260C50DA2210EE85
:1012880035F00B50E1260C50E222E750126E12287E
:10129800030BDF6E20EE02F01750D9261850DA2221
:1012A8000EC0E1FF0FC0E2FFDFCFE7FF17C0D9FF95
:1012B80018C0DAFF000EDF6E15501200FC0E120087
:1012C800E8CF97F0000120EE0BF00001CB51D926B2
:1012D8000001CC51DA22010EDF6E000120EE0AF087
:1012E8000001CB51D9260001CC51DA22000EDF6E65
:1012F800000100019751D8B43DD0C7AA21D0000100
:1013080020EE0CF00001CB51D9260001CC51DA2295
:10131800050EDF6E000120EE0EF00001CB51D9263C
:101328000001CC51DA22DF2A000120EE0DF0000185
:10133800CB51D9260001CC51DA22050EDF6E1200FE
:10134800C7A40CD0000120EE0CF00001CB51D92627
:101358000001CC51DA22080EDF6E1200000120EEE7
:101368000CF00001CB51D9260001CC51DA22070E2E
:10137800DF6E1200000120EE0CF00001CB51D926DF
:101388000001CC51DA22060EDF6E12000DC012F0F9
:10139800136A20EE34F00B50D9260C50DA22DF50B5
:1013A800146E14500D0DF3500B24156EF4500C20D0
:1013B800166E15C0D9FF16C0DAFFDF50D8B402D0B8
:1013C800FF0E120020EE01F01550D9261650DA2231
:1013D8000DC0DFFF20EE02F01550D9261650DA2294
:1013E8000EC0DFFF030E1524016E000E1620026EDC
:1013F80010C004F00FC003F012C005F013C006F0CF
:1014080037EC0EF020EE34F00B50D9260C50DA22CF
:1014180010EE34F00B50E1260C50E222E750116E2A
:101428001128030BDF6E15C0D9FF16C0DAFF010EB5
:10143800DF6E010E12009EAA3CD020EE04F035505B
:10144800D9263650DA22DF501B6E1B50010DF3509F
:101458003524D96EF4503620DA6E86EC0FF0DF6E44
:1014680020EE04F03550D9263650DA22DF2A20EE55
:1014780004F03550D9263650DA22040EDF6219D02E
:101488001B6E200E176E1B5036C019F035C018F0B1
:1014980020EE04F03550D9263650DA22DF5052ECCF
:1014A8000FF020EE04F03550D9263650DA22000E1F
:1014B800DF6E37A61200AC98AC881B6E1E0E176E36
:1014C8001B50000E196E000E186E000E52EC0FF035
:1014D800120001010101A551A411D8B43AD00001AC
:1014E800CA6F010E01010101A66F0001CA5109D09E
:1014F800010101010101D890A437A53701010101BB
:10150800A62B01010101A5AFF3D701010101A451E7
:1015180001010101A25D01010101A55101010101C2
:10152800A359D8A00CD001010101A4510101010166
:10153800A25F01010101A55101010101A35B0101A4
:1015480001010101D890A533A43301010101A62F9F
:10155800DCD7A2C1A2F1A3C1A3F1120092EC0DF055
:1015680001010101A7510101A611D8B4120001011E
:10157800A86F010E00010001606F0101A85101016F
:10158800010E01010101A36F01016C0E01010101AE
:10159800A26FACEC0EF00009D8B409D00101A86F15
:1015A800000E00010001606F0101A8511200000146
:1015B800000E01010101A36F0001610E010101018B
:1015C800A26FACEC0EF00009D8B409D00101A86FE5
:1015D800000E00010001606F0101A85112000A0EFF
:1015E80095EC0FF0CCD7000E00010001986F000EAB
:1015F8000001976FCDEC0FF00001000E0001000113
:10160800B06F0001B70E00010001AF6F0001000EBE
:1016180000010001B26F0001B90E00010001B16FB5
:10162800020EF6EC0DF000010001B56F0001B66B7B
:101638000001B5BFB60700010001B551020AB61195
:10164800D8A412000001B46F0A0E00010001AD6FAA
:101658000001B4510001000E00010001AF6F00014C
:10166800B90E00010001AE6F020EC7EC0EF01200B9
:10167800E9CFBEF0EACFBFF0E1CFC0F0E2CFC1F0D2
:10168800D9CFC2F0DACFC3F0F3CFC4F0F4CFC5F0AE
:10169800F6CFC6F0F7CFC7F0F8CFC8F0F5CFC9F04E
:1016A8009EA603D09E9662EC00F0F2A403D0F294BA
:1016B800F7EC0AF033EC0CF0C9C0F5FFC8C0F8FF2E
:1016C800C7C0F7FFC6C0F6FFC5C0F4FFC4C0F3FF2C
:1016D800C3C0DAFFC2C0D9FFC1C0E2FFC0C0E1FF8A
:1016E800BFC0EAFFBEC0E9FFBDC0FBFFBCC0FAFF38
:1016F8001100E8CFCAF0000EAD6E000EAC6E00010E
:101708000001CAB1AD8800010001CAA302D0AD8CA6
:10171800AC8C00010001CAB5AD8E00010001CAA75A
:1017280002D0AC8801D0AC8A00010001CAB9AD84EE
:1017380000010001CABBAC8600010001CAAD02D09D
:101748009D8A01D09D9A00010001CAAF02D09D88F0
:1017580001D09D98A2C1B0FF0101A3C1A4F1A4C109
:10176800A5F10101A66B0101A5517F6EAD8AAC8E72
:101778001200010120EE34F00101A251D926010125
:10178800A351DA22000EDF6E010120EE35F00101CF
:10179800A251D9260101A351DA22000EDF6E000101
:1017A800CA6F000E01010101A46F0001CA51030EA6
:1017B80001010101A46501D0120001010101A45138
:1017C8000D0DF35001010101A225D96EF45001015C
:1017D8000101A321DA6E000EDF6E01010101A42BC5
:1017E800030E01010101A465E8D712000101A56FEC
:1017F800000E00010001606F0101A5510001000EFB
:1018080001010101A36F0001610E01010101A26F35
:10181800BDEC0BF00101010E01010101A36F0101F3
:101828006C0E01010101A26FBDEC0BF00101010E6C
:1018380001010101A36F0101360E01010101A26F2F
:10184800BDEC0BF00101010E01010101A36F0101C3
:10185800000E01010101A26FBDEC0BF012000001A6
:101868000001606701D012004DEC0DF0000100018D
:101878009A5100019911D8A41200D6EC0FF000017A
:101888000001985100019711D8B412000101010E0E
:1018980000010001986F01016C0E00010001976FB3
:1018A800E2EC0EF00009D8A412000001000E0001BD
:1018B8000001986F0001610E00010001976FE2ECD2
:1018C8000EF00009D8B4E3EC0FF01200010100019A
:1018D800A3C1CCF001010001A2C1CBF0000120EEB0
:1018E8000AF00001CB51D9260001CC51DA22000EB2
:1018F800DF6E000120EE0BF00001CB51D92600016C
:10190800CC51DA22000EDF6E000120EE0CF000014F
:10191800CB51D9260001CC51DA22050EDF6E000129
:1019280020EE0EF00001CB51D9260001CC51DA226D
:10193800000EDF6E120001010101A5C1ABF101012A
:101948000101A4C1AAF101010101A3C1A9F1010189
:101958000101A2C1A8F112D0AAC1D9FFABC1DAFF17
:10196800A8C1E1FFA9C1E2FFDFCFE7FF0101010143
:10197800AA4BAB2B01010101A84BA92B01010101C5
:10198800A607D8A0A7070101A629D8B4A729D8B4C3
:101998001200E2D7000100019AC0A0F00001000186
:1019A80099C09FF00001000198C09EF0000100015D
:1019B80097C09DF012D09FC0D9FFA0C0DAFF9DC08C
:1019C800E1FF9EC0E2FFDFCFE7FF000100019F4B70
:1019D800A02B000100019D4B9E2B000100019B07DD
:1019E800D8A09C0700019B29D8B49C29D8B4120020
:1019F800E2D7000E206E000E1F6E000E1A6E220E29
:101A0800196E20C01CF01FC01BF00A0E3EEC0FF030
:101A1800236E23BE19D01E6E000E216E1E500DD0EF
:101A2800ADA2FED72150010DF3501F24D96EF450FA
:101A38002020DA6EDF50AE6E212A215023BE04D05A
:101A4800FF0A2324D8B0ECD79D981200F2AC08D036
:101A5800000E01010101A56F000E0101A46F120023
:101A6800B2EC0FF001010101A3510101A211D8B498
:101A780008D0000E01010101A56F000E0101A46F3D
:101A88001200000E01010101A56F010E0101A46FF2
:101A98001200F2AC08D0000E000100019A6F000E8F
:101AA8000001996F1200D6EC0FF000010001985167
:101AB80000019711D8B408D0000E000100019A6FF8
:101AC800000E0001996F1200000E000100019A6FCC
:101AD800010E0001996F1200E8CFBEF10101BD6F40
:101AE8001F0E01010101B76F0101BD510101010183
:101AF800BCC1B9F101010101BBC1B8F1010101018A
:101B0800BE5191EC0EF001010101BF6F010101010D
:101B1800BFAF02D0000E1200010E12002AEC0DF029
:101B280001010101A5510101A411D8A411D0B2EC01
:101B38000FF001010101A3510101A211D8A408D09D
:101B4800000E01010101A76F010E0101A66F12002D
:101B5800000E01010101A76F000E0101A66F12001E
:101B6800E8CFCAF00001000E01010101AD6F0001CC
:101B7800610E01010101AC6FCAC0AEF101010101A2
:101B8800BBC1B0F101010101BAC1AFF1010101010D
:101B9800BDC1B2F101010101BCC1B1F1C5EC05F053
:101BA8001200E8CFCAF00101010E01010101AD6F79
:101BB80001016C0E01010101AC6FCAC0AEF1010157
:101BC8000101BBC1B0F101010101BAC1AFF10101CD
:101BD8000101BDC1B2F101010101BCC1B1F1C5EC06
:101BE80005F01200E8CFB3F00101010E0001000179
:101BF800A26F0101000E00010001A16FB3C0A3F0A4
:101C080000010001B0C0A5F000010001AFC0A4F0C0
:101C180000010001B2C0A7F000010001B1C0A6F0A8
:101C280060EC06F01200E8CFA3F100010001CA51F0
:101C3800F30B9A6EA3C1A2F17F0E0101A217010155
:101C4800D890A235CD6E000ECF6E000ECE6E9E904F
:101C580001010101A3AF02D09D8001D09D909ABEE1
:101C68009A86CD80120004C00AF003C009F002C0B1
:101C780008F001C007F00ED009C0D9FF0AC0DAFF8A
:101C880007C0E1FF08C0E2FFDFCFE7FF094A0A2AE1
:101C9800074A082A0506D8A006060528D8B4062843
:101CA800D8B41200E9D7A2C1D9FFA3C1DAFF000E48
:101CB800DE6E000EDD6E010120EE02F00101A25180
:101CC800D9260101A351DA22C80EDF6E010120EEE8
:101CD80003F00101A251D9260101A351DA224B0ECA
:101CE800DF6E1200E8CFBAF10101010E0101010116
:101CF800AD6F0101360E01010101AC6FBAC1AEF141
:101D0800B7C1AFF101010101B9C1B1F1010101018F
:101D1800B8C1B0F182EC07F01200E8CFBAF10001C7
:101D2800000E01010101AD6F0001610E0101010109
:101D3800AC6FBAC1AEF1B7C1AFF101010101B9C1D0
:101D4800B1F101010101B8C1B0F182EC07F0120054
:101D5800010120EE35F00101A251D9260101A3515C
:101D6800DA22DF500001CA6F0001CA510D0DF3508D
:101D780001010101A225D96EF45001010101A3213D
:101D8800DA6EDF501200E8CFB0F00101010E000159
:101D98000001A26F01016C0E00010001A16FB0C02B
:101DA800A3F0ADC0A4F000010001AFC0A6F000018F
:101DB8000001AEC0A5F004EC08F01200000120EE0E
:101DC80035F000019751D92600019851DA22DF50E9
:101DD8000001996F000199510D0DF35000010001A8
:101DE8009725D96EF450000100019821DA6EDF5072
:101DF8001200BBEC0FF001C01CF002C01DF01B6EFE
:101E08000B0E176E1B50000E196E000E186E000E8A
:101E180052EC0FF0000E026E000E016EC4EC0FF0D3
:101E28001200E8CFCAF000010001CA517F0BD56E3D
:101E3800000ED76E000ED66EF29400010001CAAFF4
:101E480002D0F28A01D0F29AD58E1200E8CFCAF0F9
:101E58009388938ACAC0C8FF000EC76E000EC66E6C
:101E6800000EC56E0E0EC612C78E8188818AC58087
:101E7800C68A1200E8CF1DF00101010E0C6E0101A7
:101E8800360E0B6E1DC00DF01AC00FF019C00EF003
:101E9800116A1BC010F0FBEC08F01200E8CF1AF032
:101EA8000001000E0C6E0001610E0B6E1AC00DF0E1
:101EB80017C00EF019C010F018C00FF0CAEC09F0E6
:101EC800120001EE00F0A20EEE6AE806FDE100EE57
:101ED80060F0370EEE6AE806FDE1376A000EF86E2C
:101EE80000018FEF03F00101A3C136F00101A2C187
:101EF80035F020EE04F03550D9263650DA22000E9F
:101F0800DF6E1200F20E3716ACAC03D03790ACB0CF
:101F18003780ACB43784ACB23786AFCF01F001500C
:101F28001200E8CFCAF0FA0E00F0E82EFDD7000143
:101F38000001CA2FF8D71200CECFA4F1CFCFA5F158
:101F4800A4C1A2F1A5C1A3F1120001010101A9C117
:101F5800ABF101010101A8C1AAF11200000EF2AE15
:101F6800010E01010101A26F0101A36B1200CECF86
:101F780003F0CFCF04F003C001F004C002F0120058
:101F880001C003F002C004F004C0CFFF03C0CEFFBD
:101F9800120097C099F098C09AF09AC0D7FF99C0DC
:101FA800D6FF1200000EF2AE010E00010001976F7D
:101FB8000001986B1200D08EF28EF28C1200D38E34
:061FC800030012001200EC
:08FFF8008AF795FFF2F9FFF111
:00000001FF
