:0400000060EF00F0BD
:10000800FACFC5F0FBCFC6F0E9CFC7F0C0EF08F0D4
:10001800D8CF23F0E8CF24F0E0CF25F0FACF26F0B0
:10002800FBCF27F0E9CF28F0EACF29F0E1CF2AF07B
:10003800E2CF2BF0D9CF2CF0DACF2DF0F3CF2EF082
:10004800F4CF2FF0F6CF30F0F7CF31F0F8CF32F011
:10005800F5CF33F09EA003D09E90E0EC0BF09EAA63
:1000680003D09E9A35EC08F09EB89DA802D01FECEC
:100078000AF033C0F5FF32C0F8FF31C0F7FF30C0D7
:10008800F6FF2FC0F4FF2EC0F3FF2DC0DAFF2CC0FF
:10009800D9FF2BC0E2FF2AC0E1FF29C0EAFF28C030
:1000A800E9FF27C0FBFF26C0FAFF25C0E0FF24C0F8
:1000B800E8FF23C0D8FF10000AEF0CF0000E000183
:1000C800C46F000E0001BF6F000E0001C36F000E69
:1000D8000001C26F000E0001C06FC6AC24D0C69CE0
:1000E800000120EE0CF00001E151D9260001E25197
:1000F800DA22050EDF6E010E0001C06F000120EE4E
:100108000EF00001E151D9260001E251DA22DF2A7E
:10011800000120EE0DF00001E151D9260001E25165
:10012800DA22040EDF6EC7A005D0C9CFC1F0010ED8
:100138000001C46F0001C0679FD188D1C7A69CD1B8
:100148000001C451BAEC06F0000120EE0CF00001E9
:10015800E151D9260001E251DA22080EDF628CD182
:10016800000E0001C46F010E0001C26F85D1C7A83F
:100178002AD0000120EE0BF00001E151D926000140
:10018800E251DA22DF2A0001C451D8B454D1C7BAE7
:1001980004D0010E0001C36F4ED1000120EE0EF015
:1001A8000001E151D9260001E251DA22DF2A0001DB
:1001B80020EE0DF00001E151D9260001E251DA22CA
:1001C800060EDF6E38D10001C451D8B455D10001F4
:1001D80020EE0BF00001E151D9260001E251DA22AC
:1001E800DF2AC7BA19D0C7B40BD0000120EE0CF033
:1001F8000001E151D9260001E251DA22070E71D03F
:10020800000120EE0CF00001E151D9260001E25175
:10021800DA22080EDF6E08D1000120EE0EF0000190
:10022800E151D9260001E251DA22DF2A000120EE4D
:100238000CF00001E151D9260001E251DA22050E45
:10024800DF6E000120EE0DF00001E151D92600011A
:10025800E251DA22060E45D0000120EE1AF0000124
:10026800E151D9260001E251DA22DF500001BB6FCB
:10027800000120EE19F00001E151D9260001E251F8
:10028800DA22DF500001BB5DD8B0D5D0000120EEE6
:100298001AF00001E151D9260001E251DA22DF50BB
:1002A8000001BB6F0001BB51010D0F0EF326000EBC
:1002B800F422F3500001E125D96EF4500001E22147
:1002C800DA6EDF50C96E000120EE1AF00001E1512C
:1002D800D9260001E251DA22DF2A010E0001BF6FA0
:1002E800CBD0DF6EC9D0C7A85AD0000120EE0BF0E2
:1002F8000001E151D9260001E251DA22DF2A00018A
:10030800C451D8B448D0C7AA25D0000120EE0AF0BD
:100318000001E151D9260001E251DA22DF50000143
:10032800BB6F0001BB51010DF3500001E125D96EEF
:10033800F4500001E221DA6E0001C1C0DFFF0001C4
:1003480020EE0AF00001E151D9260001E251DA223B
:10035800DF2A21D0000120EE0EF00001E151D9265C
:100368000001E251DA22DF2A000120EE0DF000013F
:10037800E151D9260001E251DA22060EDF6E0001B2
:1003880020EE0CF00001E151D9260001E251DA22F9
:10039800050EDF6E50D0010E0001C36F4CD0000176
:1003A800C451D8B469D0000120EE0BF00001E1512E
:1003B800D9260001E251DA22DF2AC7AA25D0000196
:1003C80020EE0AF00001E151D9260001E251DA22BB
:1003D800DF500001BB6F0001BB51010DF35000015C
:1003E800E125D96EF4500001E221DA6E0001C1C0A6
:1003F800DFFF000120EE0AF00001E151D9260001DB
:10040800E251DA22DF2A38D0C7A4C7D6000120EE8D
:100418000CF00001E151D9260001E251DA22080E60
:10042800DF6E010E0001C36F010E0001C26F000EE6
:100438000001C46F21D0000120EE0CF00001E15151
:10044800D9260001E251DA22050E4BD7000120EE31
:100458000CF00001E151D9260001E251DA22DF5007
:10046800050AD8B46BD6030AD8B481D6010AD8B421
:100478003AD70F0AD8B4F0D60001C46704D00001F7
:10048800BF51D8B402D0C6A8C688000120EE0AF031
:100498000001E151D9260001E251DA22080EDF6499
:1004A80023D00001C36720D0000120EE0CF000012A
:1004B800E151D9260001E251DA22050EDF6E000172
:1004C80020EE0EF00001E151D9260001E251DA22B6
:1004D800DF2A000120EE0DF00001E151D9260001CC
:1004E800E251DA22070EDF6E0001C351D8B43ED0C4
:1004F800000120EE0BF00001E151D9260001E25184
:10050800DA22000110EE0AF00001E151E1260001B3
:10051800E251E222E7500001BB6F0001BB51010D1F
:10052800F3500001E125E16EF4500001E221E26E92
:10053800DFCFE7FF280E456E0001E2C047F000015B
:10054800E1C046F0000120EE0AF00001E151D92691
:100558000001E251DA22DF500001BB6F0001BB2924
:1005680055EC0CF0000120EE0AF03ED0000120EE20
:100578000EF00001E151D9260001E251DA22DF50E4
:10058800D8B43AD0000120EE0EF00001E151D9268E
:100598000001E251DA22DF500001BC6F000120EEB9
:1005A8000DF00001E151D9260001E251DA22DF50B5
:1005B8000001BD6F000120EE0BF00001E151D926CA
:1005C8000001E251DA22DF500001BE6F290E456EAC
:1005D8000001000E476E0001BC0E466E030E55EC7E
:1005E8000CF0000120EE0EF00001E151D9260001C7
:1005F800E251DA22000EDF6E0001C251D8B41200B7
:100608002A0E456E0001E2C047F00001E1C046F045
:10061800000E55EC0CF0000E0001C26F1200820EA5
:10062800D36E9B9C0101010E0001D46F0101D50E10
:100638000001D36F79EC0CF00101010E0001D46FB9
:100648000101DC0E0001D36FFFEC08F00101010E7F
:100658000001D46F0101D30E0001D36FA1EC0CF09F
:100668000101010E0001D46F0101C90E0001D36F11
:10067800E1EC0CF0F4EC09F0000E936E000E8A6EBB
:10068800960E1DEC0CF0F50E98EC0BF0FC0E01012B
:10069800C86F4D0E0101C76F01010001C7C1D3F03A
:1006A8000001D46B0101C8517FEC08F09F909F9A1C
:1006B8009F989F869E0EF6EC0BF09D86DAEC0CF068
:1006C800C6EC09F00101010E0101AF6F0101DA0E5C
:1006D8000101AE6F0101010E0101B16F0101B90EF7
:1006E8000101B06F0A0E31EC0BF00101DB6F010163
:1006F800DBBF62D053D00101010E0001D46F0101AC
:10070800C40E0001D36F01010001DAC1D5F0000168
:10071800D66B0101DB510001D76F0001D86B0001D6
:10072800D7BFD8070101010E0001DA6F0101B90E28
:100738000001D96FCDEC0CF03FD0B9C1C6F13CD067
:10074800020E0101DB6F550E0101B96FAA0E0101FE
:10075800BA6F17D0010E0101DB6F3A0E04D0010EFB
:100768000101DB6FA30E0101B96F0BD00101C65166
:10077800A80AD8B4EFD7010AD8B4F1D7030AD8B475
:10078800DFD70101010E0001D46F0101B90E00018C
:10079800D36F0101DB51DCEC04F00ED00101DA511A
:1007A8000A0AD8B4A8D7220AD8B4C7D7010AD8B435
:1007B800C4D7030AD8B4DAD70101010E0101AF6F1B
:1007C8000101DA0E0101AE6F0101010E0101B16FE5
:1007D8000101B90E0101B06F0A0E16EC0BF0010110
:1007E800DB6F0101DBBF6CD743D00101010E0001B3
:1007F800D96F0101D30E0001D86F01010001DAC1E0
:10080800DAF00001DB6B0101DB510001DC6F000154
:10081800DD6B0001DCBFDD070101010E0001DF6FA8
:100828000101B90E0001DE6F4CEC0BF049D7010154
:10083800010E0101AF6F0101C90E0101AE6F010187
:10084800DAC1B0F10101B16B0101DB510101B26FF5
:100858000101B36B0101B2BFB3070101010E010130
:10086800B56F0101B90E0101B46F80EC07F028D70C
:100878000101DA510B0AD8B4B8D7150AD8B4D7D7BA
:10088800010AD8B4D4D73F0AD8B4D1D719D70101AF
:1008980020EE35F00101A251D9260101A351DA2237
:1008A800DF500101A96F0101A9510D0DF35001019C
:1008B800A2250101AC6FF4500101A3210101AD6F24
:1008C800010EACC1D9FFADC1DAFFDF626FD0010103
:1008D80020EE01F00101AC51D9260101AD51DA2217
:1008E800DF500101A45DD8B002D0FD0E1200010155
:1008F80020EE01F00101AC51D9260101AD51DA22F7
:10090800DF500001DD6F0001DD510101AA6F010117
:10091800AB6B01010001A8C1D4F001010001A7C11E
:10092800D3F0030E0101AC250001DD6F000E0101BB
:10093800AD210001DE6FDDC0D5F0DEC0D6F0AAC162
:10094800D7F0ABC1D8F04AEC0AF0010120EE35F03F
:100958000101A251D9260101A351DA22010110EEA9
:1009680035F00101A251E1260101A351E222E7502D
:100978000001DD6F0001DD29030BDF6E010120EEB0
:1009880002F00101AC51D9260101AD51DA22A5C10D
:10099800E1FFA6C1E2FFDFCFE7FFACC1D9FFADC1E0
:1009A800DAFF000EDF6E0101AA511200FC0E1200E0
:1009B8000001D76F000120EE19F00001E151D9269E
:1009C8000001E251DA22000EDF6E3ED0000120EE77
:1009D80019F00001E151D9260001E251DA22DF5075
:1009E8000001D56F0001D551010DF3500001D32549
:1009F800D96EF4500001D421DA6E000110EE19F01E
:100A08000001E151E1260001E251E222E750000134
:100A1800D66F0001D651010D0F0EF326000EF422F9
:100A2800F3500001E125E16EF4500001E221E26E8D
:100A3800DFCFE7FF000120EE19F00001E151D926D0
:100A48000001E251DA22DF2A000120EE19F000014C
:100A5800E151D9260001E251DA22DF500001D56FB9
:100A68000001D7510001D55DD8A0B0D7000120EE14
:100A780019F00001E151D9260001E251DA22000102
:100A8800D7C0DFFF000120EE1AF00001E151D9269E
:100A98000001E251DA22010EDF6E000120EE0FF0B4
:100AA8000001E151D9260001E251DA22DF50C96E76
:100AB800C688120020EE35F03E50D9263F50DA2283
:100AC800DF500001B66F0001B6510D0DF3503E2402
:100AD8000001B96FF4503F200001BA6F010EB9C090
:100AE800D9FFBAC0DAFFDF625ED0000120EE01F064
:100AF8000001B951D9260001BA51DA22DF50405C11
:100B0800D8B002D0FD0E1200000120EE01F0000165
:100B1800B951D9260001BA51DA22DF50456E455045
:100B28000001B76F0001B86B44C035F043C034F022
:100B3800030E0001B925456E000E0001BA21466E6C
:100B480045C036F046C037F0B7C038F0B8C039F005
:100B5800B9EC0AF020EE35F03E50D9263F50DA22A3
:100B680010EE35F03E50E1263F50E222E750456E48
:100B78004528030BDF6E000120EE02F00001B95199
:100B8800D9260001BA51DA2241C0E1FF42C0E2FF92
:100B9800DFCFE7FFB9C0D9FFBAC0DAFF000EDF6EBA
:100BA8000001B7511200FC0E12000101A4C1A8F106
:100BB8000101A96B010120EE34F00101A251D926EF
:100BC8000101A351DA22DF500101AA6F0101AA51E4
:100BD8000D0DF3500101A2250101AB6FF450010185
:100BE800A3210101AC6FABC1D9FFACC1DAFFDF5063
:100BF800D8B402D0FF0E1200010120EE01F001016D
:100C0800AB51D9260101AC51DA220101A4C1DFFFA1
:100C1800010120EE02F00101AB51D9260101AC51CE
:100C2800DA220101A5C1DFFF030E0101AB25000196
:100C3800D36F000E0101AC210001D46F0101000146
:100C4800A7C1D6F001010001A6C1D5F0A8C1D7F00F
:100C5800A9C1D8F04AEC0AF0010120EE34F00101F4
:100C6800A251D9260101A351DA22010110EE34F074
:100C78000101A251E1260101A351E222E75000013E
:100C8800DD6F0001DD29030BDF6EABC1D9FFACC1FD
:100C9800DAFF010EDF6E010E120020EE35F00B5068
:100CA800D9260C50DA22DF50146E14500D0DF35073
:100CB8000B24176EF4500C20186E010E17C0D9FFC4
:100CC80018C0DAFFDF6250D020EE01F01750D926A5
:100CD8001850DA22DF500D5CD8B002D0FD0E120099
:100CE80020EE01F01750D9261850DA22DF50126E84
:100CF8001250156E166A11C002F010C001F0030EF2
:100D08001724126E000E1820136E12C003F013C0C1
:100D180004F015C005F016C006F099EC0AF020EEB4
:100D280035F00B50D9260C50DA2210EE35F00B5066
:100D3800E1260C50E222E750126E1228030BDF6EF8
:100D480020EE02F01750D9261850DA220EC0E1FF23
:100D58000FC0E2FFDFCFE7FF17C0D9FF18C0DAFFE7
:100D6800000EDF6E15501200FC0E1200346E0001EA
:100D780020EE0BF00001E151D9260001E251DA2200
:100D8800010EDF6E000120EE0AF00001E151D926C4
:100D98000001E251DA22000EDF6E3450D8B43DD0A3
:100DA800C7AA21D0000120EE0CF00001E151D9269C
:100DB8000001E251DA22050EDF6E000120EE0EF08E
:100DC8000001E151D9260001E251DA22DF2A0001AF
:100DD80020EE0DF00001E151D9260001E251DA229E
:100DE800050EDF6E1200C7A40CD0000120EE0CF037
:100DF8000001E151D9260001E251DA22080EDF6E26
:100E08001200000120EE0CF00001E151D92600018A
:100E1800E251DA22070EDF6E1200000120EE0CF01C
:100E28000001E151D9260001E251DA22060EDF6EF7
:100E38001200000140C0B6F00001B76B20EE34F09C
:100E48003E50D9263F50DA22DF500001B86F00012A
:100E5800B8510D0DF3503E240001B96FF4503F20F6
:100E68000001BA6FB9C0D9FFBAC0DAFFDF50D8B4F1
:100E780002D0FF0E1200000120EE01F00001B9516E
:100E8800D9260001BA51DA2240C0DFFF000120EE66
:100E980002F00001B951D9260001BA51DA2241C045
:100EA800DFFF030E0001B925346E000E0001BA21E0
:100EB800356E43C037F042C036F0B6C038F0B7C020
:100EC80039F0B9EC0AF020EE34F03E50D9263F5004
:100ED800DA2210EE34F03E50E1263F50E222E7508D
:100EE800446E4428030BDF6EB9C0D9FFBAC0DAFFDD
:100EF800010EDF6E010E12000101B0511E0AB11180
:100F0800D8B412000101B0511F0AB111D8A441D0C0
:100F1800000E0101B86F000E0101B76F000E01014C
:100F2800B86F000E0101B76F0101B851800A800F38
:100F38000A0ED8B4B75DD8B01AD00101B751010173
:100F4800B425D96E0101B8510101B521DA6E01014C
:100F5800B7510101AE25E16E0101B8510101AF2180
:100F6800E26EDFCFE7FF0101B74BB82BDDD7B0C189
:100F7800DEF001010001AFC1E0F001010001AEC1E6
:100F8800DFF00101B25166EC0BF00101B66F9D88EC
:100F980012000101B051200AB111D8A412000101B8
:100FA800B2510101B425D96E0101B3510101B52136
:100FB800DA6E000EDF6E12000DC012F0136A20EE1A
:100FC80034F00B50D9260C50DA22DF50146E14502E
:100FD8000D0DF3500B24156EF4500C20166E15C031
:100FE800D9FF16C0DAFFDF50D8B402D0FF0E1200C6
:100FF80020EE01F01550D9261650DA220DC0DFFF79
:1010080020EE02F01550D9261650DA220EC0DFFF66
:10101800030E1524016E000E1620026E10C004F097
:101028000FC003F012C005F013C006F099EC0AF0E7
:1010380020EE34F00B50D9260C50DA2210EE34F0A2
:101048000B50E1260C50E222E750116E1128030BD9
:10105800DF6E15C0D9FF16C0DAFF010EDF6E010E74
:1010680012009EAA3AD020EE04F04950D9264A50E0
:10107800DA22DF501B6E1B50010DF3504924D96E44
:10108800F4504A20DA6E88EC0CF0DF6E20EE04F0A3
:101098004950D9264A50DA22DF2A20EE04F0495076
:1010A800D9264A50DA22040EDF6217D0200E176EB6
:1010B8004AC019F049C018F020EE04F04950D9266A
:1010C8004A50DA22DF5043EC0CF020EE04F049508D
:1010D800D9264A50DA22000EDF6E4CA61200AB98D1
:1010E800AB881E0E176E000E196E000E186E000EDD
:1010F80043EC0CF012000001D86F000EAC6E000E2D
:10110800AB6E0001D8B1AC880001D8A302D0AC8C7A
:10111800AB8C0001D8B5AC8E0001D8A702D0AB8843
:1011280001D0AB8A0001D8B9AC849E980001D8BB25
:10113800AB860001D8AD02D09D8A01D09D9A9E9AB7
:101148000001D8AF02D09D8801D09D98D3C0AFFFD1
:101158000001D4C0D5F0D5C0D6F00001D76B00018E
:10116800D651B06EAC8AAB8E949C948EACA812000B
:10117800ACBE1200948C1200EACFC8F0E1CFC9F0DF
:10118800E2CFCAF0D9CFCBF0DACFCCF0F3CFCDF0A5
:10119800F4CFCEF0F6CFCFF0F7CFD0F0F8CFD1F034
:1011A800F5CFD2F09EA603D09E9662EC00F0F2A492
:1011B80003D0F29464EC09F072EC0AF0D2C0F5FFA7
:1011C800D1C0F8FFD0C0F7FFCFC0F6FFCEC0F4FF04
:1011D800CDC0F3FFCCC0DAFFCBC0D9FFCAC0E2FF55
:1011E800C9C0E1FFC8C0EAFFC7C0E9FFC6C0FBFF2E
:1011F800C5C0FAFF11000001D4C0E2F00001D3C05D
:10120800E1F0000120EE0AF00001E151D9260001C9
:10121800E251DA22000EDF6E000120EE0BF0000131
:10122800E151D9260001E251DA22000EDF6E0001F9
:1012380020EE0CF00001E151D9260001E251DA223A
:10124800050EDF6E000120EE0EF00001E151D926F7
:101258000001E251DA22000EDF6E1200000120EEDA
:1012680034F00001D351D9260001D451DA22000EFE
:10127800DF6E000120EE35F00001D351D9260001C0
:10128800D451DA22000EDF6E000E0001D56F030E76
:101298000001D56501D012000001D5510D0DF350A4
:1012A8000001D325D96EF4500001D421DA6E000E66
:1012B800DF6E0001D52B030E0001D565EDD71200B6
:1012C800000E356E000E346EBCEC0CF00001000E02
:1012D8000001BC6F0001C10E0001BB6F0001000ED0
:1012E8000001BE6F0001C30E0001BD6F020EB1EC1C
:1012F8000BF00001BF6F0001C06B0001BFBFC0074A
:101308000001BF51020AC011D8A412000A0E456E8E
:101318000001000E476E0001C30E466E020E55EC2A
:101328000CF012000001D651D511D8B426D0010E08
:101338000001D76F06D00001D890D537D637000105
:10134800D72B0001D6AFF7D70001D5510001D35DE7
:101358000001D6510001D459D8A008D00001D551B8
:101368000001D35F0001D6510001D45B0001D89081
:10137800D633D5330001D72FE7D7D3C0D3F0D4C0A5
:10138800D4F01200F8EC0AF00001D8510001D7118E
:10139800D8B41200010E4B6E0101010E0001D46F8A
:1013A80001016C0E0001D36F7FEC0BF00009D8B47B
:1013B80003D0000E4B6E12000001000E0001D46F26
:1013C8000001800E0001D36F7FEC0BF00009D8B448
:1013D80003D0000E4B6E12000A0E97EC0CF0DCD70F
:1013E800000E4B6E0001000E0001D46F0001800E4C
:1013F8000001D36F32EC09F00101010E0001D46F36
:1014080001016C0E0001D36F32EC09F00101010EED
:101418000001D46F0101360E0001D36F32EC09F0E0
:101428000101010E0001D46F0101000E0001D36F0C
:1014380032EC09F01200000E1F6E000E1E6E000E38
:101448001A6E210E196E1FC01CF01EC01BF00A0E6A
:1014580030EC0CF0226E22BE17D0000E206E0DD09C
:10146800ACA2FED72050010DF3501E24D96EF450C3
:101478001F20DA6EDF50AD6E202A205022BE04D025
:10148800FF0A2224D8B0ECD79D9812000001D6C0DC
:10149800DCF00001D5C0DBF00001D4C0DAF00001B7
:1014A800D3C0D9F010D0DBC0D9FFDCC0DAFFD9C077
:1014B800E1FFDAC0E2FFDFCFE7FF0001DB4BDC2B07
:1014C8000001D94BDA2B0001D707D8A0D8070001B3
:1014D800D729D8B4D829D8B41200E5D74B6601D09B
:1014E8001200C9EC0BF037503610D8A41200D4EC17
:1014F8000CF035503410D8B412000101010E356ECD
:1015080001016C0E346E67EC0CF00009D8A41200CF
:101518000001000E356E0001800E346E67EC0CF091
:101528000009D8B4DEEC0CF0120004C00AF003C0C5
:1015380009F002C008F001C007F00ED009C0D9FFB9
:101548000AC0DAFF07C0E1FF08C0E2FFDFCFE7FF0C
:10155800094A0A2A074A082A0506D8A006060528BD
:10156800D8B40628D8B41200E9D737C03DF036C041
:101578003CF035C03BF034C03AF00ED03CC0D9FF47
:101588003DC0DAFF3AC0E1FF3BC0E2FFDFCFE7FF33
:101598003C4A3D2A3A4A3B2A3806D8A03906382818
:1015A800D8B43928D8B41200E9D7F2AC07D0000E65
:1015B8000001D66F000E0001D56F1200C5EC0CF0CB
:1015C8000001D4510001D311D8B407D0000E000196
:1015D800D66F000E0001D56F1200000E0001D66F05
:1015E800010E0001D56F1200D9EC0AF00001D651A6
:1015F8000001D511D8A40FD0C5EC0CF00001D451CE
:101608000001D311D8A407D0000E0001D86F010E35
:101618000001D76F1200000E0001D86F000E000104
:10162800D76F12000001DF6F0001000E0101A36FE8
:101638000001800E0101A26FDFC0A4F10101AFC15A
:10164800A6F10101AEC1A5F10101B1C1A8F10101E5
:10165800B0C1A7F14BEC04F012000001DF6F0101EB
:10166800010E0101A36F01016C0E0101A26FDFC021
:10167800A4F10101AFC1A6F10101AEC1A5F10101BB
:10168800B1C1A8F10101B0C1A7F14BEC04F01200FF
:10169800D8C0D9FFD9C0DAFFDE2A000EDD22D8C0B3
:1016A800D9FFD9C0DAFF0001DECFD3F00001DDCFCA
:1016B800D4F0000E0001D66F060E0001D56F96EC2F
:1016C80009F012000101AD6F0101010E0101A36FC4
:1016D8000101360E0101A26FADC1A4F1DEC0A5F172
:1016E80000010101E0C0A7F100010101DFC0A6F17E
:1016F800D9EC05F01200000120EE35F00001D351BD
:10170800D9260001D451DA22DF500001D56F00013B
:10171800D5510D0DF3500001D325D96EF4500001B9
:10172800D421DA6EDF5012000001D36F0001D351CB
:101738007E0BCD6E0001D3AD02D0CD8E01D0CD9EF3
:10174800000ECF6E000ECE6E9E900001D3AF02D079
:101758009D8001D09D90CD801200476E0101010E41
:101768003F6E0101000E3E6E47C040F00001BCC054
:1017780042F00001BBC041F00001BEC044F00001CE
:10178800BDC043F05EEC05F01200F2AC05D0000ECF
:10179800376E000E366E1200D4EC0CF03550341053
:1017A800D8B405D0000E376E000E366E1200000E4B
:1017B800376E010E366E1200B3EC0CF001C01BF050
:1017C80002C01CF00B0E176E000E196E000E186E7C
:1017D800000E43EC0CF0000E026E000E016EAAEC37
:1017E8000CF012000001D36F94869488D3C0C8FF10
:1017F800000EC76E000EC66E000EC56E0E0EC61227
:10180800C78E94869488C580C68A120001EE00F0BF
:10181800A20EEE6AE806FDE100EE80F0360EEE6AF2
:10182800E806FDE14C6A4B6A000EF86E000113EF02
:1018380003F00001D36F0001D3517F0BD56E000E6A
:10184800D76E000ED66EF2940001D3AF02D0F28AA2
:1018580001D0F29AD58E12001D6E0101010E0C6E98
:101868000101360E0B6E1DC00DF01AC00FF019C025
:101878000EF0116A1BC010F051EC06F012001A6E3F
:101888000001000E0C6E0001800E0B6E1AC00DF0E8
:1018980017C00EF019C010F018C00FF0E0EC07F0F8
:1018A8001200486E0101010E3F6E01016C0E3E6E82
:1018B80048C040F045C041F047C043F046C042F040
:1018C8001DEC07F0120020EE35F03450D9263550C3
:1018D800DA22DF50366E36500D0DF3503424D96EAF
:1018E800F4503520DA6EDF5012000001D4C04AF0FF
:1018F8000001D3C049F020EE04F04950D9264A50DF
:10190800DA22000EDF6E1200F20E4C16ABAC03D0DA
:101918004C90ABB04C80ABB44C84ABB24C86AECFE1
:1019280001F0015012000001D36FFA0E00F0E82E0A
:10193800FDD70001D32FF9D71200D3C0D9FFD4C0E7
:10194800DAFF000EDE6E000EDD6E120001C003F03D
:1019580002C004F004C0CFFF03C0CEFF1200CECFF8
:1019680003F0CFCF04F003C001F004C002F012006E
:1019780034C036F035C037F037C0D7FF36C0D6FF91
:101988001200000EF2AE010E0001D36F0001D46BFD
:1019980012000001DAC0DCF00001D9C0DBF012004F
:1019A800000EF2AE010E346E356A1200D08EF28E41
:0C19B800F28C1200D38E0300120012000B
:067FF80080F4C5FFFFF15B
:00000001FF
