:0400000067EF00F0B6
:10000800FACF8FF0FBCF90F0E9CF91F088EF09F0AD
:10001800D8CF23F0E8CF24F0E0CF25F0FACF26F0B0
:10002800FBCF27F0E9CF28F0EACF29F0E1CF2AF07B
:10003800E2CF2BF0D9CF2CF0DACF2DF0F3CF2EF082
:10004800F4CF2FF0F6CF30F0F7CF31F0F8CF32F011
:10005800F5CF33F09EA00AD09E900B0E176E000EBF
:10006800196E000E186E000ED1EC0DF09EAA03D08A
:100078009E9AD3EC09F09EB89DA802D0C7EC0BF06D
:1000880033C0F5FF32C0F8FF31C0F7FF30C0F6FFCC
:100098002FC0F4FF2EC0F3FF2DC0DAFF2CC0D9FF0C
:1000A8002BC0E2FF2AC0E1FF29C0EAFF28C0E9FF10
:1000B80027C0FBFF26C0FAFF25C0E0FF24C0E8FFE9
:1000C80023C0D8FF1000F2EF0BF0000E00018E6F76
:1000D800000E0001896F000E00018D6F000E0001F7
:1000E8008C6F000E00018A6FC6AC24D0C69C00013C
:1000F80020EE0CF00001D351D9260001D451DA22A8
:10010800050EDF6E010E00018A6F000120EE0EF071
:100118000001D351D9260001D451DA22DF2A000187
:1001280020EE0DF00001D351D9260001D451DA2276
:10013800040EDF6EC7A005D0C9CF8BF0010E0001F9
:100148008E6F00018A679FD188D1C7A69CD1000114
:100158008E51ADEC07F0000120EE0CF00001D351F8
:10016800D9260001D451DA22080EDF628CD1000EA4
:1001780000018E6F010E00018C6F85D1C7A82AD0AF
:10018800000120EE0BF00001D351D9260001D45113
:10019800DA22DF2A00018E51D8B454D1C7BA04D06C
:1001A800010E00018D6F4ED1000120EE0EF000010E
:1001B800D351D9260001D451DA22DF2A000120EEDA
:1001C8000DF00001D351D9260001D451DA22060ED0
:1001D800DF6E38D100018E51D8B455D1000120EE20
:1001E8000BF00001D351D9260001D451DA22DF2ABD
:1001F800C7BA19D0C7B40BD0000120EE0CF000012B
:10020800D351D9260001D451DA22070E71D000014A
:1002180020EE0CF00001D351D9260001D451DA2286
:10022800080EDF6E08D1000120EE0EF00001D35158
:10023800D9260001D451DA22DF2A000120EE0CF081
:100248000001D351D9260001D451DA22050EDF6E00
:10025800000120EE0DF00001D351D9260001D45140
:10026800DA22060E45D0000120EE1AF00001D35123
:10027800D9260001D451DA22DF500001856F000130
:1002880020EE19F00001D351D9260001D451DA2209
:10029800DF500001855DD8B0D5D0000120EE1AF0FE
:1002A8000001D351D9260001D451DA22DF500001D0
:1002B800856F00018551010D0F0EF326000EF42203
:1002C800F3500001D325D96EF4500001D421DA6E21
:1002D800DF50C96E000120EE1AF00001D351D92673
:1002E8000001D451DA22DF2A010E0001896FCBD038
:1002F800DF6EC9D0C7A85AD0000120EE0BF000016C
:10030800D351D9260001D451DA22DF2A00018E51B7
:10031800D8B448D0C7AA25D0000120EE0AF00001C1
:10032800D351D9260001D451DA22DF500001856F5C
:1003380000018551010DF3500001D325D96EF45009
:100348000001D421DA6E00018BC0DFFF000120EE2E
:100358000AF00001D351D9260001D451DA22DF2A4C
:1003680021D0000120EE0EF00001D351D926000162
:10037800D451DA22DF2A000120EE0DF00001D3511A
:10038800D9260001D451DA22060EDF6E000120EED4
:100398000CF00001D351D9260001D451DA22050E00
:1003A800DF6E50D0010E00018D6F4CD000018E51D0
:1003B800D8B469D0000120EE0BF00001D351D92642
:1003C8000001D451DA22DF2AC7AA25D0000120EE85
:1003D8000AF00001D351D9260001D451DA22DF50A6
:1003E8000001856F00018551010DF3500001D325EF
:1003F800D96EF4500001D421DA6E00018BC0DFFF02
:10040800000120EE0AF00001D351D9260001D45191
:10041800DA22DF2A38D0C7A4C7D6000120EE0CF0B4
:100428000001D351D9260001D451DA22080EDF6E1B
:10043800010E00018D6F010E00018C6F000E00018E
:100448008E6F21D0000120EE0CF00001D351D92687
:100458000001D451DA22050E4BD7000120EE0CF032
:100468000001D351D9260001D451DA22DF50050A00
:10047800D8B46BD6030AD8B481D6010AD8B43AD70F
:100488000F0AD8B4F0D600018E6704D00001895154
:10049800D8B402D0C6A8C688000120EE0AF0000130
:1004A800D351D9260001D451DA22080EDF6423D0B3
:1004B80000018D6720D0000120EE0CF00001D3511F
:1004C800D9260001D451DA22050EDF6E000120EE94
:1004D8000EF00001D351D9260001D451DA22DF2AC7
:1004E800000120EE0DF00001D351D9260001D451AE
:1004F800DA22070EDF6E00018D51D8B43ED000011C
:1005080020EE0BF00001D351D9260001D451DA2294
:10051800000110EE0AF00001D351E1260001D45188
:10052800E222E7500001856F00018551010DF3506B
:100538000001D325E16EF4500001D421E26EDFCF33
:10054800E7FF280E456E0001D4C047F00001D3C074
:1005580046F0000120EE0AF00001D351D92600012F
:10056800D451DA22DF500001856F00018529E3ECC0
:100578000DF0000120EE0AF03ED0000120EE0EF052
:100588000001D351D9260001D451DA22DF50D8B462
:100598003AD0000120EE0EF00001D351D926000117
:1005A800D451DA22DF500001866F000120EE0DF0F1
:1005B8000001D351D9260001D451DA22DF500001BD
:1005C800876F000120EE0BF00001D351D9260001FE
:1005D800D451DA22DF500001886F290E456E0001E0
:1005E800000E476E0001860E466E030EE3EC0DF01A
:1005F800000120EE0EF00001D351D9260001D4519C
:10060800DA22000EDF6E00018C51D8B412002A0ED7
:10061800456E0001D4C047F00001D3C046F0000E7B
:10062800E3EC0DF0000E00018C6F1200000E806EDE
:10063800000E896E0F0EC16E070EB46E000E926E1C
:10064800000E816E000E8A6E9368820ED36E9B8CAC
:100658000101010E00019E6F01011E0E00019D6F38
:1006680007EC0EF00101010E00019E6F0101520E10
:1006780000019D6FD9EC0AF00101010E00019E6F87
:100688000101250E00019D6FD4EC06F00101010E59
:1006980000019E6F0101180E00019D6F25EC0EF000
:1006A8000101010E00019E6F01010E0E00019D6FF8
:1006B8005DEC0EF09CEC0BF0C70E35EC0DF0EC0E7B
:1006C80001010C6F4D0E01010B6F010100010BC1FF
:1006D8009DF000019E6B01010C511DEC0AF09F90EA
:1006E8009F9A9F989F86F180F2869A0EAAEC0DF049
:1006F8009D8654EC0EF00101010E0001BC6F010152
:10070800250E0001BB6F000E0001BE6FA80E000190
:10071800BD6F9EEC0AF06EEC0BF00101010E0001BA
:10072800B66F0101230E0001B56F0101010E000132
:10073800B86F0101000E0001B76F0A0E01EC0DF051
:100748000101246F010124BF8DD07ED00101010E6B
:100758000001BC6F0101180E0001BB6F010100010F
:1007680023C1BDF00001BE6B010124510001BF6F20
:100778000001C06B0001BFBFC0070101010E0001ED
:10078800C26F0101000E0001C16F5EEC0AF06AD071
:1007980000C10DF111D0000E01011C6F000E09D02F
:1007A800C70E01011C6F490E04D0B60E01011C6F63
:1007B800360E01011D6F0BD001010D51000AD8B48E
:1007C800EAD7010AD8B4ECD7030AD8B4EED70101A6
:1007D800010E0001B86F01011C0E0001B76F020E77
:1007E80065EC0DF03FD000C10DF13CD0020E0101C7
:1007F800246F550E0101006FAA0E0101016F17D079
:10080800010E0101246F3A0E04D0010E0101246F7C
:10081800A30E0101006F0BD001010D51A80AD8B435
:10082800EFD7010AD8B4F1D7030AD8B4DFD701014A
:10083800010E00019E6F0101000E00019D6F010174
:100848002451DCEC05F00ED0010123510A0AD8B47A
:100858007DD7220AD8B49CD7010AD8B4C4D7030AD2
:10086800D8B4DAD70101010E0001B66F0101230ED9
:100878000001B56F0101010E0001B86F0101000E02
:100888000001B76F0A0EE6EC0CF00101246F0101BC
:1008980024BF41D744D00101010E0001BC6F010102
:1008A800250E0001BB6F0101000123C1BDF000014D
:1008B800BE6B010124510001BF6F0001C06B000134
:1008C800BFBFC0070101010E0001C26F0101000E88
:1008D8000001C16FA2EC04F01ED70101010E000156
:1008E800B86F01010E0E0001B76F0101000123C1AD
:1008F800B9F00001BA6B010124510001BB6F00017E
:10090800BC6B0001BBBFBC070101010E0001BE6F3B
:100918000101000E0001BD6FD5EC08F0FCD6010105
:1009280023510B0AD8B4B7D7150AD8B4D6D7010AB9
:10093800D8B4D3D73F0AD8B4D0D7EDD6BBC0D9FFE7
:10094800BCC0DAFFDE2A000EDD2281D0BBC0D9FF91
:10095800BCC0DAFF0001DECF9DF00001DDCF9EF0C4
:10096800000120EE2AF00001BB51D9260001BC513C
:10097800DA220001DECF9FF00001DDCFA0F03EECCF
:100988000BF0FF0E0001C36FFF0EC46F000120EED5
:100998002AF00001BB51D9260001BC51DA22DECF72
:1009A800C5F0DDCFC6F00001C3510001C527000125
:1009B800C4510001C62300019E510001C61904E17B
:1009C80000019D510001C519D8A451D0CBC0C7F072
:1009D800CCC0C8F00001000E0001B86F0001C70EBE
:1009E8000001B76F020E65EC0DF041D0BBC0D9FF16
:1009F800BCC0DAFF0001DECF9DF00001DDCF9EF024
:100A0800000E0001A06F2D0E00019F6F3EEC0BF051
:100A180000019D512C0A00019E11D8A428D0CDC0F8
:100A2800C9F0CEC0CAF00001000E0001B86F000185
:100A3800C90E0001B76F020E65EC0DF0BBC0D9FFFF
:100A4800BCC0DAFF000EDE6E000EDD6E10D00001B5
:100A580020EE2CF00001BB51D9260001BC51DA224E
:100A6800DF50000AD8B472D7010AD8B4BFD7000142
:100A780020EE28F00001BB51D9260001BC51DA2232
:100A88000001DECF9DF00001DDCF9EF03DEC0EF0C1
:100A98001200000120EE35F00001A751D92600010F
:100AA800A851DA22DF500001B06F0001B0510D0DDE
:100AB800F3500001A7250001B36FF4500001A821ED
:100AC8000001B46F010EB3C0D9FFB4C0DAFFDF6212
:100AD8006DD0000120EE01F00001B351D9260001CC
:100AE800B451DA22DF500001A95DD8B002D0FD0E62
:100AF8001200000120EE01F00001B351D9260001D7
:100B0800B451DA22DF500001AE6F0001AE5100018E
:100B1800B16F0001B26B0001ADC09EF00001ACC026
:100B28009DF0030E0001B3250001AE6F000E000119
:100B3800B4210001AF6FAEC09FF0AFC0A0F0B1C04C
:100B4800A1F0B2C0A2F01AEC0CF0000120EE35F0D2
:100B58000001A751D9260001A851DA22000110EEA0
:100B680035F00001A751E1260001A851E222E75023
:100B78000001AE6F0001AE29030BDF6E000120EE0D
:100B880002F00001B351D9260001B451DA22AAC0FB
:100B9800E1FFABC0E2FFDFCFE7FFB3C0D9FFB4C0CE
:100BA800DAFF000EDF6E0001B1511200FC0E1200D8
:100BB8000001A16F000120EE19F00001D351D926E0
:100BC8000001D451DA22000EDF6E3ED0000120EE83
:100BD80019F00001D351D9260001D451DA22DF508F
:100BE80000019F6F00019F51010DF35000019D25E9
:100BF800D96EF45000019E21DA6E000110EE19F052
:100C08000001D351E1260001D451E222E75000014E
:100C1800A06F0001A051010D0F0EF326000EF42263
:100C2800F3500001D325E16EF4500001D421E26EA7
:100C3800DFCFE7FF000120EE19F00001D351D926DC
:100C48000001D451DA22DF2A000120EE19F0000158
:100C5800D351D9260001D451DA22DF5000019F6F09
:100C68000001A15100019F5DD8A0B0D7000120EE7E
:100C780019F00001D351D9260001D451DA2200011C
:100C8800A1C0DFFF000120EE1AF00001D351D926E0
:100C98000001D451DA22010EDF6E000120EE0FF0C0
:100CA8000001D351D9260001D451DA22DF50C96E90
:100CB800C68812000001A9C0AEF00001AF6B0001A8
:100CC80020EE34F00001A751D9260001A851DA22FC
:100CD800DF500001B06F0001B0510D0DF35000015D
:100CE800A7250001B16FF4500001A8210001B26FDF
:100CF800B1C0D9FFB2C0DAFFDF50D8B402D0FF0EBE
:100D08001200000120EE01F00001B151D9260001C6
:100D1800B251DA220001A9C0DFFF000120EE02F083
:100D28000001B151D9260001B251DA220001AAC04E
:100D3800DFFF030E0001B12500019D6F000E0001C9
:100D4800B22100019E6F0001ACC0A0F00001ABC051
:100D58009FF0AEC0A1F0AFC0A2F01AEC0CF00001F9
:100D680020EE34F00001A751D9260001A851DA225B
:100D7800000110EE34F00001A751E1260001A8514E
:100D8800E222E7500001AD6F0001AD29030BDF6ED1
:100D9800B1C0D9FFB2C0DAFF010EDF6E010E12003A
:100DA8009DC0D9FF9EC0DAFF000EDE6E000EDD6E1C
:100DB800000120EE02F000019D51D92600019E514C
:100DC800DA22B60EDF6E000120EE03F000019D511D
:100DD800D92600019E51DA22360EDF6E000120EE80
:100DE80024F000019D51D92600019E51DA22000EFF
:100DF800DF6E000120EE25F000019D51D92600018B
:100E08009E51DA22000EDF6E000120EE26F000016E
:100E18009D51D92600019E51DA22000EDF6E000195
:100E280020EE27F000019D51D92600019E51DA22BB
:100E3800000EDF6E000120EE28F000019D51D9263A
:100E480000019E51DA22B10EDE6EFF0EDD6E00014A
:100E580020EE2AF000019D51D92600019E51DA2288
:100E6800000EDE6E000EDD6E000120EE2CF000019B
:100E78009D51D92600019E51DA22000EDF6E120024
:100E880020EE35F00B50D9260C50DA22DF50146EC4
:100E980014500D0DF3500B24176EF4500C20186EDF
:100EA800010E17C0D9FF18C0DAFFDF6250D020EE5C
:100EB80001F01750D9261850DA22DF500D5CD8B04F
:100EC80002D0FD0E120020EE01F01750D92618505E
:100ED800DA22DF50126E1250156E166A11C002F037
:100EE80010C001F0030E1724126E000E1820136EA6
:100EF80012C003F013C004F015C005F016C006F0C8
:100F080069EC0CF020EE35F00B50D9260C50DA22A3
:100F180010EE35F00B50E1260C50E222E750126E2D
:100F28001228030BDF6E20EE02F01750D926185056
:100F3800DA220EC0E1FF0FC0E2FFDFCFE7FF17C0E4
:100F4800D9FF18C0DAFF000EDF6E15501200FC0E34
:100F58001200346E000120EE0BF00001D351D926A7
:100F68000001D451DA22010EDF6E000120EE0AF0F2
:100F78000001D351D9260001D451DA22000EDF6EC8
:100F88003450D8B43DD0C7AA21D0000120EE0CF0CF
:100F98000001D351D9260001D451DA22050EDF6EA3
:100FA800000120EE0EF00001D351D9260001D451E2
:100FB800DA22DF2A000120EE0DF00001D351D926F4
:100FC8000001D451DA22050EDF6E1200C7A40CD03E
:100FD800000120EE0CF00001D351D9260001D451B4
:100FE800DA22080EDF6E1200000120EE0CF000017C
:100FF800D351D9260001D451DA22070EDF6E120030
:10100800000120EE0CF00001D351D9260001D45183
:10101800DA22060EDF6E1200000140C080F00001E7
:10102800816B20EE34F03E50D9263F50DA22DF5053
:101038000001826F000182510D0DF3503E24000122
:10104800836FF4503F200001846F83C0D9FF84C0B0
:10105800DAFFDF50D8B402D0FF0E1200000120EEF4
:1010680001F000018351D92600018451DA2240C0E1
:10107800DFFF000120EE02F000018351D9260001B4
:101088008451DA2241C0DFFF030E00018325346E4C
:10109800000E00018421356E43C037F042C036F09F
:1010A80080C038F081C039F089EC0CF020EE34F0C3
:1010B8003E50D9263F50DA2210EE34F03E50E12659
:1010C8003F50E222E750446E4428030BDF6E83C092
:1010D800D9FF84C0DAFF010EDF6E010E1200000E88
:1010E8000001A26F00019E51800AF36E800EF35C2E
:1010F800000ED8B49D5DD8B009D000019D6D0001E7
:101108009E1FD8B09E2B010E0001A26F0001A051B6
:10111800800AF36E800EF35C000ED8B49F5DD8B0E1
:1011280006D000019F6D0001A01FD8B0A02B0001C0
:10113800A0519F11D8B426D0010E0001A16F06D08E
:101148000001D8909F37A0370001A12B0001A0AF64
:10115800F7D700019F5100019D5D0001A0510001DA
:101168009E59D8A008D000019F5100019D5F000141
:10117800A05100019E5B0001D890A0339F3300016D
:10118800A12FE7D70001A251D8B406D000019D6D68
:1011980000019E1FD8B09E2B9DC09DF09EC09EF062
:1011A80012000001B9511E0ABA11D8B41200000188
:1011B800B9511F0ABA11D8A43FD0000E0001C16F5F
:1011C800000E0001C06F000E0001C16F000E00018B
:1011D800C06F0001C151800A800F0A0ED8B4C05DEB
:1011E800D8B01AD00001C0510001BD25D96E000148
:1011F800C1510001BE21DA6E0001C0510001B725BE
:10120800E16E0001C1510001B821E26EDFCFE7FFB6
:101218000001C04BC12BDDD7B9C0B3F00001B8C085
:10122800B5F00001B7C0B4F00001BB514EEC0DF0B1
:101238000001BF6F9D8812000001B951200ABA1140
:10124800D8A412000001BB510001BD25D96E0001D0
:10125800BC510001BE21DA6E000EDF6E12000DC017
:1012680012F0136A20EE34F00B50D9260C50DA2213
:10127800DF50146E14500D0DF3500B24156EF450FE
:101288000C20166E15C0D9FF16C0DAFFDF50D8B48F
:1012980002D0FF0E120020EE01F01550D92616508C
:1012A800DA220DC0DFFF20EE02F01550D9261650C5
:1012B800DA220EC0DFFF030E1524016E000E162081
:1012C800026E10C004F00FC003F012C005F013C086
:1012D80006F069EC0CF020EE34F00B50D9260C50D7
:1012E800DA2210EE34F00B50E1260C50E222E750DF
:1012F800116E1128030BDF6E15C0D9FF16C0DAFF77
:10130800010EDF6E010E1200EACF92F0E1CF93F0EA
:10131800E2CF94F0D9CF95F0DACF96F0F3CF97F0EB
:10132800F4CF98F0F6CF99F0F7CF9AF0F8CF9BF07A
:10133800F5CF9CF09EA603D09E9669EC00F0F2A42F
:1013480003D0F2945EEC0EF0F2A00AD0F290000EF8
:101358008A6E8050D8A402D0010E01D0000E896E8A
:1013680042EC0CF09CC0F5FF9BC0F8FF9AC0F7FF59
:1013780099C0F6FF98C0F4FF97C0F3FF96C0DAFF54
:1013880095C0D9FF94C0E2FF93C0E1FF92C0EAFF85
:1013980091C0E9FF90C0FBFF8FC0FAFF11009EAA21
:1013A8003AD020EE04F04950D9264A50DA22DF50CC
:1013B8001B6E1B50010DF3504924D96EF4504A207E
:1013C800DA6E16EC0EF0DF6E20EE04F04950D926E6
:1013D8004A50DA22DF2A20EE04F04950D9264A5032
:1013E800DA22040EDF6217D0200E176E4AC019F0F9
:1013F80049C018F020EE04F04950D9264A50DA22A4
:10140800DF50D1EC0DF020EE04F04950D9264A50B7
:10141800DA22000EDF6E4CA61200AB98AB881E0EC7
:10142800176E000E196E000E186E000ED1EC0DF03E
:1014380012000001A26F000EAC6E000EAB6E000130
:10144800A2B1AC880001A2A302D0AC8CAB8C000185
:10145800A2B5AC8E0001A2A702D0AB8801D0AB8A9E
:101468000001A2B9AC849E980001A2BBAB86000122
:10147800A2AD02D09D8A01D09D9A9E9A0001A2AF8A
:1014880002D09D8801D09D989DC0AFFF00019EC0ED
:101498009FF09FC0A0F00001A16B0001A051B06EA9
:1014A800AC8AAB8E949C948EACA81200ACBE120091
:1014B800948C12000001C2C0C4F00001C1C0C3F086
:1014C800000120EE02F00001BB51D9260001BC51F9
:1014D800DA22DE2A000EDD22000120EE02F00001F1
:1014E800BB51D9260001BC51DA220001DECF9DF0A4
:1014F8000001DDCF9EF0000E0001A06F3C0E000140
:101508009F6F73EC08F000019D513B0A00019E118A
:10151800D8A41200D1C0C5F0D2C0C6F00001000E98
:101528000001B86F0001C50E0001B76F020E65EC2F
:101538000DF01200000120EE2AF00001BB51D9265F
:101548000001BC51DA220001BDC0DEFF0001BEC0AF
:10155800DDFFCFC0BFF0D0C0C0F00001000E000119
:10156800B86F0001BF0E0001B76F020E65EC0DF0F9
:10157800000120EE28F00001BB51D9260001BC5122
:10158800DA220001DECF9DF00001DDCF9EF03DECB8
:101598000EF0000120EE2CF00001BB51D92600010D
:1015A800BC51DA22000EDF6E120000019EC0D4F09A
:1015B80000019DC0D3F0000120EE0AF00001D351D4
:1015C800D9260001D451DA22000EDF6E000120EE88
:1015D8000BF00001D351D9260001D451DA22000EB4
:1015E800DF6E000120EE0CF00001D351D926000176
:1015F800D451DA22050EDF6E000120EE0EF0000154
:10160800D351D9260001D451DA22000EDF6E120020
:10161800000120EE34F000019D51D92600019E51B1
:10162800DA22000EDF6E000120EE35F000019D5138
:10163800D92600019E51DA22000EDF6E000E00014D
:101648009F6F030E00019F6501D0120000019F519A
:101658000D0DF35000019D25D96EF45000019E2117
:10166800DA6E000EDF6E00019F2B030E00019F65EE
:10167800EDD712000001A0519F11D8B426D0010E59
:101688000001A16F06D00001D8909F37A037000154
:10169800A12B0001A0AFF7D700019F5100019D5D6C
:1016A8000001A05100019E59D8A008D000019F5107
:1016B80000019D5F0001A05100019E5B0001D890D0
:1016C800A0339F330001A12FE7D79DC09DF09EC096
:1016D8009EF01200C8EC0CF00001A2510001A1110B
:1016E800D8B41200010E4B6E0101010E00019E6F6D
:1016F80001016E0E00019D6F1CEC0DF00009D8B4BD
:1017080003D0000E4B6E12000101010E00019E6F06
:101718000101A40E00019D6F1CEC0DF00009D8B466
:1017280003D0000E4B6E12000A0E33EC0EF0DCD71D
:10173800000E4B6E0101010E00019E6F0101A40E07
:1017480000019D6F0CEC0BF00101010E00019E6F72
:1017580001016E0E00019D6F0CEC0BF00201020EF0
:1017680000019E6F0201360E00019D6F0CEC0BF01C
:101778000201020E00019E6F0201000E00019D6F22
:101788000CEC0BF01200000E1F6E000E1E6E000E09
:101798001A6E200E196E1FC01CF01EC01BF00A0E18
:1017A800BEEC0DF0226E22BE17D0000E216E0DD0B9
:1017B800ACA2FED72150010DF3501E24D96EF4506F
:1017C8001F20DA6EDF50AD6E212A215022BE04D0D0
:1017D800FF0A2224D8B0ECD79D98120002EE00F040
:1017E8006C0EEE6AE806FDE101EE6EF06C0EEE6A34
:1017F800E806FDE10001CE6BCD6BCC6BCB6B4C6A80
:101808004B6AB60EF66E1C0EF76E000EF86E00EE02
:10181800CFF010EE04F00900F5CFEEFFE550E150EF
:10182800FAE1000EF86E00011AEF03F00001A0C003
:10183800A6F000019FC0A5F000019EC0A4F0000121
:101848009DC0A3F010D0A5C0D9FFA6C0DAFFA3C0E1
:10185800E1FFA4C0E2FFDFCFE7FF0001A54BA62B05
:101868000001A34BA42B0001A107D8A0A2070001E7
:10187800A129D8B4A229D8B41200E5D74B6601D063
:10188800120093EC0DF037503610D8A412004EEC2D
:101898000EF035503410D8B412000101010E356E27
:1018A80001016E0E346EF5EC0DF00009D8A412009B
:1018B8000101010E356E0101A40E346EF5EC0DF038
:1018C8000009D8B458EC0EF0120004C00AF003C0A6
:1018D80009F002C008F001C007F00ED009C0D9FF16
:1018E8000AC0DAFF07C0E1FF08C0E2FFDFCFE7FF69
:1018F800094A0A2A074A082A0506D8A0060605281A
:10190800D8B40628D8B41200E9D737C03DF036C09D
:101918003CF035C03BF034C03AF00ED03CC0D9FFA3
:101928003DC0DAFF3AC0E1FF3BC0E2FFDFCFE7FF8F
:101938003C4A3D2A3A4A3B2A3806D8A03906382874
:10194800D8B43928D8B41200E9D7F2AC07D0000EC1
:101958000001A06F000E00019F6F120046EC0EF010
:1019680000019E5100019D11D8B407D0000E00015E
:10197800A06F000E00019F6F1200000E0001A06F03
:10198800010E00019F6F1200A9EC0CF00001A0519C
:1019980000019F11D8A40FD046EC0EF000019E5113
:1019A80000019D11D8A407D0000E0001A26F010EFE
:1019B8000001A16F1200000E0001A26F000E0001CD
:1019C800A16F12000001B96F0101010E0001A86F9B
:1019D8000101A40E0001A76FB9C0A9F00001B6C0AB
:1019E800ABF00001B5C0AAF00001B8C0ADF000012D
:1019F800B7C0ACF04DEC05F012000001B96F010161
:101A0800010E0001A86F01016E0E0001A76FB9C099
:101A1800A9F00001B6C0ABF00001B5C0AAF0000102
:101A2800B8C0ADF00001B7C0ACF04DEC05F0120045
:101A3800000120EE35F000019D51D92600019E518C
:101A4800DA22DF5000019F6F00019F510D0DF35006
:101A580000019D25D96EF45000019E21DA6EDF50F9
:101A6800120000019D6F00019D517E0BCD6E00019B
:101A78009DAD02D0CD8E01D0CD9E000ECF6E000E52
:101A8800CE6E9E9000019DAF02D09D8001D09D90AA
:101A9800CD8012000001B66F0201020E0001A86F8E
:101AA8000201360E0001A76FB6C0A9F0B3C0AAF0B4
:101AB8000001B5C0ACF00001B4C0ABF05EEC06F0BC
:101AC80012000001BA6F0A0E0001BA6501D01200B7
:101AD8001F0E0001B36F0001B8C0B5F00001B7C018
:101AE800B4F00001BA517CEC0DF00001B96F12009E
:101AF8000001B66F0101010E0001A86F0101A40EDB
:101B08000001A76FB6C0A9F0B3C0AAF00001B5C024
:101B1800ACF00001B4C0ABF05EEC06F01200F2AC21
:101B280005D0000E376E000E366E12004EEC0EF029
:101B380035503410D8B405D0000E376E000E366E0E
:101B48001200000E376E010E366E120000019D6FF6
:101B5800948694889DC0C8FF000EC76E000EC66E9E
:101B6800000EC56E0E0EC612C78E94869488C58068
:101B7800C68A12001D6E0201020E0C6E0201360E9C
:101B88000B6E1DC00DF01AC00FF019C00EF0116ACF
:101B98001BC010F044EC07F012001A6E0101010E90
:101BA8000C6E0101A40E0B6E1AC00DF017C00EF0DA
:101BB80019C010F018C00FF033EC09F01200486E8D
:101BC8000101010E3F6E01016E0E3E6E48C040F0ED
:101BD80045C041F047C043F046C042F010EC08F061
:101BE800120020EE35F03450D9263550DA22DF5075
:101BF800366E36500D0DF3503424D96EF45035201E
:101C0800DA6EDF50120000019EC04AF000019DC04C
:101C180049F020EE04F04950D9264A50DA22000E45
:101C2800DF6E1200F20E4C16ABAC03D04C90ABB08A
:101C38004C80ABB44C84ABB24C86AECF01F00150B3
:101C48001200000120EE02F000019D51D92600018A
:101C58009E51DA22000EDE6E000EDD6E12000001CB
:101C68009D6FFA0E00F0E82EFDD700019D2FF9D7E1
:101C780012009DC09FF09EC0A0F0A0C0CFFF9FC0E3
:101C8800CEFF1200000EF2AE010E00019D6F0001A2
:101C98009E6B1200000EF2AE010E346E356A120011
:101CA800D08EF28EF28C1200D38E0300120050CD2B
:061CB800C74812001200F3
:067FF80080F4C5FFFFF15B
:00000001FF
