:0400000060EF00F0BD
:0C000800FACFC9F0FBCFCAF0CBEF09F033
:10001800D8CF24F0E8CF25F0E0CF26F0FACF27F0AC
:10002800FBCF28F0E9CF29F0EACF2AF0E1CF2BF077
:10003800E2CF2CF0D9CF2DF0DACF2EF0F3CF2FF07E
:10004800F4CF30F0F6CF31F0F7CF32F0F8CF33F00D
:10005800F5CF34F09EA003D09E908AEC0DF09EAAB6
:1000680003D09E9AEFEC08F09EB89DA802D05CECF5
:100078000BF034C0F5FF33C0F8FF32C0F7FF31C0D2
:10008800F6FF30C0F4FF2FC0F3FF2EC0DAFF2DC0FB
:10009800D9FF2CC0E2FF2BC0E1FF2AC0EAFF29C02C
:1000A800E9FF28C0FBFF27C0FAFF26C0E0FF25C0F4
:1000B800E8FF24C0D8FF100089EF0BF00001BE6FE5
:1000C800000E00010001C86F0001BE510001BE6FA3
:1000D800000E00010001C36F0001BE510001BE6F98
:1000E800000E00010001C76F0001BE510001BE6F84
:1000F800000E00010001C66F0001BE510001BE6F75
:10010800000E00010001C46F0001BE51C6AC29D029
:10011800C69C000120EE0CF00001DC51D92600013C
:10012800DD51DA22050EDF6E0001BE6F010E0001FF
:100138000001C46F0001BE51000120EE0EF0000165
:10014800DC51D9260001DD51DA22DF2A000120EE38
:100158000DF00001DC51D9260001DD51DA22040E30
:10016800DF6EC7A00AD0C9CFC5F00001BE6F010E6F
:1001780000010001C86F0001BE5100010001C46701
:10018800CED1B7D1C7A6CBD100010001C85136ECFA
:1001980008F0000120EE0CF00001DC51D926000126
:1001A800DD51DA22080EDF62BAD10001BE6F000EFF
:1001B80000010001C86F0001BE510001BE6F010EB1
:1001C80000010001C66F87D1C7A830D0000120EE1A
:1001D8000BF00001DC51D9260001DD51DA22DF2ABB
:1001E80000010001C851D8B479D1C7BA09D00001BB
:1001F800BE6F010E00010001C76F0001BE516ED134
:10020800000120EE0EF00001DC51D9260001DD517D
:10021800DA22DF2A000120EE0DF00001DC51D92698
:100228000001DD51DA22060EDF6E58D1000100010F
:10023800C851D8B474D1000120EE0BF00001DC5194
:10024800D9260001DD51DA22DF2AC7BA19D0C7B48E
:100258000BD0000120EE0CF00001DC51D926000182
:10026800DD51DA22070E76D0000120EE0CF00001F5
:10027800DC51D9260001DD51DA22080EDF6E1DD1CE
:10028800000120EE0EF00001DC51D9260001DD51FD
:10029800DA22DF2A000120EE0CF00001DC51D92619
:1002A8000001DD51DA22050EDF6E000120EE0DF0AF
:1002B8000001DC51D9260001DD51DA22060E4AD0B0
:1002C800000120EE1AF00001DC51D9260001DD51B1
:1002D800DA22DF500001BE6F000120EE19F00001A4
:1002E800DC51D9260001DD51DA22DF500001BE5D64
:1002F800D8B0F4D0000120EE1AF00001DC51D92664
:100308000001DD51DA22DF500001BE6F0001BE514D
:10031800010D0F0EF326000EF422F3500001000128
:10032800DC25D96EF45000010001DD21DA6EDF50C2
:10033800C96E000120EE1AF00001DC51D926000137
:10034800DD51DA22DF2A0001BE6F010E0001000133
:10035800C36FC1D0DF6EE3D0C7A862D0000120EE22
:100368000BF00001DC51D9260001DD51DA22DF2A29
:1003780000010001C851D8B44AD0C7AA27D000014B
:1003880020EE0AF00001DC51D9260001DD51DA2205
:10039800DF500001BE6F0001BE51010DF350000196
:1003A8000001DC25D96EF45000010001DD21DA6E70
:1003B8000001C5C0DFFF000120EE0AF00001DC519A
:1003C800D9260001DD51DA22DF2A21D0000120EEF2
:1003D8000EF00001DC51D9260001DD51DA22DF2AB6
:1003E800000120EE0DF00001DC51D9260001DD519D
:1003F800DA22060EDF6E000120EE0CF00001DC515F
:10040800D9260001DD51DA22050EDF6E67D0000122
:10041800BE6F010E00010001C76F0001BE515ED022
:1004280000010001C851D8B47AD0000120EE0BF0C9
:100438000001DC51D9260001DD51DA22DF2AC7AAE2
:1004480027D0000120EE0AF00001DC51D926000176
:10045800DD51DA22DF500001BE6F0001BE51010DEF
:10046800F35000010001DC25D96EF45000010001B1
:10047800DD21DA6E0001C5C0DFFF000120EE0AF0C1
:100488000001DC51D9260001DD51DA22DF2A47D0EC
:10049800C7A4B6D6000120EE0CF00001DC51D92625
:1004A8000001DD51DA22080EDF6E0001BE6F010E79
:1004B80000010001C76F0001BE510001BE6F010EAF
:1004C80000010001C66F0001BE510001BE6F000EA1
:1004D80000010001C86F0001BE5121D0000120EECB
:1004E8000CF00001DC51D9260001DD51DA22050E9D
:1004F80031D7000120EE0CF00001DC51D9260001B3
:10050800DD51DA22DF50050AD8B43CD6030AD8B444
:100518005BD6010AD8B420D70F0AD8B4D1D60001C7
:100528000001C86705D000010001C351D8B402D04A
:10053800C6A8C688000120EE0AF00001DC51D926C1
:100548000001DD51DA22080EDF6424D00001000129
:10055800C76720D0000120EE0CF00001DC51D9263D
:100568000001DD51DA22050EDF6E000120EE0EF0EB
:100578000001DC51D9260001DD51DA22DF2A000111
:1005880020EE0DF00001DC51D9260001DD51DA2200
:10059800070EDF6E00010001C751D8B448D0000132
:1005A80020EE0BF00001DC51D9260001DD51DA22E2
:1005B800000110EE0AF00001DC51E1260001DD51D6
:1005C800E222E7500001BE6F0001BE51010DF35059
:1005D80000010001DC25E16EF45000010001DD217D
:1005E800E26EDFCFE7FF0001BE6F280E00010001B9
:1005F800BB6F0001BE5100010001DDC0BDF000016C
:100608000001DCC0BCF0000120EE0AF00001DC5162
:10061800D9260001DD51DA22DF500001BF6F000149
:10062800BF29E3EC0DF0000120EE0AF04BD00001E9
:1006380020EE0EF00001DC51D9260001DD51DA224E
:10064800DF50D8B447D0000120EE0EF00001DC5195
:10065800D9260001DD51DA22DF5000010001C06F08
:10066800000120EE0DF00001DC51D9260001DD511A
:10067800DA22DF5000010001C16F000120EE0BF00B
:100688000001DC51D9260001DD51DA22DF500001DA
:100698000001C26F0001BE6F290E00010001BB6F8F
:1006A8000001BE510001000E00010001BD6F0001F4
:1006B800C00E00010001BC6F030EE3EC0DF0000159
:1006C80020EE0EF00001DC51D9260001DD51DA22BE
:1006D800000EDF6E00010001C651D8B412000001FF
:1006E800BE6F2A0E00010001BB6F0001BE51000160
:1006F8000001DDC0BDF000010001DCC0BCF0000E4F
:10070800E3EC0DF00001BE6F000E00010001C66FA2
:100718000001BE511200000E806E000E896E0F0E91
:10072800C16E070EB46E000E926E000E816E000E42
:100738008A6E9368820ED36E9B9C0201020E0001A2
:100748000001D86F02011E0E00010001D76F45ECB1
:100758000EF00201020E00010001D86F0201250E01
:1007680000010001D76FF8EC0AF00201020E000147
:100778000001D86F02011C0E00010001D76F77EC51
:100788000EF00201020E00010001D86F0201120EE4
:1007980000010001D76FBBEC0EF0C1EC0AF0000EAF
:1007A800936E000E8A6EAF0EB9EC0DF0FF0E0001CD
:1007B8000001D86FDC0E0001D76F89EC0EF0F50E42
:1007C80002EC0DF00101C26FFC0E02010201116F73
:1007D8000101C2510101C26F4D0E02010201106FE9
:1007E8000101C2510201000110C2D7F0000100014D
:1007F800D86B0201020111513DEC09F09F909F9ABC
:100808009F989F869E0EF8EC0DF09D86B3EC0EF037
:10081800C3C10DF2C4C10EF20201020E01010101B1
:10082800B86F02010D0E01010101B76F020E40EC15
:100838000CF00CEC0AF00201020E01010101B76F85
:100848000201230E01010101B66F0201020E01012E
:100858000101B96F0201000E01010101B86F0A0E12
:1008680082EC0CF002010201246F0201020124BF94
:100878008DD07DD00201020E01010101A36F02019A
:100888000B0E01010101A26F0201010123C2A4F1B3
:1008980001010101A56B02010201245101010101BD
:1008A800A66F0101A76B0101A6BFA7070201020EEF
:1008B80001010101A96F0201000E01010101A86FE8
:1008C8006EEC0EF063D000C20FF260D00101C26F6F
:1008D800020E02010201246F0101C2510101C26F1F
:1008E800550E02010201006F0101C2510101C26FE0
:1008F800AA0E02010201016F0CD00101C26F010EA4
:1009080002010201246F0101C2510101C26F3A0EB6
:100918000ED00101C2511BD00101C26F010E0201AC
:100928000201246F0101C2510101C26FA30E02012D
:100938000201006FEED7020102010F51A80AD8B4D4
:10094800DCD7010AD8B4E8D7030AD8B4BFD7020164
:10095800020E00010001D86F0201000E0001000123
:10096800D76F020102012451E6EC05F00FD0020115
:10097800020123510A0AD8B47DD7220AD8B4A3D7D2
:10098800010AD8B4A0D7030AD8B4D5D70201020EF9
:1009980001010101B76F0201230E01010101B66FC8
:1009A8000201020E01010101B96F0201000E0101ED
:1009B8000101B86F0A0E61EC0CF002010201246F0C
:1009C8000201020124BF35D752D00201020E0101F3
:1009D8000101B86F02011C0E01010101B76F02018C
:1009E800010123C2B9F101010101BA6B020102013F
:1009F800245101010101BB6F0101BC6B0101BBBFA7
:100A0800BC070201020E01010101BE6F0201000EC6
:100A180001010101BD6F88EC0AF00BD70201020E3B
:100A280001010101B86F0201120E01010101B76F46
:100A38000201010123C2B9F101010101BA6B0201EE
:100A48000201245101010101BB6F0101BC6B0101CD
:100A5800BBBFBC070201020E01010101BE6F02010A
:100A6800000E01010101BD6FEFEC06F0E2D60201B4
:100A7800020123510B0AD8B4A8D7150AD8B4CED787
:100A8800010AD8B4CBD73F0AD8B4C8D7D2D6010107
:100A980020EE35F00101A851D9260101A951DA2229
:100AA800DF5001010101B16F01010101B1510D0DCB
:100AB800F35001010101A82501010101B46FF450AF
:100AC80001010101A9210101B56F010EB4C1D9FFCE
:100AD800B5C1DAFFDF6274D0010120EE01F0010137
:100AE800B451D9260101B551DA22DF5001010101C3
:100AF800AA5DD8B002D0FD0E1200010120EE01F06F
:100B08000101B451D9260101B551DA22DF500101A2
:100B1800AF6F0101AF5101010101B26F0101B36B68
:100B280001010101AEC1A3F101010101ADC1A2F1B1
:100B3800030E01010101B4250101AF6F000E01018F
:100B48000101B5210101B06FAFC1A4F1B0C1A5F198
:100B5800B2C1A6F1B3C1A7F12DEC0BF0010120EE53
:100B680035F00101A851D9260101A951DA22010164
:100B780010EE35F00101A851E1260101A951E22248
:100B8800E7500101AF6F0101AF29030BDF6E0101CF
:100B980020EE02F00101B451D9260101B551DA2243
:100BA800ABC1E1FFACC1E2FFDFCFE7FFB4C1D9FFC2
:100BB800B5C1DAFF000EDF6E01010101B25112006A
:100BC800FC0E1200E8CFDBF0000120EE19F0000166
:100BD800DC51D9260001DD51DA22000EDF6E42D049
:100BE800000120EE19F00001DC51D9260001DD5189
:100BF800DA22DF500001D96F0001D951010DF350FD
:100C080000010001D725D96EF45000010001D82158
:100C1800DA6E000110EE19F00001DC51E126000146
:100C2800DD51E222E7500001DA6F0001DA51010DCF
:100C38000F0EF326000EF422F35000010001DC250C
:100C4800E16EF45000010001DD21E26EDFCFE7FF25
:100C5800000120EE19F00001DC51D9260001DD5118
:100C6800DA22DF2A000120EE19F00001DC51D92632
:100C78000001DD51DA22DF500001D96F00010001C7
:100C8800DB510001D95DD8A0ABD7000120EE19F0E7
:100C98000001DC51D9260001DD51DA220001DBC058
:100CA800DFFF000120EE1AF00001DC51D926000117
:100CB800DD51DA22010EDF6E000120EE0FF0000197
:100CC800DC51D9260001DD51DA22DF50C96EC68811
:100CD800120001010101AAC1AEF101010101AF6BCE
:100CE800010120EE34F00101A851D9260101A951D2
:100CF800DA22DF5001010101B06F01010101B05199
:100D08000D0DF35001010101A82501010101B16F89
:100D1800F45001010101A9210101B26FB1C1D9FF4C
:100D2800B2C1DAFFDF50D8B402D0FF0E12000101C1
:100D380020EE01F00101B151D9260101B251DA22A8
:100D48000101AAC1DFFF010120EE02F00101B1514A
:100D5800D9260101B251DA220101ABC1DFFF030E2E
:100D680001010101B12501010101A26F000E01017C
:100D78000101B2210101A36F01010101ADC1A5F17A
:100D880001010101ACC1A4F1AEC1A6F1AFC1A7F147
:100D98002DEC0BF0010120EE34F00101A851D92609
:100DA8000101A951DA22010110EE34F00101A85124
:100DB800E1260101A951E222E7500001DB6F0001A1
:100DC800DB29030BDF6EB1C1D9FFB2C1DAFF010E17
:100DD800DF6E010E120001010101B9511E0ABA119C
:100DE800D8B4120001010101B9511F0ABA11D8A4DF
:100DF8004FD0000E01010101C16F000E0101C06F4B
:100E0800000E01010101C16F000E0101C06F010157
:100E18000101C151800A800F0A0ED8B4C05DD8B054
:100E280023D001010101C05101010101BD25D96E85
:100E380001010101C15101010101BE21DA6E010167
:100E48000101C05101010101B725E16E0101010154
:100E5800C15101010101B821E26EDFCFE7FF0101B5
:100E68000101C04BC12BD3D7B9C1B3F101010101B5
:100E7800B8C1B5F101010101B7C1B4F10101010126
:100E8800BB511EEC0DF001010101BF6F9D881200DE
:100E980001010101B951200ABA11D8A412000101B7
:100EA8000101BB5101010101BD25D96E01010101FB
:100EB800BC5101010101BE21DA6E000EDF6E120085
:100EC80020EE35F00B50D9260C50DA22DF50146E84
:100ED80014500D0DF3500B24176EF4500C20186E9F
:100EE800010E17C0D9FF18C0DAFFDF6250D020EE1C
:100EF80001F01750D9261850DA22DF500D5CD8B00F
:100F080002D0FD0E120020EE01F01750D92618501D
:100F1800DA22DF50126E1250156E166A11C002F0F6
:100F280010C001F0030E1724126E000E1820136E65
:100F380012C003F013C004F015C005F016C006F087
:100F4800A3EC0CF020EE35F00B50D9260C50DA2229
:100F580010EE35F00B50E1260C50E222E750126EED
:100F68001228030BDF6E20EE02F01750D926185016
:100F7800DA220EC0E1FF0FC0E2FFDFCFE7FF17C0A4
:100F8800D9FF18C0DAFF000EDF6E15501200FC0EF4
:100F98001200000141C0B6F000010001B76B20EE5D
:100FA80034F03F50D9264050DA22DF5000010001CA
:100FB800B86F00010001B8510D0DF3503F24000136
:100FC8000001B96FF45040200001BA6FB9C0D9FFD1
:100FD800BAC0DAFFDF50D8B402D0FF0E1200000109
:100FE80020EE01F00001B951D9260001BA51DA22E8
:100FF80041C0DFFF000120EE02F00001B951D926FF
:101008000001BA51DA2242C0DFFF030E00010001DD
:10101800B925356E000E00010001BA21366E44C0B4
:1010280038F043C037F0B6C039F0B7C03AF0C3EC77
:101038000CF020EE34F03F50D9264050DA2210EE62
:1010480034F03F50E1264050E222E750456E4528F3
:10105800030BDF6EB9C0D9FFBAC0DAFF010EDF6E2D
:10106800010E1200E8CF35F0000120EE0BF0000170
:10107800DC51D9260001DD51DA22010EDF6E0001B4
:1010880020EE0AF00001DC51D9260001DD51DA22F8
:10109800000EDF6E3550D8B43DD0C7AA21D000016C
:1010A80020EE0CF00001DC51D9260001DD51DA22D6
:1010B800050EDF6E000120EE0EF00001DC51D9268E
:1010C8000001DD51DA22DF2A000120EE0DF00001D7
:1010D800DC51D9260001DD51DA22050EDF6E12003F
:1010E800C7A40CD0000120EE0CF00001DC51D92679
:1010F8000001DD51DA22080EDF6E1200000120EE39
:101108000CF00001DC51D9260001DD51DA22070E6E
:10111800DF6E1200000120EE0CF00001DC51D92630
:101128000001DD51DA22060EDF6E12000DC012F04A
:10113800136A20EE34F00B50D9260C50DA22DF5017
:10114800146E14500D0DF3500B24156EF4500C2032
:10115800166E15C0D9FF16C0DAFFDF50D8B402D01A
:10116800FF0E120020EE01F01550D9261650DA2293
:101178000DC0DFFF20EE02F01550D9261650DA22F6
:101188000EC0DFFF030E1524016E000E1620026E3E
:1011980010C004F00FC003F012C005F013C006F031
:1011A800A3EC0CF020EE34F00B50D9260C50DA22C8
:1011B80010EE34F00B50E1260C50E222E750116E8D
:1011C8001128030BDF6E15C0D9FF16C0DAFF010E18
:1011D800DF6E010E12009EAA3CD020EE04F04850AB
:1011E800D9264950DA22DF501B6E1B50010DF350EF
:1011F8004824D96EF4504920DA6E54EC0EF0DF6EB4
:1012080020EE04F04850D9264950DA22DF2A20EE91
:1012180004F04850D9264950DA22040EDF6219D06A
:101228001B6E200E176E1B5049C019F048C018F0ED
:1012380020EE04F04850D9264950DA22DF5020EC3D
:101248000EF020EE04F04850D9264950DA22000E5C
:10125800DF6E4BA61200AB98AB881B6E1E0E176E86
:101268001B50000E196E000E186E000E20EC0EF0CA
:101278001200E8CFA2F1000EAC6E000EAB6E0101B9
:101288000101A2B1AC8801010101A2A302D0AC8C7A
:10129800AB8C01010101A2B5AC8E01010101A2A72D
:1012A80002D0AB8801D0AB8A01010101A2B9AC849C
:1012B8009E9801010101A2BBAB8601010101A2AD0B
:1012C80002D09D8A01D09D9A9E9A01010101A2AF88
:1012D80002D09D8801D09D98D7C0AFFF0001D8C02B
:1012E800D9F0D9C0DAF00001DB6B0001DA51B06E39
:1012F800AC8AAB8E949C948EACA81200ACBE120043
:10130800948C120000010001DA51D911D8B43AD0F6
:101318000001DB6F010E01010101A26F0001DB5129
:1013280009D0000100010001D890D937DA3701014E
:101338000101A22B00010001DAAFF3D7000100017F
:10134800D95100010001D75D00010001DA51000107
:101358000001D859D8A00CD000010001D9510001D2
:101368000001D75F00010001DA5100010001D85BDC
:10137800000100010001D890DA33D93301010101DD
:10138800A22FDCD7D7C0D7F0D8C0D8F01200E9CF49
:10139800CBF0EACFCCF0E1CFCDF0E2CFCEF0D9CF91
:1013A800CFF0DACFD0F0F3CFD1F0F4CFD2F0F6CF40
:1013B800D3F0F7CFD4F0F8CFD5F0F5CFD6F09EA67E
:1013C80003D09E9662EC00F0F2A403D0F294FBECFA
:1013D8000BF0B1EC0BF0D6C0F5FFD5C0F8FFD4C0C8
:1013E800F7FFD3C0F6FFD2C0F4FFD1C0F3FFD0C0DF
:1013F800DAFFCFC0D9FFCEC0E2FFCDC0E1FFCCC03D
:10140800EAFFCBC0E9FFCAC0FBFFC9C0FAFF110061
:101418001EEC0CF001010101A3510101A211D8B485
:1014280012000001DB6F010E4A6E0001DB51010161
:10143800010E00010001D86F01016C0E00010001CE
:10144800D76F6FEC0DF00009D8B407D00001DB6F3F
:10145800000E4A6E0001DB5112000001000E00016F
:101468000001D86F0001800E00010001D76F6FECFA
:101478000DF00009D8B407D00001DB6F000E4A6EEA
:101488000001DB5112000A0E63EC0EF0D0D7000108
:1014980020EE34F00001D751D9260001D851DA22C4
:1014A800000EDF6E000120EE35F00001D751D9267D
:1014B8000001D851DA22000EDF6E0001D96F000E4C
:1014C80000010001DA6F0001D951030E000100018B
:1014D800DA6501D0120000010001DA510D0DF35058
:1014E80000010001D725D96EF45000010001D82170
:1014F800DA6E000EDF6E00010001DA2B030E000128
:101508000001DA65E8D71200B7C1D9FFB8C1DAFF20
:10151800DE2A000EDD22B7C1D9FFB8C1DAFF00010B
:10152800DECFD7F00001DDCFD8F0000E00010001BA
:10153800DA6F0A0E0001D96F86EC09F0000100018C
:10154800D751090A0001D811D8A412000101BF6FB0
:10155800140E01010101B36F0101BF510101010125
:10156800B8C1B5F101010101B7C1B4F1020E39ECFE
:101578000DF001010101C06F12000001DB6F000EC8
:101588004A6E0001DB510001000E00010001D86F16
:101598000001800E00010001D76F4BEC0AF0010139
:1015A800010E00010001D86F01016C0E000100015D
:1015B800D76F4BEC0AF00101010E00010001D86F52
:1015C8000101360E00010001D76F4BEC0AF0010152
:1015D800010E00010001D86F0101000E0001000199
:1015E800D76F4BEC0AF0120000010001D8C0DDF003
:1015F80000010001D7C0DCF0000120EE0AF0000174
:10160800DC51D9260001DD51DA22000EDF6E00011F
:1016180020EE0BF00001DC51D9260001DD51DA2261
:10162800000EDF6E000120EE0CF00001DC51D9261F
:101638000001DD51DA22050EDF6E000120EE0EF00A
:101648000001DC51D9260001DD51DA22000EDF6EDF
:10165800120001010001A5C1DAF001010001A4C1D5
:10166800D9F001010001A3C1D8F001010001A2C114
:10167800D7F012D0D9C0D9FFDAC0DAFFD7C0E1FF5E
:10168800D8C0E2FFDFCFE7FF00010001D94BDA2B1A
:1016980000010001D74BD82B01010101A607D8A0F2
:1016A800A7070101A629D8B4A729D8B41200E2D700
:1016B800000E206E000E1F6E000E1A6E210E196E9F
:1016C80020C01CF01FC01BF00A0E0CEC0EF0236E9D
:1016D80023BE19D01E6E000E226E1E500DD0ACA275
:1016E800FED72250010DF3501F24D96EF45020204C
:1016F800DA6EDF50AD6E222A225023BE04D0FF0AD4
:101708002324D8B0ECD79D98120001EE00F0A20E69
:10171800EE6AE806FDE100EE80F0360EEE6AE806B5
:10172800FDE14B6A4A6A740EF66E1D0EF76E000EE6
:10173800F86E0900F5CFC3F10900F5CFC4F1780EB2
:10174800F66E1D0EF76E000EF86E0900F5CFDEF08E
:10175800000EF86E00018FEF03F04A6601D0120008
:10176800A2EC0DF038503710D8A41200ADEC0EF0F2
:1017780036503510D8B412000101010E366E010141
:101788006C0E356E33EC0EF00009D8A4120000017F
:10179800000E366E0001800E356E33EC0EF0000937
:1017A800D8B4B7EC0EF01200F2AC08D0000E00016D
:1017B8000001DA6F000E0001D96F120080EC0EF004
:1017C80000010001D8510001D711D8B408D0000E8B
:1017D80000010001DA6F000E0001D96F1200000E3F
:1017E80000010001DA6F010E0001D96F1200FF0E2F
:1017F800366EDC0E356EA4EC0EF089B002D0010E08
:1018080001D0000E0001C26F89500001C219FE0B01
:10181800C219896EDEC0C3F00001000E000100018C
:10182800BF6F0001C30E00010001BE6F010EE3ECA3
:101838000CF01200D8EC0BF000010001DA510001A5
:10184800D911D8A411D080EC0EF000010001D851B4
:101858000001D711D8A408D0000E01010101A36F1F
:10186800010E0101A26F1200000E01010101A36F18
:10187800000E0101A26F1200E8CFBBF10A0E0101B0
:101888000101BB6501D012000101B96F1F0E0101F2
:101898000101B36F0101B95101010101B8C1B5F1ED
:1018A80001010101B7C1B4F101010101BB5154ECBF
:1018B8000DF001010101BA6F1200E8CFDBF0000161
:1018C800000E01010101A96F0001800E0101010153
:1018D800A86FDBC0AAF101010101B7C1ACF1010198
:1018E8000101B6C1ABF101010101B9C1AEF10101BC
:1018F8000101B8C1ADF14BEC05F01200E8CFDBF007
:101908000101010E01010101A96F01016C0E010124
:101918000101A86FDBC0AAF101010101B7C1ACF157
:1019280001010101B6C1ABF101010101B9C1AEF17B
:1019380001010101B8C1ADF14BEC05F0120004C082
:101948000AF003C009F002C008F001C007F00ED089
:1019580009C0D9FF0AC0DAFF07C0E1FF08C0E2FFEB
:10196800DFCFE7FF094A0A2A074A082A0506D8A04E
:1019780006060528D8B40628D8B41200E9D738C016
:101988003EF037C03DF036C03CF035C03BF00ED0DD
:101998003DC0D9FF3EC0DAFF3BC0E1FF3CC0E2FFDB
:1019A800DFCFE7FF3D4A3E2A3B4A3C2A3906D8A00A
:1019B8003A063928D8B43A28D8B41200E9D7E8CF7B
:1019C800C1F00A0E00010001C16501D01200476E86
:1019D8001F0E00010001BB6F475000010001BFC08E
:1019E800BDF000010001BEC0BCF000010001C15102
:1019F800CEEC0DF000010001C06F1200E8CFD7F067
:101A080000010001D7517E0BCD6E00010001D7AD5A
:101A180002D0CD8E01D0CD9E000ECF6E000ECE6EC0
:101A28009E9000010001D7AF02D09D8001D09D900B
:101A3800CD801200E8CFB6F10101010E01010101CC
:101A4800A96F0101360E01010101A86FB6C1AAF103
:101A5800B3C1ABF101010101B5C1ADF10101010152
:101A6800B4C1ACF16DEC06F01200E8CFB6F101019B
:101A7800010E01010101A96F0101000E010101011F
:101A8800A86FB6C1AAF1B3C1ABF101010101B5C19B
:101A9800ADF101010101B4C1ACF16DEC06F0120029
:101AA800E8CFB6F10001000E01010101A96F0001A4
:101AB800800E01010101A86FB6C1AAF1B3C1ABF153
:101AC80001010101B5C1ADF101010101B4C1ACF1E0
:101AD8006DEC06F01200000120EE35F00001D75140
:101AE800D9260001D851DA22DF500001D96F000150
:101AF800D9510D0DF35000010001D725D96EF450CE
:101B080000010001D821DA6EDF5012009BEC0EF0C4
:101B180001C01CF002C01DF01B6E0B0E176E1B508F
:101B2800000E196E000E186E000E20EC0EF0000E5E
:101B3800026E000E016E92EC0EF01200F2AC05D0AF
:101B4800000E386E000E376E1200ADEC0EF03650F7
:101B58003510D8B405D0000E386E000E376E12005E
:101B6800000E386E010E376E1200E8CFD7F0000174
:101B78000001D7517F0BD56E000ED76E000ED66EC2
:101B8800F29400010001D7AF02D0F28A01D0F29A94
:101B9800D58E1200E8CF46F00001000E406E00011D
:101BA800800E3F6E46C041F0BBC042F00001BDC090
:101BB80044F00001BCC043F0CDEC07F01200E8CFC0
:101BC80046F00101010E406E01016C0E3F6E46C0E9
:101BD80041F0BBC042F00001BDC044F00001BCC0F0
:101BE80043F0CDEC07F01200E8CFD7F09486948844
:101BF800D7C0C8FF000EC76E000EC66E000EC56EB9
:101C08000E0EC612C78E94869488C580C68A1200A6
:101C1800E8CF1DF00101010E0C6E0101360E0B6EAE
:101C28001DC00DF01AC00FF019C00EF0116A1BC0CC
:101C380010F064EC07F01200E8CF1AF00001000E73
:101C48000C6E0001800E0B6E1AC00DF017C00EF05E
:101C580019C010F018C00FF09AEC08F0120020EE2E
:101C680035F03550D9263650DA22DF50376E3750E6
:101C78000D0DF3503524D96EF4503620DA6EDF504E
:101C880012000001D8C049F00001D7C048F020EE8A
:101C980004F04850D9264950DA22000EDF6E1200AF
:101CA800F20E4B16ABAC03D04B90ABB04B80ABB441
:101CB8004B84ABB24B86AECF01F001501200E8CF97
:101CC800D7F0FA0E00F0E82EFDD700010001D72F5B
:101CD800F8D7120001010001A9C1D8F001010001E3
:101CE800A8C1D7F01200D7C0D9FFD8C0DAFF000EBC
:101CF800DE6E000EDD6E1200000EF2AE010E000167
:101D08000001D76F0001D86B1200D7C0D9F0D8C036
:101D1800DAF0DAC0D7FFD9C0D6FF120001C003F04D
:101D280002C004F004C0CFFF03C0CEFF1200CECF24
:101D380003F0CFCF04F003C001F004C002F012009A
:101D480035C037F036C038F038C0D7FF37C0D6FFB7
:101D58001200000EF2AE010E356E366A1200D08EF9
:101D6800F28EF28C1200D38E03001200C84B1200C0
:021D7800580011
:067FF80080F4C5FFFFF15B
:00000001FF
