:0400000060EF00F0BD
:10000800FACFC5F0FBCFC6F0E9CFC7F0A6EF0AF0EC
:10001800D8CF23F0E8CF24F0E0CF25F0FACF26F0B0
:10002800FBCF27F0E9CF28F0EACF29F0E1CF2AF07B
:10003800E2CF2BF0D9CF2CF0DACF2DF0F3CF2EF082
:10004800F4CF2FF0F6CF30F0F7CF31F0F8CF32F011
:10005800F5CF33F09EA003D09E907CEC0CF09EAAC6
:1000680003D09E9A1BEC0AF09EB89DA802D0A3EC80
:100078000BF033C0F5FF32C0F8FF31C0F7FF30C0D6
:10008800F6FF2FC0F4FF2EC0F3FF2DC0DAFF2CC0FF
:10009800D9FF2BC0E2FF2AC0E1FF29C0EAFF28C030
:1000A800E9FF27C0FBFF26C0FAFF25C0E0FF24C0F8
:1000B800E8FF23C0D8FF1000EFEF0CF0000E00019E
:1000C800C46F000E0001BF6F000E0001C36F000E69
:1000D8000001C26F000E0001C06FC6AC24D0C69CE0
:1000E800000120EE0CF00001E151D9260001E25197
:1000F800DA22050EDF6E010E0001C06F000120EE4E
:100108000EF00001E151D9260001E251DA22DF2A7E
:10011800000120EE0DF00001E151D9260001E25165
:10012800DA22040EDF6EC7A005D0C9CFC1F0010ED8
:100138000001C46F0001C0679FD188D1C7A69CD1B8
:100148000001C45149EC08F0000120EE0CF0000158
:10015800E151D9260001E251DA22080EDF628CD182
:10016800000E0001C46F010E0001C26F85D1C7A83F
:100178002AD0000120EE0BF00001E151D926000140
:10018800E251DA22DF2A0001C451D8B454D1C7BAE7
:1001980004D0010E0001C36F4ED1000120EE0EF015
:1001A8000001E151D9260001E251DA22DF2A0001DB
:1001B80020EE0DF00001E151D9260001E251DA22CA
:1001C800060EDF6E38D10001C451D8B455D10001F4
:1001D80020EE0BF00001E151D9260001E251DA22AC
:1001E800DF2AC7BA19D0C7B40BD0000120EE0CF033
:1001F8000001E151D9260001E251DA22070E71D03F
:10020800000120EE0CF00001E151D9260001E25175
:10021800DA22080EDF6E08D1000120EE0EF0000190
:10022800E151D9260001E251DA22DF2A000120EE4D
:100238000CF00001E151D9260001E251DA22050E45
:10024800DF6E000120EE0DF00001E151D92600011A
:10025800E251DA22060E45D0000120EE1AF0000124
:10026800E151D9260001E251DA22DF500001BB6FCB
:10027800000120EE19F00001E151D9260001E251F8
:10028800DA22DF500001BB5DD8B0D5D0000120EEE6
:100298001AF00001E151D9260001E251DA22DF50BB
:1002A8000001BB6F0001BB51010D0F0EF326000EBC
:1002B800F422F3500001E125D96EF4500001E22147
:1002C800DA6EDF50C96E000120EE1AF00001E1512C
:1002D800D9260001E251DA22DF2A010E0001BF6FA0
:1002E800CBD0DF6EC9D0C7A85AD0000120EE0BF0E2
:1002F8000001E151D9260001E251DA22DF2A00018A
:10030800C451D8B448D0C7AA25D0000120EE0AF0BD
:100318000001E151D9260001E251DA22DF50000143
:10032800BB6F0001BB51010DF3500001E125D96EEF
:10033800F4500001E221DA6E0001C1C0DFFF0001C4
:1003480020EE0AF00001E151D9260001E251DA223B
:10035800DF2A21D0000120EE0EF00001E151D9265C
:100368000001E251DA22DF2A000120EE0DF000013F
:10037800E151D9260001E251DA22060EDF6E0001B2
:1003880020EE0CF00001E151D9260001E251DA22F9
:10039800050EDF6E50D0010E0001C36F4CD0000176
:1003A800C451D8B469D0000120EE0BF00001E1512E
:1003B800D9260001E251DA22DF2AC7AA25D0000196
:1003C80020EE0AF00001E151D9260001E251DA22BB
:1003D800DF500001BB6F0001BB51010DF35000015C
:1003E800E125D96EF4500001E221DA6E0001C1C0A6
:1003F800DFFF000120EE0AF00001E151D9260001DB
:10040800E251DA22DF2A38D0C7A4C7D6000120EE8D
:100418000CF00001E151D9260001E251DA22080E60
:10042800DF6E010E0001C36F010E0001C26F000EE6
:100438000001C46F21D0000120EE0CF00001E15151
:10044800D9260001E251DA22050E4BD7000120EE31
:100458000CF00001E151D9260001E251DA22DF5007
:10046800050AD8B46BD6030AD8B481D6010AD8B421
:100478003AD70F0AD8B4F0D60001C46704D00001F7
:10048800BF51D8B402D0C6A8C688000120EE0AF031
:100498000001E151D9260001E251DA22080EDF6499
:1004A80023D00001C36720D0000120EE0CF000012A
:1004B800E151D9260001E251DA22050EDF6E000172
:1004C80020EE0EF00001E151D9260001E251DA22B6
:1004D800DF2A000120EE0DF00001E151D9260001CC
:1004E800E251DA22070EDF6E0001C351D8B43ED0C4
:1004F800000120EE0BF00001E151D9260001E25184
:10050800DA22000110EE0AF00001E151E1260001B3
:10051800E251E222E7500001BB6F0001BB51010D1F
:10052800F3500001E125E16EF4500001E221E26E92
:10053800DFCFE7FF280E456E0001E2C047F000015B
:10054800E1C046F0000120EE0AF00001E151D92691
:100558000001E251DA22DF500001BB6F0001BB2924
:10056800D5EC0DF0000120EE0AF03ED0000120EE9F
:100578000EF00001E151D9260001E251DA22DF50E4
:10058800D8B43AD0000120EE0EF00001E151D9268E
:100598000001E251DA22DF500001BC6F000120EEB9
:1005A8000DF00001E151D9260001E251DA22DF50B5
:1005B8000001BD6F000120EE0BF00001E151D926CA
:1005C8000001E251DA22DF500001BE6F290E456EAC
:1005D8000001000E476E0001BC0E466E030ED5ECFE
:1005E8000DF0000120EE0EF00001E151D9260001C6
:1005F800E251DA22000EDF6E0001C251D8B41200B7
:100608002A0E456E0001E2C047F00001E1C046F045
:10061800000ED5EC0DF0000E0001C26F1200000EA6
:10062800806E000E896E0F0EC16E070EB46E926852
:10063800000E816E000E8A6E9368820ED36E9B9CAC
:100648000101010E0001D46F0101310E0001D36FC9
:10065800F9EC0DF00101010E0001D46F0101620EE9
:100668000001D36FE5EC0AF00101010E0001D66F1D
:1006780001013A0E0001D56F6FEC09F00101010E7E
:100688000001D46F0101270E0001D36F5DEC0EF05D
:1006980078EC0BF0000E936E000E8A6EF50E6CEC83
:1006A8000DF0FD0E0001D46FA80E0001D36F2FECE2
:1006B8000EF0FC0E0101256F0C0E0101246F0101E3
:1006C800000124C1D3F00001D46B0101255165EC70
:1006D8000AF09F909F9A9F989F869A0E9CEC0DF027
:1006E8009D8656EC0EF04AEC0BF00101010E01015B
:1006F8000D6F0101380E01010C6F0101010E01019E
:100708000F6F0101190E01010E6F0A0ED4EC0CF0E7
:100718000101396F010139BF8DD07ED00101010E71
:100728000001D46F0101170E0001D36F0101000110
:1007380038C1D5F00001D66B010139510001D76FDE
:100748000001D86B0001D7BFD8070101010E0001D5
:10075800DA6F0101190E0001D96F49EC0EF06AD069
:1007680019C126F111D0000E0101366F000E09D013
:10077800C70E0101366F490E04D0B60E0101366F5F
:10078800360E0101376F0BD001012651000AD8B48B
:10079800EAD7010AD8B4ECD7030AD8B4EED70101D6
:1007A800010E01010D6F0101360E01010C6F020EE1
:1007B80021EC0DF03FD019C126F13CD0020E010109
:1007C800396F550E0101196FAA0E01011A6F17D062
:1007D800010E0101396F3A0E04D0010E0101396F83
:1007E800A30E0101196F0BD001012651A80AD8B434
:1007F800EFD7010AD8B4F1D7030AD8B4DFD701017B
:10080800010E0001D46F0101190E0001D36F01011F
:10081800395176EC06F00ED0010138510A0AD8B4E5
:100828007DD7220AD8B49CD7010AD8B4C4D7030A02
:10083800D8B4DAD70101010E01010D6F0101380E9C
:1008480001010C6F0101010E01010F6F0101190E69
:1008580001010E6F0A0EB9EC0CF00101396F0101AC
:1008680039BF41D743D00101010E0001D46F010106
:100878003A0E0001D36F0101000138C1D5F0000123
:10088800D66B010139510001D76F0001D86B000107
:10089800D7BFD8070101010E0001DA6F0101190E57
:1008A8000001D96F70EC07F01ED70101010E01019C
:1008B8000D6F0101270E01010C6F010138C10EF106
:1008C80001010F6B010139510101106F0101116B19
:1008D800010110BF11070101010E0101136F010190
:1008E800190E0101126F0FEC09F0FDD60101385104
:1008F8000B0AD8B4B8D7150AD8B4D7D7010AD8B4D0
:10090800D4D73F0AD8B4D1D7EED6D3C0D9FFD4C0F4
:10091800DAFF000EDF6E000120EE01F00001D35176
:10092800D9260001D451DA22FF0EDF6E000120EE35
:1009380002F00001D351D9260001D451DA22010E68
:10094800DF6E000120EE03F00001D351D92600012B
:10095800D451DA22FE0EDF6E000120EE04F0000111
:10096800D351D9260001D451DA22010EDF6E0001DD
:1009780020EE05F00001D351D9260001D451DA2226
:10098800000EDF6E000120EE06F00001D351D926DB
:100998000001D451DA22FE0EDF6E000120EE07F0CE
:1009A8000001D351D9260001D451DA22FF0EDF6E9F
:1009B800000120EE08F00001D351D9260001D451DE
:1009C800DA22FF0EDF6E000120EE09F00001D3519C
:1009D800D9260001D451DA22FE0EDF6E000120EE86
:1009E8000AF00001D351D9260001D451DA22000EB1
:1009F800DF6E000120EE0BF00001D351D926000173
:100A0800D451DA22010EDF6E000120EE0CF0000155
:100A1800D351D9260001D451DA22FE0EDF6E00012F
:100A280020EE0DF00001D351D9260001D451DA226D
:100A3800010EDF6E000120EE0EF00001D351D92621
:100A48000001D451DA22FF0EDF6E000120EE0FF014
:100A58000001D351D9260001D451DA22000EDF6EED
:100A6800000120EE10F00001D351D9260001D45125
:100A7800DA22000EDF6E000120EE11F00001D351E2
:100A8800D9260001D451DA22FF0EDF6E000120EED4
:100A980012F00001D351D9260001D451DA22010EF7
:100AA800DF6E000120EE13F00001D351D9260001BA
:100AB800D451DA22020EDF6E000120EE14F000019C
:100AC800D351D9260001D451DA22010EDF6E00017C
:100AD80020EE15F00001D351D9260001D451DA22B5
:100AE800000EDF6E000120EE16F00001D351D9266A
:100AF8000001D451DA22020EDF6E000120EE17F059
:100B08000001D351D9260001D451DA22FF0EDF6E3D
:100B1800000120EE18F00001D351D9260001D4516C
:100B2800DA22FF0EDF6E000120EE19F00001D3512A
:100B3800D9260001D451DA22020EDF6E000120EE20
:100B48001AF00001D351D9260001D451DA22000E3F
:100B5800DF6E000120EE1BF00001D351D926000101
:100B6800D451DA22010EDF6E000120EE1CF00001E4
:100B7800D351D9260001D451DA22020EDF6E0001CA
:100B880020EE1DF00001D351D9260001D451DA22FC
:100B9800010EDF6E000120EE1EF00001D351D926B0
:100BA8000001D451DA22FF0EDF6E000120EE1FF0A3
:100BB8000001D351D9260001D451DA22000EDF6E8C
:100BC8001200010120EE35F001010051D926010182
:100BD8000151DA22DF500101076F010107510D0DA4
:100BE800F3500101002501010A6FF45001010121B0
:100BF80001010B6F010E0AC1D9FF0BC1DAFFDF62D9
:100C08006FD0010120EE01F001010A51D92601013E
:100C18000B51DA22DF500101025DD8B002D0FD0E7F
:100C28001200010120EE01F001010A51D92601014B
:100C38000B51DA22DF500001DD6F0001DD510101A7
:100C4800086F0101096B0101000106C1D4F001011F
:100C5800000105C1D3F0030E01010A250001DD6F73
:100C6800000E01010B210001DE6FDDC0D5F0DEC0F2
:100C7800D6F008C1D7F009C1D8F0CEEC0BF00101CD
:100C880020EE35F001010051D92601010151DA2287
:100C9800010110EE35F001010051E1260101015179
:100CA800E222E7500001DD6F0001DD29030BDF6E52
:100CB800010120EE02F001010A51D92601010B5170
:100CC800DA2203C1E1FF04C1E2FFDFCFE7FF0AC177
:100CD800D9FF0BC1DAFF000EDF6E010108511200C7
:100CE800FC0E12000001D76F000120EE19F0000180
:100CF800E151D9260001E251DA22000EDF6E3ED022
:100D0800000120EE19F00001E151D9260001E2515D
:100D1800DA22DF500001D56F0001D551010DF350E3
:100D28000001D325D96EF4500001D421DA6E0001F8
:100D380010EE19F00001E151E1260001E251E22232
:100D4800E7500001D66F0001D651010D0F0EF326B2
:100D5800000EF422F3500001E125E16EF450000189
:100D6800E221E26EDFCFE7FF000120EE19F000017B
:100D7800E151D9260001E251DA22DF2A000120EEF2
:100D880019F00001E151D9260001E251DA22DF50C1
:100D98000001D56F0001D7510001D55DD8A0B0D7AB
:100DA800000120EE19F00001E151D9260001E251BD
:100DB800DA220001D7C0DFFF000120EE1AF000019F
:100DC800E151D9260001E251DA22010EDF6E00015D
:100DD80020EE0FF00001E151D9260001E251DA229C
:100DE800DF50C96EC6881200010102C106F1010177
:100DF800076B010120EE34F001010051D9260101F1
:100E08000151DA22DF500101086F010108510D0D6F
:100E1800F350010100250101096FF450010101217E
:100E280001010A6F09C1D9FF0AC1DAFFDF50D8B43E
:100E380002D0FF0E1200010120EE01F0010109515C
:100E4800D92601010A51DA22010102C1DFFF01019D
:100E580020EE02F001010951D92601010A51DA22D6
:100E6800010103C1DFFF030E010109250001D36F52
:100E7800000E01010A210001D46F0101000105C122
:100E8800D6F00101000104C1D5F006C1D7F007C1B1
:100E9800D8F0CEEC0BF0010120EE34F00101005146
:100EA800D92601010151DA22010110EE34F00101C5
:100EB8000051E12601010151E222E7500001DD6FF6
:100EC8000001DD29030BDF6E09C1D9FF0AC1DAFF72
:100ED800010EDF6E010E1200D3C0D9FFD4C0DAFFB5
:100EE800DE2A000EDD22D9C0D9FFDAC0DAFFDF50D2
:100EF8000001DB6F000120EE25F00001D351D92657
:100F08000001D451DA22DF500001DC6F0001D890D3
:100F1800DC370001D890DC37000120EE24F0000116
:100F2800D351D9260001D451DA22DF500001DD6FF8
:100F38000001D890DD370001D890DD370001D89046
:100F4800DD37000120EE01F00001D951D92600015A
:100F5800DA51DA22DF500001DE6F0001D890DE3569
:100F68000001DD250001DC250001DB250001DF6F24
:100F7800D9C0D9FFDAC0DAFF000110EE24F0000171
:100F8800D351E1260001D451E222DFCFE7FF00016F
:100F980020EE01F00001D951D9260001DA51DA22F8
:100FA800000110EE25F00001D351E1260001D451D3
:100FB800E222DFCFE7FF120020EE35F00B50D926F2
:100FC8000C50DA22DF50146E14500D0DF3500B2420
:100FD800176EF4500C20186E010E17C0D9FF18C0F8
:100FE800DAFFDF6250D020EE01F01750D9261850F2
:100FF800DA22DF500D5CD8B002D0FD0E120020EED0
:1010080001F01750D9261850DA22DF50126E12500C
:10101800156E166A11C002F010C001F0030E1724F5
:10102800126E000E1820136E12C003F013C004F0E5
:1010380015C005F016C006F01DEC0CF020EE35F0DA
:101048000B50D9260C50DA2210EE35F00B50E12661
:101058000C50E222E750126E1228030BDF6E20EECE
:1010680002F01750D9261850DA220EC0E1FF0FC03F
:10107800E2FFDFCFE7FF17C0D9FF18C0DAFF000E85
:10108800DF6E15501200FC0E1200346E000120EEC7
:101098000BF00001E151D9260001E251DA22010EDC
:1010A800DF6E000120EE0AF00001E151D9260001AF
:1010B800E251DA22000EDF6E3450D8B43DD0C7AA10
:1010C80021D0000120EE0CF00001E151D9260001E9
:1010D800E251DA22050EDF6E000120EE0EF000016B
:1010E800E151D9260001E251DA22DF2A000120EE7F
:1010F8000DF00001E151D9260001E251DA22050E76
:10110800DF6E1200C7A40CD0000120EE0CF0000125
:10111800E151D9260001E251DA22080EDF6E1200F1
:10112800000120EE0CF00001E151D9260001E25146
:10113800DA22070EDF6E1200000120EE0CF000012B
:10114800E151D9260001E251DA22060EDF6E1200C3
:10115800000140C0B6F00001B76B20EE34F03E50FD
:10116800D9263F50DA22DF500001B86F0001B8518C
:101178000D0DF3503E240001B96FF4503F200001DB
:10118800BA6FB9C0D9FFBAC0DAFFDF50D8B402D0FD
:10119800FF0E1200000120EE01F00001B951D9261E
:1011A8000001BA51DA2240C0DFFF000120EE02F050
:1011B8000001B951D9260001BA51DA2241C0DFFF36
:1011C800030E0001B925346E000E0001BA21356EF8
:1011D80043C037F042C036F0B6C038F0B7C039F077
:1011E8003DEC0CF020EE34F03E50D9263F50DA2288
:1011F80010EE34F03E50E1263F50E222E750446EB4
:101208004428030BDF6EB9C0D9FFBAC0DAFF010E5C
:10121800DF6E010E120001010E511E0A0F11D8B423
:10122800120001010E511F0A0F11D8A441D0000E5F
:101238000101166F000E0101156F000E0101166FF6
:10124800000E0101156F01011651800A800F0A0E68
:10125800D8B4155DD8B01AD0010115510101122575
:10126800D96E0101165101011321DA6E01011551E0
:1012780001010C25E16E0101165101010D21E26EFB
:10128800DFCFE7FF0101154B162BDDD70EC1DEF0CE
:10129800010100010DC1E0F0010100010CC1DFF006
:1012A8000101105108EC0DF00101146F9D88120026
:1012B80001010E51200A0F11D8A41200010110518A
:1012C80001011225D96E0101115101011321DA6EB4
:1012D800000EDF6E1200D5C0D9FFD6C0DAFF000EAF
:1012E800DE6E000EDD6E000120EE02F00001D55129
:1012F800D9260001D651DA22B60EDF6E000120EEA3
:1013080003F00001D551D9260001D651DA22360E54
:10131800DF6E000120EE24F00001D551D92600012E
:10132800D651DA22000EDF6E000120EE25F0000112
:10133800D551D9260001D651DA22000EDF6E000100
:1013480020EE26F00001D551D9260001D651DA2227
:10135800000EDF6E000120EE27F00001D551D926DE
:101368000001D651DA22000EDF6E040E0001D525E9
:101378000001D36F000E0001D6210001D46F89EC63
:1013880004F012000DC012F0136A20EE34F00B5076
:10139800D9260C50DA22DF50146E14500D0DF3507C
:1013A8000B24156EF4500C20166E15C0D9FF16C00C
:1013B800DAFFDF50D8B402D0FF0E120020EE01F0A1
:1013C8001550D9261650DA220DC0DFFF20EE02F0A4
:1013D8001550D9261650DA220EC0DFFF030E152449
:1013E800016E000E1620026E10C004F00FC003F04C
:1013F80012C005F013C006F01DEC0CF020EE34F01E
:101408000B50D9260C50DA2210EE34F00B50E1269E
:101418000C50E222E750116E1128030BDF6E15C045
:10142800D9FF16C0DAFF010EDF6E010E12009EAA68
:101438003AD020EE04F04950D9264A50DA22DF503B
:101448001B6E1B50010DF3504924D96EF4504A20ED
:10145800DA6E08EC0EF0DF6E20EE04F04950D92663
:101468004A50DA22DF2A20EE04F04950D9264A50A1
:10147800DA22040EDF6217D0200E176E4AC019F068
:1014880049C018F020EE04F04950D9264A50DA2213
:10149800DF50C3EC0DF020EE04F04950D9264A5035
:1014A800DA22000EDF6E4CA61200AB98AB881E0E37
:1014B800176E000E196E000E186E000EC3EC0DF0BC
:1014C80012000001D86F000EAC6E000EAB6E00016A
:1014D800D8B1AC880001D8A302D0AC8CAB8C000189
:1014E800D8B5AC8E0001D8A702D0AB8801D0AB8AA2
:1014F8000001D8B9AC849E980001D8BBAB86000126
:10150800D8AD02D09D8A01D09D9A9E9A0001D8AF8D
:1015180002D09D8801D09D98D3C0AFFF0001D4C0F0
:10152800D5F0D5C0D6F00001D76B0001D651B06E0A
:10153800AC8AAB8E949C948EACA81200ACBE120000
:10154800948C1200EACFC8F0E1CFC9F0E2CFCAF01C
:10155800D9CFCBF0DACFCCF0F3CFCDF0F4CFCEF0BB
:10156800F6CFCFF0F7CFD0F0F8CFD1F0F5CFD2F05B
:101578009EA603D09E9662EC00F0F2A403D0F294EB
:101588005EEC0EF0F6EC0BF0D2C0F5FFD1C0F8FF20
:10159800D0C0F7FFCFC0F6FFCEC0F4FFCDC0F3FF39
:1015A800CCC0DAFFCBC0D9FFCAC0E2FFC9C0E1FF97
:1015B800C8C0EAFFC7C0E9FFC6C0FBFFC5C0FAFF45
:1015C80011000001D4C0E2F00001D3C0E1F0000135
:1015D80020EE0AF00001E151D9260001E251DA2299
:1015E800000EDF6E000120EE0BF00001E151D9265C
:1015F8000001E251DA22000EDF6E000120EE0CF04D
:101608000001E151D9260001E251DA22050EDF6E10
:10161800000120EE0EF00001E151D9260001E2514F
:10162800DA22000EDF6E1200000120EE34F0000115
:10163800D351D9260001D451DA22000EDF6E000101
:1016480020EE35F00001D351D9260001D451DA2219
:10165800000EDF6E000E0001D56F030E0001D56588
:1016680001D012000001D5510D0DF3500001D32512
:10167800D96EF4500001D421DA6E000EDF6E00013D
:10168800D52B030E0001D565EDD712009BEC0CF0AD
:101698000001D8510001D711D8B41200010E4B6EC9
:1016A8000101010E0001D46F0101B40E0001D36FD6
:1016B80053EC0DF00009D8B403D0000E4B6E1200A5
:1016C8000001000E0001D46F0001800E0001D36FED
:1016D80053EC0DF00009D8B403D0000E4B6E120085
:1016E8000A0E25EC0EF0DCD7000E4B6E0001000E42
:1016F8000001D46F0001800E0001D36F18EC0BF0CD
:101708000101010E0001D46F0101B40E0001D36F75
:1017180018EC0BF00101010E0001D46F01017E0EDF
:101728000001D36F18EC0BF00201020E0001D46F18
:101738000201000E0001D36F18EC0BF01200000E2E
:101748001F6E000E1E6E000E1A6E200E196E1FC040
:101758001CF01EC01BF00A0EB0EC0DF0226E22BE6B
:1017680017D0000E216E0DD0ACA2FED72150010D6E
:10177800F3501E24D96EF4501F20DA6EDF50AD6E80
:10178800212A215022BE04D0FF0A2224D8B0ECD747
:101798009D9812000001D6C0DCF00001D5C0DBF036
:1017A8000001D4C0DAF00001D3C0D9F010D0DBC0FA
:1017B800D9FFDCC0DAFFD9C0E1FFDAC0E2FFDFCF32
:1017C800E7FF0001DB4BDC2B0001D94BDA2B0001D2
:1017D800D707D8A0D8070001D729D8B4D829D8B4B2
:1017E8001200E5D74B6601D0120085EC0DF037509A
:1017F8003610D8A4120050EC0EF035503410D8B47E
:1018080012000101010E356E0101B40E346EE7ECD1
:101818000DF00009D8A412000001000E356E000179
:10182800800E346EE7EC0DF00009D8B45AEC0EF0D7
:10183800120004C00AF003C009F002C008F001C099
:1018480007F00ED009C0D9FF0AC0DAFF07C0E1FFD0
:1018580008C0E2FFDFCFE7FF094A0A2A074A082A39
:101868000506D8A006060528D8B40628D8B412005C
:10187800E9D737C03DF036C03CF035C03BF034C046
:101888003AF00ED03CC0D9FF3DC0DAFF3AC0E1FFC4
:101898003BC0E2FFDFCFE7FF3C4A3D2A3A4A3B2AFA
:1018A8003806D8A039063828D8B43928D8B4120050
:1018B800E9D7F2AC07D0000E0001D66F000E000188
:1018C800D56F120041EC0EF00001D4510001D31184
:1018D800D8B407D0000E0001D66F000E0001D56FF6
:1018E8001200000E0001D66F010E0001D56F120024
:1018F800FD0E026EA80E016E38EC0EF0000E80B0E0
:10190800010E1E6E000E80B2010E1F6E80A002D066
:10191800010E01D0000E17EC0EF00B0E176E000E24
:10192800196E1E0E186E020EC3EC0DF012005DEC5F
:101938000CF00001D6510001D511D8A40FD041EC0C
:101948000EF00001D4510001D311D8A407D0000E25
:101958000001D86F010E0001D76F1200000E0001C0
:10196800D86F000E0001D76F12000001DF6F000171
:10197800000E0101016F0001800E0101006FDFC040
:1019880002F101010DC104F101010CC103F10101D2
:101998000FC106F101010EC105F1E5EC05F01200D9
:1019A8000001DF6F0101010E0101016F0101B40E99
:1019B8000101006FDFC002F101010DC104F1010155
:1019C8000CC103F101010FC106F101010EC105F1BE
:1019D800E5EC05F0120002EE00F0360EEE6AE806BD
:1019E800FDE101EE7EF06C0EEE6AE806FDE100EE28
:1019F80080F0360EEE6AE806FDE14C6A4B6A000E8E
:101A0800F86E000113EF03F001010B6F0101010EE5
:101A18000101016F01017E0E0101006F0BC102F18E
:101A2800DEC003F100010101E0C005F10001010180
:101A3800DFC004F1F8EC06F0120001010F6F0A0E86
:101A480001010F6501D012001F0E0001DE6F0101B8
:101A580000010DC1E0F0010100010CC1DFF001013E
:101A68000F513AEC0DF001010E6F120001010B6FDE
:101A78000001000E0101016F0001800E0101006FDD
:101A88000BC102F1DEC003F100010101E0C005F164
:101A980000010101DFC004F1F8EC06F012000001BA
:101AA80020EE35F00001D351D9260001D451DA22B5
:101AB800DF500001D56F0001D5510D0DF350000125
:101AC800D325D96EF4500001D421DA6EDF5012000C
:101AD8000001D36F0001D3517E0BCD6E0001D3AD51
:101AE80002D0CD8E01D0CD9E000ECF6E000ECE6EF0
:101AF8009E900001D3AF02D09D8001D09D90CD80F3
:101B08001200F2AC05D0000E376E000E366E1200D1
:101B180050EC0EF035503410D8B405D0000E376EA6
:101B2800000E366E1200000E376E010E366E120071
:101B38000001D36F94869488D3C0C8FF000EC76E87
:101B4800000EC66E000EC56E0E0EC612C78E9486A7
:101B58009488C580C68A12001D6E0101010E0C6EA4
:101B680001017E0E0B6E1DC00DF01AC00FF019C0DA
:101B78000EF0116A1BC010F0E0EC07F012001A6EAC
:101B88000001000E0C6E0001800E0B6E1AC00DF0E5
:101B980017C00EF019C010F018C00FF0C6EC09F00D
:101BA8001200486E0101010E3F6E0101B40E3E6E37
:101BB80048C040F045C041F047C043F046C042F03D
:101BC800ACEC08F0120020EE35F03450D926355030
:101BD800DA22DF50366E36500D0DF3503424D96EAC
:101BE800F4503520DA6EDF5012000001D4C04AF0FC
:101BF8000001D3C049F020EE04F04950D9264A50DC
:101C0800DA22000EDF6E1200F20E4C16ABAC03D0D7
:101C18004C90ABB04C80ABB44C84ABB24C86AECFDE
:101C280001F0015012001B6E1BC01DF01F0E176E35
:101C3800000E196E1D0E186E010EC3EC0DF01C6E11
:101C480012000001D36FFA0E00F0E82EFDD7000154
:101C5800D32FF9D71200D3C0D5F0D4C0D6F0D6C050
:101C6800CFFFD5C0CEFF120001C003F002C004F0C0
:101C780004C0CFFF03C0CEFF1200000EF2AE010E6B
:101C88000001D36F0001D46B12000001DAC0DCF050
:101C98000001D9C0DBF01200000EF2AE010E346E66
:101CA800356A1200D08EF28EF28C1200D38E0300A9
:061CB800120012001200F0
:067FF80080F4C5FFFFF15B
:00000001FF
