:0400000069EF00F0B4
:0C000800FACF94F0FBCF95F0E4EF0AF083
:10001800D8CF25F0E8CF26F0E0CF27F0FACF28F0A8
:10002800FBCF29F0E9CF2AF0EACF2BF0E1CF2CF073
:10003800E2CF2DF0D9CF2EF0DACF2FF0F3CF30F07A
:10004800F4CF31F0F6CF32F0F7CF33F0F8CF34F009
:10005800F5CF35F09EA00CD09E90246E0B0E176E37
:100068002450000E196E000E186E000E71EC0FF081
:100078009EAA03D09E9A96EC0AF09EB89DA802D03C
:100088004EEC0DF035C0F5FF34C0F8FF33C0F7FF74
:1000980032C0F6FF31C0F4FF30C0F3FF2FC0DAFFE3
:1000A8002EC0D9FF2DC0E2FF2CC0E1FF2BC0EAFF14
:1000B8002AC0E9FF29C0FBFF28C0FAFF27C0E0FFDC
:1000C80026C0E8FF25C0D8FF1000A2EF0DF0000100
:1000D800896F000E00010001936F00018951000132
:1000E800896F000E000100018E6F00018951000127
:1000F800896F000E00010001926F00018951000113
:10010800896F000E00010001916F00018951000103
:10011800896F000E000100018F6F00018951C6AC84
:1001280029D0C69C000120EE0CF00001D451D9263C
:100138000001D551DA22050EDF6E0001896F010E2C
:10014800000100018F6F00018951000120EE0EF0BF
:100158000001D451D9260001D551DA22DF2A000145
:1001680020EE0DF00001D451D9260001D551DA2234
:10017800040EDF6EC7A00AD0C9CF90F00001896FC6
:10018800010E00010001936F000189510001000177
:100198008F67CED1B7D1C7A6CBD10001000193514B
:1001A800DDEC09F0000120EE0CF00001D451D92655
:1001B8000001D551DA22080EDF62BAD10001896F39
:1001C800000E00010001936F000189510001896F41
:1001D800010E00010001916F87D1C7A830D000013E
:1001E80020EE0BF00001D451D9260001D551DA22B6
:1001F800DF2A000100019351D8B479D1C7BA09D0D8
:100208000001896F010E00010001926F0001895100
:100218006ED1000120EE0EF00001D451D926000164
:10022800D551DA22DF2A000120EE0DF00001D45169
:10023800D9260001D551DA22060EDF6E58D1000109
:1002480000019351D8B474D1000120EE0BF00001E5
:10025800D451D9260001D551DA22DF2AC7BA19D0DC
:10026800C7B40BD0000120EE0CF00001D451D92600
:100278000001D551DA22070E76D0000120EE0CF0ED
:100288000001D451D9260001D551DA22080EDF6EBB
:100298001DD1000120EE0EF00001D451D926000135
:1002A800D551DA22DF2A000120EE0CF00001D451EA
:1002B800D9260001D551DA22050EDF6E000120EEA5
:1002C8000DF00001D451D9260001D551DA22060ECD
:1002D8004AD0000120EE1AF00001D451D9260001BD
:1002E800D551DA22DF500001896F000120EE19F0A4
:1002F8000001D451D9260001D551DA22DF5000017E
:10030800895DD8B0F4D0000120EE1AF00001D45174
:10031800D9260001D551DA22DF500001896F00018A
:100328008951010D0F0EF326000EF422F35000013F
:100338000001D425D96EF45000010001D521DA6EF0
:10034800DF50C96E000120EE1AF00001D451D92601
:100358000001D551DA22DF2A0001896F010E000160
:1003680000018E6FC1D0DF6EE3D0C7A862D0000154
:1003780020EE0BF00001D451D9260001D551DA2224
:10038800DF2A000100019351D8B44AD0C7AA27D068
:10039800000120EE0AF00001D451D9260001D55100
:1003A800DA22DF500001896F00018951010DF350F5
:1003B80000010001D425D96EF45000010001D521B7
:1003C800DA6E000190C0DFFF000120EE0AF00001A4
:1003D800D451D9260001D551DA22DF2A21D00001D3
:1003E80020EE0EF00001D451D9260001D551DA22B1
:1003F800DF2A000120EE0DF00001D451D9260001BA
:10040800D551DA22060EDF6E000120EE0CF0000155
:10041800D451D9260001D551DA22050EDF6E67D0F6
:100428000001896F010E00010001926F00018951DE
:100438005ED0000100019351D8B47AD0000120EEBB
:100448000BF00001D451D9260001D551DA22DF2A58
:10045800C7AA27D0000120EE0AF00001D451D926FE
:100468000001D551DA22DF500001896F000189515E
:10047800010DF35000010001D425D96EF45000019C
:100488000001D521DA6E000190C0DFFF000120EEE7
:100498000AF00001D451D9260001D551DA22DF2A09
:1004A80047D0C7A4B6D6000120EE0CF00001D45105
:1004B800D9260001D551DA22080EDF6E0001896FB6
:1004C800010E00010001926F000189510001896F3E
:1004D800010E00010001916F000189510001896F2F
:1004E800000E00010001936F0001895121D0000125
:1004F80020EE0CF00001D451D9260001D551DA22A2
:10050800050E31D7000120EE0CF00001D451D92698
:100518000001D551DA22DF50050AD8B43CD6030AC7
:10052800D8B45BD6010AD8B420D70F0AD8B4D1D62C
:1005380000010001936705D0000100018E51D8B475
:1005480002D0C6A8C688000120EE0AF00001D451E6
:10055800D9260001D551DA22080EDF6424D0000123
:100568000001926720D0000120EE0CF00001D45168
:10057800D9260001D551DA22050EDF6E000120EEE2
:100588000EF00001D451D9260001D551DA22DF2A14
:10059800000120EE0DF00001D451D9260001D551FB
:1005A800DA22070EDF6E000100019251D8B448D05C
:1005B800000120EE0BF00001D451D9260001D551DD
:1005C800DA22000110EE0AF00001D451E126000100
:1005D800D551E222E7500001896F00018951010DD0
:1005E800F35000010001D425E16EF4500001000130
:1005F800D521E26EDFCFE7FF0001896F280E0001E9
:100608000001856F0001895100010001D5C087F004
:1006180000010001D4C086F0000120EE0AF00001BC
:10062800D451D9260001D551DA22DF5000018A6F52
:1006380000018A2934EC0FF0000120EE0AF04BD0BB
:10064800000120EE0EF00001D451D9260001D55149
:10065800DA22DF50D8B447D0000120EE0EF00001B6
:10066800D451D9260001D551DA22DF50000100010A
:100678008B6F000120EE0DF00001D451D926000146
:10068800D551DA22DF50000100018C6F000120EE05
:100698000BF00001D451D9260001D551DA22DF50E0
:1006A800000100018D6F0001896F290E0001000112
:1006B800856F000189510001000E00010001876F5C
:1006C80000018B0E00010001866F030E34EC0FF061
:1006D800000120EE0EF00001D451D9260001D551B9
:1006E800DA22000EDF6E000100019151D8B4120029
:1006F8000001896F2A0E00010001856F00018951F0
:1007080000010001D5C087F000010001D4C086F0C7
:10071800000E34EC0FF00001896F000E000100019B
:10072800916F000189511200000E806E000E896ED3
:100738000F0EC16E070EB46E000E926E000E816E23
:10074800000E8A6E9368820ED36E9B8C0101010E97
:1007580000010001A36F01011E0E00010001A26F3C
:1007680096EC0FF00101010E00010001A36F0101D9
:10077800510E00010001A26FB8EC0CF00101010E4E
:1007880000010001A36F0101240E00010001A26F06
:1007980078EC09F00101010E00010001A36F0101CD
:1007A8000E0E00010001A26FB4EC0FF00101010E62
:1007B80000010001A36F0101120E00010001A26FE8
:1007C800EEEC0FF081EC0CF0C70EB0EC0EF000016F
:1007D800CF6FEC0E010101010C6F0001CF51000138
:1007E800CF6F4D0E010101010B6F0001CF510101C7
:1007F80000010BC1A2F000010001A36B010101017E
:100808000C5131EC0BF09F909F9A9F989F86F18036
:10081800F2869A0E49EC0FF09D86E5EC0FF0010187
:10082800010E00010001C26F0101240E0001000148
:10083800C16F000E00010001C46FB70E0001C36F45
:10084800EDEC0CF005EC0CF00101010E00010001CB
:10085800BB6F0101230E00010001BA6F0101010EF7
:1008680000010001BD6F0101000E00010001BC6F15
:100878000A0E4FEC0EF001010101506F0101010158
:1008880050BFD3D0C3D00101010E00010001C26FD7
:1008980001010E0E00010001C16F0101000123C119
:1008A800C3F000010001C46B0101010150510001B6
:1008B8000001C56F0001C66B0001C5BFC607010175
:1008C800010E00010001C86F0101000E00010001C6
:1008D800C76F7AEC0BF0A9D000C10DF129D0000147
:1008E800CF6F000E010101011C6F0001CF51000103
:1008F800CF6F000E17D00001CF6FC70E01010101A5
:100908001C6F0001CF510001CF6F490E0BD00001C1
:10091800CF6FB60E010101011C6F0001CF5100011C
:10092800CF6F360E010101011D6F0001CF510CD0B0
:10093800010101010D51000AD8B4D1D7010AD8B478
:10094800DAD7030AD8B4E3D70101010E0001000188
:10095800BD6F01011C0E00010001BC6F020E0DEC01
:100968000EF063D000C10DF160D00001CF6F020E10
:1009780001010101506F0001CF510001CF6F550EE9
:1009880001010101006F0001CF510001CF6FAA0ED4
:1009980001010101016F0CD00001CF6F010E0101AF
:1009A8000101506F0001CF510001CF6F3A0E0ED0F8
:1009B8000001CF511BD00001CF6F010E01010101D1
:1009C800506F0001CF510001CF6FA30E010101014B
:1009D800006FEED7010101010D51A80AD8B4DCD788
:1009E800010AD8B4E8D7030AD8B4BFD70101010E69
:1009F80000010001A36F0101000E00010001A26FB8
:100A0800010101015051BCEC06F00FD001010101B8
:100A180023510A0AD8B437D7220AD8B45DD7010AB5
:100A2800D8B4A0D7030AD8B4D5D70101010E000164
:100A38000001BB6F0101230E00010001BA6F010123
:100A4800010E00010001BD6F0101000E000100014F
:100A5800BC6F0A0E2EEC0EF001010101506F01016E
:100A6800010150BFEFD652D00101010E0001000173
:100A7800C26F0101240E00010001C16F01010001D4
:100A880023C1C3F000010001C46B010101015051F1
:100A980000010001C56F0001C66B0001C5BFC60794
:100AA8000101010E00010001C86F0101000E0001E3
:100AB8000001C76F3AEC08F0C5D60101010E00012C
:100AC8000001BD6F0101120E00010001BC6F0101A0
:100AD800000123C1BEF000010001BF6B010101014B
:100AE800505100010001C06F0001C16B0001C0BF7F
:100AF800C1070101010E00010001C36F0101000ED1
:100B080000010001C26FC5EC07F09CD6010101018C
:100B180023510B0AD8B4A8D7150AD8B4CED7010ADE
:100B2800D8B4CBD73F0AD8B4C8D78CD6000120EEAA
:100B380035F00001AC51D9260001AD51DA22DF5061
:100B480000010001B56F00010001B5510D0DF35012
:100B580000010001AC2500010001B86FF45000014C
:100B68000001AD210001B96F010EB8C0D9FFB9C0AD
:100B7800DAFFDF6274D0000120EE01F00001B85105
:100B8800D9260001B951DA22DF5000010001AE5D1B
:100B9800D8B002D0FD0E1200000120EE01F00001D5
:100BA800B851D9260001B951DA22DF500001B36FDC
:100BB8000001B35100010001B66F0001B76B0001DD
:100BC8000001B2C0A3F000010001B1C0A2F0030E01
:100BD80000010001B8250001B36F000E00010001FB
:100BE800B9210001B46FB3C0A4F0B4C0A5F0B6C079
:100BF800A6F0B7C0A7F01FEC0DF0000120EE35F00D
:100C08000001AC51D9260001AD51DA22000110EEE5
:100C180035F00001AC51E1260001AD51E222E75068
:100C28000001B36F0001B329030BDF6E000120EE52
:100C380002F00001B851D9260001B951DA22AFC03B
:100C4800E1FFB0C0E2FFDFCFE7FFB8C0D9FFB9C00E
:100C5800DAFF000EDF6E00010001B6511200FC0E33
:100C680012000001A66F000E00010001A86F00012C
:100C7800A65100010001A351800AF36E800EF35CB7
:100C8800000ED8B4A25DD8B00FD000010001A26D4B
:100C98000001A31FD8B0A32B0001A66F010E00010D
:100CA8000001A86F0001A65100010001A551800AAA
:100CB800F36E800EF35C000ED8B4A45DD8B007D0F4
:100CC80000010001A46D0001A51FD8B0A52B0001EB
:100CD8000001A551A411D8B43AD00001A66F010EA5
:100CE80000010001A76F0001A65109D00001000111
:100CF8000001D890A437A53700010001A72B0001F7
:100D08000001A5AFF3D700010001A45100010001C3
:100D1800A25D00010001A55100010001A359D8A05E
:100D28000CD000010001A45100010001A25F0001E4
:100D38000001A55100010001A35B000100010001B1
:100D4800D890A533A43300010001A72FDCD70001F8
:100D58000001A851D8B407D000010001A26D00011C
:100D6800A31FD8B0A32BA2C0A2F0A3C0A3F0120067
:100D7800E8CFA6F0000120EE19F00001D451D926E1
:100D88000001D551DA22000EDF6E42D0000120EEBC
:100D980019F00001D451D9260001D551DA22DF50CB
:100DA8000001A46F0001A451010DF35000010001DE
:100DB800A225D96EF45000010001A321DA6E0001CA
:100DC80010EE19F00001D451E1260001D551E222BC
:100DD800E7500001A56F0001A551010D0F0EF32684
:100DE800000EF422F35000010001D425E16EF45006
:100DF80000010001D521E26EDFCFE7FF000120EE00
:100E080019F00001D451D9260001D551DA22DF2A80
:100E1800000120EE19F00001D451D9260001D55166
:100E2800DA22DF500001A46F00010001A651000181
:100E3800A45DD8A0ABD7000120EE19F00001D45171
:100E4800D9260001D551DA220001A6C0DFFF000132
:100E580020EE1AF00001D451D9260001D551DA222A
:100E6800010EDF6E000120EE0FF00001D451D926EB
:100E78000001D551DA22DF50C96EC6881200000180
:100E88000001AEC0B3F000010001B46B000120EE18
:100E980034F00001AC51D9260001AD51DA22DF50FF
:100EA80000010001B56F00010001B5510D0DF350AF
:100EB80000010001AC2500010001B66FF4500001EB
:100EC8000001AD210001B76FB6C0D9FFB7C0DAFF86
:100ED800DF50D8B402D0FF0E1200000120EE01F05E
:100EE8000001B651D9260001B751DA220001AEC07F
:100EF800DFFF000120EE02F00001B651D926000103
:100F0800B751DA220001AFC0DFFF030E0001000174
:100F1800B62500010001A26F000E00010001B721F3
:100F28000001A36F00010001B1C0A5F0000100019C
:100F3800B0C0A4F0B3C0A6F0B4C0A7F01FEC0DF089
:100F4800000120EE34F00001AC51D9260001AD516A
:100F5800DA22000110EE34F00001AC51E126000164
:100F6800AD51E222E7500001B26F0001B229030B34
:100F7800DF6EB6C0D9FFB7C0DAFF010EDF6E010E13
:100F8800120000010001BE511E0ABF11D8B41200A0
:100F980000010001BE511F0ABF11D8A44FD0000E96
:100FA80000010001C66F000E0001C56F000E0001B0
:100FB8000001C66F000E0001C56F00010001C65197
:100FC800800A800F0A0ED8B4C55DD8B023D00001BE
:100FD8000001C55100010001C225D96E00010001C0
:100FE800C65100010001C321DA6E00010001C5519C
:100FF80000010001BC25E16E00010001C65100019D
:101008000001BD21E26EDFCFE7FF00010001C54B03
:10101800C62BD3D7BEC0B8F000010001BDC0BAF0DE
:1010280000010001BCC0B9F000010001C051CCECC6
:101038000EF000010001C46F9D881200000100013C
:10104800BE51200ABF11D8A4120000010001C051EE
:1010580000010001C225D96E00010001C151000143
:101068000001C321DA6E000EDF6E1200C1C0D9FF85
:10107800C2C0DAFFDE2A000EDD22C1C0D9FFC2C01D
:10108800DAFF0001DECFA2F00001DDCFA3F00001FE
:1010980020EE2AF00001C151D9260001C251DA22FE
:1010A8000001DECFA4F00001DDCFA5F0C0EC0BF00D
:1010B800FF0E0001C96FFF0ECA6F000120EE2AF073
:1010C8000001C151D9260001C251DA22DECFCBF08E
:1010D800DDCFCCF00001C9510001CB270001CA5176
:1010E8000001CC2300010001A3510001CC1905E146
:1010F80000010001A2510001CB19D8A411D0D6C01B
:10110800CDF0D7C0CEF00001000E00010001BD6F88
:101118000001CD0E00010001BC6F020E0DEC0EF0B7
:10112800000120EE28F00001C151D9260001C2516A
:10113800DA220001DECFA2F00001DDCFA3F0CDEC72
:101148000FF0120020EE35F00B50D9260C50DA22A1
:10115800DF50146E14500D0DF3500B24176EF4501D
:101168000C20186E010E17C0D9FF18C0DAFFDF6215
:1011780050D020EE01F01750D9261850DA22DF504F
:101188000D5CD8B002D0FD0E120020EE01F0175011
:10119800D9261850DA22DF50126E1250156E166AD0
:1011A80011C002F010C001F0030E1724126E000ED9
:1011B8001820136E12C003F013C004F015C005F018
:1011C80016C006F070EC0EF020EE35F00B50D92664
:1011D8000C50DA2210EE35F00B50E1260C50E222CA
:1011E800E750126E1228030BDF6E20EE02F0175044
:1011F800D9261850DA220EC0E1FF0FC0E2FFDFCF78
:10120800E7FF17C0D9FF18C0DAFF000EDF6E1550D0
:101218001200FC0E1200000142C080F00001000123
:10122800816B20EE34F04050D9264150DA22DF504D
:1012380000010001826F0001000182510D0DF35081
:10124800402400010001836FF45041200001846FA5
:1012580083C0D9FF84C0DAFFDF50D8B402D0FF0EB4
:101268001200000120EE01F000018351D92600018F
:101278008451DA2242C0DFFF000120EE02F00001B3
:101288008351D92600018451DA2243C0DFFF030EBF
:10129800000100018325366E000E00010001842143
:1012A800376E45C039F044C038F080C03AF081C08C
:1012B8003BF090EC0EF020EE34F04050D92641502F
:1012C800DA2210EE34F04050E1264150E222E75095
:1012D800466E4628030BDF6E83C0D9FF84C0DAFF51
:1012E800010EDF6E010E1200A2C0D9FFA3C0DAFF03
:1012F800000EDE6E000EDD6E000120EE02F0000131
:10130800A251D9260001A351DA22B60EDF6E0001E0
:1013180020EE03F00001A251D9260001A351DA22E0
:10132800360EDF6E000120EE24F00001A251D9260E
:101338000001A351DA22000EDF6E000120EE25F035
:101348000001A251D9260001A351DA22000EDF6E56
:10135800000120EE26F00001A251D9260001A35178
:10136800DA22000EDF6E000120EE27F00001A25104
:10137800D9260001A351DA22000EDF6E000120EE0B
:1013880028F00001A251D9260001A351DA22B10E9A
:10139800DE6EFF0EDD6E000120EE2AF00001A25184
:1013A800D9260001A351DA22000EDE6E000EDD6E92
:1013B8001200E8CF36F0000120EE0BF00001D45106
:1013C800D9260001D551DA22010EDF6E000120EE88
:1013D8000AF00001D451D9260001D551DA22000EB5
:1013E800DF6E3650D8B43DD0C7AA21D0000120EE18
:1013F8000CF00001D451D9260001D551DA22050E8E
:10140800DF6E000120EE0EF00001D451D926000154
:10141800D551DA22DF2A000120EE0DF00001D45167
:10142800D9260001D551DA22050EDF6E1200C7A4B5
:101438000CD0000120EE0CF00001D451D926000197
:10144800D551DA22080EDF6E1200000120EE0CF0F2
:101458000001D451D9260001D551DA22070EDF6EDA
:101468001200000120EE0CF00001D451D926000131
:10147800D551DA22060EDF6E12000DC012F0136A83
:1014880020EE34F00B50D9260C50DA22DF50146EBF
:1014980014500D0DF3500B24156EF4500C20166EDD
:1014A80015C0D9FF16C0DAFFDF50D8B402D0FF0E3E
:1014B800120020EE01F01550D9261650DA220DC080
:1014C800DFFF20EE02F01550D9261650DA220EC0A2
:1014D800DFFF030E1524016E000E1620026E10C0E9
:1014E80004F00FC003F012C005F013C006F070EC52
:1014F8000EF020EE34F00B50D9260C50DA2210EE04
:1015080034F00B50E1260C50E222E750116E1128FE
:10151800030BDF6E15C0D9FF16C0DAFF010EDF6EB0
:10152800010E12009EAA3CD020EE04F04750D926A6
:101538004850DA22DF501B6E1B50010DF350472430
:10154800D96EF4504820DA6EA5EC0FF0DF6E20EE6D
:1015580004F04750D9264850DA22DF2A20EE04F05A
:101568004750D9264850DA22040EDF6219D01B6E84
:10157800200E176E1B5048C019F047C018F020EE17
:1015880004F04750D9264850DA22DF5071EC0FF0AA
:1015980020EE04F04750D9264850DA22000EDF6EBC
:1015A8004AA61200AB98AB881B6E1E0E176E1B5016
:1015B800000E196E000E186E000E71EC0FF012007E
:1015C800E9CF96F0EACF97F0E1CF98F0E2CF99F023
:1015D800D9CF9AF0DACF9BF0F3CF9CF0F4CF9DF0FF
:1015E800F6CF9EF0F7CF9FF0F8CFA0F0F5CFA1F09F
:1015F8009EA603D09E966BEC00F0F2A403D0F29462
:10160800EFEC0FF0F2A00AD0F290000E8A6E805034
:10161800D8A402D0010E01D0000E896E7BEC0DF02B
:10162800A1C0F5FFA0C0F8FF9FC0F7FF9EC0F6FF5E
:101638009DC0F4FF9CC0F3FF9BC0DAFF9AC0D9FF9E
:1016480099C0E2FF98C0E1FF97C0EAFF96C0E9FFA2
:1016580095C0FBFF94C0FAFF1100E8CFA7F0000E79
:10166800AC6E000EAB6E00010001A7B1AC880001A2
:101678000001A7A302D0AC8CAB8C00010001A7B578
:10168800AC8E00010001A7A702D0AB8801D0AB8ABD
:1016980000010001A7B9AC849E9800010001A7BB16
:1016A800AB8600010001A7AD02D09D8A01D09D9AAA
:1016B8009E9A00010001A7AF02D09D8801D09D9895
:1016C800A2C0AFFF0001A3C0A4F0A4C0A5F0000110
:1016D800A66B0001A551B06EAC8AAB8E949C948E1B
:1016E800ACA81200ACBE1200948C120000010001DC
:1016F800C8C0CAF000010001C7C0C9F0000120EE4F
:1017080002F00001C151D9260001C251DA22DE2AB5
:10171800000EDD22000120EE02F00001C151D926A1
:101728000001C251DA220001DECFA2F00001DDCFB4
:10173800A3F0000E00010001A56F3C0E0001A46F8C
:1017480035EC06F000010001A2513B0A0001A3118B
:10175800D8A41200D2C0CBF0D3C0CCF00001000E48
:1017680000010001BD6F0001CB0E00010001BC6F3C
:10177800020E0DEC0EF0120000010001A551A4119B
:10178800D8B43AD00001A66F010E00010001A76F7E
:101798000001A65109D0000100010001D890A4372A
:1017A800A53700010001A72B00010001A5AFF3D761
:1017B80000010001A45100010001A25D0001000127
:1017C800A55100010001A359D8A00CD000010001C7
:1017D800A45100010001A25F00010001A551000110
:1017E8000001A35B000100010001D890A533A433D8
:1017F80000010001A72FDCD7A2C0A2F0A3C0A3F06C
:101808001200EBEC0DF000010001A7510001A61138
:10181800D8B412000001A86F010E496E0001A8514A
:101828000101010E00010001A36F01016D0E00010D
:101838000001A26F02EC0FF00009D8B407D0000134
:10184800A86F000E496E0001A85112000101010E97
:1018580000010001A36F0101A30E00010001A26FA6
:1018680002EC0FF00009D8B407D00001A86F000EF1
:10187800496E0001A85112000A0EC2EC0FF0D0D731
:10188800000120EE34F00001A251D9260001A35135
:10189800DA22000EDF6E000120EE35F00001A251C1
:1018A800D9260001A351DA22000EDF6E0001A46FD1
:1018B800000E00010001A56F0001A451030E0001F4
:1018C8000001A56501D0120000010001A5510D0D10
:1018D800F35000010001A225D96EF4500001000167
:1018E800A321DA6E000EDF6E00010001A52B030EA6
:1018F80000010001A565E8D712000001A66F000EDF
:10190800496E0001A6510101010E00010001A36FFB
:101918000101A30E00010001A26F44EC0CF00101CB
:10192800010E00010001A36F01016D0E000100010D
:10193800A26F44EC0CF00201020E00010001A36F3B
:101948000201360E00010001A26F44EC0CF0020106
:10195800020E00010001A36F0201000E0001000148
:10196800A26F44EC0CF0120000010001A3C0D5F0F6
:1019780000010001A2C0D4F0000120EE0AF000012D
:10198800D451D9260001D551DA22000EDF6E0001AC
:1019980020EE0BF00001D451D9260001D551DA22EE
:1019A800000EDF6E000120EE0CF00001D451D926A4
:1019B8000001D551DA22050EDF6E000120EE0EF08F
:1019C8000001D451D9260001D551DA22000EDF6E6C
:1019D8001200000120EE2AF00001C151D9260001B1
:1019E800C251DA220001C3C0DEFF0001C4C0DDFF1E
:1019F800D0C0C5F0D1C0C6F00001000E0001000142
:101A0800BD6F0001C50E00010001BC6F020E0DEC98
:101A18000EF0000120EE28F00001C151D926000186
:101A2800C251DA220001DECFA2F00001DDCFA3F01F
:101A3800CDEC0FF0120000010001A5C0ABF00001D1
:101A48000001A4C0AAF000010001A3C0A9F0000190
:101A58000001A2C0A8F012D0AAC0D9FFABC0DAFF1B
:101A6800A8C0E1FFA9C0E2FFDFCFE7FF0001000146
:101A7800AA4BAB2B00010001A84BA92B00010001C8
:101A8800A607D8A0A7070001A629D8B4A729D8B4C3
:101A98001200E2D7000E206E000E1F6E000E1A6EA6
:101AA800210E196E20C01CF01FC01BF00A0E5DEC41
:101AB8000FF0236E23BE19D01E6E000E226E1E502C
:101AC8000DD0ACA2FED72250010DF3501F24D96EC1
:101AD800F4502020DA6EDF50AD6E222A225023BE49
:101AE80004D0FF0A2324D8B0ECD79D981200496689
:101AF80001D012001DEC0FF039503810D8A4120094
:101B0800DFEC0FF037503610D8B412000101010E87
:101B1800376E01016D0E366E84EC0FF00009D8A403
:101B280012000101010E376E0101A30E366E84EC1E
:101B38000FF00009D8B4E9EC0FF0120002EE00F043
:101B48006C0EEE6AE806FDE101EE6DF06C0EEE6AD1
:101B5800E806FDE10001D76BD66B4A6A496AD80EE0
:101B6800F66E1F0EF76E000EF86E00EED0F010EE57
:101B780004F00900F5CFEEFFE550E150FAE1000E60
:101B8800F86E000198EF03F0F2AC08D0000E0001E7
:101B98000001A56F000E0001A46F1200D6EC0FF033
:101BA80000010001A3510001A211D8B408D0000E11
:101BB80000010001A56F000E0001A46F1200000EC5
:101BC80000010001A56F010E0001A46F1200C8EC0E
:101BD8000DF000010001A5510001A411D8A411D0F5
:101BE800D6EC0FF000010001A3510001A211D8A406
:101BF80008D0000E00010001A76F010E0001A66FBA
:101C08001200000E00010001A76F000E0001A66F70
:101C18001200E8CFC0F00A0E00010001C06501D033
:101C280012000001BE6F1F0E00010001B86F000115
:101C3800BE5100010001BDC0BAF000010001BCC0E6
:101C4800B9F000010001C051E7EC0EF000010001FD
:101C5800BF6F1200E8CFBEF00101010E00010001C4
:101C6800AD6F0101A30E00010001AC6FBEC0AEF064
:101C780000010001BBC0B0F000010001BAC0AFF024
:101C880000010001BDC0B2F000010001BCC0B1F00C
:101C98009AEC05F01200E8CFBEF00101010E000138
:101CA8000001AD6F01016D0E00010001AC6FBEC0F7
:101CB800AEF000010001BBC0B0F000010001BAC0E5
:101CC800AFF000010001BDC0B2F000010001BCC0CE
:101CD800B1F09AEC05F0120004C00AF003C009F054
:101CE80002C008F001C007F00ED009C0D9FF0AC031
:101CF800DAFF07C0E1FF08C0E2FFDFCFE7FF094ACC
:101D08000A2A074A082A0506D8A006060528D8B4CC
:101D18000628D8B41200E9D739C03FF038C03EF0E1
:101D280037C03DF036C03CF00ED03EC0D9FF3FC0B2
:101D3800DAFF3CC0E1FF3DC0E2FFDFCFE7FF3E4AEC
:101D48003F2A3C4A3D2A3A06D8A03B063A28D8B44E
:101D58003B28D8B41200E9D7E8CFA2F0000100016F
:101D6800A2517E0BCD6E00010001A2AD02D0CD8E36
:101D780001D0CD9E000ECF6E000ECE6E9E9000015B
:101D88000001A2AF02D09D8001D09D90CD801200AD
:101D9800E8CFBBF00201020E00010001AD6F0201A5
:101DA800360E00010001AC6FBBC0AEF0B8C0AFF09A
:101DB80000010001BAC0B1F000010001B9C0B0F0E3
:101DC80043EC07F01200E8CFBBF00101010E00015F
:101DD8000001AD6F0101A30E00010001AC6FBBC093
:101DE800AEF0B8C0AFF000010001BAC0B1F0000118
:101DF8000001B9C0B0F043EC07F01200000120EE7A
:101E080035F00001A251D9260001A351DA22DF5092
:101E18000001A46F0001A4510D0DF3500001000151
:101E2800A225D96EF45000010001A321DA6EDF501B
:101E38001200F2AC05D0000E396E000E386E12009A
:101E4800DFEC0FF037503610D8B405D0000E396EDD
:101E5800000E386E1200000E396E010E386E120038
:101E6800E8CF88F00101010E416E01016D0E406E50
:101E780088C042F085C043F0000187C045F00001EA
:101E880086C044F00FEC09F01200E8CFA2F0948667
:101E98009488A2C0C8FF000EC76E000EC66E000E62
:101EA800C56E0E0EC612C78E94869488C580C68AE3
:101EB8001200E8CF1DF00201020E0C6E0201360E70
:101EC8000B6E1DC00DF01AC00FF019C00EF0116A8C
:101ED8001BC010F0A6EC08F01200E8CF1AF00101C0
:101EE800010E0C6E0101A30E0B6E1AC00DF017C087
:101EF8000EF019C010F018C00FF041EC0AF01200F3
:101F080020EE35F03650D9263750DA22DF50386EB9
:101F180038500D0DF3503624D96EF4503720DA6E50
:101F2800DF5012000001A3C048F00001A2C047F032
:101F380020EE04F04750D9264850DA22000EDF6E12
:101F48001200F20E4A16ABAC03D04A90ABB04A80EE
:101F5800ABB44A84ABB24A86AECF01F0015012004E
:101F6800000120EE02F00001A251D9260001A35180
:101F7800DA22000EDE6E000EDD6E1200E8CFA2F04F
:101F8800FA0E00F0E82EFDD700010001A22FF8D7C5
:101F98001200A2C0A4F0A3C0A5F0A5C0CFFFA4C0A2
:101FA800CEFF1200000EF2AE010E00010001A26F7A
:101FB8000001A36B1200000EF2AE010E366E376AF6
:101FC8001200D08EF28EF28C1200D38E0300120013
:081FD80050CDC74812001200B1
:067FF80080F4C5FFFFF15B
:00000001FF
