:0400000060EF00F0BD
:0C000800FACFC9F0FBCFCAF066EF0AF097
:10001800D8CF24F0E8CF25F0E0CF26F0FACF27F0AC
:10002800FBCF28F0E9CF29F0EACF2AF0E1CF2BF077
:10003800E2CF2CF0D9CF2DF0DACF2EF0F3CF2FF07E
:10004800F4CF30F0F6CF31F0F7CF32F0F8CF33F00D
:10005800F5CF34F09EA003D09E9098EC0DF09EAAA8
:1000680003D09E9A48EC09F09EB89DA802D0F7EC00
:100078000BF034C0F5FF33C0F8FF32C0F7FF31C0D2
:10008800F6FF30C0F4FF2FC0F3FF2EC0DAFF2DC0FB
:10009800D9FF2CC0E2FF2BC0E1FF2AC0EAFF29C02C
:1000A800E9FF28C0FBFF27C0FAFF26C0E0FF25C0F4
:1000B800E8FF24C0D8FF100019EF0EF00001BE6F52
:1000C800000E00010001C86F0001BE510001BE6FA3
:1000D800000E00010001C36F0001BE510001BE6F98
:1000E800000E00010001C76F0001BE510001BE6F84
:1000F800000E00010001C66F0001BE510001BE6F75
:10010800000E00010001C46F0001BE51C6AC29D029
:10011800C69C000120EE0CF00001DD51D92600013B
:10012800DE51DA22050EDF6E0001BE6F010E0001FE
:100138000001C46F0001BE51000120EE0EF0000165
:10014800DD51D9260001DE51DA22DF2A000120EE36
:100158000DF00001DD51D9260001DE51DA22040E2E
:10016800DF6EC7A00AD0C9CFC5F00001BE6F010E6F
:1001780000010001C86F0001BE5100010001C46701
:10018800CED1B7D1C7A6CBD100010001C8518FECA1
:1001980008F0000120EE0CF00001DD51D926000125
:1001A800DE51DA22080EDF62BAD10001BE6F000EFE
:1001B80000010001C86F0001BE510001BE6F010EB1
:1001C80000010001C66F87D1C7A830D0000120EE1A
:1001D8000BF00001DD51D9260001DE51DA22DF2AB9
:1001E80000010001C851D8B479D1C7BA09D00001BB
:1001F800BE6F010E00010001C76F0001BE516ED134
:10020800000120EE0EF00001DD51D9260001DE517B
:10021800DA22DF2A000120EE0DF00001DD51D92697
:100228000001DE51DA22060EDF6E58D1000100010E
:10023800C851D8B474D1000120EE0BF00001DD5193
:10024800D9260001DE51DA22DF2AC7BA19D0C7B48D
:100258000BD0000120EE0CF00001DD51D926000181
:10026800DE51DA22070E76D0000120EE0CF00001F4
:10027800DD51D9260001DE51DA22080EDF6E1DD1CC
:10028800000120EE0EF00001DD51D9260001DE51FB
:10029800DA22DF2A000120EE0CF00001DD51D92618
:1002A8000001DE51DA22050EDF6E000120EE0DF0AE
:1002B8000001DD51D9260001DE51DA22060E4AD0AE
:1002C800000120EE1AF00001DD51D9260001DE51AF
:1002D800DA22DF500001BE6F000120EE19F00001A4
:1002E800DD51D9260001DE51DA22DF500001BE5D62
:1002F800D8B0F4D0000120EE1AF00001DD51D92663
:100308000001DE51DA22DF500001BE6F0001BE514C
:10031800010D0F0EF326000EF422F3500001000128
:10032800DD25D96EF45000010001DE21DA6EDF50C0
:10033800C96E000120EE1AF00001DD51D926000136
:10034800DE51DA22DF2A0001BE6F010E0001000132
:10035800C36FC1D0DF6EE3D0C7A862D0000120EE22
:100368000BF00001DD51D9260001DE51DA22DF2A27
:1003780000010001C851D8B44AD0C7AA27D000014B
:1003880020EE0AF00001DD51D9260001DE51DA2203
:10039800DF500001BE6F0001BE51010DF350000196
:1003A8000001DD25D96EF45000010001DE21DA6E6E
:1003B8000001C5C0DFFF000120EE0AF00001DD5199
:1003C800D9260001DE51DA22DF2A21D0000120EEF1
:1003D8000EF00001DD51D9260001DE51DA22DF2AB4
:1003E800000120EE0DF00001DD51D9260001DE519B
:1003F800DA22060EDF6E000120EE0CF00001DD515E
:10040800D9260001DE51DA22050EDF6E67D0000121
:10041800BE6F010E00010001C76F0001BE515ED022
:1004280000010001C851D8B47AD0000120EE0BF0C9
:100438000001DD51D9260001DE51DA22DF2AC7AAE0
:1004480027D0000120EE0AF00001DD51D926000175
:10045800DE51DA22DF500001BE6F0001BE51010DEE
:10046800F35000010001DD25D96EF45000010001B0
:10047800DE21DA6E0001C5C0DFFF000120EE0AF0C0
:100488000001DD51D9260001DE51DA22DF2A47D0EA
:10049800C7A4B6D6000120EE0CF00001DD51D92624
:1004A8000001DE51DA22080EDF6E0001BE6F010E78
:1004B80000010001C76F0001BE510001BE6F010EAF
:1004C80000010001C66F0001BE510001BE6F000EA1
:1004D80000010001C86F0001BE5121D0000120EECB
:1004E8000CF00001DD51D9260001DE51DA22050E9B
:1004F80031D7000120EE0CF00001DD51D9260001B2
:10050800DE51DA22DF50050AD8B43CD6030AD8B443
:100518005BD6010AD8B420D70F0AD8B4D1D60001C7
:100528000001C86705D000010001C351D8B402D04A
:10053800C6A8C688000120EE0AF00001DD51D926C0
:100548000001DE51DA22080EDF6424D00001000128
:10055800C76720D0000120EE0CF00001DD51D9263C
:100568000001DE51DA22050EDF6E000120EE0EF0EA
:100578000001DD51D9260001DE51DA22DF2A00010F
:1005880020EE0DF00001DD51D9260001DE51DA22FE
:10059800070EDF6E00010001C751D8B448D0000132
:1005A80020EE0BF00001DD51D9260001DE51DA22E0
:1005B800000110EE0AF00001DD51E1260001DE51D4
:1005C800E222E7500001BE6F0001BE51010DF35059
:1005D80000010001DD25E16EF45000010001DE217B
:1005E800E26EDFCFE7FF0001BE6F280E00010001B9
:1005F800BB6F0001BE5100010001DEC0BDF000016B
:100608000001DDC0BCF0000120EE0AF00001DD5160
:10061800D9260001DE51DA22DF500001BF6F000148
:10062800BF29DCEC0DF0000120EE0AF04BD00001F0
:1006380020EE0EF00001DD51D9260001DE51DA224C
:10064800DF50D8B447D0000120EE0EF00001DD5194
:10065800D9260001DE51DA22DF5000010001C06F07
:10066800000120EE0DF00001DD51D9260001DE5118
:10067800DA22DF5000010001C16F000120EE0BF00B
:100688000001DD51D9260001DE51DA22DF500001D8
:100698000001C26F0001BE6F290E00010001BB6F8F
:1006A8000001BE510001000E00010001BD6F0001F4
:1006B800C00E00010001BC6F030EDCEC0DF0000160
:1006C80020EE0EF00001DD51D9260001DE51DA22BC
:1006D800000EDF6E00010001C651D8B412000001FF
:1006E800BE6F2A0E00010001BB6F0001BE51000160
:1006F8000001DEC0BDF000010001DDC0BCF0000E4D
:10070800DCEC0DF00001BE6F000E00010001C66FA9
:100718000001BE511200820ED36E9B9C0201020E94
:1007280000010001D86F02011C0E00010001D76F03
:1007380051EC0EF00201020E00010001D86F020117
:10074800230E00010001D76F93EC0BF00201020E9B
:1007580000010001D86F02011A0E00010001D76FD5
:1007680083EC0EF00201020E00010001D86F0201B5
:10077800100E00010001D76FBDEC0EF05CEC0BF021
:10078800000E936E000E8A6E960EC7EC0DF0F50EF5
:1007980012EC0DF00101C16FFC0E020102010F6F96
:1007A8000101C1510101C16F4D0E020102010E6F1D
:1007B8000101C151020100010EC2D7F00001000180
:1007C800D86B020102010F5196EC09F09F909F9A95
:1007D8009F989F869E0EF1EC0DF09D86B6EC0EF06C
:1007E800A7EC0AF00201020E01010101B56F020136
:1007F800210E01010101B46F0201020E0101010184
:10080800B76F0201000E01010101B66F0A0EB1ECCB
:100818000CF002010201226F0201020122BF8DD0F9
:100828007DD00201020E01010101A36F02010B0E2E
:1008380001010101A26F0201010121C2A4F101011C
:100848000101A56B02010201225101010101A66FFC
:100858000101A76B0101A6BFA7070201020E010152
:100868000101A96F0201000E01010101A86F7AECD4
:100878000EF063D000C20DF260D00101C16F020E0C
:1008880002010201226F0101C1510101C16F550E20
:1008980002010201006F0101C1510101C16FAA0EDD
:1008A80002010201016F0CD00101C16F010E0201AA
:1008B8000201226F0101C1510101C16F3A0E0ED030
:1008C8000101C1511BD00101C16F010E02010201DA
:1008D800226F0101C1510101C16FA30E0201020182
:1008E800006FEED7020102010D51A80AD8B4DCD777
:1008F800010AD8B4E8D7030AD8B4BFD70201020E58
:1009080000010001D86F0201000E00010001D76F3D
:10091800020102012251BDEC05F00FD002010201D3
:1009280021510A0AD8B47DD7220AD8B4A3D7010A1C
:10093800D8B4A0D7030AD8B4D5D70201020E010152
:100948000101B56F0201210E01010101B46F02011D
:10095800020E01010101B76F0201000E0101010140
:10096800B66F0A0E90EC0CF002010201226F020130
:10097800020122BF35D752D00201020E0101010146
:10098800B76F02011A0E01010101B66F02010101E0
:1009980021C2B8F101010101B96B02010201225122
:1009A80001010101BA6F0101BB6B0101BABFBB07AD
:1009B8000201020E01010101BD6F0201000E0101D9
:1009C8000101BC6F23EC0BF00BD70201020E0101F1
:1009D8000101B76F0201100E01010101B66F02019A
:1009E800010121C2B8F101010101B96B0201020143
:1009F800225101010101BA6F0101BB6B0101BABFAC
:100A0800BB070201020E01010101BD6F0201000EC8
:100A180001010101BC6F48EC07F0E2D602010201B6
:100A280021510B0AD8B4A8D7150AD8B4CED7010AD1
:100A3800D8B4CBD73F0AD8B4C8D7D2D6010120EE54
:100A480035F00101A651D9260101A751DA22DF505C
:100A580001010101AF6F01010101AF510D0DF3500B
:100A680001010101A62501010101B26FF450010144
:100A78000101A7210101B36F010EB2C1D9FFB3C1B2
:100A8800DAFFDF6274D0010120EE01F00101B251FA
:100A9800D9260101B351DA22DF5001010101A85D15
:100AA800D8B002D0FD0E1200010120EE01F00101C4
:100AB800B251D9260101B351DA22DF500101AD6FDD
:100AC8000101AD5101010101B06F0101B16B0101DB
:100AD8000001ACC1D8F001010001ABC1D7F0030E91
:100AE80001010101B2250101AD6F000E01010101F3
:100AF800B3210101AE6FADC1D9F0AEC1DAF0B0C11A
:100B0800DBF0B1C1DCF0C8EC0BF0010120EE35F0F0
:100B18000101A651D9260101A751DA22010110EEDF
:100B280035F00101A651E1260101A751E222E75063
:100B38000101AD6F0101AD29030BDF6E010120EE4C
:100B480002F00101B251D9260101B351DA22A9C13B
:100B5800E1FFAAC1E2FFDFCFE7FFB2C1D9FFB3C10E
:100B6800DAFF000EDF6E01010101B0511200FC0E28
:100B78001200E8CFDBF0000120EE19F00001DD5192
:100B8800D9260001DE51DA22000EDF6E42D00001C4
:100B980020EE19F00001DD51D9260001DE51DA22DC
:100BA800DF500001D96F0001D951010DF350000148
:100BB8000001D725D96EF45000010001D821DA6E62
:100BC800000110EE19F00001DD51E1260001DE51AF
:100BD800E222E7500001DA6F0001DA51010D0F0E31
:100BE800F326000EF422F35000010001DD25E16E2A
:100BF800F45000010001DE21E26EDFCFE7FF0001C3
:100C080020EE19F00001DD51D9260001DE51DA226B
:100C1800DF2A000120EE19F00001DD51D92600017C
:100C2800DE51DA22DF500001D96F00010001DB51EB
:100C38000001D95DD8A0ABD7000120EE19F0000162
:100C4800DD51D9260001DE51DA220001DBC0DFFFC9
:100C5800000120EE1AF00001DD51D9260001DE5115
:100C6800DA22010EDF6E000120EE0FF00001DD51E7
:100C7800D9260001DE51DA22DF50C96EC68812007B
:100C880001010101A8C1ADF101010101AE6B010132
:100C980020EE34F00101A651D9260101A751DA222C
:100CA800DF5001010101AF6F01010101AF510D0DCD
:100CB800F35001010101A62501010101B06FF450B3
:100CC80001010101A7210101B16FB0C1D9FFB1C173
:100CD800DAFFDF50D8B402D0FF0E1200010120EE77
:100CE80001F00101B051D9260101B151DA22010107
:100CF800A8C1DFFF010120EE02F00101B051D926A1
:100D08000101B151DA220101A9C1DFFF030E01017E
:100D18000101B02500010001D76F000E010101019A
:100D2800B1210001D86F01010001ABC1DAF0010166
:100D38000001AAC1D9F0ADC1DBF0AEC1DCF0C8EC4E
:100D48000BF0010120EE34F00101A651D926010172
:100D5800A751DA22010110EE34F00101A651E12673
:100D68000101A751E222E7500101AC6F0101AC2952
:100D7800030BDF6EB0C1D9FFB1C1DAFF010EDF6E20
:100D8800010E120020EE35F03F50D9264050DA22ED
:100D9800DF5000010001B66F00010001B6510D0DD2
:100DA800F3503F2400010001B96FF45040200001C6
:100DB800BA6F010EB9C0D9FFBAC0DAFFDF6262D0DC
:100DC800000120EE01F00001B951D9260001BA5105
:100DD800DA22DF50415CD8B002D0FD0E12000001CB
:100DE80020EE01F00001B951D9260001BA51DA22EA
:100DF800DF50466E465000010001B76F0001B86B26
:100E080045C036F044C035F0030E00010001B92595
:100E1800466E000E00010001BA21476E46C037F049
:100E280047C038F0B7C039F0B8C03AF0F2EC0CF06F
:100E380020EE35F03F50D9264050DA2210EE35F03A
:100E48003F50E1264050E222E750466E4628030B09
:100E5800DF6E000120EE02F00001B951D926000131
:100E6800BA51DA2242C0E1FF43C0E2FFDFCFE7FF19
:100E7800B9C0D9FFBAC0DAFF000EDF6E0001000169
:100E8800B7511200FC0E120001010101B8511E0AEF
:100E9800B911D8B4120001010101B8511F0AB911E2
:100EA800D8A44FD0000E01010101C06F000E01014E
:100EB800BF6F000E01010101C06F000E0101BF6F7D
:100EC80001010101C051800A800F0A0ED8B4BF5D2C
:100ED800D8B023D001010101BF5101010101BC2596
:100EE800D96E01010101C05101010101BD21DA6E74
:100EF80001010101BF5101010101B625E16E0101A6
:100F08000101C05101010101B721E26EDFCFE7FF06
:100F180001010101BF4BC02BD3D7B8C1B2F1010108
:100F28000101B7C1B4F101010101B6C1B3F1010179
:100F38000101BA512EEC0DF001010101BE6F9D882F
:100F4800120001010101B851200AB911D8A41200F8
:100F580001010101BA5101010101BC25D96E01014C
:100F68000101BB5101010101BD21DA6E000EDF6EE6
:100F7800120020EE35F00B50D9260C50DA22DF5043
:100F8800146E14500D0DF3500B24176EF4500C20F2
:100F9800186E010E17C0D9FF18C0DAFFDF6250D0F3
:100FA80020EE01F01750D9261850DA22DF500D5CD8
:100FB800D8B002D0FD0E120020EE01F01750D9264D
:100FC8001850DA22DF50126E1250156E166A11C0D0
:100FD80002F010C001F0030E1724126E000E182044
:100FE800136E12C003F013C004F015C005F016C04C
:100FF80006F0D2EC0CF020EE35F00B50D9260C5050
:10100800DA2210EE35F00B50E1260C50E222E750C0
:10101800126E1228030BDF6E20EE02F01750D9264D
:101028001850DA220EC0E1FF0FC0E2FFDFCFE7FF62
:1010380017C0D9FF18C0DAFF000EDF6E1550120076
:10104800FC0E1200000141C0B6F000010001B76BB0
:1010580020EE34F03F50D9264050DA22DF5000010C
:101068000001B86F00010001B8510D0DF3503F2485
:1010780000010001B96FF45040200001BA6FB9C0F7
:10108800D9FFBAC0DAFFDF50D8B402D0FF0E120081
:10109800000120EE01F00001B951D9260001BA5132
:1010A800DA2241C0DFFF000120EE02F00001B95151
:1010B800D9260001BA51DA2242C0DFFF030E00012F
:1010C8000001B925356E000E00010001BA21366E07
:1010D80044C038F043C037F0B6C039F0B7C03AF072
:1010E800F2EC0CF020EE34F03F50D9264050DA22D2
:1010F80010EE34F03F50E1264050E222E750456EB2
:101108004528030BDF6EB9C0D9FFBAC0DAFF010E5C
:10111800DF6E010E1200E8CF35F0000120EE0BF073
:101128000001DD51D9260001DE51DA22010EDF6E01
:10113800000120EE0AF00001DD51D9260001DE5140
:10114800DA22000EDF6E3550D8B43DD0C7AA21D0C0
:10115800000120EE0CF00001DD51D9260001DE511E
:10116800DA22050EDF6E000120EE0EF00001DD51DF
:10117800D9260001DE51DA22DF2A000120EE0DF027
:101188000001DD51D9260001DE51DA22050EDF6E9D
:101198001200C7A40CD0000120EE0CF00001DD51B4
:1011A800D9260001DE51DA22080EDF6E1200000196
:1011B80020EE0CF00001DD51D9260001DE51DA22C3
:1011C800070EDF6E1200000120EE0CF00001DD5169
:1011D800D9260001DE51DA22060EDF6E12000DC09C
:1011E80012F0136A20EE34F00B50D9260C50DA2294
:1011F800DF50146E14500D0DF3500B24156EF4507F
:101208000C20166E15C0D9FF16C0DAFFDF50D8B40F
:1012180002D0FF0E120020EE01F01550D92616500C
:10122800DA220DC0DFFF20EE02F01550D926165045
:10123800DA220EC0DFFF030E1524016E000E162001
:10124800026E10C004F00FC003F012C005F013C006
:1012580006F0D2EC0CF020EE34F00B50D9260C50EE
:10126800DA2210EE34F00B50E1260C50E222E7505F
:10127800116E1128030BDF6E15C0D9FF16C0DAFFF7
:10128800010EDF6E010E12009EAA3CD020EE04F083
:101298004850D9264950DA22DF501B6E1B50010DE9
:1012A800F3504824D96EF4504920DA6E60EC0EF001
:1012B800DF6E20EE04F04850D9264950DA22DF2AA2
:1012C80020EE04F04850D9264950DA22040EDF6295
:1012D80019D01B6E200E176E1B5049C019F048C05C
:1012E80018F020EE04F04850D9264950DA22DF5091
:1012F8002CEC0EF020EE04F04850D9264950DA22A2
:10130800000EDF6E4BA61200AB98AB881B6E1E0E4C
:10131800176E1B50000E196E000E186E000E2CEC86
:101328000EF01200E8CFDCF0000EAC6E000EAB6ED3
:1013380000010001DCB1AC8800010001DCA302D08F
:10134800AC8CAB8C00010001DCB5AC8E0001000157
:10135800DCA702D0AB8801D0AB8A00010001DCB960
:10136800AC849E9800010001DCBBAB860001000143
:10137800DCAD02D09D8A01D09D9A9E9A00010001A1
:10138800DCAF02D09D8801D09D98D7C0AFFF000187
:10139800D8C0D9F0D9C0DAF00001DB6B0001DA510E
:1013A800B06EAC8AAB8E949C948EACA81200ACBE86
:1013B8001200948C120000010001DA51D911D8B43E
:1013C8003AD00001DB6F010E00010001DC6F000163
:1013D800DB5109D0000100010001D890D937DA3774
:1013E80000010001DC2B00010001DAAFF3D7000196
:1013F8000001D95100010001D75D00010001DA5157
:1014080000010001D859D8A00CD000010001D95121
:1014180000010001D75F00010001DA51000100015D
:10142800D85B000100010001D890DA33D9330001FC
:101438000001DC2FDCD7D7C0D7F0D8C0D8F0120015
:10144800000E366E000E356EA7EC0EF00001000E91
:1014580000010001BC6F0001C30E00010001BB6F59
:101468000001000E00010001BE6F0001C50E000161
:101478000001BD6F020E7FEC0DF000010001C16F8D
:101488000001C26B0001C1BFC20700010001C151C8
:10149800020AC211D8A412000001C06F0A0E00018E
:1014A8000001BB6F0001C0510001000E00010001E6
:1014B800BD6F0001C50E00010001BC6F020EDCEC1F
:1014C8000DF01200E9CFCBF0EACFCCF0E1CFCDF0B0
:1014D800E2CFCEF0D9CFCFF0DACFD0F0F3CFD1F042
:1014E800F4CFD2F0F6CFD3F0F7CFD4F0F8CFD5F0D1
:1014F800F5CFD6F09EA603D09E9662EC00F0F2A43B
:1015080003D0F29424EC0AF024EC0CF0D6C0F5FFDA
:10151800D5C0F8FFD4C0F7FFD3C0F6FFD2C0F4FFA0
:10152800D1C0F3FFD0C0DAFFCFC0D9FFCEC0E2FFF1
:10153800CDC0E1FFCCC0EAFFCBC0E9FFCAC0FBFFCA
:10154800C9C0FAFF11006EEC0CF000010001DC517B
:101558000001DB11D8B412000101A26F010E4A6E1E
:101568000101A2510101010E00010001D86F010122
:101578006C0E00010001D76F64EC0DF00009D8B4BF
:1015880007D00101A26F000E4A6E0101A25112009C
:101598000001000E00010001D86F0001800E00015B
:1015A8000001D76F64EC0DF00009D8B407D0010131
:1015B800A26F000E4A6E0101A25112000A0E6FECD2
:1015C8000EF0D0D7000120EE34F00001D751D92613
:1015D8000001D851DA22000EDF6E000120EE35F04E
:1015E8000001D751D9260001D851DA22000EDF6E4A
:1015F8000001D96F000E00010001DA6F0001D95116
:10160800030E00010001DA6501D01200000100019B
:10161800DA510D0DF35000010001D725D96EF450B1
:1016280000010001D821DA6E000EDF6E0001000112
:10163800DA2B030E00010001DA65E8D71200B6C103
:10164800D9FFB7C1DAFFDE2A000EDD22B6C1D9FF05
:10165800B7C1DAFF0001DECFD7F00001DDCFD8F047
:10166800000E00010001DA6F0A0E0001D96FDFECED
:1016780009F000010001D751090A0001D811D8A4C6
:1016880012000101BE6F140E01010101B26F0101C8
:10169800BE5101010101B7C1B4F101010101B6C197
:1016A800B3F1020E49EC0DF001010101BF6F120008
:1016B8000001DB6F000E4A6E0001DB510001000ED5
:1016C80000010001D86F0001800E00010001D76FF2
:1016D800E6EC0AF00101010E00010001D86F0101DA
:1016E8006C0E00010001D76FE6EC0AF00101010E53
:1016F80000010001D86F0101360E00010001D76F0B
:10170800E6EC0AF00101010E00010001D86F0101A9
:10171800000E00010001D76FE6EC0AF0120000018C
:101728000001D8C0DEF000010001D7C0DDF00001E3
:1017380020EE0AF00001DD51D9260001DE51DA223F
:10174800000EDF6E000120EE0BF00001DD51D926FE
:101758000001DE51DA22000EDF6E000120EE0CF0EF
:101768000001DD51D9260001DE51DA22050EDF6EB7
:10177800000120EE0EF00001DD51D9260001DE51F6
:10178800DA22000EDF6E120000010101DAC0A5F1B5
:1017980000010101D9C0A4F100010101D8C0A3F1E1
:1017A80000010101D7C0A2F112D0A4C1D9FFA5C17F
:1017B800DAFFA2C1E1FFA3C1E2FFDFCFE7FF01012A
:1017C8000101A44BA52B01010101A24BA32B000190
:1017D8000001DB07D8A0DC070001DB29D8B4DC292D
:1017E800D8B41200E2D7000E206E000E1F6E000E55
:1017F8001A6E220E196E20C01CF01FC01BF00A0EB4
:1018080005EC0EF0236E23BE19D01E6E000E216E5D
:101818001E500DD0ACA2FED72150010DF3501F244D
:10182800D96EF4502020DA6EDF50AD6E212A215097
:1018380023BE04D0FF0A2324D8B0ECD79D98120009
:101848004A6601D01200B0EC0DF038503710D8A419
:101858001200B0EC0EF036503510D8B41200010169
:10186800010E366E01016C0E356E3FEC0EF000096C
:10187800D8A412000001000E366E0001800E356EED
:101888003FEC0EF00009D8B4BAEC0EF01200F2AC3E
:1018980008D0000E00010001DA6F000E0001D96FB8
:1018A80012008CEC0EF000010001D8510001D71194
:1018B800D8B408D0000E00010001DA6F000E000154
:1018C800D96F1200000E00010001DA6F010E00014D
:1018D800D96F12004BEC0CF000010001DA51000145
:1018E800D911D8A411D08CEC0EF000010001D85108
:1018F8000001D711D8A408D0000E00010001DC6F48
:10190800010E0001DB6F1200000E00010001DC6F08
:10191800000E0001DB6F1200E8CFB8F10001000EE5
:1019280001010101A76F0001800E01010101A66FED
:10193800B8C1A8F101010101B5C1AAF10101010174
:10194800B4C1A9F101010101B7C1ACF10101010163
:10195800B6C1ABF122EC05F01200E8CFB8F10101F5
:10196800010E01010101A76F01016C0E01010101C6
:10197800A66FB8C1A8F101010101B5C1AAF1010121
:101988000101B4C1A9F101010101B7C1ACF1010123
:101998000101B6C1ABF122EC05F0120004C00AF057
:1019A80003C009F002C008F001C007F00ED009C05A
:1019B800D9FF0AC0DAFF07C0E1FF08C0E2FFDFCFA6
:1019C800E7FF094A0A2A074A082A0506D8A0060690
:1019D8000528D8B40628D8B41200E9D738C03EF094
:1019E80037C03DF036C03CF035C03BF00ED03DC0AE
:1019F800D9FF3EC0DAFF3BC0E1FF3CC0E2FFDFCFCA
:101A0800E7FF3D4A3E2A3B4A3C2A3906D8A03A0617
:101A18003928D8B43A28D8B41200E9D7E8CFD7F093
:101A280000010001D7517E0BCD6E00010001D7AD3A
:101A380002D0CD8E01D0CD9E000ECF6E000ECE6EA0
:101A48009E9000010001D7AF02D09D8001D09D90EB
:101A5800CD801200E8CFB5F10101010E01010101AD
:101A6800A76F0101360E01010101A66FB5C1A8F1EA
:101A7800B2C1A9F101010101B4C1ABF10101010138
:101A8800B3C1AAF144EC06F01200E8CFB5F10101A8
:101A9800010E01010101A76F0101000E0101010101
:101AA800A66FB5C1A8F1B2C1A9F101010101B4C184
:101AB800ABF101010101B3C1AAF144EC06F0120037
:101AC800000120EE35F00001D751D9260001D85188
:101AD800DA22DF500001D96F0001D9510D0DF35002
:101AE80000010001D725D96EF45000010001D8216A
:101AF800DA6EDF501200E8CFBFF00101010E406E30
:101B08000101000E3F6EBFC041F00001BCC043F0B0
:101B18000001BBC042F00001BEC045F00001BDC0DD
:101B280044F0C6EC06F012009EEC0EF001C01CF06A
:101B380002C01DF01B6E0B0E176E1B50000E196EA7
:101B4800000E186E000E2CEC0EF0000E026E000E49
:101B5800016E95EC0EF01200F2AC05D0000E386E56
:101B6800000E376E1200B0EC0EF036503510D8B4B7
:101B780005D0000E386E000E376E1200000E386E5B
:101B8800010E376E1200E8CFD7F000010001D751DF
:101B98007F0BD56E000ED76E000ED66EF294000144
:101BA8000001D7AF02D0F28A01D0F29AD58E120086
:101BB800E8CF46F00101010E406E01016C0E3F6E48
:101BC80046C041F0BBC042F00001BDC044F0000176
:101BD800BCC043F026EC08F01200E8CFD7F094869A
:101BE8009488D7C0C8FF000EC76E000EC66E000EE0
:101BF800C56E0E0EC612C78E94869488C580C68A96
:101C08001200E8CF1DF00101010E0C6E0101360E25
:101C18000B6E1DC00DF01AC00FF019C00EF0116A3E
:101C28001BC010F0BDEC07F0120001EE00F0A20E90
:101C3800EE6AE806FDE100EE80F0360EEE6AE80690
:101C4800FDE14B6A4A6A000EF86E00018FEF03F05F
:101C5800E8CF1AF00001000E0C6E0001800E0B6E2A
:101C68001AC00DF017C00EF019C010F018C00FF010
:101C7800F3EC08F0120020EE35F03550D926365036
:101C8800DA22DF50376E37500D0DF3503524D96EF8
:101C9800F4503620DA6EDF5012000001D8C049F047
:101CA8000001D7C048F020EE04F04850D92649502A
:101CB800DA22000EDF6E1200F20E4B16ABAC03D028
:101CC8004B90ABB04B80ABB44B84ABB24B86AECF32
:101CD80001F001501200E8CFD7F0FA0E00F0E82E1C
:101CE800FDD700010001D72FF8D71200010100012C
:101CF800A9C1D8F001010001A8C1D7F01200D7C0CE
:101D0800D9FFD8C0DAFF000EDE6E000EDD6E1200BD
:101D1800000EF2AE010E00010001D76F0001D86B72
:101D2800120001C003F002C004F004C0CFFF03C0DA
:101D3800CEFF1200CECF03F0CFCF04F003C001F0E6
:101D480004C002F0120035C037F036C038F038C091
:101D5800D7FF37C0D6FF1200000EF2AE010E356E67
:101D6800366A1200D08EF28EF28C1200D38E0300E7
:041D78001200120043
:067FF80080F4C5FFFFF15B
:00000001FF
