:0400000080EF7FF01E
:10FF00000A6A0001A8EF7FF0E8CF01F0ADAC03D0A2
:10FF1000AD900AB2AD8001C0AEFF1200E8CF03F091
:10FF20000150F30B9A6E03C002F07F0E0216D890B8
:10FF30000234CD6E000ECF6E000ECE6E9E9003AEDC
:10FF400002D09D8001D09D909ABE9A86CD801200ED
:10FF5000E00ED36E9B8C9368000E8A6E076E000EC7
:10FF6000016E07509B0E8EEC7FF09F909F9A9F86AC
:10FF70009D86076E7C0E086E0750076E4D0E096E4B
:10FF8000075009C001F0026A0850CFEC7FF0F28EF2
:10FF900003D0AA0E84EC7FF0ADA2FED7FAD7E8CF4B
:10FFA00006F0000EAD6E000EAC6E06B0AD8806A277
:10FFB00002D0AD8CAC8C06B4AD8E06A602D0AC8857
:10FFC00001D0AC8A06B8AD8406BAAC8606AC02D0C5
:10FFD0009D8A01D09D9A06AE02D09D8801D09D9841
:10FFE00001C0B0FF02C003F003C004F0056A045072
:08FFF0007F6EAD8AAC8E120099
:08FFF8008AF795FFF2F9FFF111
:00000001FF
