:0400000069EF00F0B4
:0C000800FACF97F0FBCF98F0A1EF0AF0C0
:10001800D8CF25F0E8CF26F0E0CF27F0FACF28F0A8
:10002800FBCF29F0E9CF2AF0EACF2BF0E1CF2CF073
:10003800E2CF2DF0D9CF2EF0DACF2FF0F3CF30F07A
:10004800F4CF31F0F6CF32F0F7CF33F0F8CF34F009
:10005800F5CF35F09EA00CD09E90246E0B0E176E37
:100068002450000E196E000E186E000E4AEC0FF0A8
:100078009EAA03D09E9A53EC0AF09EB89DA802D07F
:100088001AEC0DF035C0F5FF34C0F8FF33C0F7FFA8
:1000980032C0F6FF31C0F4FF30C0F3FF2FC0DAFFE3
:1000A8002EC0D9FF2DC0E2FF2CC0E1FF2BC0EAFF14
:1000B8002AC0E9FF29C0FBFF28C0FAFF27C0E0FFDC
:1000C80026C0E8FF25C0D8FF1000C3EF0EF00001DE
:1000D8008B6F000E00010001956F00018B5100012C
:1000E8008B6F000E00010001906F00018B51000121
:1000F8008B6F000E00010001946F00018B5100010D
:100108008B6F000E00010001936F00018B510001FD
:100118008B6F000E00010001916F00018B51C6AC7E
:1001280029D0C69C000120EE0CF00001D151D9263F
:100138000001D251DA22050EDF6E00018B6F010E2D
:1001480000010001916F00018B51000120EE0EF0BB
:100158000001D151D9260001D251DA22DF2A00014B
:1001680020EE0DF00001D151D9260001D251DA223A
:10017800040EDF6EC7A00AD0C9CF92F000018B6FC2
:10018800010E00010001956F00018B510001000173
:100198009167CED1B7D1C7A6CBD100010001955147
:1001A80046EC09F0000120EE0CF00001D151D926EF
:1001B8000001D251DA22080EDF62BAD100018B6F3A
:1001C800000E00010001956F00018B5100018B6F3B
:1001D800010E00010001936F87D1C7A830D000013C
:1001E80020EE0BF00001D151D9260001D251DA22BC
:1001F800DF2A000100019551D8B479D1C7BA09D0D6
:1002080000018B6F010E00010001946F00018B51FA
:100218006ED1000120EE0EF00001D151D926000167
:10022800D251DA22DF2A000120EE0DF00001D1516F
:10023800D9260001D251DA22060EDF6E58D100010C
:1002480000019551D8B474D1000120EE0BF00001E3
:10025800D151D9260001D251DA22DF2AC7BA19D0E2
:10026800C7B40BD0000120EE0CF00001D151D92603
:100278000001D251DA22070E76D0000120EE0CF0F0
:100288000001D151D9260001D251DA22080EDF6EC1
:100298001DD1000120EE0EF00001D151D926000138
:1002A800D251DA22DF2A000120EE0CF00001D151F0
:1002B800D9260001D251DA22050EDF6E000120EEA8
:1002C8000DF00001D151D9260001D251DA22060ED3
:1002D8004AD0000120EE1AF00001D151D9260001C0
:1002E800D251DA22DF5000018B6F000120EE19F0A5
:1002F8000001D151D9260001D251DA22DF50000184
:100308008B5DD8B0F4D0000120EE1AF00001D15175
:10031800D9260001D251DA22DF5000018B6F00018B
:100328008B51010D0F0EF326000EF422F35000013D
:100338000001D125D96EF45000010001D221DA6EF6
:10034800DF50C96E000120EE1AF00001D151D92604
:100358000001D251DA22DF2A00018B6F010E000161
:100368000001906FC1D0DF6EE3D0C7A862D0000152
:1003780020EE0BF00001D151D9260001D251DA222A
:10038800DF2A000100019551D8B44AD0C7AA27D066
:10039800000120EE0AF00001D151D9260001D25106
:1003A800DA22DF5000018B6F00018B51010DF350F1
:1003B80000010001D125D96EF45000010001D221BD
:1003C800DA6E000192C0DFFF000120EE0AF00001A2
:1003D800D151D9260001D251DA22DF2A21D00001D9
:1003E80020EE0EF00001D151D9260001D251DA22B7
:1003F800DF2A000120EE0DF00001D151D9260001BD
:10040800D251DA22060EDF6E000120EE0CF0000158
:10041800D151D9260001D251DA22050EDF6E67D0FC
:1004280000018B6F010E00010001946F00018B51D8
:100438005ED0000100019551D8B47AD0000120EEB9
:100448000BF00001D151D9260001D251DA22DF2A5E
:10045800C7AA27D0000120EE0AF00001D151D92601
:100468000001D251DA22DF5000018B6F00018B515D
:10047800010DF35000010001D125D96EF45000019F
:100488000001D221DA6E000192C0DFFF000120EEE8
:100498000AF00001D151D9260001D251DA22DF2A0F
:1004A80047D0C7A4B6D6000120EE0CF00001D15108
:1004B800D9260001D251DA22080EDF6E00018B6FB7
:1004C800010E00010001946F00018B5100018B6F38
:1004D800010E00010001936F00018B5100018B6F29
:1004E800000E00010001956F00018B5121D0000121
:1004F80020EE0CF00001D151D9260001D251DA22A8
:10050800050E31D7000120EE0CF00001D151D9269B
:100518000001D251DA22DF50050AD8B43CD6030ACA
:10052800D8B45BD6010AD8B420D70F0AD8B4D1D62C
:1005380000010001956705D0000100019051D8B471
:1005480002D0C6A8C688000120EE0AF00001D151E9
:10055800D9260001D251DA22080EDF6424D0000126
:100568000001946720D0000120EE0CF00001D15169
:10057800D9260001D251DA22050EDF6E000120EEE5
:100588000EF00001D151D9260001D251DA22DF2A1A
:10059800000120EE0DF00001D151D9260001D25101
:1005A800DA22070EDF6E000100019451D8B444D05E
:1005B800000120EE0BF00001D151D9260001D251E3
:1005C800DA22000110EE0AF00001D151E126000103
:1005D800D251E222E75000018B6F00018B51010DCF
:1005E800F35000010001D125E16EF4500001000133
:1005F800D221E26EDFCFE7FF00018B6F280E416E3C
:1006080000018B510001D2C043F00001D1C042F07B
:10061800000120EE0AF00001D151D9260001D25183
:10062800DA22DF5000018C6F00018C29DDEC0EF01E
:10063800000120EE0AF045D0000120EE0EF0000186
:10064800D151D9260001D251DA22DF50D8B441D095
:10065800000120EE0EF00001D151D9260001D2513F
:10066800DA22DF50000100018D6F000120EE0DF04D
:100678000001D151D9260001D251DA22DF50000100
:1006880000018E6F000120EE0BF00001D151D92638
:100698000001D251DA22DF50000100018F6F000102
:1006A8008B6F290E416E00018B510001000E436EC5
:1006B80000018D0E426E030EDDEC0EF0000120EEFF
:1006C8000EF00001D151D9260001D251DA22000ED4
:1006D800DF6E000100019351D8B4120000018B6F46
:1006E8002A0E416E00018B510001D2C043F0000177
:1006F800D1C042F0000EDDEC0EF000018B6F000E51
:1007080000010001936F00018B511200000E806EF2
:10071800000E896E0F0EC16E070EB46E000E926E3B
:10072800000E816E000E8A6E9368820ED36E9B8CCB
:100738000101010E00010001A66F0101BC0E0001BC
:100748000001A56F6FEC0FF00101010E000100011F
:10075800A66F0101D70E00010001A56FB6EC0CF0E1
:100768000101010E00010001A66F0101CC0E00017C
:100778000001A56F7BEC0BF00101010E00010001E7
:10078800A66F0101C10E00010001A56FBFEC0BF0BF
:100798000101010E00010001A66F0101B00E000168
:1007A8000001A56FC0EC0FF07FEC0CF0AF0E0DEC64
:1007B8000FF0C70E56EC0EF0D59ECD900001CC6F11
:1007C800EC0E01010101AE6F0001CC510001CC6FAC
:1007D8004D0E01010101AD6F0001CC510101000175
:1007E800ADC1A5F000010001A66B01010101AE51E8
:1007F800EDEC0AF09F909F9A9F989F869A0E22ECA4
:100808000FF09D86B9EC0FF00101010E0001000107
:10081800C56F0101CC0E00010001C46F000E00017C
:100828000001C76F1E0E0001C66FFFEC09F003EC54
:100838000CF00101010E00010001BE6F0101CA0E9A
:1008480000010001BD6F0101010E00010001C06F30
:100858000101A20E00010001BF6F0A0EF5EC0DF0B8
:1008680001010101CB6F01010101CBBFB7D0A7D0B6
:100878000101010E00010001C56F0101C10E000157
:100888000001C46FEFEC07F0A9D0A2C1AFF129D0E5
:100898000001CC6F000E01010101BA6F0001CC51BB
:1008A8000001CC6F000E17D00001CC6FC70E0101FC
:1008B8000101BA6F0001CC510001CC6F490E0BD079
:1008C8000001CC6FB60E01010101BA6F0001CC51D5
:1008D8000001CC6F360E01010101BB6F0001CC5144
:1008E8000CD001010101AF51000AD8B4D1D7010AD7
:1008F800D8B4DAD7030AD8B4E3D70101010E00014E
:100908000001C06F0101BA0E00010001BF6F020EA5
:10091800B3EC0DF063D0A2C1AFF160D00001CC6F91
:10092800020E01010101CB6F0001CC510001CC6F17
:10093800550E01010101A26F0001CC510001CC6FDD
:10094800AA0E01010101A36F0CD00001CC6F010EAA
:1009580001010101CB6F0001CC510001CC6F3A0EAF
:100968000ED00001CC511BD00001CC6F010E01014B
:100978000101CB6F0001CC510001CC6FA30E010126
:100988000101A26FEED701010101AF51A80AD8B445
:10099800DCD7010AD8B4E8D7030AD8B4BFD7010115
:1009A800010E00010001A66F0101A20E0001000165
:1009B800A56F01010101CB51F2EC05F00FD0010147
:1009C8000101CA510A0AD8B453D7220AD8B45DD74C
:1009D800010AD8B4A0D7030AD8B4D5D70101010EAB
:1009E80000010001BE6F0101CA0E00010001BD6FC8
:1009F8000101010E00010001C06F0101A20E0001FA
:100A08000001BF6F0A0ED4EC0DF001010101CB6F9C
:100A180001010101CBBF0BD736D00101010E000146
:100A28000001C56F0101CC0E00010001C46F76EC16
:100A380007F0FDD60101010E00010001C06F0101A0
:100A4800B00E00010001BF6F01010001CAC1C1F071
:100A580000010001C26B01010101CB51000100013D
:100A6800C36F0001C46B0001C3BFC4070101010EBD
:100A780000010001C66F0101A20E00010001C56F4F
:100A880068EC08F0D4D601010101CA510B0AD8B4A8
:100A9800C4D7150AD8B4CED7010AD8B4CBD73F0AE1
:100AA800D8B4C8D7C4D6000120EE35F00001AF5144
:100AB800D9260001B051DA22DF5000010001B86FD9
:100AC80000010001B8510D0DF35000010001AF25E0
:100AD80000010001BB6FF45000010001B0210001CA
:100AE800BC6F010EBBC0D9FFBCC0DAFFDF6274D097
:100AF800000120EE01F00001BB51D9260001BC51D4
:100B0800DA22DF5000010001B15DD8B002D0FD0E3D
:100B18001200000120EE01F00001BB51D9260001AE
:100B2800BC51DA22DF500001B66F0001B651000156
:100B38000001B96F0001BA6B00010001B5C0A6F051
:100B480000010001B4C0A5F0030E00010001BB259F
:100B58000001B66F000E00010001BC210001B76F53
:100B6800B6C0A7F0B7C0A8F0B9C0A9F0BAC0AAF03B
:100B7800EBEC0CF0000120EE35F00001AF51D92666
:100B88000001B051DA22000110EE35F00001AF513A
:100B9800E1260001B051E222E7500001B66F0001E2
:100BA800B629030BDF6E000120EE02F00001BB51F5
:100BB800D9260001BC51DA22B2C0E1FFB3C0E2FF7E
:100BC800DFCFE7FFBBC0D9FFBCC0DAFF000EDF6E86
:100BD80000010001B9511200FC0E1200E8CFA9F083
:100BE800000120EE19F00001D151D9260001D2519F
:100BF800DA22000EDF6E42D0000120EE19F000016B
:100C0800D151D9260001D251DA22DF500001A76F55
:100C18000001A751010DF35000010001A525D96E6F
:100C2800F45000010001A621DA6E000110EE19F05F
:100C38000001D151E1260001D251E222E750000122
:100C4800A86F0001A851010D0F0EF326000EF42223
:100C5800F35000010001D125E16EF45000010001BC
:100C6800D221E26EDFCFE7FF000120EE19F000018C
:100C7800D151D9260001D251DA22DF2A000120EE13
:100C880019F00001D151D9260001D251DA22DF50E2
:100C98000001A76F00010001A9510001A75DD8A0BC
:100CA800ABD7000120EE19F00001D151D92600017F
:100CB800D251DA220001A9C0DFFF000120EE1AF0AC
:100CC8000001D151D9260001D251DA22010EDF6E7E
:100CD800000120EE0FF00001D151D9260001D251B8
:100CE800DA22DF50C96EC688120000010001B1C0C7
:100CF800B6F000010001B76B000120EE34F00001EE
:100D0800AF51D9260001B051DA22DF5000010001AD
:100D1800B86F00010001B8510D0DF350000100013A
:100D2800AF2500010001B96FF45000010001B021A6
:100D38000001BA6FB9C0D9FFBAC0DAFFDF50D8B422
:100D480002D0FF0E1200000120EE01F00001B9519F
:100D5800D9260001BA51DA220001B1C0DFFF000133
:100D680020EE02F00001B951D9260001BA51DA2269
:100D78000001B2C0DFFF030E00010001B925000128
:100D88000001A56F000E00010001BA210001A66F45
:100D980000010001B4C0A8F000010001B3C0A7F031
:100DA800B6C0A9F0B7C0AAF0EBEC0CF0000120EE39
:100DB80034F00001AF51D9260001B051DA22000108
:100DC80010EE34F00001AF51E1260001B051E222EB
:100DD800E7500001B56F0001B529030BDF6EB9C0FC
:100DE800D9FFBAC0DAFF010EDF6E010E1200000152
:100DF800000182C086F000010001876B000120EE2F
:100E080034F000018051D92600018151DA22DF50E7
:100E180000010001886F0001000188510D0DF35099
:100E280000010001802500010001896FF4500001D4
:100E38000001812100018A6F89C0D9FF8AC0DAFFC9
:100E4800DF50D8B402D0FF0E1200000120EE01F0EE
:100E580000018951D92600018A51DA22000182C095
:100E6800DFFF000120EE02F000018951D9260001C0
:100E78008A51DA22000183C0DFFF030E000100015E
:100E88008925366E000E000100018A21376E0001A7
:100E980085C039F0000184C038F086C03AF087C0B8
:100EA8003BF036EC0EF0000120EE34F000018051EA
:100EB800D92600018151DA22000110EE34F0000138
:100EC8008051E12600018151E222E750406E40281E
:100ED800030BDF6E89C0D9FF8AC0DAFF010EDF6E0F
:100EE800010E1200C4C0D9FFC5C0DAFFDE2A000E09
:100EF800DD22000120EE0AF00001C451D9260001CC
:100F0800C551DA22DF50D8B454D0C4C0D9FFC5C007
:100F1800DAFF0001DECFA5F00001DDCFA6F0000169
:100F280020EE06F00001C451D9260001C551DA228D
:100F38000001DECFA7F00001DDCFA8F036EC0BF002
:100F4800FF0E0001C66FFF0EC76F000120EE06F00E
:100F58000001C451D9260001C551DA22DECFC8F0FC
:100F6800DDCFC9F00001C6510001C8270001C751F3
:100F78000001C92300010001A6510001C91905E1BA
:100F880000010001A5510001C819D8A412D0CFC092
:100F9800CAF0D0C0CBF00001000E00010001C06F04
:100FA8000001CA0E00010001BF6F020EB3EC0DF084
:100FB800CD90000120EE04F00001C451D9260001B3
:100FC800C551DA220001DECFA5F00001DDCFA6F081
:100FD800A1EC0FF01200C4C0D9FFC5C0DAFFDE2AA9
:100FE800000EDD22000120EE08F00001C451D926D0
:100FF8000001C551DA22DF50D8B454D0C4C0D9FF9B
:10100800C5C0DAFF0001DECFA5F00001DDCFA6F0F4
:10101800000120EE06F00001C451D9260001C55197
:10102800DA220001DECFA7F00001DDCFA8F036EC10
:101038000BF0FF0E0001C66FFF0EC76F000120EE18
:1010480006F00001C451D9260001C551DA22DECFCD
:10105800C8F0DDCFC9F00001C6510001C827000162
:10106800C7510001C92300010001A6510001C91997
:1010780005E100010001A5510001C819D8A412D04A
:10108800CDC0CAF0CEC0CBF00001000E00010001B7
:10109800C06F0001CA0E00010001BF6F020EB3EC61
:1010A8000DF0D59E000120EE04F00001C451D926B0
:1010B8000001C551DA220001DECFA5F00001DDCF25
:1010C800A6F098EC0FF0120000010001C1511E0AB1
:1010D800C211D8B4120000010001C1511F0AC21187
:1010E800D8A44FD0000E00010001C96F000E000106
:1010F800C86F000E00010001C96F000E0001C86F23
:1011080000010001C951800A800F0A0ED8B4C85DD9
:10111800D8B023D000010001C85100010001C52545
:10112800D96E00010001C95100010001C621DA6E23
:1011380000010001C85100010001BF25E16E000156
:101148000001C95100010001C021E26EDFCFE7FFB5
:1011580000010001C84BC92BD3D7C1C0BBF00001A7
:101168000001C0C0BDF000010001BFC0BCF000011B
:101178000001C35172EC0EF000010001C76F9D8899
:10118800120000010001C151200AC211D8A41200A6
:1011980000010001C35100010001C525D96E0001FD
:1011A8000001C45100010001C621DA6E000EDF6E95
:1011B800120020EE35F00B50D9260C50DA22DF5001
:1011C800146E14500D0DF3500B24176EF4500C20B0
:1011D800186E010E17C0D9FF18C0DAFFDF6250D0B1
:1011E80020EE01F01750D9261850DA22DF500D5C96
:1011F800D8B002D0FD0E120020EE01F01750D9260B
:101208001850DA22DF50126E1250156E166A11C08D
:1012180002F010C001F0030E1724126E000E182001
:10122800136E12C003F013C004F015C005F016C009
:1012380006F016EC0EF020EE35F00B50D9260C50C7
:10124800DA2210EE35F00B50E1260C50E222E7507E
:10125800126E1228030BDF6E20EE02F01750D9260B
:101268001850DA220EC0E1FF0FC0E2FFDFCFE7FF20
:1012780017C0D9FF18C0DAFF000EDF6E1550120034
:10128800FC0E1200E8CF36F0000120EE0BF0000152
:10129800D151D9260001D251DA22010EDF6E0001A8
:1012A80020EE0AF00001D151D9260001D251DA22EC
:1012B800000EDF6E3650D8B43DD0C7AA21D0000149
:1012C80020EE0CF00001D151D9260001D251DA22CA
:1012D800050EDF6E000120EE0EF00001D151D92677
:1012E8000001D251DA22DF2A000120EE0DF00001C0
:1012F800D151D9260001D251DA22050EDF6E120033
:10130800C7A40CD0000120EE0CF00001D151D92661
:101318000001D251DA22080EDF6E1200000120EE21
:101328000CF00001D151D9260001D251DA22070E62
:10133800DF6E1200000120EE0CF00001D151D92619
:101348000001D251DA22060EDF6E12000DC012F033
:10135800136A20EE34F00B50D9260C50DA22DF50F5
:10136800146E14500D0DF3500B24156EF4500C2010
:10137800166E15C0D9FF16C0DAFFDF50D8B402D0F8
:10138800FF0E120020EE01F01550D9261650DA2271
:101398000DC0DFFF20EE02F01550D9261650DA22D4
:1013A8000EC0DFFF030E1524016E000E1620026E1C
:1013B80010C004F00FC003F012C005F013C006F00F
:1013C80016EC0EF020EE34F00B50D9260C50DA2231
:1013D80010EE34F00B50E1260C50E222E750116E6B
:1013E8001128030BDF6E15C0D9FF16C0DAFF010EF6
:1013F800DF6E010E1200000120EE0AF00001C45158
:10140800D9260001C551DA22010EDF6E000120EE57
:1014180006F00001C451D9260001C551DA220001A5
:10142800C6C0DEFF0001C7C0DDFF000120EE02F0EC
:101438000001C451D9260001C551DA22DF5000014C
:101448000001C86F000120EE03F00001C451D92645
:101458000001C551DA22DF5000010001C96FCD80BB
:101468000001000E00010001C06F0001C80E00015C
:101478000001BF6F020EB3EC0DF0000120EE04F086
:101488000001C451D9260001C551DA220001DECF7E
:10149800A5F00001DDCFA6F0A1EC0FF012009EAA86
:1014A8003CD020EE04F04950D9264A50DA22DF50C9
:1014B8001B6E1B50010DF3504924D96EF4504A207D
:1014C800DA6E7EEC0FF0DF6E20EE04F04950D9267C
:1014D8004A50DA22DF2A20EE04F04950D9264A5031
:1014E800DA22040EDF6219D01B6E200E176E1B5015
:1014F8004AC019F049C018F020EE04F04950D92626
:101508004A50DA22DF504AEC0FF020EE04F049503E
:10151800D9264A50DA22000EDF6E48A61200AB9890
:10152800AB881B6E1E0E176E1B50000E196E000E38
:10153800186E000E4AEC0FF01200E9CF99F0EACFCE
:101548009AF0E1CF9BF0E2CF9CF0D9CF9DF0DACFB3
:101558009EF0F3CF9FF0F4CFA0F0F6CFA1F0F7CF35
:10156800A2F0F8CFA3F0F5CFA4F09EA603D09E96E4
:101578006BEC00F0F2A40ED0F2940001966F0A0E04
:10158800416E00019651000E436E000E426E000E31
:10159800DDEC0EF047EC0DF0A4C0F5FFA3C0F8FF9A
:1015A800A2C0F7FFA1C0F6FFA0C0F4FF9FC0F3FFE1
:1015B8009EC0DAFF9DC0D9FF9CC0E2FF9BC0E1FF3F
:1015C8009AC0EAFF99C0E9FF98C0FBFF97C0FAFFED
:1015D8001100E8CFAAF0000EAC6E000EAB6E000151
:1015E8000001AAB1AC8800010001AAA302D0AC8C0A
:1015F800AB8C00010001AAB5AC8E00010001AAA7BE
:1016080002D0AB8801D0AB8A00010001AAB9AC8432
:101618009E9800010001AABBAB8600010001AAAD9B
:1016280002D09D8A01D09D9A9E9A00010001AAAF1E
:1016380002D09D8801D09D98A5C0AFFF0001A6C02B
:10164800A7F0A7C0A8F00001A96B0001A851B06ECF
:10165800AC8AAB8E949C948EACA81200ACBE1200DF
:10166800948C120000010001A851A711D8B43AD0F7
:101678000001A96F010E00010001AA6F0001A95124
:1016880009D0000100010001D890A737A837000150
:101698000001AA2B00010001A8AFF3D70001000147
:1016A800A75100010001A55D00010001A85100013A
:1016B8000001A659D8A00CD000010001A7510001D3
:1016C8000001A55F00010001A85100010001A65B0F
:1016D800000100010001D890A833A73300010001E0
:1016E800AA2FDCD7A5C0A5F0A6C0A6F01200A5C0F9
:1016F800D9FFA6C0DAFF000EDE6E000EDD6E000117
:1017080020EE02F00001A551D9260001A651DA22E7
:10171800500EDF6E000120EE03F00001A551D9261E
:101728000001A651DA22CD0EDF6E000120EE04F092
:101738000001A551D9260001A651DA22B50EDE6EA8
:10174800FF0EDD6E000120EE06F00001A551D9263E
:101758000001A651DA22000EDE6E000EDD6E0001D9
:1017680020EE0AF00001A551D9260001A651DA227F
:10177800000EDF6E1200A5C0D9FFA6C0DAFF000E6A
:10178800DE6E000EDD6E000120EE02F00001A551B4
:10179800D9260001A651DA22500EDF6E000120EE94
:1017A80003F00001A551D9260001A651DA22CD0E79
:1017B800DF6E000120EE04F00001A551D9260001DA
:1017C800A651DA22B50EDE6EFF0EDD6E000120EEA8
:1017D80006F00001A551D9260001A651DA22000E13
:1017E800DE6E000EDD6E000120EE08F00001A5514E
:1017F800D9260001A651DA22000EDF6E120091EC04
:101808000DF000010001AA510001A911D8B412007D
:101818000001AB6F010E476E0001AB510101010ED3
:1018280000010001A66F0101360E00010001A56F3D
:10183800A8EC0EF00009D8B407D00001AB6F000E79
:10184800476E0001AB5112000101010E00010001B9
:10185800A66F01016C0E00010001A56FA8EC0EF047
:101868000009D8B407D00001AB6F000E476E000125
:10187800AB5112000A0E8DEC0FF0D0D7000120EE0C
:1018880034F00001A551D9260001A651DA22000E34
:10189800DF6E000120EE35F00001A551D9260001C8
:1018A800A651DA22000EDF6E0001A76F000E0001BC
:1018B8000001A86F0001A751030E00010001A865EF
:1018C80001D0120000010001A8510D0DF3500001D4
:1018D8000001A525D96EF45000010001A621DA6E99
:1018E800000EDF6E00010001A82B030E00010001AD
:1018F800A865E8D712000001A96F000E476E000125
:10190800A9510101010E00010001A66F01016C0E31
:1019180000010001A56F42EC0CF00101010E00016D
:101928000001A66F0101360E00010001A56F42EC0F
:101938000CF00101010E00010001A66F0101000E6B
:1019480000010001A56F42EC0CF00201020E00013B
:101958000001A66F0201000E00010001A56F42EC14
:101968000CF0120000010001A6C0D2F00001000135
:10197800A5C0D1F0000120EE0AF00001D151D9260E
:101988000001D251DA22000EDF6E000120EE0BF0CA
:101998000001D151D9260001D251DA22000EDF6EA2
:1019A800000120EE0CF00001D151D9260001D251DE
:1019B800DA22050EDF6E000120EE0EF00001D15193
:1019C800D9260001D251DA22000EDF6E1200000182
:1019D8000001A8C0AEF000010001A7C0ADF00001F1
:1019E8000001A6C0ACF000010001A5C0ABF012D008
:1019F800ADC0D9FFAEC0DAFFABC0E1FFACC0E2FFBB
:101A0800DFCFE7FF00010001AD4BAE2B0001000165
:101A1800AB4BAC2B00010001A907D8A0AA07000115
:101A2800A929D8B4AA29D8B41200E2D7000E206E8A
:101A3800000E1F6E000E1A6E210E196E20C01CF0CB
:101A48001FC01BF00A0E36EC0FF0236E23BE19D010
:101A58001E6E000E226E1E500DD0ACA2FED7225074
:101A6800010DF3501F24D96EF4502020DA6EDF5098
:101A7800AD6E222A225023BE04D0FF0A2324D8B0F8
:101A8800ECD79D981200476601D01200F6EC0EF0D4
:101A980039503810D8A41200B3EC0FF03750361074
:101AA800D8B412000101010E376E0101360E366EF0
:101AB8005DEC0FF00009D8A412000101010E376E89
:101AC80001016C0E366E5DEC0FF00009D8B4BDEC68
:101AD8000FF01200F2AC08D0000E00010001A86F50
:101AE800000E0001A76F1200AAEC0FF00001000120
:101AF800A6510001A511D8B408D0000E00010001BC
:101B0800A86F000E0001A76F1200000E000100016F
:101B1800A86F010E0001A76F12006EEC0DF0000116
:101B28000001A8510001A711D8A411D0AAEC0FF008
:101B380000010001A6510001A511D8A408D0000E8B
:101B480000010001AA6F010E0001A96F1200000E2A
:101B580000010001AA6F000E0001A96F1200E8CF72
:101B6800C3F00A0E00010001C36501D01200000194
:101B7800C16F1F0E00010001BB6F0001C1510001C0
:101B88000001C0C0BDF000010001BFC0BCF00001F1
:101B98000001C3518DEC0EF000010001C26F12006C
:101BA800E8CFC1F00101010E00010001B06F010191
:101BB8006C0E00010001AF6FC1C0B1F0000100015F
:101BC800BEC0B3F000010001BDC0B2F000010001C9
:101BD800C0C0B5F000010001BFC0B4F057EC05F07B
:101BE8001200E8CFC1F00101010E00010001B06F41
:101BF8000101360E00010001AF6FC1C0B1F0000154
:101C08000001BEC0B3F000010001BDC0B2F0000188
:101C18000001C0C0B5F000010001BFC0B4F057EC2E
:101C280005F0120004C00AF003C009F002C008F071
:101C380001C007F00ED009C0D9FF0AC0DAFF07C0FB
:101C4800E1FF08C0E2FFDFCFE7FF094A0A2A074A97
:101C5800082A0506D8A006060528D8B40628D8B448
:101C68001200E9D739C03FF038C03EF037C03DF028
:101C780036C03CF00ED03EC0D9FF3FC0DAFF3CC0B2
:101C8800E1FF3DC0E2FFDFCFE7FF3E4A3F2A3C4A83
:101C98003D2A3A06D8A03B063A28D8B43B28D8B4FF
:101CA8001200E9D7E8CFA5F000010001A5517E0B8D
:101CB800CD6E00010001A5AD02D0CD8E01D0CD9E24
:101CC800000ECF6E000ECE6E9E9000010001A5AFF3
:101CD80002D09D8001D09D90CD801200E8CFBEF04B
:101CE8000101010E00010001B06F0101000E0001A9
:101CF8000001AF6FBEC0B1F0BBC0B2F0000100017F
:101D0800BDC0B4F000010001BCC0B3F079EC06F02E
:101D18001200E8CFBEF00101010E00010001B06F12
:101D280001016C0E00010001AF6FBEC0B1F0BBC075
:101D3800B2F000010001BDC0B4F000010001BCC058
:101D4800B3F079EC06F01200000120EE35F0000146
:101D5800A551D9260001A651DA22DF500001A76F4C
:101D68000001A7510D0DF35000010001A525D96E02
:101D7800F45000010001A621DA6EDF50120002EED5
:101D880000F0360EEE6AE806FDE101EE00F0A20E64
:101D9800EE6AE806FDE10001D06BCF6BCE6BCD6B30
:101DA800486A476A466A456A000EF86E00018AEF7B
:101DB80003F0E8CF44F00101010E00010001816F3A
:101DC8000101360E00010001806F44C082F041C05D
:101DD80083F0000143C085F0000142C084F0FBECB1
:101DE80006F01200F2AC05D0000E396E000E386E07
:101DF8001200B3EC0FF037503610D8B405D0000EEF
:101E0800396E000E386E1200000E396E010E386EF3
:101E18001200E8CFA5F000010001A5517F0BD56E97
:101E2800000ED76E000ED66EF29400010001A5AF29
:101E380002D0F28A01D0F29AD58E1200E8CFA5F02E
:101E480094869488A5C0C8FF000EC76E000EC66EA3
:101E5800000EC56E0E0EC612C78E94869488C58075
:101E6800C68A1200E8CF1DF00101010E0C6E0101B7
:101E7800000E0B6E1DC00DF01AC00FF019C00EF049
:101E8800116A1BC010F0DDEC08F01200E8CF1AF060
:101E98000101010E0C6E01016C0E0B6E1AC00DF0E3
:101EA80017C00EF019C010F018C00FF0AAEC09F016
:101EB800120020EE35F03650D9263750DA22DF509E
:101EC800386E38500D0DF3503624D96EF450372043
:101ED800DA6EDF5012000001A6C04AF00001A5C06A
:101EE80049F020EE04F04950D9264A50DA22000E73
:101EF800DF6E1200F20E4816ABAC03D04890ABB0C0
:101F08004880ABB44884ABB24886AECF01F00150EC
:101F18001200E8CFA5F0FA0E00F0E82EFDD7000178
:101F28000001A52FF8D71200A5C0A7F0A6C0A8F0F9
:101F3800A8C0D7FFA7C0D6FF1200A5C0A7F0A6C0AB
:101F4800A8F0A8C0CFFFA7C0CEFF1200000EF2AEC7
:101F5800010E00010001A56F0001A66B1200000E22
:101F6800F2AE010E366E376A1200D08EF28EF28C07
:0A1F78001200D38E030012001200C5
:067FF80080F4C5FFFFF15B
:00000001FF
