:0400000067EF00F0B6
:10000800FACF8FF0FBCF90F0E9CF91F057EF0BF0DC
:10001800D8CF23F0E8CF24F0E0CF25F0FACF26F0B0
:10002800FBCF27F0E9CF28F0EACF29F0E1CF2AF07B
:10003800E2CF2BF0D9CF2CF0DACF2DF0F3CF2EF082
:10004800F4CF2FF0F6CF30F0F7CF31F0F8CF32F011
:10005800F5CF33F09EA00AD09E900B0E176E000EBF
:10006800196E000E186E000EFBEC0EF09EAA03D05F
:100078009E9A0DEC0BF09EB89DA802D0CCEC0CF02B
:1000880033C0F5FF32C0F8FF31C0F7FF30C0F6FFCC
:100098002FC0F4FF2EC0F3FF2DC0DAFF2CC0D9FF0C
:1000A8002BC0E2FF2AC0E1FF29C0EAFF28C0E9FF10
:1000B80027C0FBFF26C0FAFF25C0E0FF24C0E8FFE9
:1000C80023C0D8FF100019EF0EF0000E00018E6F4C
:1000D800000E0001896F000E00018D6F000E0001F7
:1000E8008C6F000E00018A6FC6AC24D0C69C00013C
:1000F80020EE0CF00001CE51D9260001CF51DA22B2
:10010800050EDF6E010E00018A6F000120EE0EF071
:100118000001CE51D9260001CF51DA22DF2A000191
:1001280020EE0DF00001CE51D9260001CF51DA2280
:10013800040EDF6EC7A005D0C9CF8BF0010E0001F9
:100148008E6F00018A679FD188D1C7A69CD1000114
:100158008E518FEC08F0000120EE0CF00001CE511A
:10016800D9260001CF51DA22080EDF628CD1000EA9
:1001780000018E6F010E00018C6F85D1C7A82AD0AF
:10018800000120EE0BF00001CE51D9260001CF511D
:10019800DA22DF2A00018E51D8B454D1C7BA04D06C
:1001A800010E00018D6F4ED1000120EE0EF000010E
:1001B800CE51D9260001CF51DA22DF2A000120EEE4
:1001C8000DF00001CE51D9260001CF51DA22060EDA
:1001D800DF6E38D100018E51D8B455D1000120EE20
:1001E8000BF00001CE51D9260001CF51DA22DF2AC7
:1001F800C7BA19D0C7B40BD0000120EE0CF000012B
:10020800CE51D9260001CF51DA22070E71D0000154
:1002180020EE0CF00001CE51D9260001CF51DA2290
:10022800080EDF6E08D1000120EE0EF00001CE515D
:10023800D9260001CF51DA22DF2A000120EE0CF086
:100248000001CE51D9260001CF51DA22050EDF6E0A
:10025800000120EE0DF00001CE51D9260001CF514A
:10026800DA22060E45D0000120EE1AF00001CE5128
:10027800D9260001CF51DA22DF500001856F000135
:1002880020EE19F00001CE51D9260001CF51DA2213
:10029800DF500001855DD8B0D5D0000120EE1AF0FE
:1002A8000001CE51D9260001CF51DA22DF500001DA
:1002B800856F00018551010D0F0EF326000EF42203
:1002C800F3500001CE25D96EF4500001CF21DA6E2B
:1002D800DF50C96E000120EE1AF00001CE51D92678
:1002E8000001CF51DA22DF2A010E0001896FCBD03D
:1002F800DF6EC9D0C7A85AD0000120EE0BF000016C
:10030800CE51D9260001CF51DA22DF2A00018E51C1
:10031800D8B448D0C7AA25D0000120EE0AF00001C1
:10032800CE51D9260001CF51DA22DF500001856F66
:1003380000018551010DF3500001CE25D96EF4500E
:100348000001CF21DA6E00018BC0DFFF000120EE33
:100358000AF00001CE51D9260001CF51DA22DF2A56
:1003680021D0000120EE0EF00001CE51D926000167
:10037800CF51DA22DF2A000120EE0DF00001CE5124
:10038800D9260001CF51DA22060EDF6E000120EED9
:100398000CF00001CE51D9260001CF51DA22050E0A
:1003A800DF6E50D0010E00018D6F4CD000018E51D0
:1003B800D8B469D0000120EE0BF00001CE51D92647
:1003C8000001CF51DA22DF2AC7AA25D0000120EE8A
:1003D8000AF00001CE51D9260001CF51DA22DF50B0
:1003E8000001856F00018551010DF3500001CE25F4
:1003F800D96EF4500001CF21DA6E00018BC0DFFF07
:10040800000120EE0AF00001CE51D9260001CF519B
:10041800DA22DF2A38D0C7A4C7D6000120EE0CF0B4
:100428000001CE51D9260001CF51DA22080EDF6E25
:10043800010E00018D6F010E00018C6F000E00018E
:100448008E6F21D0000120EE0CF00001CE51D9268C
:100458000001CF51DA22050E4BD7000120EE0CF037
:100468000001CE51D9260001CF51DA22DF50050A0A
:10047800D8B46BD6030AD8B481D6010AD8B43AD70F
:100488000F0AD8B4F0D600018E6704D00001895154
:10049800D8B402D0C6A8C688000120EE0AF0000130
:1004A800CE51D9260001CF51DA22080EDF6423D0BD
:1004B80000018D6720D0000120EE0CF00001CE5124
:1004C800D9260001CF51DA22050EDF6E000120EE99
:1004D8000EF00001CE51D9260001CF51DA22DF2AD1
:1004E800000120EE0DF00001CE51D9260001CF51B8
:1004F800DA22070EDF6E00018D51D8B43ED000011C
:1005080020EE0BF00001CE51D9260001CF51DA229E
:10051800000110EE0AF00001CE51E1260001CF5192
:10052800E222E7500001856F00018551010DF3506B
:100538000001CE25E16EF4500001CF21E26EDFCF3D
:10054800E7FF280E456E0001CFC047F00001CEC07E
:1005580046F0000120EE0AF00001CE51D926000134
:10056800CF51DA22DF500001856F000185290DEC9B
:100578000FF0000120EE0AF03ED0000120EE0EF050
:100588000001CE51D9260001CF51DA22DF50D8B46C
:100598003AD0000120EE0EF00001CE51D92600011C
:1005A800CF51DA22DF500001866F000120EE0DF0F6
:1005B8000001CE51D9260001CF51DA22DF500001C7
:1005C800876F000120EE0BF00001CE51D926000103
:1005D800CF51DA22DF500001886F290E456E0001E5
:1005E800000E476E0001860E466E030E0DEC0FF0EE
:1005F800000120EE0EF00001CE51D9260001CF51A6
:10060800DA22000EDF6E00018C51D8B412002A0ED7
:10061800456E0001CFC047F00001CEC046F0000E85
:100628000DEC0FF0000E00018C6F1200000E806EB2
:10063800000E896E0F0EC16E070EB46E000E926E1C
:10064800000E816E000E8A6E9368820ED36E9B8CAC
:100658000101010E00019E6F0101BC0E00019D6F9A
:1006680031EC0FF00101010E00019E6F0101DB0E5C
:1006780000019D6FDEEC0BF00101010E00019E6F81
:100688000101C30E00019D6FBEEC0AF00101010ECD
:1006980000019E6F0101CF0E00019D6F2AEC08F04A
:1006A8000101010E00019E6F0101B00E00019D6F56
:1006B80080EC0FF0A1EC0CF0AF0ED5EC0EF0C70EED
:1006C8004CEC0EF0D59ECD90EC0E0101AE6F4D0EA8
:1006D8000101AD6F01010001ADC19DF000019E6BEC
:1006E8000101AE519DEC0BF09F909F9A9F989F86B9
:1006F8009A0EC1EC0EF09D8679EC0FF073EC0CF0BD
:100708000101010E0001B66F0101C10E0001B56FB4
:100718000101010E0001B86F0101A20E0001B76FBF
:100728000A0EFEEC0DF00101C26F0101C2BFB7D085
:10073800A8D00101010E0001BC6F0101CF0E00011C
:10074800BB6FC1EC05F0ABD0A2C1BBF10101BB4549
:10075800E846030B030B0101AF6F0101BB513F0BCF
:100768000101BA6F4ED00101010E0001BC6F0101F9
:10077800CF0E0001BB6F0101010E0001BE6F010128
:10078800C30E0001BD6FB3EC09F089D00101010E61
:100798000001BC6F0101C30E0001BB6F0101000124
:1007A800BAC1BDF00001BE6B0FEC0AF078D00101B0
:1007B800010E0001BC6F0101CF0E0001BB6F0101EA
:1007C800BA510001C66FC76B0001C61FC71FC64BD1
:1007D800C72BC6C0BDF0C7C0BEF0CDEC06F05FD0D9
:1007E8000101010E0001BC6F0101CF0E0001BB6FBA
:1007F80001010001BAC1BDF00001BE6BCDEC06F0ED
:100808004ED00101AF51000AD8B4ADD7010AD8B40F
:10081800BDD7030AD8B4CBD7010AD8B4E1D73FD0A3
:10082800A2C1BBF13CD0020E0101C26F550E0101FD
:10083800A26FAA0E0101A36F17D0010E0101C26FAA
:100848003A0E04D0010E0101C26FA30E0101A26F7E
:100858000BD00101BB51A80AD8B4EFD7010AD8B40C
:10086800F1D7030AD8B4DFD70101010E00019E6F4A
:100878000101A20E00019D6F0101C2514BEC06F06F
:100888000ED00101C1510A0AD8B453D7220AD8B4EC
:100898005BD7010AD8B4C4D7030AD8B4DAD70101A0
:1008A800010E0001B66F0101C10E0001B56F010113
:1008B800010E0001B86F0101A20E0001B76F0A0E08
:1008C800E3EC0DF00101C26F0101C2BF17D72DD0B3
:1008D8000101010E0001BC6F0101C30E0001BB6FD5
:1008E80037EC05F00BD70101010E0001B86F0101CB
:1008F800B00E0001B76F01010001C1C1B9F00001DC
:10090800BA6B0101C2510001BB6F0001BC6B000151
:10091800BBBFBC070101010E0001BE6F0101A20EA1
:100928000001BD6F55EC09F0E9D60101C1510B0A70
:10093800D8B4CED7150AD8B4D6D7010AD8B4D3D7E5
:100948003F0AD8B4D0D7DAD6000120EE35F000013E
:10095800A751D9260001A851DA22DF500001B06F53
:100968000001B0510D0DF3500001A7250001B36F30
:10097800F4500001A8210001B46F010EB3C0D9FFE3
:10098800B4C0DAFFDF626DD0000120EE01F0000193
:10099800B351D9260001B451DA22DF500001A95D14
:1009A800D8B002D0FD0E1200000120EE01F00001C7
:1009B800B351D9260001B451DA22DF500001AE6FDD
:1009C8000001AE510001B16F0001B26B0001ADC072
:1009D8009EF00001ACC09DF0030E0001B32500019C
:1009E800AE6F000E0001B4210001AF6FAEC09FF0E2
:1009F800AFC0A0F0B1C0A1F0B2C0A2F0F7EC0CF00B
:100A0800000120EE35F00001A751D9260001A851B8
:100A1800DA22000110EE35F00001A751E1260001AD
:100A2800A851E222E7500001AE6F0001AE29030B86
:100A3800DF6E000120EE02F00001B351D92600015B
:100A4800B451DA22AAC0E1FFABC0E2FFDFCFE7FF73
:100A5800B3C0D9FFB4C0DAFF000EDF6E0001B15198
:100A68001200FC0E1200BBC0D9FFBCC0DAFFDE2AA0
:100A7800000EDD22000120EE0AF00001BB51D9264C
:100A88000001BC51DA22DF50D8B465D0BBC0D9FF11
:100A9800BCC0DAFF0001DECF9DF00001DDCF9EF083
:100AA800000120EE06F00001BB51D9260001BC511F
:100AB800DA220001DECF9FF00001DDCFA0F043EC89
:100AC8000CF0FF0E0001BD6FFF0EBE6F000120EE9F
:100AD80006F00001BB51D9260001BC51DA22DECF55
:100AE800BFF0DDCFC0F00001BD510001BF270001FC
:100AF800BE510001C02300019E510001C01904E14C
:100B080000019D510001BF19D8A425D0CCC0C1F067
:100B1800CDC0C2F00001000E0001B86F0001C10E87
:100B28000001B76F020E7CEC0EF0CD90000E806EC7
:100B3800000120EE0BF00001BB51D9260001BC5189
:100B4800DA22010EDF6EBBC0D9FFBCC0DAFF000E8F
:100B5800DE6E000EDD6E000120EE04F00001BB51D8
:100B6800D9260001BC51DA220001DECF9DF0000138
:100B7800DDCF9EF062EC0FF01200BBC0D9FFBCC005
:100B8800DAFFDE2A000EDD22000120EE0AF0000165
:100B9800BB51D9260001BC51DA22DF50D8B465D048
:100BA800BBC0D9FFBCC0DAFF0001DECF9DF0000159
:100BB800DDCF9EF0000120EE08F00001BB51D926E0
:100BC8000001BC51DA220001DECF9FF00001DDCF29
:100BD800A0F043EC0CF0FF0E0001BD6FFF0EBE6FDE
:100BE800000120EE08F00001BB51D9260001BC51DC
:100BF800DA22DECFBFF0DDCFC0F00001BD51000129
:100C0800BF270001BE510001C02300019E51000111
:100C1800C01904E100019D510001BF19D8A425D0D5
:100C2800CAC0C1F0CBC0C2F00001000E0001B86F0D
:100C38000001C10E0001B76F020E7CEC0EF0D59ECC
:100C4800000E806E000120EE0BF00001BB51D9268A
:100C58000001BC51DA22010EDF6EBBC0D9FFBCC057
:100C6800DAFF000EDE6E000EDD6E000120EE06F0EB
:100C78000001BB51D9260001BC51DA220001DECFA8
:100C88009DF00001DDCF9EF059EC0FF0120000013D
:100C9800A16F000120EE19F00001CE51D926000104
:100CA800CF51DA22000EDF6E3ED0000120EE19F09F
:100CB8000001CE51D9260001CF51DA22DF500001C0
:100CC8009F6F00019F51010DF35000019D25D96EC2
:100CD800F45000019E21DA6E000110EE19F00001B7
:100CE800CE51E1260001CF51E222E7500001A06F6A
:100CF8000001A051010D0F0EF326000EF422F3504F
:100D08000001CE25E16EF4500001CF21E26EDFCF65
:100D1800E7FF000120EE19F00001CE51D9260001AD
:100D2800CF51DA22DF2A000120EE19F00001CE515E
:100D3800D9260001CF51DA22DF5000019F6F000150
:100D4800A15100019F5DD8A0B0D7000120EE19F095
:100D58000001CE51D9260001CF51DA220001A1C0ED
:100D6800DFFF000120EE1AF00001CE51D926000164
:100D7800CF51DA22010EDF6E000120EE0FF00001E4
:100D8800CE51D9260001CF51DA22DF50C96EC6886C
:100D98001200010E806EBDC09DF0BEC09EF046ECF4
:100DA8000DF0000120EE08F00001BB51D92600012A
:100DB800BC51DA2200019DC0DEFF00019EC0DDFFAC
:100DC800000120EE0AF00001BB51D9260001BC51F8
:100DD800DA22010EDF6ED58E0001BEBF04D00001FD
:100DE80020EE02F003D0000120EE04F00001BB5118
:100DF800D9260001BC51DA22DF500001BF6F000183
:100E0800BF510001C06F0001C16BC0C0C4F0000138
:100E1800BEBF04D0000120EE03F003D0000120EE95
:100E280005F00001BB51D9260001BC51DA22DF5080
:100E38000001BF6F0001BF510001C26F0001C36B09
:100E4800C2C0C5F00001000E0001B86F0001C40E59
:100E58000001B76F020E7CEC0EF0000120EE06F0E8
:100E68000001BB51D9260001BC51DA220001DECFB6
:100E78009DF00001DDCF9EF059EC0FF0BBC0D9FF0B
:100E8800BCC0DAFF000EDE6E000EDD6E120000013F
:100E9800A9C0AEF00001AF6B000120EE34F00001F4
:100EA800A751D9260001A851DA22DF500001B06FFE
:100EB8000001B0510D0DF3500001A7250001B16FDD
:100EC800F4500001A8210001B26FB1C0D9FFB2C02F
:100ED800DAFFDF50D8B402D0FF0E1200000120EE76
:100EE80001F00001B151D9260001B251DA22000106
:100EF800A9C0DFFF000120EE02F00001B151D926A0
:100F08000001B251DA220001AAC0DFFF030E00017E
:100F1800B12500019D6F000E0001B22100019E6FF6
:100F28000001ACC0A0F00001ABC09FF0AEC0A1F0C2
:100F3800AFC0A2F0F7EC0CF0000120EE34F0000195
:100F4800A751D9260001A851DA22000110EE34F089
:100F58000001A751E1260001A851E222E750000153
:100F6800AD6F0001AD29030BDF6EB1C0D9FFB2C070
:100F7800DAFF010EDF6E010E120020EE35F00B5085
:100F8800D9260C50DA22DF50146E14500D0DF35090
:100F98000B24176EF4500C20186E010E17C0D9FFE1
:100FA80018C0DAFFDF6250D020EE01F01750D926C2
:100FB8001850DA22DF500D5CD8B002D0FD0E1200B6
:100FC80020EE01F01750D9261850DA22DF50126EA1
:100FD8001250156E166A11C002F010C001F0030E0F
:100FE8001724126E000E1820136E12C003F013C0DF
:100FF80004F015C005F016C006F066EC0DF020EE02
:1010080035F00B50D9260C50DA2210EE35F00B5083
:10101800E1260C50E222E750126E1228030BDF6E15
:1010280020EE02F01750D9261850DA220EC0E1FF40
:101038000FC0E2FFDFCFE7FF17C0D9FF18C0DAFF04
:10104800000EDF6E15501200FC0E12009DC0D9FF75
:101058009EC0DAFF000EDE6E000EDD6E000120EE8F
:1010680002F000019D51D92600019E51DA22200E7E
:10107800DF6E000120EE03F000019D51D92600012A
:101088009E51DA22E00EDF6E000120EE04F000012E
:101098009D51D92600019E51DA22960EDF6E00017D
:1010A80020EE05F000019D51D92600019E51DA225B
:1010B8005D0EDF6E000120EE06F000019D51D9267D
:1010C80000019E51DA22E20EDE6EFF0EDD6E000197
:1010D80020EE08F000019D51D92600019E51DA2228
:1010E800000EDE6E000EDD6E000120EE0AF000013B
:1010F8009D51D92600019E51DA22000EDF6E0001B3
:1011080020EE0BF000019D51D92600019E51DA22F4
:10111800010EDF6E1200346E000120EE0BF00001AC
:10112800CE51D9260001CF51DA22010EDF6E00011F
:1011380020EE0AF00001CE51D9260001CF51DA2263
:10114800000EDF6E3450D8B43DD0C7AA21D00001BC
:1011580020EE0CF00001CE51D9260001CF51DA2241
:10116800050EDF6E000120EE0EF00001CE51D926EB
:101178000001CF51DA22DF2A000120EE0DF0000134
:10118800CE51D9260001CF51DA22050EDF6E1200AA
:10119800C7A40CD0000120EE0CF00001CE51D926D6
:1011A8000001CF51DA22080EDF6E1200000120EE96
:1011B8000CF00001CE51D9260001CF51DA22070EDA
:1011C800DF6E1200000120EE0CF00001CE51D9268E
:1011D8000001CF51DA22060EDF6E1200000140C076
:1011E80080F00001816B20EE34F03E50D9263F504C
:1011F800DA22DF500001826F000182510D0DF35099
:101208003E240001836FF4503F200001846F83C0A7
:10121800D9FF84C0DAFFDF50D8B402D0FF0E120025
:10122800000120EE01F000018351D926000184510C
:10123800DA2240C0DFFF000120EE02F000018351F6
:10124800D92600018451DA2241C0DFFF030E0001D4
:101258008325346E000E00018421356E43C037F0BB
:1012680042C036F080C038F081C039F086EC0DF00D
:1012780020EE34F03E50D9263F50DA2210EE34F0FA
:101288003E50E1263F50E222E750446E4428030BCB
:10129800DF6E83C0D9FF84C0DAFF010EDF6E010E56
:1012A80012000001B9511E0ABA11D8B41200000187
:1012B800B9511F0ABA11D8A43FD0000E0001C16F5E
:1012C800000E0001C06F000E0001C16F000E00018A
:1012D800C06F0001C151800A800F0A0ED8B4C05DEA
:1012E800D8B01AD00001C0510001BD25D96E000147
:1012F800C1510001BE21DA6E0001C0510001B725BD
:10130800E16E0001C1510001B821E26EDFCFE7FFB5
:101318000001C04BC12BDDD7B9C0B3F00001B8C084
:10132800B5F00001B7C0B4F00001BB5165EC0EF098
:101338000001BF6F9D8812000001B951200ABA113F
:10134800D8A412000001BB510001BD25D96E0001CF
:10135800BC510001BE21DA6E000EDF6E1200000ED5
:10136800806EC8C0BFF0C9C0C0F00001000E000107
:10137800B86F0001BF0E0001B76F020E7CEC0EF0D3
:10138800000120EE04F00001BD51D9260001BE5134
:10139800DA220001DECF9DF00001DDCF9EF062EC85
:1013A8000FF0000120EE06F00001BB51D926000124
:1013B800BC51DA220001DECF9DF00001DDCF9EF0A6
:1013C80059EC0FF0BBC0D9FFBCC0DAFF000EDE6ECF
:1013D800000EDD6EBDC0D9FFBEC0DAFF000EDE6EA6
:1013E800000EDD6E000120EE0BF00001BB51D92686
:1013F8000001BC51DA22010EDF6E000120EE0BF075
:101408000001BD51D9260001BE51DA22010EDF6E5E
:10141800D59ECD901200010E806E000120EE0AF0DC
:101428000001BB51D9260001BC51DA22010EDF6E42
:10143800000120EE06F00001BB51D9260001BC5185
:10144800DA220001BDC0DEFF0001BEC0DDFF0001E1
:1014580020EE02F00001BB51D9260001BC51DA226E
:10146800DF500001BF6F000120EE03F00001BB5107
:10147800D9260001BC51DA22DF500001C06FCD80AF
:101488000001000E0001B86F0001BF0E0001B76F28
:10149800020E7CEC0EF0000120EE04F00001BB51BE
:1014A800D9260001BC51DA220001DECF9DF00001EF
:1014B800DDCF9EF062EC0FF0BBC0D9FFBCC0DAFFF5
:1014C800000EDE6E000EDD6E12000DC012F0136A03
:1014D80020EE34F00B50D9260C50DA22DF50146E6F
:1014E80014500D0DF3500B24156EF4500C20166E8D
:1014F80015C0D9FF16C0DAFFDF50D8B402D0FF0EEE
:10150800120020EE01F01550D9261650DA220DC02F
:10151800DFFF20EE02F01550D9261650DA220EC051
:10152800DFFF030E1524016E000E1620026E10C098
:1015380004F00FC003F012C005F013C006F066EC0B
:101548000DF020EE34F00B50D9260C50DA2210EEB4
:1015580034F00B50E1260C50E222E750116E1128AE
:10156800030BDF6E15C0D9FF16C0DAFF010EDF6E60
:10157800010E12009DC0D9FF9EC0DAFF000EDE6E7C
:10158800000EDD6E000120EE02F000019D51D9260B
:1015980000019E51DA225A0EDF6E000120EE03F0A0
:1015A80000019D51D92600019E51DA22D70EDF6E27
:1015B800000120EE04F000019D51D92600019E5142
:1015C800DA22B20EDE6EFF0EDD6E000120EE06F0AE
:1015D80000019D51D92600019E51DA22000EDE6ECF
:1015E800000EDD6E000120EE0AF000019D51D926A3
:1015F80000019E51DA22000EDF6E000120EE0BF092
:1016080000019D51D92600019E51DA22010EDF6E9C
:1016180012009EAA3AD020EE04F04950D9264A502A
:10162800DA22DF501B6E1B50010DF3504924D96E8E
:10163800F4504A20DA6E40EC0FF0DF6E20EE04F032
:101648004950D9264A50DA22DF2A20EE04F04950C0
:10165800D9264A50DA22040EDF6217D0200E176E00
:101668004AC019F049C018F020EE04F04950D926B4
:101678004A50DA22DF50FBEC0EF020EE04F049501D
:10168800D9264A50DA22000EDF6E4CA61200AB981B
:10169800AB881E0E176E000E196E000E186E000E27
:1016A800FBEC0EF01200EACF92F0E1CF93F0E2CF1C
:1016B80094F0D9CF95F0DACF96F0F3CF97F0F4CF36
:1016C80098F0F6CF99F0F7CF9AF0F8CF9BF0F5CFD6
:1016D8009CF09EA603D09E9669EC00F0F2A40AD076
:1016E800F2940A0E456E000E476E000E466E000E0E
:1016F8000DEC0FF01FEC0DF09CC0F5FF9BC0F8FF40
:101708009AC0F7FF99C0F6FF98C0F4FF97C0F3FF9F
:1017180096C0DAFF95C0D9FF94C0E2FF93C0E1FFFD
:1017280092C0EAFF91C0E9FF90C0FBFF8FC0FAFFAB
:1017380011000001A26F000EAC6E000EAB6E00012E
:10174800A2B1AC880001A2A302D0AC8CAB8C000182
:10175800A2B5AC8E0001A2A702D0AB8801D0AB8A9B
:101768000001A2B9AC849E980001A2BBAB8600011F
:10177800A2AD02D09D8A01D09D9A9E9A0001A2AF87
:1017880002D09D8801D09D989DC0AFFF00019EC0EA
:101798009FF09FC0A0F00001A16B0001A051B06EA6
:1017A800AC8AAB8E949C948EACA81200ACBE12008E
:1017B800948C120000019EC0CFF000019DC0CEF0B5
:1017C800000120EE0AF00001CE51D9260001CF51C8
:1017D800DA22000EDF6E000120EE0BF00001CE5180
:1017E800D9260001CF51DA22000EDF6E000120EE6B
:1017F8000CF00001CE51D9260001CF51DA22050E96
:10180800DF6E000120EE0EF00001CE51D926000156
:10181800CF51DA22000EDF6E1200000120EE34F004
:1018280000019D51D92600019E51DA22000EDF6E7B
:10183800000120EE35F000019D51D92600019E518E
:10184800DA22000EDF6E000E00019F6F030E00010A
:101858009F6501D0120000019F510D0DF35000014A
:101868009D25D96EF45000019E21DA6E000EDF6EC0
:1018780000019F2B030E00019F65EDD712000001A8
:10188800A0519F11D8B426D0010E0001A16F06D037
:101898000001D8909F37A0370001A12B0001A0AF0D
:1018A800F7D700019F5100019D5D0001A051000183
:1018B8009E59D8A008D000019F5100019D5F0001EA
:1018C800A05100019E5B0001D890A0339F33000116
:1018D800A12FE7D79DC09DF09EC09EF01200C5ECD9
:1018E8000DF00001A2510001A111D8B41200010E9F
:1018F8004B6E0101010E00019E6F0101360E0001C1
:101908009D6F33EC0EF00009D8B403D0000E4B6E77
:1019180012000101010E00019E6F01016C0E000111
:101928009D6F33EC0EF00009D8B403D0000E4B6E57
:1019380012000A0E4FEC0FF0DCD7000E4B6E0101BF
:10194800010E00019E6F01016C0E00019D6F11ECEC
:101958000CF00101010E00019E6F0101360E00011D
:101968009D6F11EC0CF00101010E00019E6F010149
:10197800000E00019D6F11EC0CF00201020E000137
:101988009E6F0201000E00019D6F11EC0CF0120019
:10199800000E1F6E000E1E6E000E1A6E200E196EBF
:1019A8001FC01CF01EC01BF00A0EE8EC0EF0226EE1
:1019B80022BE17D0000E216E0DD0ACA2FED721504A
:1019C800010DF3501E24D96EF4501F20DA6EDF503B
:1019D800AD6E212A215022BE04D0FF0A2224D8B09D
:1019E800ECD79D9812000001A0C0A6F000019FC08E
:1019F800A5F000019EC0A4F000019DC0A3F010D086
:101A0800A5C0D9FFA6C0DAFFA3C0E1FFA4C0E2FFCA
:101A1800DFCFE7FF0001A54BA62B0001A34BA42BAA
:101A28000001A107D8A0A2070001A129D8B4A229C2
:101A3800D8B41200E5D74B6601D01200AAEC0EF01C
:101A480037503610D8A4120073EC0FF0355034100C
:101A5800D8B412000101010E356E0101360E346E44
:101A68001FEC0FF00009D8A412000101010E356E19
:101A780001016C0E346E1FEC0FF00009D8B47DEC38
:101A88000FF0120000019E51800AF36E800EF35C85
:101A9800000ED8B49D5DD8B010D000019DC09FF055
:101AA80000019EC0A0F000019F1FA01F9F4BA02B0C
:101AB8009FC09DF0A0C09EF012009DC09DF09EC0EA
:101AC8009EF0120004C00AF003C009F002C008F03A
:101AD80001C007F00ED009C0D9FF0AC0DAFF07C05D
:101AE800E1FF08C0E2FFDFCFE7FF094A0A2A074AF9
:101AF800082A0506D8A006060528D8B40628D8B4AA
:101B08001200E9D737C03DF036C03CF035C03BF095
:101B180034C03AF00ED03CC0D9FF3DC0DAFF3AC01D
:101B2800E1FF3BC0E2FFDFCFE7FF3C4A3D2A3A4AEC
:101B38003B2A3806D8A039063828D8B43928D8B46A
:101B48001200E9D7F2AC07D0000E0001A06F000E1A
:101B580000019F6F12006BEC0FF000019E51000115
:101B68009D11D8B407D0000E0001A06F000E00012F
:101B78009F6F1200000E0001A06F010E00019F6F01
:101B88001200A6EC0DF00001A05100019F11D8A48D
:101B98000FD06BEC0FF000019E5100019D11D8A4ED
:101BA80007D0000E0001A26F010E0001A16F120004
:101BB800000E0001A26F000E0001A16F12000001CB
:101BC800B96F0101010E0001A86F01016C0E00013F
:101BD800A76FB9C0A9F00001B6C0ABF00001B5C04D
:101BE800AAF00001B8C0ADF00001B7C0ACF0A8EC95
:101BF80004F012000001B96F0101010E0001A86F85
:101C08000101360E0001A76FB9C0A9F00001B6C0E6
:101C1800ABF00001B5C0AAF00001B8C0ADF00001FA
:101C2800B7C0ACF0A8EC04F0120002EE00F0360EDB
:101C3800EE6AE806FDE101EE00F0A20EEE6AE806A3
:101C4800FDE10001CD6BCC6BCB6BCA6BC96BC86B6C
:101C58004C6A4B6A000EF86E00011AEF03F000019F
:101C680020EE35F000019D51D92600019E51DA225F
:101C7800DF5000019F6F00019F510D0DF3500001CF
:101C88009D25D96EF45000019E21DA6EDF501200B6
:101C980000019D6F00019D517E0BCD6E00019DAD31
:101CA80002D0CD8E01D0CD9E000ECF6E000ECE6E2E
:101CB8009E9000019DAF02D09D8001D09D90CD8067
:101CC80012000001B66F0101010E0001A86F0101A9
:101CD800000E0001A76FB6C0A9F0B3C0AAF00001BA
:101CE800B5C0ACF00001B4C0ABF04BEC07F012008B
:101CF8000001BA6F0A0E0001BA6501D012001F0E6A
:101D08000001B36F0001B8C0B5F00001B7C0B4F06E
:101D18000001BA5193EC0EF00001B96F12000001F6
:101D2800B66F0101010E0001A86F01016C0E0001E0
:101D3800A76FB6C0A9F0B3C0AAF00001B5C0ACF057
:101D48000001B4C0ABF04BEC07F01200F2AC05D0C8
:101D5800000E376E000E366E120073EC0FF0355021
:101D68003410D8B405D0000E376E000E366E12004F
:101D7800000E376E010E366E120000019D6F9486BC
:101D880094889DC0C8FF000EC76E000EC66E000E78
:101D9800C56E0E0EC612C78E94869488C580C68AF4
:101DA800120000019D6F00019D517F0BD56E000E42
:101DB800D76E000ED66EF29400019DAF02D0F28A63
:101DC80001D0F29AD58E12001D6E0101010E0C6E23
:101DD8000101000E0B6E1DC00DF01AC00FF019C0E6
:101DE8000EF0116A1BC010F0C1EC07F012001A6E59
:101DF8000101010E0C6E01016C0E0B6E1AC00DF084
:101E080017C00EF019C010F018C00FF069EC0AF0F6
:101E18001200486E0101010E3F6E0101360E3E6E42
:101E280048C040F045C041F047C043F046C042F0CA
:101E3800F2EC08F0120020EE35F03450D926355077
:101E4800DA22DF50366E36500D0DF3503424D96E39
:101E5800F4503520DA6EDF50120000019EC04AF0BF
:101E680000019DC049F020EE04F04950D9264A509F
:101E7800DA22000EDF6E1200F20E4C16ABAC03D065
:101E88004C90ABB04C80ABB44C84ABB24C86AECF6C
:101E980001F00150120000019D6FFA0E00F0E82ECB
:101EA800FDD700019D2FF9D712009DC09FF09EC05D
:101EB800A0F0A0C0D7FF9FC0D6FF12009DC09FF022
:101EC8009EC0A0F0A0C0CFFF9FC0CEFF1200000EA2
:101ED800F2AE010E00019D6F00019E6B1200000E14
:101EE800F2AE010E346E356A1200D08EF28EF28C8C
:0A1EF8001200D38E03001200120046
:067FF80080F4C5FFFFF15B
:00000001FF
