:0400000067EF00F0B6
:10000800FACFA4F0FBCFA5F0E9CFA6F01AEF0BF0DA
:10001800D8CF23F0E8CF24F0E0CF25F0FACF26F0B0
:10002800FBCF27F0E9CF28F0EACF29F0E1CF2AF07B
:10003800E2CF2BF0D9CF2CF0DACF2DF0F3CF2EF082
:10004800F4CF2FF0F6CF30F0F7CF31F0F8CF32F011
:10005800F5CF33F09EA00AD09E900B0E176E000EBF
:10006800196E000E186E000EA1EC0FF09EAA03D0B8
:100078009E9AD0EC0AF09EB89DA802D054EC0DF0E0
:1000880033C0F5FF32C0F8FF31C0F7FF30C0F6FFCC
:100098002FC0F4FF2EC0F3FF2DC0DAFF2CC0D9FF0C
:1000A8002BC0E2FF2AC0E1FF29C0EAFF28C0E9FF10
:1000B80027C0FBFF26C0FAFF25C0E0FF24C0E8FFE9
:1000C80023C0D8FF1000FDEF0CF0000E0001A36F55
:1000D800000E00019E6F000E0001A26F000E0001CD
:1000E800A16F000E00019F6FC6AC24D0C69C000112
:1000F80020EE0CF00001CC51D9260001CD51DA22B6
:10010800050EDF6E010E00019F6F000120EE0EF05C
:100118000001CC51D9260001CD51DA22DF2A000195
:1001280020EE0DF00001CC51D9260001CD51DA2284
:10013800040EDF6EC7A005D0C9CFA0F0010E0001E4
:10014800A36F00019F679FD188D1C7A69CD10001EA
:10015800A3510DEC09F0000120EE0CF00001CC5188
:10016800D9260001CD51DA22080EDF628CD1000EAB
:100178000001A36F010E0001A16F85D1C7A82AD085
:10018800000120EE0BF00001CC51D9260001CD5121
:10019800DA22DF2A0001A351D8B454D1C7BA04D057
:1001A800010E0001A26F4ED1000120EE0EF00001F9
:1001B800CC51D9260001CD51DA22DF2A000120EEE8
:1001C8000DF00001CC51D9260001CD51DA22060EDE
:1001D800DF6E38D10001A351D8B455D1000120EE0B
:1001E8000BF00001CC51D9260001CD51DA22DF2ACB
:1001F800C7BA19D0C7B40BD0000120EE0CF000012B
:10020800CC51D9260001CD51DA22070E71D0000158
:1002180020EE0CF00001CC51D9260001CD51DA2294
:10022800080EDF6E08D1000120EE0EF00001CC515F
:10023800D9260001CD51DA22DF2A000120EE0CF088
:100248000001CC51D9260001CD51DA22050EDF6E0E
:10025800000120EE0DF00001CC51D9260001CD514E
:10026800DA22060E45D0000120EE1AF00001CC512A
:10027800D9260001CD51DA22DF5000019A6F000122
:1002880020EE19F00001CC51D9260001CD51DA2217
:10029800DF5000019A5DD8B0D5D0000120EE1AF0E9
:1002A8000001CC51D9260001CD51DA22DF500001DE
:1002B8009A6F00019A51010D0F0EF326000EF422D9
:1002C800F3500001CC25D96EF4500001CD21DA6E2F
:1002D800DF50C96E000120EE1AF00001CC51D9267A
:1002E8000001CD51DA22DF2A010E00019E6FCBD02A
:1002F800DF6EC9D0C7A85AD0000120EE0BF000016C
:10030800CC51D9260001CD51DA22DF2A0001A351B0
:10031800D8B448D0C7AA25D0000120EE0AF00001C1
:10032800CC51D9260001CD51DA22DF5000019A6F55
:1003380000019A51010DF3500001CC25D96EF450FB
:100348000001CD21DA6E0001A0C0DFFF000120EE20
:100358000AF00001CC51D9260001CD51DA22DF2A5A
:1003680021D0000120EE0EF00001CC51D926000169
:10037800CD51DA22DF2A000120EE0DF00001CC5128
:10038800D9260001CD51DA22060EDF6E000120EEDB
:100398000CF00001CC51D9260001CD51DA22050E0E
:1003A800DF6E50D0010E0001A26F4CD00001A351A6
:1003B800D8B469D0000120EE0BF00001CC51D92649
:1003C8000001CD51DA22DF2AC7AA25D0000120EE8C
:1003D8000AF00001CC51D9260001CD51DA22DF50B4
:1003E80000019A6F00019A51010DF3500001CC25CC
:1003F800D96EF4500001CD21DA6E0001A0C0DFFFF4
:10040800000120EE0AF00001CC51D9260001CD519F
:10041800DA22DF2A38D0C7A4C7D6000120EE0CF0B4
:100428000001CC51D9260001CD51DA22080EDF6E29
:10043800010E0001A26F010E0001A16F000E000164
:10044800A36F21D0000120EE0CF00001CC51D92679
:100458000001CD51DA22050E4BD7000120EE0CF039
:100468000001CC51D9260001CD51DA22DF50050A0E
:10047800D8B46BD6030AD8B481D6010AD8B43AD70F
:100488000F0AD8B4F0D60001A36704D000019E512A
:10049800D8B402D0C6A8C688000120EE0AF0000130
:1004A800CC51D9260001CD51DA22080EDF6423D0C1
:1004B8000001A26720D0000120EE0CF00001CC5111
:1004C800D9260001CD51DA22050EDF6E000120EE9B
:1004D8000EF00001CC51D9260001CD51DA22DF2AD5
:1004E800000120EE0DF00001CC51D9260001CD51BC
:1004F800DA22070EDF6E0001A251D8B43FD0000106
:1005080020EE0BF00001CC51D9260001CD51DA22A2
:10051800000110EE0AF00001CC51E1260001CD5196
:10052800E222E75000019A6F00019A51010DF35041
:100538000001CC25E16EF4500001CD21E26EDFCF41
:10054800E7FF280E0001966F0001CDC098F000016A
:10055800CCC097F0000120EE0AF00001CC51D9265A
:100568000001CD51DA22DF5000019A6F00019A296B
:100578003BEC0FF0000120EE0AF041D0000120EE24
:100588000EF00001CC51D9260001CD51DA22DF50FE
:10059800D8B43DD0000120EE0EF00001CC51D92690
:1005A8000001CD51DA22DF5000019B6F000120EEDF
:1005B8000DF00001CC51D9260001CD51DA22DF50CF
:1005C80000019C6F000120EE0BF00001CC51D926F0
:1005D8000001CD51DA22DF5000019D6F290E000184
:1005E800966F0001000E0001986F00019B0E00013C
:1005F800976F030E3BEC0FF0000120EE0EF00001A8
:10060800CC51D9260001CD51DA22000EDF6E00014F
:10061800A151D8B412002A0E0001966F0001CDC076
:1006280098F00001CCC097F0000E3BEC0FF0000EE4
:100638000001A16F1200000E806E000E896E0F0E71
:10064800C16E070EB46E000E926E000E816E000E23
:100658008A6E9368820ED36E9B8C0201020E000193
:10066800B36F02011A0E0001B26FB3EC0FF0020172
:10067800020E0001B36F0201390E0001B26FDEEC09
:100688000BF00201020E0001B36F02012D0E0001F2
:10069800B26F81EC0AF00201020E0001B36F020191
:1006A800210E0001B26FA8EC08F00201020E000151
:1006B800B36F02010F0E0001B26F04EC10F029ECC9
:1006C8000DF0AF0E7BEC0FF0C70EDBEC0EF0D59EF5
:1006D800CD90EC0E02010C6F4D0E02010B6F020162
:1006E80000010BC2B2F00001B36B02010C5163ECC4
:1006F8000BF09F909F9A9F989F869A0E67EC0FF039
:100708009D86FDEC0FF00201020E0101AD6F0201A2
:100718002D0E0101AC6F000E0101AF6F190E010122
:10072800AE6FD2EC09F0A2EC0CF00201020E01014E
:10073800A86F02011F0E0101A76F0201020E01013D
:10074800AA6F0201000E0101A96F0A0E4DEC0EF00E
:100758000201206F020120BFA9D09AD00201020E27
:100768000101AD6F0201210E0101AC6FC8EC05F06B
:100778009DD000C219F202011945E846030B030B8C
:1007880002010D6F020119513F0B02010E6F40D09B
:100798000201020E0101AD6F02012D0E0101AC6FC5
:1007A800D0EC0CF083D00201020E0101AD6F020102
:1007B8002D0E0101AC6FA4EC0BF078D00201020EF3
:1007C8000101AD6F0201210E0101AC6F02010E5152
:1007D8000101B76FB86B0101B71FB81FB74BB82B32
:1007E800B7C1AEF1B8C1AFF1D4EC06F05FD00201E9
:1007F800020E0101AD6F0201210E0101AC6F020171
:1008080001010EC2AEF10101AF6BD4EC06F04ED07F
:1008180002010D51000AD8B4BBD7010AD8B4C3D716
:10082800030AD8B4CBD7010AD8B4E1D73FD000C265
:1008380019F23CD0020E0201206F550E0201006F22
:10084800AA0E0201016F17D0010E0201206F3A0EA5
:1008580004D0010E0201206FA30E0201006F0BD01D
:1008680002011951A80AD8B4EFD7010AD8B4F1D7B0
:10087800030AD8B4DFD70201020E0001B36F0201E8
:10088800000E0001B26F0201205152EC06F00ED0AA
:1008980002011F510A0AD8B461D7220AD8B469D70D
:1008A800010AD8B4C4D7030AD8B4DAD70201020EB1
:1008B8000101A86F02011F0E0101A76F0201020EBC
:1008C8000101AA6F0201000E0101A96F0A0E2EECA8
:1008D8000EF00201206F020120BF25D72DD00201A2
:1008E800020E0101AD6F02012D0E0101AC6F3EEC4D
:1008F80005F019D70201020E0101A96F02010F0EBE
:100908000101A86F020101011FC2AAF10101AB6B2D
:10091800020120510101AC6F0101AD6B0101ACBFB7
:10092800AD070201020E0101AF6F0201000E0101C5
:10093800AE6F72EC09F0F7D602011F510B0AD8B45A
:10094800CED7150AD8B4D6D7010AD8B4D3D73F0A18
:10095800D8B4D0D7E8D6000120EE35F00001BC515C
:10096800D9260001BD51DA22DF500101A26F010131
:10097800A2510D0DF3500001BC250101A56FF450E3
:100988000001BD210101A66F010EA5C1D9FFA6C1B5
:10099800DAFFDF626DD0010120EE01F00101A551FF
:1009A800D9260101A651DA22DF500001BE5DD8B078
:1009B80002D0FD0E1200010120EE01F00101A55147
:1009C800D9260101A651DA22DF500001C36F0001C8
:1009D800C3510101A36F0101A46B0001C2C0B3F0B0
:1009E8000001C1C0B2F0030E0101A5250001C36FCB
:1009F800000E0101A6210001C46FC3C0B4F0C4C039
:100A0800B5F0A3C1B6F0A4C1B7F07FEC0DF00001BA
:100A180020EE35F00001BC51D9260001BD51DA2283
:100A2800000110EE35F00001BC51E1260001BD5176
:100A3800E222E7500001C36F0001C329030BDF6EF8
:100A4800010120EE02F00101A551D9260101A651AC
:100A5800DA22BFC0E1FFC0C0E2FFDFCFE7FFA5C1D8
:100A6800D9FFA6C1DAFF000EDF6E0101A351120003
:100A7800FC0E1200ACC1D9FFADC1DAFFDE2A000EB0
:100A8800DD22010120EE0AF00101AC51D926010155
:100A9800AD51DA22DF50D8B465D0ACC1D9FFADC1B1
:100AA800DAFF0001DECFB2F00001DDCFB3F00101C3
:100AB80020EE06F00101AC51D9260101AD51DA2230
:100AC8000001DECFB4F00001DDCFB5F043EC0CF04F
:100AD800FF0E0101AE6FFF0EAF6F010120EE06F0B1
:100AE8000101AC51D9260101AD51DA22DECFB0F1B6
:100AF800DDCFB1F10101AE510101B0270101AF51C4
:100B08000101B1230001B3510101B11904E1000150
:100B1800B2510101B019D8A425D0CAC0B2F1CBC0D6
:100B2800B3F10101010E0101A96F0101B20E01012A
:100B3800A86F020EA9EC0EF0CD90000E806E010198
:100B480020EE0BF00101AC51D9260101AD51DA229A
:100B5800010EDF6EACC1D9FFADC1DAFF000EDE6E4B
:100B6800000EDD6E010120EE04F00101AC51D92622
:100B78000101AD51DA220001DECFB2F00001DDCF74
:100B8800B3F0E4EC0FF01200ACC1D9FFADC1DAFF4D
:100B9800DE2A000EDD22010120EE0AF00101AC512F
:100BA800D9260101AD51DA22DF50D8B465D0ACC1E5
:100BB800D9FFADC1DAFF0001DECFB2F00001DDCF11
:100BC800B3F0010120EE08F00101AC51D926010172
:100BD800AD51DA220001DECFB4F00001DDCFB5F06F
:100BE80043EC0CF0FF0E0101AE6FFF0EAF6F010179
:100BF80020EE08F00101AC51D9260101AD51DA22ED
:100C0800DECFB0F1DDCFB1F10101AE510101B02766
:100C18000101AF510101B1230001B3510101B11923
:100C280004E10001B2510101B019D8A425D0C8C00F
:100C3800B2F1C9C0B3F10101010E0101A96F0101AF
:100C4800B20E0101A86F020EA9EC0EF0D59E000E9F
:100C5800806E010120EE0BF00101AC51D926010193
:100C6800AD51DA22010EDF6EACC1D9FFADC1DAFF9A
:100C7800000EDE6E000EDD6E010120EE06F00101B1
:100C8800AC51D9260101AD51DA220001DECFB2F014
:100C98000001DDCFB3F0DBEC0FF012000001B66FFE
:100CA800000120EE19F00001CC51D9260001CD51E8
:100CB800DA22000EDF6E3ED0000120EE19F00001AE
:100CC800CC51D9260001CD51DA22DF500001B46F92
:100CD8000001B451010DF3500001B225D96EF45052
:100CE8000001B321DA6E000110EE19F00001CC51B9
:100CF800E1260001CD51E222E7500001B56F000165
:100D0800B551010D0F0EF326000EF422F350000129
:100D1800CC25E16EF4500001CD21E26EDFCFE7FF74
:100D2800000120EE19F00001CC51D9260001CD5167
:100D3800DA22DF2A000120EE19F00001CC51D92671
:100D48000001CD51DA22DF500001B46F0001B65125
:100D58000001B45DD8A0B0D7000120EE19F0000161
:100D6800CC51D9260001CD51DA220001B6C0DFFFEF
:100D7800000120EE1AF00001CC51D9260001CD5116
:100D8800DA22010EDF6E000120EE0FF00001CC51D7
:100D9800D9260001CD51DA22DF50C96EC68812006B
:100DA800010E806EAEC1B2F0AFC1B3F0CFEC0DF062
:100DB800010120EE08F00101AC51D9260101AD5125
:100DC800DA220001B2C0DEFF0001B3C0DDFF01017D
:100DD80020EE0AF00101AC51D9260101AD51DA2209
:100DE800010EDF6ED58E0101AFBF04D0010120EEE8
:100DF80002F003D0010120EE04F00101AC51D92624
:100E08000101AD51DA22DF500101B06F0101B0518B
:100E18000101B16F0101B26BB1C1B5F10101AFBF01
:100E280004D0010120EE03F003D0010120EE05F00B
:100E38000101AC51D9260101AD51DA22DF5001017F
:100E4800B06F0101B0510101B36F0101B46BB3C1BF
:100E5800B6F10101010E0101A96F0101B50E0101F1
:100E6800A86F020EA9EC0EF0010120EE06F00101B8
:100E7800AC51D9260101AD51DA220001DECFB2F022
:100E88000001DDCFB3F0DBEC0FF0ACC1D9FFADC191
:100E9800DAFF000EDE6E000EDD6E120000010101A9
:100EA800BEC0A2F10101A36B000120EE34F00001E5
:100EB800BC51D9260001BD51DA22DF500101A46FCF
:100EC8000101A4510D0DF3500001BC250101A56FCE
:100ED800F4500001BD210101A66FA5C1D9FFA6C12B
:100EE800DAFFDF50D8B402D0FF0E1200010120EE65
:100EF80001F00101A551D9260101A651DA2200010C
:100F0800BEC0DFFF010120EE02F00101A551D92684
:100F18000101A651DA220001BFC0DFFF030E010163
:100F2800A5250001B26F000E0101A6210001B36FD3
:100F38000001C1C0B5F00001C0C0B4F0A2C1B6F054
:100F4800A3C1B7F07FEC0DF0000120EE34F00001F2
:100F5800BC51D9260001BD51DA22000110EE34F04F
:100F68000001BC51E1260001BD51E222E750000119
:100F7800C26F0001C229030BDF6EA5C1D9FFA6C14C
:100F8800DAFF010EDF6E010E120000018CC091F035
:100F98000001926B000120EE34F000018A51D9263D
:100FA80000018B51DA22DF500001936F0001935149
:100FB8000D0DF35000018A250001946FF4500001D3
:100FC8008B210001956F94C0D9FF95C0DAFFDF50DF
:100FD800D8B402D0FF0E1200000120EE01F000018B
:100FE8009451D92600019551DA2200018CC0DFFF07
:100FF800000120EE02F000019451D926000195511C
:10100800DA2200018DC0DFFF030E000194250001E4
:10101800806F000E000195210001816F00018FC0D3
:1010280083F000018EC082F091C084F092C085F0F8
:10103800A7EC0DF0000120EE34F000018A51D9260A
:1010480000018B51DA22000110EE34F000018A51C0
:10105800E12600018B51E222E7500001906F000168
:101068009029030BDF6E94C0D9FF95C0DAFF010EFB
:10107800DF6E010E120020EE35F00B50D9260C5011
:10108800DA22DF50146E14500D0DF3500B24176E36
:10109800F4500C20186E010E17C0D9FF18C0DAFFE3
:1010A800DF6250D020EE01F01750D9261850DA220E
:1010B800DF500D5CD8B002D0FD0E120020EE01F01A
:1010C8001750D9261850DA22DF50126E1250156EBA
:1010D800166A11C002F010C001F0030E1724126E38
:1010E800000E1820136E12C003F013C004F015C0D0
:1010F80005F016C006F0EFEC0DF020EE35F00B50C1
:10110800D9260C50DA2210EE35F00B50E1260C509F
:10111800E222E750126E1228030BDF6E20EE02F077
:101128001750D9261850DA220EC0E1FF0FC0E2FF8F
:10113800DFCFE7FF17C0D9FF18C0DAFF000EDF6E58
:1011480015501200FC0E1200B2C0D9FFB3C0DAFF6E
:10115800000EDE6E000EDD6E000120EE02F00001D2
:10116800B251D9260001B351DA22200EDF6E0001F8
:1011780020EE03F00001B251D9260001B351DA2262
:10118800E00EDF6E000120EE04F00001B251D92616
:101198000001B351DA22A00EDF6E000120EE05F047
:1011A8000001B251D9260001B351DA225F0EDF6E79
:1011B800000120EE06F00001B251D9260001B3511A
:1011C800DA22DF0EDE6EFF0EDD6E000120EE08F083
:1011D8000001B251D9260001B351DA22000EDE6EA9
:1011E800000EDD6E000120EE0AF00001B251D92692
:1011F8000001B351DA22000EDF6E000120EE0BF081
:101208000001B251D9260001B351DA22010EDF6E76
:1012180012000001806F000120EE0BF00001CC519C
:10122800D9260001CD51DA22010EDF6E000120EE31
:101238000AF00001CC51D9260001CD51DA22000E66
:10124800DF6E00018051D8B43DD0C7AA21D000017B
:1012580020EE0CF00001CC51D9260001CD51DA2244
:10126800050EDF6E000120EE0EF00001CC51D926EC
:101278000001CD51DA22DF2A000120EE0DF0000135
:10128800CC51D9260001CD51DA22050EDF6E1200AD
:10129800C7A40CD0000120EE0CF00001CC51D926D7
:1012A8000001CD51DA22080EDF6E1200000120EE97
:1012B8000CF00001CC51D9260001CD51DA22070EDD
:1012C800DF6E1200000120EE0CF00001CC51D9268F
:1012D8000001CD51DA22060EDF6E12000101AA517B
:1012E8001E0AAB11D8B412000101AA511F0AAB1192
:1012F800D8A441D0000E0101B26F000E0101B16FF8
:10130800000E0101B26F000E0101B16F0101B2516F
:10131800800A800F0A0ED8B4B15DD8B01AD0010186
:10132800B1510101AE25D96E0101B2510101AF21C0
:10133800DA6E0101B1510101A825E16E0101B25136
:101348000101A921E26EDFCFE7FF0101B14BB22B0A
:10135800DDD7AAC1C3F001010001A9C1C5F001018F
:101368000001A8C1C4F00101AC510DEC0FF001015E
:10137800B06F9D8812000101AA51200AAB11D8A4B0
:1013880012000101AC510101AE25D96E0101AD5128
:101398000101AF21DA6E000EDF6E1200010E806EC1
:1013A800010120EE0AF00101AC51D9260101AD512D
:1013B800DA22010EDF6E010120EE06F00101AC51C8
:1013C800D9260101AD51DA220101AEC1DEFF0101CA
:1013D800AFC1DDFF010120EE02F00101AC51D926B9
:1013E8000101AD51DA22DF500101B06F010120EE99
:1013F80003F00101AC51D9260101AD51DA22DF50C9
:101408000101B16FCD800101010E0101A96F010138
:10141800B00E0101A86F020EA9EC0EF0010120EE3A
:1014280004F00101AC51D9260101AD51DA220001C5
:10143800DECFB2F00001DDCFB3F0E4EC0FF0ACC1C9
:10144800D9FFADC1DAFF000EDE6E000EDD6E1200B0
:101458000DC012F0136A20EE34F00B50D9260C5050
:10146800DA22DF50146E14500D0DF3500B24156E54
:10147800F4500C20166E15C0D9FF16C0DAFFDF50E5
:10148800D8B402D0FF0E120020EE01F01550D92674
:101498001650DA220DC0DFFF20EE02F01550D926D3
:1014A8001650DA220EC0DFFF030E1524016E000E5F
:1014B8001620026E10C004F00FC003F012C005F031
:1014C80013C006F0EFEC0DF020EE34F00B50D926E7
:1014D8000C50DA2210EE34F00B50E1260C50E222C8
:1014E800E750116E1128030BDF6E15C0D9FF16C027
:1014F800DAFF010EDF6E010E1200B2C0D9FFB3C0D1
:10150800DAFF000EDE6E000EDD6E000120EE02F046
:101518000001B251D9260001B351DA22500EDF6E14
:10152800000120EE03F00001B251D9260001B351A9
:10153800DA22CD0EDF6E000120EE04F00001B25178
:10154800D9260001B351DA22B20EDE6EFF0EDD6E2F
:10155800000120EE06F00001B251D9260001B35176
:10156800DA22000EDE6E000EDD6E000120EE0AF0BB
:101578000001B251D9260001B351DA22000EDF6E04
:10158800000120EE0BF00001B251D9260001B35141
:10159800DA22010EDF6E12009EAA3AD020EE04F085
:1015A8006150D9266250DA22DF501B6E1B50010DA4
:1015B800F3506124D96EF4506220DA6EC2EC0FF059
:1015C800DF6E20EE04F06150D9266250DA22DF2A5D
:1015D80020EE04F06150D9266250DA22040EDF6250
:1015E80017D0200E176E62C019F061C018F020EEF7
:1015F80004F06150D9266250DA22DF50A1EC0FF0D6
:1016080020EE04F06150D9266250DA22000EDF6E17
:1016180060A61200AB98AB881E0E176E000E196EEE
:10162800000E186E000EA1EC0FF01200EACFA7F022
:10163800E1CFA8F0E2CFA9F0D9CFAAF0DACFABF08A
:10164800F3CFACF0F4CFADF0F6CFAEF0F7CFAFF00C
:10165800F8CFB0F0F5CFB1F09EA603D09E9669EC16
:1016680000F0F2A40DD0F2940A0E0001966F000E5D
:101678000001986F000E0001976F000E3BEC0FF011
:1016880073EC0CF0B1C0F5FFB0C0F8FFAFC0F7FFC6
:10169800AEC0F6FFADC0F4FFACC0F3FFABC0DAFFDD
:1016A800AAC0D9FFA9C0E2FFA8C0E1FFA7C0EAFF0E
:1016B800A6C0E9FFA5C0FBFFA4C0FAFF1100000106
:1016C800B76F000EAC6E000EAB6E0001B7B1AC8800
:1016D8000001B7A302D0AC8CAB8C0001B7B5AC8EBF
:1016E8000001B7A702D0AB8801D0AB8A0001B7B917
:1016F800AC849E980001B7BBAB860001B7AD02D0A1
:101708009D8A01D09D9A9E9A0001B7AF02D09D880C
:1017180001D09D98B2C0AFFF0001B3C0B4F0B4C00F
:10172800B5F00001B66B0001B551B06EAC8AAB8E56
:10173800949C948EACA81200ACBE1200948C12003B
:10174800010E806E010120EE0AF00101AC51D9268C
:101758000101AD51DA22000EDF6E010120EE02F028
:101768000101AC51D9260101AD51DA22DF50010146
:10177800AE6F010120EE03F00101AC51D926010141
:10178800AD51DA22DF500101AF6FCD800101010EAA
:101798000101A96F0101AE0E0101A86F020EA9ECAB
:1017A8000EF0ACC1D9FFADC1DAFF000EDE6E000E3F
:1017B800DD6E12000001B3C0CDF00001B2C0CCF064
:1017C800000120EE0AF00001CC51D9260001CD51CC
:1017D800DA22000EDF6E000120EE0BF00001CC5182
:1017E800D9260001CD51DA22000EDF6E000120EE6D
:1017F8000CF00001CC51D9260001CD51DA22050E9A
:10180800DF6E000120EE0EF00001CC51D926000158
:10181800CD51DA22000EDF6E1200000120EE34F006
:101828000001B251D9260001B351DA22000EDF6E51
:10183800000120EE35F00001B251D9260001B35164
:10184800DA22000EDF6E000E0001B46F030E0001F5
:10185800B46501D012000001B4510D0DF350000120
:10186800B225D96EF4500001B321DA6E000EDF6E96
:101878000001B42B030E0001B465EDD7120000017E
:10188800B551B411D8B426D0010E0001B66F06D0F8
:101898000001D890B437B5370001B62B0001B5AFB9
:1018A800F7D70001B4510001B25D0001B551000144
:1018B800B359D8A008D00001B4510001B25F0001AB
:1018C800B5510001B35B0001D890B533B4330001C2
:1018D800B62FE7D7B2C0B2F0B3C0B3F012005F665C
:1018E80001D012006CEC0EF000018351000182114E
:1018F800D8A41200F5EC0FF000018151000180110D
:10190800D8B412000101010E0001816F0101360EE9
:101918000001806FF4EC0EF00009D8A41200010158
:10192800010E0001816F01016C0E0001806FF4EC63
:101938000EF00009D8B401EC10F012008BEC0EF098
:101948000001B7510001B611D8B41200010E5F6E44
:101958000101010E0001B36F0101360E0001B26FE3
:10196800C2EC0EF00009D8B403D0000E5F6E12006E
:101978000101010E0001B36F01016C0E0001B26F8D
:10198800C2EC0EF00009D8B403D0000E5F6E12004E
:101998000A0ED1EC0FF0DCD7000E806EC6C0AEF197
:1019A800C7C0AFF10101010E0101A96F0101AE0E1F
:1019B8000101A86F020EA9EC0EF0010120EE04F05F
:1019C8000101AC51D9260101AD51DA220001DECF67
:1019D800B2F00001DDCFB3F0E4EC0FF0D59ECD906E
:1019E800ACC1D9FFADC1DAFF000EDE6E000EDD6EB0
:1019F800120002EE55F0360EEE6AE806FDE101EE41
:101A080000F0A20EEE6AE806FDE10001CB6BCA6B9E
:101A1800C96BC86BC76BC66B606A5F6A5E6A5D6AD2
:101A2800A40EF66E1E0EF76E000EF86E00EE34F081
:101A380010EE29F00900F5CFEEFFE550E150FAE18C
:101A4800000EF86E00011FEF03F0000E5F6E01013B
:101A5800010E0001B36F01016C0E0001B26F11ECB1
:101A68000CF00101010E0001B36F0101360E0001F7
:101A7800B26F11EC0CF00101010E0001B36F01010E
:101A8800000E0001B26F11EC0CF00201020E000111
:101A9800B36F0201550E0001B26F11EC0CF0120089
:101AA800000E1F6E000E1E6E000E1A6E200E196EAE
:101AB8001FC01CF01EC01BF00A0E8EEC0FF0226E29
:101AC80022BE17D0000E216E0DD0ACA2FED7215039
:101AD800010DF3501E24D96EF4501F20DA6EDF502A
:101AE800AD6E212A215022BE04D0FF0A2224D8B08C
:101AF800ECD79D9812000001B5C0BBF00001B4C03E
:101B0800BAF00001B3C0B9F00001B2C0B8F010D00B
:101B1800BAC0D9FFBBC0DAFFB8C0E1FFB9C0E2FF65
:101B2800DFCFE7FF0001BA4BBB2B0001B84BB92B45
:101B38000001B607D8A0B7070001B629D8B4B7295D
:101B4800D8B41200E5D7000183C089F0000182C033
:101B580088F0000181C087F0000180C086F010D0B5
:101B680088C0D9FF89C0DAFF86C0E1FF87C0E2FFDD
:101B7800DFCFE7FF0001884B892B0001864B872BBD
:101B880000018407D8A0850700018429D8B48529D5
:101B9800D8B41200E5D70001B351800AF36E800E65
:101BA800F35C000ED8B4B25DD8B010D00001B2C05A
:101BB800B4F00001B3C0B5F00001B41FB51FB44BB9
:101BC800B52BB4C0B2F0B5C0B3F01200B2C0B2F0D9
:101BD800B3C0B3F0120004C00AF003C009F002C099
:101BE80008F001C007F00ED009C0D9FF0AC0DAFF1B
:101BF80007C0E1FF08C0E2FFDFCFE7FF094A0A2A72
:101C0800074A082A0506D8A006060528D8B40628D3
:101C1800D8B41200E9D7F2AC07D0000E0001B56FB6
:101C2800000E0001B46F1200EDEC0FF00001B3518B
:101C38000001B211D8B407D0000E0001B56F000E34
:101C48000001B46F1200000E0001B56F010E000113
:101C5800B46F12000001C56F0101010E0001BD6FD4
:101C680001016C0E0001BC6FC5C0BEF0010100018E
:101C7800A8C1C0F001010001A7C1BFF00101000126
:101C8800AAC1C2F001010001A9C1C1F0AFEC04F082
:101C980012000001C56F0101010E0001BD6F0101B5
:101CA800360E0001BC6FC5C0BEF001010001A8C11D
:101CB800C0F001010001A7C1BFF001010001AAC1E4
:101CC800C2F001010001A9C1C1F0AFEC04F012009B
:101CD800F2AC07D0000E0001836F000E0001826F86
:101CE8001200F5EC0FF00001815100018011D8B409
:101CF80007D0000E0001836F000E0001826F1200F2
:101D0800000E0001836F010E0001826F12000FECBC
:101D18000EF00001B5510001B411D8A40FD0EDECBC
:101D28000FF00001B3510001B211D8A407D0000E82
:101D38000001B76F010E0001B66F1200000E00011E
:101D4800B76F000E0001B66F12000101AB6F0A0EEB
:101D58000101AB6501D012001F0E0001C36F010124
:101D68000001A9C1C5F001010001A8C1C4F0010129
:101D7800AB5124EC0FF00101AA6F1200000120EE14
:101D880035F00001B251D9260001B351DA22DF50F3
:101D98000001B46F0001B4510D0DF3500001B225DC
:101DA800D96EF4500001B321DA6EDF501200000141
:101DB800B26F0001B2517E0BCD6E0001B2AD02D000
:101DC800CD8E01D0CD9E000ECF6E000ECE6E9E90B1
:101DD8000001B2AF02D09D8001D09D90CD8012004D
:101DE800000120EE35F000018051D9260001815113
:101DF800DA22DF500001826F000182510D0DF3508D
:101E080000018025D96EF45000018121DA6EDF507F
:101E180012000101A76F0101010E0001BD6F010150
:101E2800000E0001BC6FA7C1BEF0C3C0BFF0000127
:101E3800C5C0C1F00001C4C0C0F052EC07F01200E8
:101E48000101A76F0101010E0001BD6F01016C0EB8
:101E58000001BC6FA7C1BEF0C3C0BFF00001C5C080
:101E6800C1F00001C4C0C0F052EC07F0120000013C
:101E7800996F0101010E00018B6F0101360E0001FF
:101E88008A6F99C08CF096C08DF0000198C08FF0D1
:101E9800000197C08EF0C9EC07F0120031015A001A
:101EA8001F005A003101A6FF1F00A6FF31010000E4
:101EB8000000020000000200000002000000020012
:101EC8000000FFFF01000001B26F94869488B2C041
:101ED800C8FF000EC76E000EC66E000EC56E0E0E51
:101EE800C612C78E94869488C580C68A12000001DF
:101EF800B26F0001B2517F0BD56E000ED76E000E87
:101F0800D66EF2940001B2AF02D0F28A01D0F29AF2
:101F1800D58E12001D6E0101010E0C6E0101000E1E
:101F28000B6E1DC00DF01AC00FF019C00EF0116A2B
:101F38001BC010F03FEC08F012001A6E0101010EF0
:101F48000C6E01016C0E0B6E1AC00DF017C00EF06E
:101F580019C010F018C00FF02CEC0AF012000001A4
:101F6800B3C062F00001B2C061F020EE04F061502D
:101F7800D9266250DA22000EDF6E1200F20E6016C9
:101F8800ABAC03D06090ABB06080ABB46084ABB254
:101F98006086AECF01F0015012000001B26FFA0E58
:101FA80000F0E82EFDD70001B22FF9D71200B2C019
:101FB800B4F0B3C0B5F0B5C0D7FFB4C0D6FF1200B7
:101FC800B2C0B4F0B3C0B5F0B5C0CFFFB4C0CEFF57
:101FD8001200000EF2AE010E0001B26F0001B36BE9
:101FE8001200000EF2AE010E0001806F0001816B3D
:101FF8001200D08EF28EF28C1200D38E03001200E3
:022008001200C4
:067FF80080F4C5FFFFF15B
:00000001FF
