:0400000067EF00F0B6
:10000800FACFCBF0FBCFCCF0E9CFCDF077EF09F00A
:10001800D8CF23F0E8CF24F0E0CF25F0FACF26F0B0
:10002800FBCF27F0E9CF28F0EACF29F0E1CF2AF07B
:10003800E2CF2BF0D9CF2CF0DACF2DF0F3CF2EF082
:10004800F4CF2FF0F6CF30F0F7CF31F0F8CF32F011
:10005800F5CF33F09EA00AD09E900B0E176E000EBF
:10006800196E000E186E000EC8EC0DF09EAA03D093
:100078009E9A2DEC09F09EB89DA802D0A0EC0BF03A
:1000880033C0F5FF32C0F8FF31C0F7FF30C0F6FFCC
:100098002FC0F4FF2EC0F3FF2DC0DAFF2CC0D9FF0C
:1000A8002BC0E2FF2AC0E1FF29C0EAFF28C0E9FF10
:1000B80027C0FBFF26C0FAFF25C0E0FF24C0E8FFE9
:1000C80023C0D8FF10008FEF0DF0000E0001CA6F9B
:1000D800000E0001C56F000E0001C96F000E00017F
:1000E800C86F000E0001C66FC6AC24D0C69C0001C4
:1000F80020EE0CF00001E151D9260001E251DA228C
:10010800050EDF6E010E0001C66F000120EE0EF035
:100118000001E151D9260001E251DA22DF2A00016B
:1001280020EE0DF00001E151D9260001E251DA225A
:10013800040EDF6EC7A005D0C9CFC7F0010E0001BD
:10014800CA6F0001C6679FD188D1C7A69CD100019C
:10015800CA5164EC07F0000120EE0CF00001E151F7
:10016800D9260001E251DA22080EDF628CD1000E96
:100178000001CA6F010E0001C86F85D1C7A82AD037
:10018800000120EE0BF00001E151D9260001E251F7
:10019800DA22DF2A0001CA51D8B454D1C7BA04D030
:1001A800010E0001C96F4ED1000120EE0EF00001D2
:1001B800E151D9260001E251DA22DF2A000120EEBE
:1001C8000DF00001E151D9260001E251DA22060EB4
:1001D800DF6E38D10001CA51D8B455D1000120EEE4
:1001E8000BF00001E151D9260001E251DA22DF2AA1
:1001F800C7BA19D0C7B40BD0000120EE0CF000012B
:10020800E151D9260001E251DA22070E71D000012E
:1002180020EE0CF00001E151D9260001E251DA226A
:10022800080EDF6E08D1000120EE0EF00001E1514A
:10023800D9260001E251DA22DF2A000120EE0CF073
:100248000001E151D9260001E251DA22050EDF6EE4
:10025800000120EE0DF00001E151D9260001E25124
:10026800DA22060E45D0000120EE1AF00001E15115
:10027800D9260001E251DA22DF500001C16F0001E6
:1002880020EE19F00001E151D9260001E251DA22ED
:10029800DF500001C15DD8B0D5D0000120EE1AF0C2
:1002A8000001E151D9260001E251DA22DF500001B4
:1002B800C16F0001C151010D0F0EF326000EF4228B
:1002C800F3500001E125D96EF4500001E221DA6E05
:1002D800DF50C96E000120EE1AF00001E151D92665
:1002E8000001E251DA22DF2A010E0001C56FCBD0EE
:1002F800DF6EC9D0C7A85AD0000120EE0BF000016C
:10030800E151D9260001E251DA22DF2A0001CA515F
:10031800D8B448D0C7AA25D0000120EE0AF00001C1
:10032800E151D9260001E251DA22DF500001C16F04
:100338000001C151010DF3500001E125D96EF450BF
:100348000001E221DA6E0001C7C0DFFF000120EEE4
:100358000AF00001E151D9260001E251DA22DF2A30
:1003680021D0000120EE0EF00001E151D926000154
:10037800E251DA22DF2A000120EE0DF00001E151FE
:10038800D9260001E251DA22060EDF6E000120EEC6
:100398000CF00001E151D9260001E251DA22050EE4
:1003A800DF6E50D0010E0001C96F4CD00001CA5158
:1003B800D8B469D0000120EE0BF00001E151D92634
:1003C8000001E251DA22DF2AC7AA25D0000120EE77
:1003D8000AF00001E151D9260001E251DA22DF508A
:1003E8000001C16F0001C151010DF3500001E12569
:1003F800D96EF4500001E221DA6E0001C7C0DFFFB8
:10040800000120EE0AF00001E151D9260001E25175
:10041800DA22DF2A38D0C7A4C7D6000120EE0CF0B4
:100428000001E151D9260001E251DA22080EDF6EFF
:10043800010E0001C96F010E0001C86F000E000116
:10044800CA6F21D0000120EE0CF00001E151D9263D
:100458000001E251DA22050E4BD7000120EE0CF024
:100468000001E151D9260001E251DA22DF50050AE4
:10047800D8B46BD6030AD8B481D6010AD8B43AD70F
:100488000F0AD8B4F0D60001CA6704D00001C551DC
:10049800D8B402D0C6A8C688000120EE0AF0000130
:1004A800E151D9260001E251DA22080EDF6423D097
:1004B8000001C96720D0000120EE0CF00001E151D5
:1004C800D9260001E251DA22050EDF6E000120EE86
:1004D8000EF00001E151D9260001E251DA22DF2AAB
:1004E800000120EE0DF00001E151D9260001E25192
:1004F800DA22070EDF6E0001C951D8B43ED00001E0
:1005080020EE0BF00001E151D9260001E251DA2278
:10051800000110EE0AF00001E151E1260001E2516C
:10052800E222E7500001C16F0001C151010DF350F3
:100538000001E125E16EF4500001E221E26EDFCF17
:10054800E7FF280E456E0001E2C047F00001E1C058
:1005580046F0000120EE0AF00001E151D926000121
:10056800E251DA22DF500001C16F0001C129DAEC43
:100578000DF0000120EE0AF03ED0000120EE0EF052
:100588000001E151D9260001E251DA22DF50D8B446
:100598003AD0000120EE0EF00001E151D926000109
:1005A800E251DA22DF500001C26F000120EE0DF0A7
:1005B8000001E151D9260001E251DA22DF500001A1
:1005C800C36F000120EE0BF00001E151D9260001B4
:1005D800E251DA22DF500001C46F290E456E000196
:1005E800000E476E0001C20E466E030EDAEC0DF0E7
:1005F800000120EE0EF00001E151D9260001E25180
:10060800DA22000EDF6E0001C851D8B412002A0E9B
:10061800456E0001E2C047F00001E1C046F0000E5F
:10062800DAEC0DF0000E0001C86F1200000E806EAB
:10063800000E896E0F0EC16E070EB46E000E926E1C
:10064800000E816E000E8A6E9368820ED36E9B8CAC
:100658000201020E0001DA6F0201180E0001D96FC3
:10066800FEEC0DF00201020E0001DA6F0201330EFA
:100678000001D96F86EC0AF00201020E0001DA6F60
:1006880002011F0E0001D96FBDEC09F00201020E34
:100698000001DA6F02012A0E0001D96F01EC0AF09D
:1006A8000201020E0001DA6F02010E0E0001D96F7D
:1006B8004DEC0EF075EC0BF0AF0EA2EC0DF0C70E82
:1006C80006EC0DF0D59ECD90EC0E02010C6F4D0E90
:1006D80002010B6F020100010BC2D9F00001DA6BB5
:1006E80002010C5145EC0AF09F909F9A9F989F86B3
:1006F8009A0E7BEC0DF09D8646EC0EF01BEC0BF091
:100708000201020E0101B36F02011D0E0101B26F59
:100718000201020E0101B56F0201000E0101B46F62
:100728000A0ED2EC0CF002011E6F02011EBF95D01A
:1007380086D00201020E0101B96F02012A0E0101E1
:10074800B86F86EC06F089D000C20DF238D00201ED
:10075800020E0101B96F02011F0E0101B86FF2EC20
:100768000BF07BD00201020E0101B96F02012A0EC3
:100778000101B86F010E0101BB6F0E0E0101BA6FC6
:10078800DDEC08F06AD00201020E0101B96F020126
:100798002A0E0101B86F000E0101BB6F5A0E01014C
:1007A800BA6FDDEC08F059D00201020E0101B96FF1
:1007B80002011F0E0101B86F17EC0CF04ED00201B8
:1007C8000D51010AD8B4C3D7030AD8B4CBD7010A4C
:1007D800D8B4D9D7070AD8B4E7D73FD000C20DF2AA
:1007E8003CD0020E02011E6F550E0201006FAA0EC8
:1007F8000201016F17D0010E02011E6F3A0E04D0DC
:10080800010E02011E6FA30E0201006F0BD0020140
:100818000D51A80AD8B4EFD7010AD8B4F1D7030A02
:10082800D8B4DFD70201020E0001DA6F0201000E10
:100838000001D96F02011E5117EC05F00ED002011C
:100848001D510A0AD8B475D7220AD8B47DD7010A2F
:10085800D8B4C4D7030AD8B4DAD70201020E01010A
:10086800B36F02011D0E0101B26F0201020E0101F8
:10087800B56F0201000E0101B46F0A0EB7EC0CF05F
:1008880002011E6F02011EBF39D72DD00201020ED0
:100898000101B96F02011F0E0101B86F11EC06F0DA
:1008A8002DD70201020E0101B56F02010E0E0101E2
:1008B800B46F020101011DC2B6F10101B76B02015B
:1008C8001E510101B86F0101B96B0101B8BFB90729
:1008D8000201020E0101BB6F0201000E0101BA6F95
:1008E8002AEC08F00BD702011D510B0AD8B4CED759
:1008F800150AD8B4D6D7010AD8B4D3D73F0AD8B482
:10090800D0D7FCD6010120EE35F00101A651D92639
:100918000101A751DA22DF500101AD6F0101AD518C
:100928000D0DF3500101A6250101B06FF45001012E
:10093800A7210101B16F010EB0C1D9FFB1C1DAFF22
:10094800DF626FD0010120EE01F00101B051D9261C
:100958000101B151DA22DF500101A85DD8B002D0FF
:10096800FD0E1200010120EE01F00101B051D9265F
:100978000101B151DA22DF500001DF6F0001DF51C0
:100988000101AE6F0101AF6B01010001ACC1DAF0EA
:1009980001010001ABC1D9F0030E0101B02500012E
:1009A800DF6F000E0101B1210001E06FDFC0DBF055
:1009B800E0C0DCF0AEC1DDF0AFC1DEF049EC0BF019
:1009C800010120EE35F00101A651D9260101A751F8
:1009D800DA22010110EE35F00101A651E1260101EC
:1009E800A751E222E7500001DF6F0001DF29030B66
:1009F800DF6E010120EE02F00101B051D92601019C
:100A0800B151DA22A9C1E1FFAAC1E2FFDFCFE7FFB6
:100A1800B0C1D9FFB1C1DAFF000EDF6E0101AE51DE
:100A28001200FC0E12000001DD6F000120EE19F02B
:100A38000001E151D9260001E251DA22000EDF6EF1
:100A48003ED0000120EE19F00001E151D926000145
:100A5800E251DA22DF500001DB6F0001DB51010DAA
:100A6800F3500001D925D96EF4500001DA21DA6E6D
:100A7800000110EE19F00001E151E1260001E251F8
:100A8800E222E7500001DC6F0001DC51010D0F0E7E
:100A9800F326000EF422F3500001E125E16EF45034
:100AA8000001E221E26EDFCFE7FF000120EE19F03E
:100AB8000001E151D9260001E251DA22DF2A0001C2
:100AC80020EE19F00001E151D9260001E251DA22A5
:100AD800DF500001DB6F0001DD510001DB5DD8A0B4
:100AE800B0D7000120EE19F00001E151D92600012C
:100AF800E251DA220001DDC0DFFF000120EE1AF02A
:100B08000001E151D9260001E251DA22010EDF6E1F
:100B1800000120EE0FF00001E151D9260001E25159
:100B2800DA22DF50C96EC68812000101A8C1ACF1F3
:100B38000101AD6B010120EE34F00101A651D92667
:100B48000101A751DA22DF500101AE6F0101AE5158
:100B58000D0DF3500101A6250101AF6FF4500101FD
:100B6800A7210101B06FAFC1D9FFB0C1DAFFDF50D3
:100B7800D8B402D0FF0E1200010120EE01F00101ED
:100B8800AF51D9260101B051DA220101A8C1DFFF16
:100B9800010120EE02F00101AF51D9260101B05147
:100BA800DA220101A9C1DFFF030E0101AF2500010F
:100BB800D96F000E0101B0210001DA6F01010001B7
:100BC800ABC1DCF001010001AAC1DBF0ACC1DDF072
:100BD800ADC1DEF049EC0BF0010120EE34F001016B
:100BE800A651D9260101A751DA22010110EE34F0ED
:100BF8000101A651E1260101A751E222E7500001B7
:100C0800DF6F0001DF29030BDF6EAFC1D9FFB0C171
:100C1800DAFF010EDF6E010E1200B8C1D9FFB9C1AB
:100C2800DAFFDE2A000EDD22010120EE0AF00101C2
:100C3800B851D9260101B951DA22DF50D8B450D0C1
:100C4800B8C1D9FFB9C1DAFF0001DECFD9F0000180
:100C5800DDCFDAF0010120EE06F00101B851D92606
:100C68000101B951DA220001DECFDBF00001DDCF4E
:100C7800DCF0EBEC0AF0FF0E0101BA6FFF0EBB6F60
:100C8800010120EE06F00101B851D9260101B95140
:100C9800DA22DECFBCF1DDCFBDF10101BA5101018D
:100CA800BC270101BB510101BD230001DA5101013B
:100CB800BD1904E10001D9510101BC19D8A410D013
:100CC80084C0BEF185C0BFF10101010E0101B56FFD
:100CD8000101BE0E0101B46F020E36EC0DF0CD908D
:100CE800010120EE04F00101B851D9260101B951E2
:100CF800DA220001DECFD9F00001DDCFDAF02FECE7
:100D08000EF01200B8C1D9FFB9C1DAFFDE2A000E11
:100D1800DD22010120EE08F00101B851D9260101B8
:100D2800B951DA22DF50D8B450D0B8C1D9FFB9C10F
:100D3800DAFF0001DECFD9F00001DDCFDAF00101E2
:100D480020EE06F00101B851D9260101B951DA2285
:100D58000001DECFDBF00001DDCFDCF0EBEC0AF0C8
:100D6800FF0E0101BA6FFF0EBB6F010120EE06F006
:100D78000101B851D9260101B951DA22DECFBCF1FF
:100D8800DDCFBDF10101BA510101BC270101BB5101
:100D98000101BD230001DA510101BD1904E100017F
:100DA800D9510101BC19D8A410D082C0BEF183C0AA
:100DB800BFF10101010E0101B56F0101BE0E010174
:100DC800B46F020E36EC0DF0D59E010120EE04F052
:100DD8000101B851D9260101B951DA220001DECF4B
:100DE800D9F00001DDCFDAF026EC0EF0120020EE8B
:100DF80035F00B50D9260C50DA22DF50146E1450FF
:100E08000D0DF3500B24176EF4500C20186E010EC4
:100E180017C0D9FF18C0DAFFDF6250D020EE01F00A
:100E28001750D9261850DA22DF500D5CD8B002D0FE
:100E3800FD0E120020EE01F01750D9261850DA22C4
:100E4800DF50126E1250156E166A11C002F010C0F3
:100E580001F0030E1724126E000E1820136E12C034
:100E680003F013C004F015C005F016C006F03AEC04
:100E78000CF020EE35F00B50D9260C50DA2210EE8B
:100E880035F00B50E1260C50E222E750126E122882
:100E9800030BDF6E20EE02F01750D9261850DA2225
:100EA8000EC0E1FF0FC0E2FFDFCFE7FF17C0D9FF99
:100EB80018C0DAFF000EDF6E15501200FC0E12008B
:100EC800346E000120EE0BF00001E151D92600013B
:100ED800E251DA22010EDF6E000120EE0AF0000175
:100EE800E151D9260001E251DA22000EDF6E3450BA
:100EF800D8B43DD0C7AA21D0000120EE0CF00001E3
:100F0800E151D9260001E251DA22050EDF6E000117
:100F180020EE0EF00001E151D9260001E251DA225B
:100F2800DF2A000120EE0DF00001E151D926000171
:100F3800E251DA22050EDF6E1200C7A40CD00001C0
:100F480020EE0CF00001E151D9260001E251DA222D
:100F5800080EDF6E1200000120EE0CF00001E151D6
:100F6800D9260001E251DA22070EDF6E12000001D5
:100F780020EE0CF00001E151D9260001E251DA22FD
:100F8800060EDF6E1200000140C0BCF00001BD6B10
:100F980020EE34F03E50D9263F50DA22DF500001CF
:100FA800BE6F0001BE510D0DF3503E240001BF6F0E
:100FB800F4503F200001C06FBFC0D9FFC0C0DAFFA6
:100FC800DF50D8B402D0FF0E1200000120EE01F06D
:100FD8000001BF51D9260001C051DA2240C0DFFF0D
:100FE800000120EE02F00001BF51D9260001C051D6
:100FF800DA2241C0DFFF030E0001BF25346E000E68
:101008000001C021356E43C037F042C036F0BCC085
:1010180038F0BDC039F05AEC0CF020EE34F03E50F8
:10102800D9263F50DA2210EE34F03E50E1263F50E8
:10103800E222E750446E4428030BDF6EBFC0D9FF9D
:10104800C0C0DAFF010EDF6E010E12000101B651B9
:101058001E0AB711D8B412000101B6511F0AB71100
:10106800D8A43FD0000E0101BE6F000E0101BD6F74
:10107800000E0101BE6F000E0101BD6F0101BE51DE
:10108800800A800F0A0ED8B4BD5DD8B01AD001010D
:10109800BD510101BA25D96E0101BE510101BB2123
:1010A800DA6E0101BD510101B425E16E0101BE51A5
:1010B8000101B521E26EDFCFE7FF0101BD4BBE2B79
:1010C800DDD7B6C1B1F10101B5C1B3F10101B4C1B8
:1010D800B2F10101B8511FEC0DF00101BC6F9D8800
:1010E80012000101B651200AB711D8A4120001015B
:1010F800B8510101BA25D96E0101B9510101BB21CD
:10110800DA6E000EDF6E12000DC012F0136A20EEC8
:1011180034F00B50D9260C50DA22DF50146E1450DC
:101128000D0DF3500B24156EF4500C20166E15C0DF
:10113800D9FF16C0DAFFDF50D8B402D0FF0E120074
:1011480020EE01F01550D9261650DA220DC0DFFF27
:1011580020EE02F01550D9261650DA220EC0DFFF15
:10116800030E1524016E000E1620026E10C004F046
:101178000FC003F012C005F013C006F03AEC0CF0F3
:1011880020EE34F00B50D9260C50DA2210EE34F051
:101198000B50E1260C50E222E750116E1128030B88
:1011A800DF6E15C0D9FF16C0DAFF010EDF6E010E23
:1011B8001200010120EE06F00101B851D926010103
:1011C800B951DA220101BAC1DEFF0101BBC1DDFF5D
:1011D800010120EE08F00101B851D9260101B951E9
:1011E800DA22010EDF6ED58E010120EE02F0010138
:1011F800B851D9260101B951DA22DF500101BC6F7B
:10120800010120EE03F00101B851D9260101B951BD
:10121800DA22DF500101BD6F0101010E0101B56F36
:101228000101BC0E0101B46F020E36EC0DF0010194
:1012380020EE04F00101B851D9260101B951DA2292
:101248000001DECFD9F00001DDCFDAF026EC0EF098
:1012580012009EAA3AD020EE04F04950D9264A50EE
:10126800DA22DF501B6E1B50010DF3504924D96E52
:10127800F4504A20DA6E0DEC0EF0DF6E20EE04F02A
:101288004950D9264A50DA22DF2A20EE04F0495084
:10129800D9264A50DA22040EDF6217D0200E176EC4
:1012A8004AC019F049C018F020EE04F04950D92678
:1012B8004A50DA22DF50C8EC0DF020EE04F0495015
:1012C800D9264A50DA22000EDF6E4CA61200AB98DF
:1012D800AB881E0E176E000E196E000E186E000EEB
:1012E800C8EC0DF01200EACFCEF0E1CFCFF0E2CF9C
:1012F800D0F0D9CFD1F0DACFD2F0F3CFD3F0F4CF0A
:10130800D4F0F6CFD5F0F7CFD6F0F8CFD7F0F5CFA9
:10131800D8F09EA603D09E9669EC00F0F2A40AD0FD
:10132800F2940A0E456E000E476E000E466E000ED1
:10133800DAEC0DF0CBEC0BF0D8C0F5FFD7C0F8FF16
:10134800D6C0F7FFD5C0F6FFD4C0F4FFD3C0F3FF73
:10135800D2C0DAFFD1C0D9FFD0C0E2FFCFC0E1FFD1
:10136800CEC0EAFFCDC0E9FFCCC0FBFFCBC0FAFF7F
:101378001100D9C0D9FFDAC0DAFF000EDE6E000E08
:10138800DD6E000120EE02F00001D951D9260001DE
:10139800DA51DA22500EDF6E000120EE03F0000170
:1013A800D951D9260001DA51DA22CD0EDF6E0001BB
:1013B80020EE04F00001D951D9260001DA51DA22D1
:1013C800B20EDE6EFF0EDD6E000120EE06F00001AB
:1013D800D951D9260001DA51DA22000EDE6E000E4C
:1013E800DD6E000120EE0AF00001D951D926000176
:1013F800DA51DA22000EDF6E1200D9C0D9FFDAC046
:10140800DAFF000EDE6E000EDD6E000120EE02F047
:101418000001D951D9260001DA51DA221E0EDF6EF9
:10142800000120EE03F00001D951D9260001DA515C
:10143800DA22DF0EDF6E000120EE04F00001D95140
:10144800D9260001DA51DA22E30EDE6EFF0EDD6ED8
:10145800000120EE06F00001D951D9260001DA5129
:10146800DA22000EDE6E000EDD6E000120EE08F0BE
:101478000001D951D9260001DA51DA22000EDF6EB7
:1014880012000001DE6F000EAC6E000EAB6E0001A4
:10149800DEB1AC880001DEA302D0AC8CAB8C0001BD
:1014A800DEB5AC8E0001DEA702D0AB8801D0AB8AD6
:1014B8000001DEB9AC849E980001DEBBAB8600015A
:1014C800DEAD02D09D8A01D09D9A9E9A0001DEAFC2
:1014D80002D09D8801D09D98D9C0AFFF0001DAC025
:1014E800DBF0DBC0DCF00001DD6B0001DC51B06E2D
:1014F800AC8AAB8E949C948EACA81200ACBE120041
:10150800948C12000001DAC0E2F00001D9C0E1F0C9
:10151800000120EE0AF00001E151D9260001E25154
:10152800DA22000EDF6E000120EE0BF00001E1511F
:10153800D9260001E251DA22000EDF6E000120EE0A
:101548000CF00001E151D9260001E251DA22050E22
:10155800DF6E000120EE0EF00001E151D9260001F6
:10156800E251DA22000EDF6E1200000120EE34F0A4
:101578000001D951D9260001DA51DA22000EDF6EB6
:10158800000120EE35F00001D951D9260001DA51C9
:10159800DA22000EDF6E000E0001DB6F030E000181
:1015A800DB6501D012000001DB510D0DF350000185
:1015B800D925D96EF4500001DA21DA6E000EDF6EFB
:1015C8000001DB2B030E0001DB65EDD712000001E3
:1015D800DC51DB11D8B426D0010E0001DD6F06D036
:1015E8000001D890DB37DC370001DD2B0001DCAFD0
:1015F800F7D70001DB510001D95D0001DC51000182
:10160800DA59D8A008D00001DB510001D95F0001E8
:10161800DC510001DA5B0001D890DC33DB330001D8
:10162800DD2FE7D7D9C0D9F0DAC0DAF0120099EC8B
:101638000CF00001DE510001DD11D8B41200010EDA
:101648004B6E0101010E0001DA6F01016C0E000101
:10165800D96FEDEC0CF00009D8B403D0000E4B6E36
:1016680012000001000E0001DA6F0001860E000171
:10167800D96FEDEC0CF00009D8B403D0000E4B6E16
:1016880012000A0E1CEC0EF0DCD700010101DCC0D0
:10169800A5F100010101DBC0A4F100010101DAC0DC
:1016A800A3F100010101D9C0A2F110D0A4C1D9FF52
:1016B800A5C1DAFFA2C1E1FFA3C1E2FFDFCFE7FFC7
:1016C8000101A44BA52B0101A24BA32B0001DD07AF
:1016D800D8A0DE070001DD29D8B4DE29D8B412006D
:1016E800E5D7000E4B6E0001000E0001DA6F000115
:1016F800860E0001D96FB9EC0AF00101010E000154
:10170800DA6F01016C0E0001D96FB9EC0AF0010122
:10171800010E0001DA6F0101360E0001D96FB9EC34
:101728000AF00101010E0001DA6F0101000E00014B
:10173800D96FB9EC0AF01200000E1F6E000E1E6E73
:10174800000E1A6E200E196E1FC01CF01EC01BF072
:101758000A0EB5EC0DF0226E22BE17D0000E216ED7
:101768000DD0ACA2FED72150010DF3501E24D96E26
:10177800F4501F20DA6EDF50AD6E212A215022BEB0
:1017880004D0FF0A2224D8B0ECD79D9812004B66EB
:1017980001D0120064EC0DF037503610D8A41200B6
:1017A80040EC0EF035503410D8B412000101010E8F
:1017B800356E01016C0E346EECEC0DF00009D8A406
:1017C80012000001000E356E0001860E346EECEC3E
:1017D8000DF00009D8B44AEC0EF01200010120EE19
:1017E80002F00101B851D9260101B951DA22DF50BE
:1017F8000101BA6F010120EE03F00101B851D926A9
:101808000101B951DA22DF500101BB6FCD8001011E
:10181800010E0101B56F0101BA0E0101B46F020E8C
:1018280036EC0DF0120080C0BAF181C0BBF10101A5
:10183800010E0101B56F0101BA0E0101B46F020E6C
:1018480036EC0DF0010120EE04F00101B851D92663
:101858000101B951DA220001DECFD9F00001DDCF54
:10186800DAF02FEC0EF0D59ECD90120004C00AF0ED
:1018780003C009F002C008F001C007F00ED009C08B
:10188800D9FF0AC0DAFF07C0E1FF08C0E2FFDFCFD7
:10189800E7FF094A0A2A074A082A0506D8A00606C1
:1018A8000528D8B40628D8B41200E9D737C03DF0C7
:1018B80036C03CF035C03BF034C03AF00ED03CC0E6
:1018C800D9FF3DC0DAFF3AC0E1FF3BC0E2FFDFCFFE
:1018D800E7FF3C4A3D2A3A4A3B2A3806D8A039064F
:1018E8003828D8B43928D8B41200E9D7F2AC07D0D0
:1018F800000E0001DC6F000E0001DB6F120038ECF7
:101908000EF00001DA510001D911D8B407D0000E49
:101918000001DC6F000E0001DB6F1200000E0001F9
:10192800DC6F010E0001DB6F12007AEC0CF0000195
:10193800DC510001DB11D8A40FD038EC0EF0000107
:10194800DA510001D911D8A407D0000E0001DE6FCA
:10195800010E0001DD6F1200000E0001DE6F000EA7
:101968000001DD6F12000101B66F0001000E0101D8
:10197800A76F0001860E0101A66FB6C1A8F101018B
:10198800B3C1AAF10101B2C1A9F10101B5C1ACF11C
:101998000101B4C1ABF186EC04F012000101B66F8D
:1019A8000101010E0101A76F01016C0E0101A66F73
:1019B800B6C1A8F10101B3C1AAF10101B2C1A9F1EF
:1019C8000101B5C1ACF10101B4C1ABF186EC04F081
:1019D8001200000120EE35F00001D951D92600018E
:1019E800DA51DA22DF500001DB6F0001DB510D0D07
:1019F800F3500001D925D96EF4500001DA21DA6ECE
:101A0800DF5012000001D96F0001D9517E0BCD6E55
:101A18000001D9AD02D0CD8E01D0CD9E000ECF6E83
:101A2800000ECE6E9E900001D9AF02D09D8001D0ED
:101A38009D90CD8012000001E06F0101010E0101AF
:101A4800A76F0101360E0101A66FE0C0A8F1B1C170
:101A5800A9F10101B3C1ABF10101B2C1AAF199EC3D
:101A680005F012000101B76F0A0E0101B76501D038
:101A780012001F0E0101B16F0101B5C1B3F10101DF
:101A8800B4C1B2F10101B7514DEC0DF00101B66FCF
:101A980012000001E06F0001000E0101A76F0001B4
:101AA800860E0101A66FE0C0A8F1B1C1A9F101013C
:101AB800B3C1ABF10101B2C1AAF199EC05F0120072
:101AC800F2AC05D0000E376E000E366E120040ECF8
:101AD8000EF035503410D8B405D0000E376E000E15
:101AE800366E1200000E376E010E366E12000001BF
:101AF800D96F94869488D9C0C8FF000EC76E000EAF
:101B0800C66E000EC56E0E0EC612C78E94869488D9
:101B1800C580C68A120001EE00F0A20EEE6AE80641
:101B2800FDE100EE80F03C0EEE6AE806FDE14C6A4D
:101B38004B6A000EF86E00011AEF03F00001D96F2E
:101B48000001D9517F0BD56E000ED76E000ED66EF0
:101B5800F2940001D9AF02D0F28A01D0F29AD58E60
:101B680012001D6E0101010E0C6E0101360E0B6E86
:101B78001DC00DF01AC00FF019C00EF0116A1BC07D
:101B880010F0FBEC06F012001A6E0001000E0C6E4D
:101B98000001860E0B6E1AC00DF017C00EF019C0AA
:101BA80010F018C00FF088EC08F01200486E010120
:101BB800010E3F6E01016C0E3E6E48C040F045C0FC
:101BC80041F047C043F046C042F0C7EC07F01200AE
:101BD80020EE35F03450D9263550DA22DF50366EF3
:101BE80036500D0DF3503424D96EF4503520DA6E8A
:101BF800DF5012000001DAC04AF00001D9C049F0F4
:101C080020EE04F04950D9264A50DA22000EDF6E41
:101C18001200F20E4C16ABAC03D04C90ABB04C801B
:101C2800ABB44C84ABB24C86AECF01F0015012007D
:101C38000001D96FFA0E00F0E82EFDD70001D92F68
:101C4800F9D71200D9C0DBF0DAC0DCF0DCC0D7FF6E
:101C5800DBC0D6FF1200D9C0DBF0DAC0DCF0DCC094
:101C6800CFFFDBC0CEFF1200000EF2AE010E000166
:101C7800D96F0001DA6B1200000EF2AE010E346E5D
:101C8800356A1200D08EF28EF28C1200D38E0300C9
:041C98001200120024
:067FF80080F4C5FFFFF15B
:00000001FF
