:040000005DEF00F0C0
:0C000800FACFBFF0FBCFC0F089EF09F089
:10001800D8CF1EF0E8CF1FF0E0CF20F0FACF21F0C4
:10002800FBCF22F0E9CF23F0EACF24F0E1CF25F08F
:10003800E2CF26F0D9CF27F0DACF28F0F3CF29F096
:10004800F4CF2AF0F6CF2BF0F7CF2CF0F8CF2DF025
:10005800F5CF2EF09EA003D09E90A3EC0CF09EAAA4
:1000680003D09E9AADEC08F09EB89E982EC0F5FF7E
:100078002DC0F8FF2CC0F7FF2BC0F6FF2AC0F4FFF5
:1000880029C0F3FF28C0DAFF27C0D9FF26C0E2FF46
:1000980025C0E1FF24C0EAFF23C0E9FF22C0FBFF1F
:1000A80021C0FAFF20C0E0FF1FC0E8FF1EC0D8FF34
:1000B800100032EF0CF0496E000E00010001BE6F17
:1000C8004950496E000E00010001B96F4950496E50
:1000D800000E00010001BD6F4950496E000E00017D
:1000E8000001BC6F4950496E000E00010001BA6F53
:1000F8004950C6AC27D0C69C000120EE0CF0000188
:10010800E551D9260001E651DA22050EDF6E496E67
:10011800010E00010001BA6F4950000120EE0EF0F7
:100128000001E551D9260001E651DA22DF2A000153
:1001380020EE0DF00001E551D9260001E651DA2242
:10014800040EDF6EC7A008D0C9CFBBF0496E010E00
:1001580000010001BE6F495000010001BA67B8D123
:10016800A1D1C7A6B5D100010001BE519FEC07F08F
:10017800000120EE0CF00001E551D9260001E651FE
:10018800DA22080EDF62A4D1496E000E00010001D8
:10019800BE6F4950496E010E00010001BC6F75D158
:1001A800C7A82ED0000120EE0BF00001E551D9269A
:1001B8000001E651DA22DF2A00010001BE51D8B45D
:1001C80066D1C7BA07D0496E010E00010001BD6FA4
:1001D80049505DD1000120EE0EF00001E551D9260D
:1001E8000001E651DA22DF2A000120EE0DF00001BD
:1001F800E551D9260001E651DA22060EDF6E47D115
:1002080000010001BE51D8B463D1000120EE0BF00B
:100218000001E551D9260001E651DA22DF2AC7BAE2
:1002280019D0C7B40BD0000120EE0CF00001E55145
:10023800D9260001E651DA22070E71D0000120EE1E
:100248000CF00001E551D9260001E651DA22080E2A
:10025800DF6E10D1000120EE0EF00001E551D92625
:100268000001E651DA22DF2A000120EE0CF000013D
:10027800E551D9260001E651DA22050EDF6E0001AC
:1002880020EE0DF00001E551D9260001E651DA22F1
:10029800060E45D0000120EE1AF00001E551D926DE
:1002A8000001E651DA22DF50496E000120EE19F014
:1002B8000001E551D9260001E651DA22DF50495CF8
:1002C800D8B0E5D0000120EE1AF00001E551D9269A
:1002D8000001E651DA22DF50496E4950010D0F0E38
:1002E800F326000EF422F35000010001E525D96E33
:1002F800F45000010001E621DA6EDF50C96E0001FA
:1003080020EE1AF00001E551D9260001E651DA2263
:10031800DF2A496E010E00010001B96FB6D0DF6E09
:10032800D7D0C7A85ED0000120EE0BF00001E55140
:10033800D9260001E651DA22DF2A00010001BE5168
:10034800D8B448D0C7AA25D0000120EE0AF0000191
:10035800E551D9260001E651DA22DF50496E4950AD
:10036800010DF35000010001E525D96EF45000019C
:100378000001E621DA6E0001BBC0DFFF000120EEBC
:100388000AF00001E551D9260001E651DA22DF2AF8
:1003980021D0000120EE0EF00001E551D926000120
:1003A800E651DA22DF2A000120EE0DF00001E551C6
:1003B800D9260001E651DA22060EDF6E000120EE92
:1003C8000CF00001E551D9260001E651DA22050EAC
:1003D800DF6E5DD0496E010E00010001BD6F49500E
:1003E80056D000010001BE51D8B472D0000120EEF1
:1003F8000BF00001E551D9260001E651DA22DF2A87
:10040800C7AA25D0000120EE0AF00001E551D9263F
:100418000001E651DA22DF50496E4950010DF350D0
:1004280000010001E525D96EF45000010001E62124
:10043800DA6E0001BBC0DFFF000120EE0AF0000108
:10044800E551D9260001E651DA22DF2A41D0C7A4B6
:10045800C1D6000120EE0CF00001E551D9260001BB
:10046800E651DA22080EDF6E496E010E0001000126
:10047800BD6F4950496E010E00010001BC6F495023
:10048800496E000E00010001BE6F495021D00001E5
:1004980020EE0CF00001E551D9260001E651DA22E0
:1004A800050E3DD7000120EE0CF00001E551D926DC
:1004B8000001E651DA22DF50050AD8B452D6030A01
:1004C800D8B46ED6010AD8B42CD70F0AD8B4E2D65D
:1004D80000010001BE6705D000010001B951D8B480
:1004E80002D0C6A8C688000120EE0AF00001E55136
:1004F800D9260001E651DA22080EDF6424D0000173
:100508000001BD6720D0000120EE0CF00001E5518C
:10051800D9260001E651DA22050EDF6E000120EE31
:100528000EF00001E551D9260001E651DA22DF2A52
:10053800000120EE0DF00001E551D9260001E65139
:10054800DA22070EDF6E00010001BD51D8B43ED09B
:10055800000120EE0BF00001E551D9260001E6511B
:10056800DA22000110EE0AF00001E551E12600014F
:10057800E651E222E750496E4950010DF35000015F
:100588000001E525E16EF45000010001E621E26E6C
:10059800DFCFE7FF496E280E456E49500001E6C0DF
:1005A80047F00001E5C046F0000120EE0AF0000126
:1005B800E551D9260001E651DA22DF504A6E4A2871
:1005C8003AEC0DF0000120EE0AF043D0000120EED5
:1005D8000EF00001E551D9260001E651DA22DF507C
:1005E800D8B43FD0000120EE0EF00001E551D92625
:1005F8000001E651DA22DF5000010001B66F000168
:1006080020EE0DF00001E551D9260001E651DA226D
:10061800DF5000010001B76F000120EE0BF0000170
:10062800E551D9260001E651DA22DF500001000128
:10063800B86F496E290E456E49500001000E476E8D
:100648000001B60E466E030E3AEC0DF0000120EEE6
:100658000EF00001E551D9260001E651DA22000E1C
:10066800DF6E00010001BC51D8B41200496E2A0E99
:10067800456E49500001E6C047F00001E5C046F06C
:10068800000E3AEC0DF0496E000E00010001BC6F3F
:1006980049501200820ED36E9B9C0101010E00018D
:1006A8000001CE6F0101C90E00010001CD6F5FECA2
:1006B8000DF00101010E00010001CE6F0101D00E05
:1006C80000010001CD6F7DEC0AF00101010E00016F
:1006D8000001CE6F0101C70E00010001CD6FA4EC2F
:1006E8000DF046EC0AF0000E936E000E8A6E000EB6
:1006F800806E000E896E0F0EC16E070EB46E000E6E
:10070800926E960EE9EC0CF0F50E51EC0CF09F9001
:100718009F9A9F989F869E0E13EC0DF09D8601016F
:10072800B46FFC0E01010101C46F0101B451010154
:10073800B46F4D0E01010101C36F0101B4510101F4
:100748000001C3C1CDF000010001CE6B0101010120
:10075800C451FBEC08F0D7EC0DF0CAEC09F001012C
:10076800010E01010101A36F0101CE0E010101017A
:10077800A26F0101010E01010101A56F0101B70E70
:1007880001010101A46F0A0ED1EC0BF00101010176
:10079800CF6F01010101CFBF8DD07DD00101010EC6
:1007A80000010001CE6F0101B50E00010001CD6FFF
:1007B80001010001CEC1CFF000010001D06B0101A1
:1007C8000101CF5100010001D16F0001D26B00017E
:1007D800D1BFD2070101010E00010001D46F010150
:1007E800B70E00010001D36F9BEC0DF063D0B7C1C9
:1007F800C2F160D00101B46F020E01010101CF6F97
:100808000101B4510101B46F550E01010101B76F27
:100818000101B4510101B46FAA0E01010101B86FC1
:100828000CD00101B46F010E01010101CF6F01016C
:10083800B4510101B46F3A0E0ED00101B4511BD06E
:100848000101B46F010E01010101CF6F0101B45123
:100858000101B46FA30E01010101B76FEED70101C9
:100868000101C251A80AD8B4DCD7010AD8B4E8D724
:10087800030AD8B4BFD70101010E00010001CE6FF1
:100888000101B70E00010001CD6F01010101CF5137
:100898002DEC06F00FD001010101CE510A0AD8B49F
:1008A8007DD7220AD8B4A3D7010AD8B4A0D7030A9F
:1008B800D8B4D5D70101010E01010101A36F0101CF
:1008C800CE0E01010101A26F0101010E010101011A
:1008D800A56F0101B70E01010101A46F0A0EB0EC6A
:1008E8000BF001010101CF6F01010101CFBF35D725
:1008F8007BD00101010E01010101A66F0101C70EA4
:1009080001010101A56F01010101CEC1A7F101019A
:100918000101A86B01010101CF5101010101A96F7A
:100928000101AA6B0101A9BFAA070101010E01017A
:100938000101AC6F0101B70E01010101AB6FA3EC1E
:1009480005F00BD70101010E00010001D16F010173
:10095800C50E00010001D06F01010001CEC1D2F027
:1009680000010001D36B01010101CF510001000119
:10097800D46F0001D56B0001D4BFD5070101010E6A
:1009880000010001D76F0101B70E00010001D66F09
:10099800E4EC0AF0E2D60101010E00010001D16F7A
:1009A8000101C50E00010001D06F01010001CEC197
:1009B800D2F000010001D36B01010101CF51000108
:1009C8000001D46F0001D56B0001D4BFD507010128
:1009D800010E00010001D76F0101B70E00010001EF
:1009E800D66FE4EC0AF0B9D601010101CE510B0A29
:1009F800D8B47FD7150AD8B4A5D7010AD8B4A2D7D6
:100A08003F0AD8B4C8D7A9D6000120EE35F00001B6
:100A1800D751D9260001D851DA22DF500001000150
:100A2800E06F00010001E0510D0DF35000010001DD
:100A3800D72500010001E36FF45000010001D8211F
:100A48000001E46F010EE3C0D9FFE4C0DAFFDF6202
:100A580074D0000120EE01F00001E351D926000115
:100A6800E451DA22DF5000010001D95DD8B002D08C
:100A7800FD0E1200000120EE01F00001E351D9261D
:100A88000001E451DA22DF500001DE6F0001DE517F
:100A980000010001E16F0001E26B00010001DDC00F
:100AA800CEF000010001DCC0CDF0030E0001000112
:100AB800E3250001DE6F000E00010001E4210001C2
:100AC800DF6FDEC0CFF0DFC0D0F0E1C0D1F0E2C010
:100AD800D2F015EC0BF0000120EE35F00001D751F3
:100AE800D9260001D851DA22000110EE35F00001B4
:100AF800D751E1260001D851E222E7500001DE6F0C
:100B08000001DE29030BDF6E000120EE02F0000178
:100B1800E351D9260001E451DA22DAC0E1FFDBC053
:100B2800E2FFDFCFE7FFE3C0D9FFE4C0DAFF000E42
:100B3800DF6E00010001E1511200FC0E1200E7C057
:100B4800B2F1E8C0B3F1000E01010101B16F000E6E
:100B58000101B06FA5C1D9FFA6C1DAFFDE2A000ED8
:100B6800DD22A5C1D9FFA6C1DAFF0001DECFCDF095
:100B78000001DDCFCEF0000E00010001D06F060E9F
:100B88000001CF6F44EC09F000010001CD51050AC6
:100B98000001CE11D8A4120092EC0DF00001000162
:100BA800CDB106D0000E01010101B16F000E05D0D4
:100BB800000E01010101B16F010E0101B06F1DD0DE
:100BC8000101AD6F000E01010101B26F0101AD51CC
:100BD8000101AD6F000E0BD00101AD6FC80E010110
:100BE8000101B26F0101AD510101AD6F480E010164
:100BF8000101B36F0101AD5113D00101B0C1ADF1D5
:100C08000101B1C1AEF10101AE51000AD8A408D06A
:100C18000101AD51000AD8B4D3D7010AD8B4DCD742
:100C28000101AD6F1F0E01010101A26F0101AD515C
:100C38000101010E01010101A46F0101B20E0101C0
:100C48000101A36F020E6DEC0CF001010101AF6F01
:100C58001200E8CFD1F0000120EE19F00001E551B3
:100C6800D9260001E651DA22000EDF6E42D00001DB
:100C780020EE19F00001E551D9260001E651DA22EB
:100C8800DF500001CF6F0001CF51010DF35000017B
:100C98000001CD25D96EF45000010001CE21DA6E95
:100CA800000110EE19F00001E551E1260001E651BE
:100CB800E222E7500001D06F0001D051010D0F0E64
:100CC800F326000EF422F35000010001E525E16E41
:100CD800F45000010001E621E26EDFCFE7FF0001DA
:100CE80020EE19F00001E551D9260001E651DA227B
:100CF800DF2A000120EE19F00001E551D926000194
:100D0800E651DA22DF500001CF6F00010001D15116
:100D18000001CF5DD8A0ABD7000120EE19F000018B
:100D2800E551D9260001E651DA220001D1C0DFFFE2
:100D3800000120EE1AF00001E551D9260001E65124
:100D4800DA22010EDF6E000120EE0FF00001E551FE
:100D5800D9260001E651DA22DF50C96EC688120092
:100D680000010001D9C0DEF000010001DF6B0001C5
:100D780020EE34F00001D751D9260001D851DA22EB
:100D8800DF5000010001E06F00010001E0510D0D8E
:100D9800F35000010001D72500010001E16FF45074
:100DA80000010001D8210001E26FE1C0D9FFE2C0D3
:100DB800DAFFDF50D8B402D0FF0E1200000120EE97
:100DC80001F00001E151D9260001E251DA220001C7
:100DD800D9C0DFFF000120EE02F00001E151D92661
:100DE8000001E251DA220001DAC0DFFF030E000140
:100DF8000001E12500010001CD6F000E0001000196
:100E0800E2210001CE6F00010001DCC0D0F000013A
:100E18000001DBC0CFF0DEC0D1F0DFC0D2F015ECAE
:100E28000BF0000120EE34F00001D751D926000163
:100E3800D851DA22000110EE34F00001D751E12632
:100E48000001D851E222E7500001DD6F0001DD29E1
:100E5800030BDF6EE1C0D9FFE2C0DAFF010EDF6EDF
:100E6800010E120020EE35F03950D9263A50DA2218
:100E7800DF50426E42500D0DF3503924456EF45048
:100E88003A20466E010E45C0D9FF46C0DAFFDF6240
:100E980050D020EE01F04550D9264650DA22DF50D6
:100EA8003B5CD8B002D0FD0E120020EE01F0455098
:100EB800D9264650DA22DF50406E4050436E446ACD
:100EC8003FC030F03EC02FF0030E4524406E000EA8
:100ED8004620416E40C031F041C032F043C033F08B
:100EE80044C034F012EC0CF020EE35F03950D9261D
:100EF8003A50DA2210EE35F03950E1263A50E22223
:100F0800E750406E4028030BDF6E20EE02F045509C
:100F1800D9264650DA223CC0E1FF3DC0E2FFDFCFD0
:100F2800E7FF45C0D9FF46C0DAFF000EDF6E435029
:100F38001200FC0E1200E8CF2FF0000120EE0BF09B
:100F48000001E551D9260001E651DA22010EDF6ED3
:100F5800000120EE0AF00001E551D9260001E65112
:100F6800DA22000EDF6E2F50D8B43DD0C7AA21D0A8
:100F7800000120EE0CF00001E551D9260001E651F0
:100F8800DA22050EDF6E000120EE0EF00001E551B9
:100F9800D9260001E651DA22DF2A000120EE0DF001
:100FA8000001E551D9260001E651DA22050EDF6E6F
:100FB8001200C7A40CD0000120EE0CF00001E5518E
:100FC800D9260001E651DA22080EDF6E1200000170
:100FD80020EE0CF00001E551D9260001E651DA2295
:100FE800070EDF6E1200000120EE0CF00001E55143
:100FF800D9260001E651DA22060EDF6E12000DC076
:1010080012F0136A20EE34F00B50D9260C50DA2275
:10101800DF50146E14500D0DF3500B24156EF45060
:101028000C20166E15C0D9FF16C0DAFFDF50D8B4F1
:1010380002D0FF0E120020EE01F01550D9261650EE
:10104800DA220DC0DFFF20EE02F01550D926165027
:10105800DA220EC0DFFF030E1524016E000E1620E3
:10106800026E10C004F00FC003F012C005F013C0E8
:1010780006F0F2EC0BF020EE34F00B50D9260C50B1
:10108800DA2210EE34F00B50E1260C50E222E75041
:10109800116E1128030BDF6E15C0D9FF16C0DAFFD9
:1010A800010EDF6E010E12003BC040F0416A20EED7
:1010B80034F03950D9263A50DA22DF50426E425085
:1010C8000D0DF3503924436EF4503A20446E43C05A
:1010D800D9FF44C0DAFFDF50D8B402D0FF0E1200A7
:1010E80020EE01F04350D9264450DA223BC0DFFFFE
:1010F80020EE02F04350D9264450DA223CC0DFFFEC
:10110800030E43242F6E000E4420306E3EC032F092
:101118003DC031F040C033F041C034F012EC0CF067
:1011280020EE34F03950D9263A50DA2210EE34F055
:101138003950E1263A50E222E7503F6E3F28030B30
:10114800DF6E43C0D9FF44C0DAFF010EDF6E010E27
:1011580012009EAA3CD020EE04F04D50D9264E50E5
:10116800DA22DF501B6E1B50010DF3504D24D96E4F
:10117800F4504E20DA6E6EEC0DF0DF6E20EE04F0C7
:101188004D50D9264E50DA22DF2A20EE04F04D5079
:10119800D9264E50DA22040EDF6219D01B6E200EBB
:1011A800176E1B504EC019F04DC018F020EE04F019
:1011B8004D50D9264E50DA22DF5027EC0DF020EEA4
:1011C80004F04D50D9264E50DA22000EDF6E50A69C
:1011D8001200AB98AB881B6E1E0E176E1B50000ECC
:1011E800196E000E186E000E27EC0DF01200E8CFF5
:1011F800D2F0000EAC6E000EAB6E00010001D2B151
:10120800AC8800010001D2A302D0AC8CAB8C0001E9
:101218000001D2B5AC8E00010001D2A702D0AB8884
:1012280001D0AB8A00010001D2B9AC849E980001BC
:101238000001D2BBAB8600010001D2AD02D09D8A6D
:1012480001D09D9A9E9A00010001D2AF02D09D88DC
:1012580001D09D98CDC0AFFF0001CEC0CFF0CFC068
:10126800D0F00001D16B0001D051B06EAC8AAB8ECA
:10127800949C948EACA81200ACBE1200948C120000
:1012880000010001D051CF11D8B43AD00001D16F7C
:10129800010E00010001D26F0001D15109D00001F7
:1012A80000010001D890CF37D03700010001D22BC0
:1012B80000010001D0AFF3D700010001CF510001B8
:1012C8000001CD5D00010001D05100010001CE599F
:1012D800D8A00CD000010001CF5100010001CD5F62
:1012E80000010001D05100010001CE5B00010001A6
:1012F8000001D890D033CF3300010001D22FDCD7C2
:10130800CDC0CDF0CEC0CEF01200E9CFC1F0EACF0B
:10131800C2F0E1CFC3F0E2CFC4F0D9CFC5F0DACF45
:10132800C6F0F3CFC7F0F4CFC8F0F6CFC9F0F7CFC7
:10133800CAF0F8CFCBF0F5CFCCF09EA603D09E969E
:101348005FEC00F0F2A403D0F294B2EC0AF044ECA3
:101358000BF0CCC0F5FFCBC0F8FFCAC0F7FFC9C07F
:10136800F6FFC8C0F4FFC7C0F3FFC6C0DAFFC5C0A8
:10137800D9FFC4C0E2FFC3C0E1FFC2C0EAFFC1C0D9
:10138800E9FFC0C0FBFFBFC0FAFF11008EEC0BF0F5
:1013980000010001D2510001D111D8B4120000019E
:1013A800D36F010E4F6E0001D3510101010E0001F0
:1013B8000001CE6F01016C0E00010001CD6F88ECB9
:1013C8000CF00009D8B407D00001D36F000E4F6E9F
:1013D8000001D35112000001000E00010001CE6F80
:1013E8000001800E00010001CD6F88EC0CF00009AF
:1013F800D8B407D00001D36F000E4F6E0001D3514F
:1014080012000A0E7DEC0DF0D0D7000120EE34F06A
:101418000001CD51D9260001CE51DA22000EDF6E2F
:10142800000120EE35F00001CD51D9260001CE5142
:10143800DA22000EDF6E0001CF6F000E00010001FE
:10144800D06F0001CF51030E00010001D06501D01B
:10145800120000010001D0510D0DF35000010001F0
:10146800CD25D96EF45000010001CE21DA6E000EB0
:10147800DF6E00010001D02B030E00010001D065D2
:10148800E8D712000001D16F000E4F6E0001D15154
:101498000001000E00010001CE6F0001800E000166
:1014A8000001CD6F09EC0AF00101010E00010001F5
:1014B800CE6F01016C0E00010001CD6F09EC0AF03E
:1014C8000101010E00010001CE6F0101360E00017D
:1014D8000001CD6F09EC0AF00101010E00010001C5
:1014E800CE6F0101000E00010001CD6F09EC0AF07A
:1014F800120000010001CEC0E6F000010001CDC0DD
:10150800E5F0000120EE0AF00001E551D9260001BE
:10151800E651DA22000EDF6E000120EE0BF000012A
:10152800E551D9260001E651DA22000EDF6E0001EE
:1015380020EE0CF00001E551D9260001E651DA222F
:10154800050EDF6E000120EE0EF00001E551D926F0
:101558000001E651DA22000EDF6E1200000E306E36
:10156800000E2F6EC8EC0DF00001000E486E000151
:10157800B80E476E0001000E4A6E0001BA0E496EA1
:10158800020EFEEC0CF000010001B66F0001B76B13
:101598000001B6BFB70700010001B651020AB71132
:1015A800D8A412004C6E0A0E456E4C500001000E75
:1015B800476E0001BA0E466E020E3AEC0DF01200AC
:1015C80000010001D2511E0AD311D8B41200000143
:1015D8000001D2511F0AD311D8A40BD00001000179
:1015E800D7C0CFF000010001D6C0CEF0BBEC0CF0A4
:1015F800120000010001D251200AD311D8A4120010
:1016080000010001D45100010001D625D96E000166
:101618000001D55100010001D721DA6E000EDF6EFE
:10162800120000010001D0C0D6F000010001CFC0B7
:10163800D5F000010001CEC0D4F000010001CDC0FA
:10164800D3F012D0D5C0D9FFD6C0DAFFD3C0E1FF9E
:10165800D4C0E2FFDFCFE7FF00010001D54BD62B56
:1016680000010001D34BD42B00010001D107D8A001
:10167800D2070001D129D8B4D229D8B41200E2D7B0
:101688004F6601D01200D2EC0CF032503110D8A4C1
:101698001200D1EC0DF030502F10D8B41200010117
:1016A800010E306E01016C0E2F6E4DEC0DF000092D
:1016B800D8A412000001000E306E0001800E2F6EBB
:1016C8004DEC0DF00009D8B4DBEC0DF01200F2ACD3
:1016D80008D0000E00010001D06F000E0001CF6F8E
:1016E8001200ADEC0DF000010001CE510001CD114A
:1016F800D8B408D0000E00010001D06F000E000120
:10170800CF6F1200000E00010001D06F010E000122
:10171800CF6F12006BEC0BF000010001D0510001FB
:10172800CF11D8A411D0ADEC0DF000010001CE51BD
:101738000001CD11D8A408D0000E00010001D26F1D
:10174800010E0001D16F1200000E00010001D26FDE
:10175800000E0001D16F1200E8CFA6F10001000EC3
:1017680000010001D86F0001800E00010001D76F51
:10177800A6C1D9F001010001A3C1DBF001010001FC
:10178800A2C1DAF001010001A5C1DDF001010001EB
:10179800A4C1DCF008EC05F01200E8CFA6F10101C5
:1017A800010E00010001D86F01016C0E000100015B
:1017B800D76FA6C1D9F001010001A3C1DBF0010177
:1017C8000001A2C1DAF001010001A5C1DDF00101AB
:1017D8000001A4C1DCF008EC05F0120004C00AF016
:1017E80003C009F002C008F001C007F00ED009C01C
:1017F800D9FF0AC0DAFF07C0E1FF08C0E2FFDFCF68
:10180800E7FF094A0A2A074A082A0506D8A0060651
:101818000528D8B40628D8B41200E9D732C038F061
:1018280031C037F030C036F02FC035F00ED037C099
:10183800D9FF38C0DAFF35C0E1FF36C0E2FFDFCF9D
:10184800E7FF374A382A354A362A3306D8A03406FD
:101858003328D8B43428D8B41200E9D701EE00F000
:10186800A20EEE6AE806FDE100EE80F0360EEE6AA2
:10187800E806FDE1506A4F6ABC0EF66E1B0EF76E65
:10188800000EF86E0900F5CFE7F00900F5CFE8F093
:10189800000EF86E00014EEF03F0E8CFCDF0000126
:1018A8000001CD517E0BCD6E00010001CDAD02D0FF
:1018B800CD8E01D0CD9E000ECF6E000ECE6E9E90C6
:1018C80000010001CDAF02D09D8001D09D90CD8058
:1018D8001200E8CFE3F00001000E00010001D86F0C
:1018E8000001800E00010001D76FE3C0D9F0A2C14A
:1018F800DAF001010001A4C1DCF001010001A3C17B
:10190800DBF0B4EC06F01200000120EE35F0000127
:10191800CD51D9260001CE51DA22DF500001CF6F18
:101928000001CF510D0DF35000010001CD25D96EF6
:10193800F45000010001CE21DA6EDF501200B6EC3F
:101948000DF001C01CF002C01DF01B6E0B0E176ECF
:101958001B50000E196E000E186E000E27EC0DF0CD
:10196800000E026E000E016EBFEC0DF01200ACA26C
:10197800FED7CEC0D9FFCFC0DAFFDF5088EC0DF01C
:101988000001CEC0D9FF0001CFC0DAFF000100017D
:10199800CE4BCF2BDF50D8B41200E9D7F2AC05D02C
:1019A800000E326E000E316E1200D1EC0DF0305088
:1019B8002F10D8B405D0000E326E000E316E120012
:1019C800000E326E010E316E1200E8CFCDF000012C
:1019D8000001CD517F0BD56E000ED76E000ED66E6E
:1019E800F29400010001CDAF02D0F28A01D0F29A40
:1019F800D58E1200E8CF4BF00101010E3A6E0101BD
:101A0800000E396E4BC03BF048C03DF047C03CF07B
:101A18004AC03FF049C03EF036EC07F01200E8CF6C
:101A2800CDF094869488CDC0C8FF000EC76E000E16
:101A3800C66E000EC56E0E0EC612C78E94869488AA
:101A4800C580C68A1200E8CF1AF00001000E0C6E9D
:101A58000001800E0B6E1AC00DF017C00EF019C0F1
:101A680010F018C00FF003EC08F01200E8CF48F0AF
:101A78000101010E3A6E01016C0E396E48C03BF04F
:101A880045C03CF047C03EF046C03DF058EC08F079
:101A9800120020EE35F02F50D9263050DA22DF50D0
:101AA800316E31500D0DF3502F24D96EF450302083
:101AB800DA6EDF5012000001CEC04EF00001CDC03A
:101AC8004DF020EE04F04D50D9264E50DA22000E8B
:101AD800DF6E1200F20E5016ABAC03D05090ABB0D4
:101AE8005080ABB45084ABB25086AECF01F00150F9
:101AF8001200E8CFCDF0FA0E00F0E82EFDD7000175
:101B08000001CD2FF8D71200E8CFCDF0ACAC03D050
:101B1800AC9050B2AC80CDC0ADFF1200CECFCFF0AC
:101B2800CFCFD0F0CFC0CDF0D0C0CEF012000001A2
:101B38000001D4C0D6F000010001D3C0D5F01200D6
:101B4800CDC0D9FFCEC0DAFF000EDE6E000EDD6E0E
:101B58001200000EF2AE010E00010001CD6F00016F
:101B6800CE6B1200CECF03F0CFCF04F003C001F04C
:101B780004C002F0120001C003F002C004F004C067
:101B8800CFFF03C0CEFF12002FC031F030C032F0BB
:101B980032C0D7FF31C0D6FF1200000EF2AE010EE0
:101BA8002F6E306A1200D08EF28EF28C1200D38E15
:061BB80003001200C84802
:067FF80080F4C5FFFFF15B
:00000001FF
