:0400000061EF00F0BC
:0C000800FACFA5F0FBCFA6F0BBEF0BF089
:10001800D8CF2BF0E8CF2CF0E0CF2DF0FACF2EF090
:10002800FBCF2FF0E9CF30F0EACF31F0E1CF32F05B
:10003800E2CF33F0D9CF34F0DACF35F0F3CF36F062
:10004800F4CF37F0F6CF38F0F7CF39F0F8CF3AF0F1
:10005800F5CF3BF09EA003D09E900CEC0FF09EAA2B
:1000680003D09E9A9AEC0AF09EB89DA803D0EBECB8
:1000780009F09E983BC0F5FF3AC0F8FF39C0F7FF7A
:1000880038C0F6FF37C0F4FF36C0F3FF35C0DAFFDB
:1000980034C0D9FF33C0E2FF32C0E1FF31C0EAFF0C
:1000A80030C0E9FF2FC0FBFF2EC0FAFF2DC0E0FFD4
:1000B8002CC0E8FF2BC0D8FF100024EF0FF0000180
:1000C8009A6F000E00010001A46F00019A5100010F
:1000D8009A6F000E000100019F6F00019A51000104
:1000E8009A6F000E00010001A36F00019A510001F0
:1000F8009A6F000E00010001A26F00019A510001E1
:100108009A6F000E00010001A06F00019A51C6AC61
:1001180029D0C69C000120EE0CF00001CB51D92655
:100128000001CC51DA22050EDF6E00019A6F010E34
:1001380000010001A06F00019A51000120EE0EF0AD
:100148000001CB51D9260001CC51DA22DF2A000167
:1001580020EE0DF00001CB51D9260001CC51DA2256
:10016800040EDF6EC7A00AD0C9CFA1F000019A6FB4
:10017800010E00010001A46F00019A510001000165
:10018800A067CED1B7D1C7A6CBD100010001A45139
:1001980085EC09F0000120EE0CF00001CB51D926C6
:1001A8000001CC51DA22080EDF62BAD100019A6F41
:1001B800000E00010001A46F00019A5100019A6F1E
:1001C800010E00010001A26F87D1C7A830D000013D
:1001D80020EE0BF00001CB51D9260001CC51DA22D8
:1001E800DF2A00010001A451D8B479D1C7BA09D0D7
:1001F80000019A6F010E00010001A36F00019A51DE
:100208006ED1000120EE0EF00001CB51D92600017D
:10021800CC51DA22DF2A000120EE0DF00001CB518B
:10022800D9260001CC51DA22060EDF6E58D1000122
:100238000001A451D8B474D1000120EE0BF00001E4
:10024800CB51D9260001CC51DA22DF2AC7BA19D0FE
:10025800C7B40BD0000120EE0CF00001CB51D92619
:100268000001CC51DA22070E76D0000120EE0CF006
:100278000001CB51D9260001CC51DA22080EDF6EDD
:100288001DD1000120EE0EF00001CB51D92600014E
:10029800CC51DA22DF2A000120EE0CF00001CB510C
:1002A800D9260001CC51DA22050EDF6E000120EEBE
:1002B8000DF00001CB51D9260001CC51DA22060EEF
:1002C8004AD0000120EE1AF00001CB51D9260001D6
:1002D800CC51DA22DF5000019A6F000120EE19F0AC
:1002E8000001CB51D9260001CC51DA22DF500001A0
:1002F8009A5DD8B0F4D0000120EE1AF00001CB517D
:10030800D9260001CC51DA22DF5000019A6F000192
:100318009A51010D0F0EF326000EF422F35000013E
:100328000001CB25D96EF45000010001CC21DA6E12
:10033800DF50C96E000120EE1AF00001CB51D9261A
:100348000001CC51DA22DF2A00019A6F010E000168
:1003580000019F6FC1D0DF6EE3D0C7A862D0000153
:1003680020EE0BF00001CB51D9260001CC51DA2246
:10037800DF2A00010001A451D8B44AD0C7AA27D067
:10038800000120EE0AF00001CB51D9260001CC5122
:10039800DA22DF5000019A6F00019A51010DF350E3
:1003A80000010001CB25D96EF45000010001CC21D9
:1003B800DA6E0001A1C0DFFF000120EE0AF00001A3
:1003C800CB51D9260001CC51DA22DF2A21D00001F5
:1003D80020EE0EF00001CB51D9260001CC51DA22D3
:1003E800DF2A000120EE0DF00001CB51D9260001D3
:1003F800CC51DA22060EDF6E000120EE0CF000016F
:10040800CB51D9260001CC51DA22050EDF6E67D018
:1004180000019A6F010E00010001A36F00019A51BB
:100428005ED000010001A451D8B47AD0000120EEBA
:100438000BF00001CB51D9260001CC51DA22DF2A7A
:10044800C7AA27D0000120EE0AF00001CB51D92617
:100458000001CC51DA22DF5000019A6F00019A5155
:10046800010DF35000010001CB25D96EF4500001B5
:100478000001CC21DA6E0001A1C0DFFF000120EEEF
:100488000AF00001CB51D9260001CC51DA22DF2A2B
:1004980047D0C7A4B6D6000120EE0CF00001CB511E
:1004A800D9260001CC51DA22080EDF6E00019A6FBE
:1004B800010E00010001A36F00019A5100019A6F1B
:1004C800010E00010001A26F00019A5100019A6F0C
:1004D800000E00010001A46F00019A5121D0000113
:1004E80020EE0CF00001CB51D9260001CC51DA22C4
:1004F800050E31D7000120EE0CF00001CB51D926B2
:100508000001CC51DA22DF50050AD8B43CD6030AE0
:10051800D8B45BD6010AD8B420D70F0AD8B4D1D63C
:1005280000010001A46705D0000100019F51D8B463
:1005380002D0C6A8C688000120EE0AF00001CB51FF
:10054800D9260001CC51DA22080EDF6424D000013C
:100558000001A36720D0000120EE0CF00001CB5170
:10056800D9260001CC51DA22050EDF6E000120EEFB
:100578000EF00001CB51D9260001CC51DA22DF2A36
:10058800000120EE0DF00001CB51D9260001CC511D
:10059800DA22070EDF6E00010001A351D8B448D05B
:1005A800000120EE0BF00001CB51D9260001CC51FF
:1005B800DA22000110EE0AF00001CB51E126000119
:1005C800CC51E222E75000019A6F00019A51010DC7
:1005D800F35000010001CB25E16EF4500001000149
:1005E800CC21E26EDFCFE7FF00019A6F280E0001F1
:1005F8000001966F00019A5100010001CCC098F0EB
:1006080000010001CBC097F0000120EE0AF00001C4
:10061800CB51D9260001CC51DA22DF5000019B6F63
:1006280000019B29D6EC0EF0000120EE0AF04BD019
:10063800000120EE0EF00001CB51D9260001CC516B
:10064800DA22DF50D8B447D0000120EE0EF00001C6
:10065800CB51D9260001CC51DA22DF50000100012C
:100668009C6F000120EE0DF00001CB51D92600014E
:10067800CC51DA22DF50000100019D6F000120EE0D
:100688000BF00001CB51D9260001CC51DA22DF5002
:10069800000100019E6F00019A6F290E0001000100
:1006A800966F00019A510001000E00010001986F39
:1006B80000019C0E00010001976F030ED6EC0EF0AE
:1006C800000120EE0EF00001CB51D9260001CC51DB
:1006D800DA22000EDF6E00010001A251D8B4120028
:1006E80000019A6F2A0E00010001966F00019A51CD
:1006F80000010001CCC098F000010001CBC097F0C8
:10070800000ED6EC0EF000019A6F000E00010001F9
:10071800A26F00019A511200820ED36E9B9C0101B8
:10072800010E00010001B46F0101230E0001000158
:10073800B36F89EC0FF00101010E00010001B46FE5
:100748000101AC0E00010001B36FABEC0CF001012C
:10075800010E00010001B46F0101280E0001000123
:10076800B36F71EC0DF00201020E00010001B46FCD
:100778000201000E00010001B36FF8EC0FF076ECF7
:100788000CF0000E936E000E8A6E000E806E000E46
:10079800896E0F0EC16E070EB46E000E926E960E25
:1007A8003BEC0FF0F50E84EC0EF00101126FFC0E1D
:1007B80001010101226F010112510101126F4D0E59
:1007C80001010101216F010112510101000121C143
:1007D800B3F000010001B46B010101012251E8EC02
:1007E8000AF09F909F9A9F989F869E0E50EC0FF05C
:1007F8009D86F1EC0FF039EC0CF00101010E0101BE
:100808000101016F0101AA0E01010101006F01013F
:10081800010E01010101036F0101150E0101010122
:10082800026F0A0E03EC0EF001010101AB6F01012A
:100838000101ABBF8DD07DD00101010E0001000187
:10084800B46F0101130E00010001B36F0101000133
:10085800AAC1B5F000010001B66B01010101AB515D
:1008680000010001B76F0001B86B0001B7BFB807FE
:100878000101010E00010001BA6F0101150E00010E
:100888000001B96FBBEC0FF063D015C120F160D047
:100898000101126F020E01010101AB6F010112513A
:1008A8000101126F550E01010101156F010112516D
:1008B8000101126FAA0E01010101166F0CD001018E
:1008C800126F010E01010101AB6F0101125101010B
:1008D800126F3A0E0ED0010112511BD00101126F96
:1008E800010E01010101AB6F010112510101126FEB
:1008F800A30E01010101156FEED70101010120517D
:10090800A80AD8B4DCD7010AD8B4E8D7030AD8B4FF
:10091800BFD70101010E00010001B46F0101150EDE
:1009280000010001B36F01010101AB5125EC07F093
:100938000FD001010101AA510A0AD8B47DD7220AB1
:10094800D8B4A3D7010AD8B4A0D7030AD8B4D5D746
:100958000101010E01010101016F0101AA0E01014E
:100968000101006F0101010E01010101036F010185
:10097800150E01010101026F0A0E65EC0EF001016E
:100988000101AB6F01010101ABBF35D752D00101A5
:10099800010E00010001BA6F0101280E00010001DB
:1009A800B96F01010001AAC1BBF000010001BC6BD5
:1009B80001010101AB5100010001BD6F0001BE6BD7
:1009C8000001BDBFBE070101010E00010001C06F9B
:1009D8000101150E00010001BF6F2DEC05F00BD7CA
:1009E8000201020E01010101046F0201000E010162
:1009F8000101036F01010101AAC105F10101010112
:100A0800066B01010101AB5101010101076F0101F1
:100A1800086B010107BF08070101010E010101016F
:100A28000A6F0101150E01010101096FB0EC08F010
:100A3800E2D601010101AA510B0AD8B4A8D7150AB8
:100A4800D8B4CED7010AD8B4CBD73F0AD8B4C8D7C0
:100A5800D2D6000E01010101086F000E0101076FD7
:100A6800B9C0D9FFBAC0DAFFDE2A000EDD22B9C04C
:100A7800D9FFBAC0DAFF0001DECFB3F00001DDCF45
:100A8800B4F0000E00010001B66F060E0001B56F4C
:100A980031EC0BF000010001B351050A0001B4115B
:100AA800D8A41200B2EC0FF000010001B3B106D0D7
:100AB800000E01010101086F000E05D0000E0101B2
:100AC8000101086F010E0101076F2DD0000120EE12
:100AD80003F00001B951D9260001BA51DA22000EFB
:100AE800DF6E000120EE04F00001B951D9260001A3
:100AF800BA51DA22000E15D0000120EE03F00001F1
:100B0800B951D9260001BA51DA22C80EDF6E0001A8
:100B180020EE04F00001B951D9260001BA51DA22B9
:100B28004B0EDF6E13D0010107C1C1F0010108C1EE
:100B3800C2F00001C251000AD8A408D00001C15176
:100B4800000AD8B4C3D7010AD8B4D6D7000120EE1A
:100B580002F00001B951D9260001BA51DA22020E79
:100B6800DF6E000120EE02F00001B951D926000124
:100B7800BA51DA22DF500001C16F0001C1510101F1
:100B88000101006F0101016B000120EE03F000017B
:100B9800B951D9260001BA51DA22DF500001C16FDC
:100BA8000001C15101010101026F0101036B000144
:100BB80020EE04F00001B951D9260001BA51DA2219
:100BC800DF500001C16F0001C15101010101046F33
:100BD8000101056B1200000120EE35F00001BD5146
:100BE800D9260001BE51DA22DF5000010001C66F8C
:100BF80000010001C6510D0DF35000010001BD2593
:100C080000010001C96FF45000010001BE2100017C
:100C1800CA6F010EC9C0D9FFCAC0DAFFDF6274D03B
:100C2800000120EE01F00001C951D9260001CA5186
:100C3800DA22DF5000010001BF5DD8B002D0FD0EFE
:100C48001200000120EE01F00001C951D92600016F
:100C5800CA51DA22DF500001C46F0001C4510001FB
:100C68000001C76F0001C86B00010001C3C0B4F0E8
:100C780000010001C2C0B3F0030E00010001C92544
:100C88000001C46F000E00010001CA210001C56FF8
:100C9800C4C0B5F0C5C0B6F0C7C0B7F0C8C0B8F09A
:100CA80013EC0DF0000120EE35F00001BD51D926FE
:100CB8000001BE51DA22000110EE35F00001BD51ED
:100CC800E1260001BE51E222E7500001C46F000195
:100CD800C429030BDF6E000120EE02F00001C951A8
:100CE800D9260001CA51DA22C0C0E1FFC1C0E2FF23
:100CF800DFCFE7FFC9C0D9FFCAC0DAFF000EDF6E39
:100D080000010001C7511200FC0E1200000120EE84
:100D180035F000018A51D92600018B51DA22DF50C3
:100D280000010001936F0001000193510D0DF35074
:100D3800000100018A2500010001966FF4500001AE
:100D480000018B210001976F010E96C0D9FF97C053
:100D5800DAFFDF6274D0000120EE01F00001965145
:100D6800D92600019751DA22DF50000100018C5D7D
:100D7800D8B002D0FD0E1200000120EE01F00001F3
:100D88009651D92600019751DA22DF500001916F60
:100D98000001915100010001946F0001956B000161
:100DA800000190C081F0000100018FC080F0030EA7
:100DB8000001000196250001916F000E000100015D
:100DC80097210001926F91C082F092C083F094C085
:100DD80084F095C085F042EC0DF0000120EE35F06E
:100DE80000018A51D92600018B51DA22000110EE48
:100DF80035F000018A51E12600018B51E222E750CB
:100E08000001916F00019129030BDF6E000120EEB4
:100E180002F000019651D92600019751DA228DC0BF
:100E2800E1FF8EC0E2FFDFCFE7FF96C0D9FF97C092
:100E3800DAFF000EDF6E0001000194511200FC0E73
:100E48001200E8CFB7F0000120EE19F00001CB51F5
:100E5800D9260001CC51DA22000EDF6E42D0000103
:100E680020EE19F00001CB51D9260001CC51DA222D
:100E7800DF500001B56F0001B551010DF3500001BD
:100E88000001B325D96EF45000010001B421DA6ED7
:100E9800000110EE19F00001CB51E1260001CC5100
:100EA800E222E7500001B66F0001B651010D0F0EA6
:100EB800F326000EF422F35000010001CB25E16E69
:100EC800F45000010001CC21E26EDFCFE7FF000102
:100ED80020EE19F00001CB51D9260001CC51DA22BD
:100EE800DF2A000120EE19F00001CB51D9260001BC
:100EF800CC51DA22DF500001B56F00010001B75173
:100F08000001B55DD8A0ABD7000120EE19F00001B3
:100F1800CB51D9260001CC51DA220001B7C0DFFF3E
:100F2800000120EE1AF00001CB51D9260001CC5166
:100F3800DA22010EDF6E000120EE0FF00001CB5126
:100F4800D9260001CC51DA22DF50C96EC6881200BA
:100F580000010001BFC0C4F000010001C56B000121
:100F680020EE34F00001BD51D9260001BE51DA222D
:100F7800DF5000010001C66F00010001C6510D0DD0
:100F8800F35000010001BD2500010001C76FF450B6
:100F980000010001BE210001C86FC7C0D9FFC8C049
:100FA800DAFFDF50D8B402D0FF0E1200000120EEA5
:100FB80001F00001C751D9260001C851DA22000109
:100FC800BFC0DFFF000120EE02F00001C751D926A3
:100FD8000001C851DA220001C0C0DFFF030E000182
:100FE8000001C72500010001B36F000E00010001D8
:100FF800C8210001B46F00010001C2C0B6F00001B1
:101008000001C1C0B5F0C4C0B7F0C5C0B8F013EC5A
:101018000DF0000120EE34F00001BD51D926000189
:10102800BE51DA22000110EE34F00001BD51E12674
:101038000001BE51E222E7500001C36F0001C3293D
:10104800030BDF6EC7C0D9FFC8C0DAFF010EDF6E21
:10105800010E1200000100018CC091F00001000196
:10106800926B000120EE34F000018A51D92600016C
:101078008B51DA22DF5000010001936F000100015B
:1010880093510D0DF350000100018A250001000164
:10109800946FF450000100018B210001956F94C0FA
:1010A800D9FF95C0DAFFDF50D8B402D0FF0E120086
:1010B800000120EE01F000019451D926000195515C
:1010C800DA2200018CC0DFFF000120EE02F00001EF
:1010D8009451D92600019551DA2200018DC0DFFF15
:1010E800030E00010001942500010001806F000E2D
:1010F8000001000195210001816F000100018FC0EE
:1011080083F0000100018EC082F091C084F092C08B
:1011180085F042EC0DF0000120EE34F000018A5118
:10112800D92600018B51DA22000110EE34F00001BB
:101138008A51E12600018B51E222E7500001906FAD
:1011480000019029030BDF6E94C0D9FF95C0DAFF28
:10115800010EDF6E010E12000101010105511E0A88
:101168000611D8B412000101010105511F0A061128
:10117800D8A446D003C1D9FF04C1DAFFDF5000016B
:10118800CA6F0001CA51010101010B6F01010C6B0B
:10119800010120EE01F001010351D926010104519A
:1011A800DA22DF500001CA6F0001CA5101010101B2
:1011B8000D6F01010E6B010120EE02F001010351D8
:1011C800D92601010451DA22DF500001CA6F00015B
:1011D800CA51010101010F6F0101106B05C100F136
:1011E800010101010AC102F10101010109C101F175
:1011F800800EA0EC0EF001010101116F9D88120014
:10120800010101010551200A0611D8A412000101AB
:1012180001010751010101010925D96E01010101EF
:101228000851010101010A21DA6E000EDF6E120079
:1012380020EE35F00B50D9260C50DA22DF50146E10
:1012480014500D0DF3500B24176EF4500C20186E2B
:10125800010E17C0D9FF18C0DAFFDF6250D020EEA8
:1012680001F01750D9261850DA22DF500D5CD8B09B
:1012780002D0FD0E120020EE01F01750D9261850AA
:10128800DA22DF50126E1250156E166A11C002F083
:1012980010C001F0030E1724126E000E1820136EF2
:1012A80012C003F013C004F015C005F016C006F014
:1012B80045EC0EF020EE35F00B50D9260C50DA2212
:1012C80010EE35F00B50E1260C50E222E750126E7A
:1012D8001228030BDF6E20EE02F01750D9261850A3
:1012E800DA220EC0E1FF0FC0E2FFDFCFE7FF17C031
:1012F800D9FF18C0DAFF000EDF6E15501200FC0E81
:101308001200E8CF80F0000120EE0BF00001CB5175
:10131800D9260001CC51DA22010EDF6E000120EE41
:101328000AF00001CB51D9260001CC51DA22000E77
:10133800DF6E000100018051D8B43DD0C7AA21D08A
:10134800000120EE0CF00001CB51D9260001CC5150
:10135800DA22050EDF6E000120EE0EF00001CB51FF
:10136800D9260001CC51DA22DF2A000120EE0DF047
:101378000001CB51D9260001CC51DA22050EDF6ECF
:101388001200C7A40CD0000120EE0CF00001CB51D4
:10139800D9260001CC51DA22080EDF6E12000001B6
:1013A80020EE0CF00001CB51D9260001CC51DA22F5
:1013B800070EDF6E1200000120EE0CF00001CB5189
:1013C800D9260001CC51DA22060EDF6E1200000E7B
:1013D8002A6E000E296E000E1A6E280E196E2AC08B
:1013E8001CF029C01BF00A0E64EC0FF0266E29C011
:1013F800D9FF2AC0DAFFDF501E6E1E501F6E206A0A
:1014080020EE01F02950D9262A50DA22DF501E6E2C
:101418001E50216E226A20EE02F02950D9262A5049
:10142800DA22DF501E6E1E50236E246A26AE09D0C3
:101438002650FC0AD8B402D0510E01D0580EAD6E19
:101448001ED01E6E010E276E1E5029C0D9FF2AC05D
:10145800DAFFDF501E6E1E28256E0DD0ACA2FED717
:101468002750010DF3502924D96EF4502A20DA6E42
:10147800DF50AD6E272A2550275CD8A0EFD79D985E
:1014880012000DC012F0136A20EE34F00B50D9266A
:101498000C50DA22DF50146E14500D0DF3500B244B
:1014A800156EF4500C20166E15C0D9FF16C0DAFF61
:1014B800DF50D8B402D0FF0E120020EE01F0155014
:1014C800D9261650DA220DC0DFFF20EE02F01550A3
:1014D800D9261650DA220EC0DFFF030E1524016E3E
:1014E800000E1620026E10C004F00FC003F012C0E8
:1014F80005F013C006F045EC0EF020EE34F00B506A
:10150800D9260C50DA2210EE34F00B50E1260C509C
:10151800E222E750116E1128030BDF6E15C0D9FFC8
:1015280016C0DAFF010EDF6E010E12009EAA3CD033
:1015380020EE04F07450D9267550DA22DF501B6E65
:101548001B50010DF3507424D96EF4507520DA6ED7
:1015580098EC0FF0DF6E20EE04F07450D926755029
:10156800DA22DF2A20EE04F07450D9267550DA22E8
:10157800040EDF6219D01B6E200E176E1B5075C04B
:1015880019F074C018F020EE04F07450D926755084
:10159800DA22DF5078EC0FF020EE04F07450D926F0
:1015A8007550DA22000EDF6E3DA61200AB98AB88AC
:1015B8001B6E1E0E176E1B50000E196E000E186E55
:1015C800000E78EC0FF01200E8CFB8F0000EAC6E09
:1015D800000EAB6E00010001B8B1AC88000100013B
:1015E800B8A302D0AC8CAB8C00010001B8B5AC8EAE
:1015F80000010001B8A702D0AB8801D0AB8A000176
:101608000001B8B9AC849E9800010001B8BBAB8654
:1016180000010001B8AD02D09D8A01D09D9A9E9A22
:1016280000010001B8AF02D09D8801D09D98B3C0D9
:10163800AFFF0001B4C0B5F0B5C0B6F00001B76B9C
:101648000001B651B06EAC8AAB8E949C948EACA857
:101658001200ACBE1200948C120000010001B651B9
:10166800B511D8B43AD00001B76F010E00010001DE
:10167800B86F0001B75109D0000100010001D890EE
:10168800B537B63700010001B82B00010001B6AF2D
:10169800F3D700010001B55100010001B35D00015D
:1016A8000001B65100010001B459D8A00CD00001C6
:1016B8000001B55100010001B35F00010001B651FE
:1016C80000010001B45B000100010001D890B633AD
:1016D800B53300010001B82FDCD7B3C0B3F0B4C0F4
:1016E800B4F01200000E00010001816F000E00012D
:1016F800806FDFEC0FF00001000E00010001996F10
:101708000001A00E00010001986F0001000E000109
:1017180000019B6F0001A20E000100019A6F020EEA
:1017280024EC0EF0000100019E6F00019F6B000188
:101738009EBF9F07000100019E51020A9F11D8A475
:10174800120000019D6F0A0E00010001966F000152
:101758009D510001000E00010001986F0001A20ECA
:1017680000010001976F020ED6EC0EF01200E9CFCF
:10177800A7F0EACFA8F0E1CFA9F0E2CFAAF0D9CF3D
:10178800ABF0DACFACF0F3CFADF0F4CFAEF0F6CFEC
:10179800AFF0F7CFB0F0F8CFB1F0F5CFB2F09EA62A
:1017A80003D09E9663EC00F0F2A403D0F29476EC9A
:1017B8000BF0E0EC0CF0B2C0F5FFB1C0F8FFB0C020
:1017C800F7FFAFC0F6FFAEC0F4FFADC0F3FFACC08B
:1017D800DAFFABC0D9FFAAC0E2FFA9C0E1FFA8C0E9
:1017E800EAFFA7C0E9FFA6C0FBFFA5C0FAFF1100EA
:1017F800000120EE34F00001B351D9260001B451A4
:10180800DA22000EDF6E000120EE35F00001B35140
:10181800D9260001B451DA22000EDF6E0001B56F3F
:10182800000E00010001B66F0001B551030E000162
:101838000001B66501D0120000010001B6510D0D7E
:10184800F35000010001B325D96EF45000010001E6
:10185800B421DA6E000EDF6E00010001B62B030E14
:1018680000010001B665E8D71200E1EC0DF00001B7
:101878000001B8510001B711D8B412000001B96FC6
:10188800010E3C6E0001B9510101010E0001000179
:10189800B46F0101C80E00010001B36FBBEC0EF07C
:1018A8000009D8B407D00001B96F000E3C6E0001E2
:1018B800B9511200000E00010001B46F3E0E000184
:1018C8000001B36FBBEC0EF00009D8B407D00001DB
:1018D800B96F000E3C6E0001B95112000A0EA7EC58
:1018E8000FF0D2D70001B76F000E3C6E0001B75160
:1018F800000E00010001B46F3E0E00010001B36F3D
:10190800FCEC0BF00101010E00010001B46F0101B4
:10191800C80E00010001B36FFCEC0BF00201020ECF
:1019280000010001B46F0201B60E00010001B36F9F
:10193800FCEC0BF00201020E00010001B46F020181
:10194800800E00010001B36FFCEC0BF012000001E7
:101958000001B4C0CCF000010001B3C0CBF000011D
:1019680020EE0AF00001CB51D9260001CC51DA2231
:10197800000EDF6E000120EE0BF00001CB51D926DE
:101988000001CC51DA22000EDF6E000120EE0CF0CF
:101998000001CB51D9260001CC51DA22050EDF6EA9
:1019A800000120EE0EF00001CB51D9260001CC51E8
:1019B800DA22000EDF6E12003C6601D01200BEEC87
:1019C8000DF000010001835100018211D8A412001A
:1019D800E8EC0FF000010001815100018011D8B43A
:1019E80012000101010E00010001816F0101C80E02
:1019F80000010001806FF1EC0EF00009D8A412007C
:101A0800000E00010001816F3E0E00010001806F91
:101A1800F1EC0EF00009D8B4F5EC0FF0120000015B
:101A28000001B6C0BCF000010001B5C0BBF0000168
:101A38000001B4C0BAF000010001B3C0B9F012D07F
:101A4800BBC0D9FFBCC0DAFFB9C0E1FFBAC0E2FF32
:101A5800DFCFE7FF00010001BB4BBC2B00010001F9
:101A6800B94BBA2B00010001B707D8A0B80700018D
:101A7800B729D8B4B829D8B41200E2D700010001B8
:101A880083C089F00001000182C088F000010001D4
:101A980081C087F00001000180C086F012D088C0A4
:101AA800D9FF89C0DAFF86C0E1FF87C0E2FFDFCF38
:101AB800E7FF00010001884B892B00010001864BDC
:101AC800872B000100018407D8A08507000184291D
:101AD800D8B48529D8B41200E2D7B3C0D9FFB4C0AE
:101AE800DAFF000EDE6E000EDD6E000120EE02F061
:101AF8000001B351D9260001B451DA22020EDF6E7B
:101B0800000120EE03F00001B351D9260001B451C1
:101B1800DA22C80EDF6E000120EE04F00001B35196
:101B2800D9260001B451DA224B0EDF6E1200F2AC56
:101B380008D0000E00010001B66F000E0001B56F5D
:101B48001200C4EC0FF000010001B4510001B31100
:101B5800D8B408D0000E00010001B66F000E0001D5
:101B6800B56F1200000E00010001B66F010E0001F2
:101B7800B56F1200F2AC08D0000E00010001836FAF
:101B8800000E0001826F1200E8EC0FF00001000166
:101B9800815100018011D8B408D0000E0001000165
:101BA800836F000E0001826F1200000E0001000119
:101BB800836F010E0001826F12009BEC0DF0000193
:101BC8000001B6510001B511D8A411D0C4EC0FF032
:101BD80000010001B4510001B311D8A408D0000ECF
:101BE80000010001B86F010E0001B76F1200000E6E
:101BF80000010001B86F000E0001B76F1200E8CFB6
:101C080004F10101010E00010001BE6F0101C80EBF
:101C180000010001BD6F04C1BFF00101000101C155
:101C2800C1F00101000100C1C0F00101000103C1C0
:101C3800C3F00101000102C1C2F0EFEC05F012008F
:101C4800E8CF9CF00201020E000100018B6F020137
:101C5800800E000100018A6F9CC08CF00001000119
:101C680099C08EF00001000198C08DF000010001BC
:101C78009BC090F0000100019AC08FF08AEC06F03A
:101C8800120004C00AF003C009F002C008F001C045
:101C980007F00ED009C0D9FF0AC0DAFF07C0E1FF7C
:101CA80008C0E2FFDFCFE7FF094A0A2A074A082AE5
:101CB8000506D8A006060528D8B40628D8B4120008
:101CC800E9D7E8CF04F1000E00010001BE6F3E0E17
:101CD80000010001BD6F04C1BFF00101000101C195
:101CE800C1F00101000100C1C0F00101000103C100
:101CF800C3F00101000102C1C2F0EFEC05F01200CF
:101D0800E8CFB3F000010001B3517E0BCD6E0001A6
:101D18000001B3AD02D0CD8E01D0CD9E000ECF6EA6
:101D2800000ECE6E9E9000010001B3AF02D09D80E0
:101D380001D09D90CD801200E8CFC9F00201020EBB
:101D480000010001BE6F0201B60E00010001BD6F67
:101D5800C9C0BFF000C1C0F00101000102C1C2F05A
:101D68000101000101C1C1F0ACEC07F01200000153
:101D780020EE35F00001B351D9260001B451DA2222
:101D8800DF500001B56F0001B5510D0DF350000192
:101D98000001B325D96EF45000010001B421DA6EB8
:101DA800DF501200E8CF99F00101010E0001000197
:101DB8008B6F0101C80E000100018A6F99C08CF079
:101DC80096C08DF00001000198C08FF0000100015D
:101DD80097C08EF02EEC08F01200000120EE35F0CE
:101DE80000018051D92600018151DA22DF5000011B
:101DF800826F000182510D0DF35000010001802512
:101E0800D96EF450000100018121DA6EDF50120012
:101E1800CDEC0FF001C01CF002C01DF01B6E0B0EC4
:101E2800176E1B50000E196E000E186E000E78EC1F
:101E38000FF0000E026E000E016ED6EC0FF01200CD
:101E480002EE80F06C0EEE6AE806FDE101EEC8F0E5
:101E5800360EEE6AE806FDE100EE3CF0380EEE6A5A
:101E6800E806FDE1000EF86E000190EF03F0E8CF00
:101E7800B3F000010001B3517F0BD56E000ED76E91
:101E8800000ED66EF29400010001B3AF02D0F28AC0
:101E980001D0F29AD58E1200E8CFB3F094869488D8
:101EA800B3C0C8FF000EC76E000EC66E000EC56E2A
:101EB8000E0EC612C78E94869488C580C68A1200F4
:101EC800E8CF1DF00201020E0C6E0201B60E0B6E79
:101ED8001DC00DF01AC00FF019C00EF0116A1BC01A
:101EE80010F01CEC09F01200E8CF1AF0000E0C6E8E
:101EF8003E0E0B6E1AC00DF017C00EF019C010F090
:101F080018C00FF045EC0AF012000001B4C075F0DB
:101F18000001B3C074F020EE04F07450D926755057
:101F2800DA22000EDF6E1200F20E3D16ABAC03D0C3
:101F38003D90ABB03D80ABB43D84ABB23D86AECFF7
:101F480001F001501200E8CFB3F0FA0E00F0E82ECD
:101F5800FDD700010001B32FF8D71200CECFB5F09E
:101F6800CFCFB6F0B5C0B3F0B6C0B4F012000001E0
:101F78000001BAC0BCF000010001B9C0BBF01200FA
:101F8800000EF2AE010E00010001B36F0001B46B48
:101F98001200CECF03F0CFCF04F003C001F004C08D
:101FA80002F0120001C003F002C004F004C0CFFF29
:101FB80003C0CEFF120080C082F081C083F083C0CE
:101FC800D7FF82C0D6FF1200000EF2AE010E00014C
:101FD8000001806F0001816B1200D08EF28EF28CAE
:0A1FE8001200D38E03001200120055
:067FF80080F4C5FFFFF15B
:00000001FF
